{
	"GFCPLoan.sol": {
		"GFCPLoan": {
			"abi": [
				{
					"inputs": [
						{
							"internalType": "address",
							"name": "_cCTC",
							"type": "address"
						}
					],
					"stateMutability": "nonpayable",
					"type": "constructor"
				},
				{
					"anonymous": false,
					"inputs": [
						{
							"indexed": false,
							"internalType": "address",
							"name": "to",
							"type": "address"
						},
						{
							"indexed": false,
							"internalType": "uint256",
							"name": "amount",
							"type": "uint256"
						}
					],
					"name": "AdminWithdraw",
					"type": "event"
				},
				{
					"anonymous": false,
					"inputs": [
						{
							"indexed": false,
							"internalType": "address",
							"name": "borrower",
							"type": "address"
						},
						{
							"indexed": false,
							"internalType": "uint256",
							"name": "loanId",
							"type": "uint256"
						}
					],
					"name": "LoanRepaid",
					"type": "event"
				},
				{
					"anonymous": false,
					"inputs": [
						{
							"indexed": false,
							"internalType": "address",
							"name": "borrower",
							"type": "address"
						},
						{
							"indexed": false,
							"internalType": "uint256",
							"name": "loanId",
							"type": "uint256"
						},
						{
							"indexed": false,
							"internalType": "uint256",
							"name": "amount",
							"type": "uint256"
						}
					],
					"name": "LoanRequested",
					"type": "event"
				},
				{
					"inputs": [],
					"name": "admin",
					"outputs": [
						{
							"internalType": "address",
							"name": "",
							"type": "address"
						}
					],
					"stateMutability": "view",
					"type": "function"
				},
				{
					"inputs": [
						{
							"internalType": "uint256",
							"name": "amount",
							"type": "uint256"
						}
					],
					"name": "adminWithdraw",
					"outputs": [],
					"stateMutability": "nonpayable",
					"type": "function"
				},
				{
					"inputs": [],
					"name": "cCTC",
					"outputs": [
						{
							"internalType": "contract IERC20",
							"name": "",
							"type": "address"
						}
					],
					"stateMutability": "view",
					"type": "function"
				},
				{
					"inputs": [],
					"name": "getAvailablePool",
					"outputs": [
						{
							"internalType": "uint256",
							"name": "",
							"type": "uint256"
						}
					],
					"stateMutability": "view",
					"type": "function"
				},
				{
					"inputs": [
						{
							"internalType": "address",
							"name": "user",
							"type": "address"
						}
					],
					"name": "getUserLoans",
					"outputs": [
						{
							"internalType": "uint256[]",
							"name": "",
							"type": "uint256[]"
						}
					],
					"stateMutability": "view",
					"type": "function"
				},
				{
					"inputs": [],
					"name": "globalLoanLimit",
					"outputs": [
						{
							"internalType": "uint256",
							"name": "",
							"type": "uint256"
						}
					],
					"stateMutability": "view",
					"type": "function"
				},
				{
					"inputs": [],
					"name": "loanCounter",
					"outputs": [
						{
							"internalType": "uint256",
							"name": "",
							"type": "uint256"
						}
					],
					"stateMutability": "view",
					"type": "function"
				},
				{
					"inputs": [
						{
							"internalType": "uint256",
							"name": "",
							"type": "uint256"
						}
					],
					"name": "loans",
					"outputs": [
						{
							"internalType": "uint256",
							"name": "id",
							"type": "uint256"
						},
						{
							"internalType": "address",
							"name": "borrower",
							"type": "address"
						},
						{
							"internalType": "uint256",
							"name": "amount",
							"type": "uint256"
						},
						{
							"internalType": "uint256",
							"name": "timestamp",
							"type": "uint256"
						},
						{
							"internalType": "bool",
							"name": "repaid",
							"type": "bool"
						}
					],
					"stateMutability": "view",
					"type": "function"
				},
				{
					"inputs": [
						{
							"internalType": "uint256",
							"name": "loanId",
							"type": "uint256"
						}
					],
					"name": "repayLoan",
					"outputs": [],
					"stateMutability": "nonpayable",
					"type": "function"
				},
				{
					"inputs": [
						{
							"internalType": "uint256",
							"name": "amount",
							"type": "uint256"
						}
					],
					"name": "requestLoan",
					"outputs": [],
					"stateMutability": "nonpayable",
					"type": "function"
				},
				{
					"inputs": [
						{
							"internalType": "address",
							"name": "user",
							"type": "address"
						},
						{
							"internalType": "uint256",
							"name": "limit",
							"type": "uint256"
						}
					],
					"name": "setUserCreditLimit",
					"outputs": [],
					"stateMutability": "nonpayable",
					"type": "function"
				},
				{
					"inputs": [
						{
							"internalType": "address",
							"name": "",
							"type": "address"
						}
					],
					"name": "userCreditLimits",
					"outputs": [
						{
							"internalType": "uint256",
							"name": "",
							"type": "uint256"
						}
					],
					"stateMutability": "view",
					"type": "function"
				},
				{
					"inputs": [
						{
							"internalType": "address",
							"name": "",
							"type": "address"
						},
						{
							"internalType": "uint256",
							"name": "",
							"type": "uint256"
						}
					],
					"name": "userLoans",
					"outputs": [
						{
							"internalType": "uint256",
							"name": "",
							"type": "uint256"
						}
					],
					"stateMutability": "view",
					"type": "function"
				}
			],
			"devdoc": {
				"kind": "dev",
				"methods": {},
				"version": 1
			},
			"evm": {
				"assembly": "    /* \"GFCPLoan.sol\":330:3489  contract GFCPLoan {... */\n  mstore(0x40, 0x80)\n    /* \"GFCPLoan.sol\":523:536  1000 * 10**18 */\n  0x3635c9adc5dea00000\n    /* \"GFCPLoan.sol\":490:536  uint256 public globalLoanLimit = 1000 * 10**18 */\n  0x02\n  sstore\n    /* \"GFCPLoan.sol\":676:835  constructor(address _cCTC) {... */\n  callvalue\n  dup1\n  iszero\n  tag_1\n  jumpi\n  revert(0x00, 0x00)\ntag_1:\n  pop\n  mload(0x40)\n  sub(codesize, bytecodeSize)\n  dup1\n  bytecodeSize\n  dup4\n  codecopy\n  dup2\n  dup2\n  add\n  0x40\n  mstore\n  dup2\n  add\n  swap1\n  tag_2\n  swap2\n  swap1\n  tag_3\n  jump\t// in\ntag_2:\n    /* \"GFCPLoan.sol\":739:740  0 */\n  0x00\n    /* \"GFCPLoan.sol\":722:741  _cCTC != address(0) */\n  0xffffffffffffffffffffffffffffffffffffffff\n  and\n    /* \"GFCPLoan.sol\":722:727  _cCTC */\n  dup2\n    /* \"GFCPLoan.sol\":722:741  _cCTC != address(0) */\n  0xffffffffffffffffffffffffffffffffffffffff\n  and\n  sub\n    /* \"GFCPLoan.sol\":714:767  require(_cCTC != address(0), \"Invalid token address\") */\n  tag_6\n  jumpi\n  mload(0x40)\n  0x08c379a000000000000000000000000000000000000000000000000000000000\n  dup2\n  mstore\n  0x04\n  add\n  tag_7\n  swap1\n  tag_8\n  jump\t// in\ntag_7:\n  mload(0x40)\n  dup1\n  swap2\n  sub\n  swap1\n  revert\ntag_6:\n    /* \"GFCPLoan.sol\":792:797  _cCTC */\n  dup1\n    /* \"GFCPLoan.sol\":778:782  cCTC */\n  0x00\n  0x00\n    /* \"GFCPLoan.sol\":778:798  cCTC = IERC20(_cCTC) */\n  0x0100\n  exp\n  dup2\n  sload\n  dup2\n  0xffffffffffffffffffffffffffffffffffffffff\n  mul\n  not\n  and\n  swap1\n  dup4\n  0xffffffffffffffffffffffffffffffffffffffff\n  and\n  mul\n  or\n  swap1\n  sstore\n  pop\n    /* \"GFCPLoan.sol\":817:827  msg.sender */\n  caller\n    /* \"GFCPLoan.sol\":809:814  admin */\n  0x01\n  0x00\n    /* \"GFCPLoan.sol\":809:827  admin = msg.sender */\n  0x0100\n  exp\n  dup2\n  sload\n  dup2\n  0xffffffffffffffffffffffffffffffffffffffff\n  mul\n  not\n  and\n  swap1\n  dup4\n  0xffffffffffffffffffffffffffffffffffffffff\n  and\n  mul\n  or\n  swap1\n  sstore\n  pop\n    /* \"GFCPLoan.sol\":676:835  constructor(address _cCTC) {... */\n  pop\n    /* \"GFCPLoan.sol\":330:3489  contract GFCPLoan {... */\n  jump(tag_9)\n    /* \"#utility.yul\":88:205   */\ntag_11:\n    /* \"#utility.yul\":197:198   */\n  0x00\n    /* \"#utility.yul\":194:195   */\n  0x00\n    /* \"#utility.yul\":187:199   */\n  revert\n    /* \"#utility.yul\":334:460   */\ntag_13:\n    /* \"#utility.yul\":371:378   */\n  0x00\n    /* \"#utility.yul\":411:453   */\n  0xffffffffffffffffffffffffffffffffffffffff\n    /* \"#utility.yul\":404:409   */\n  dup3\n    /* \"#utility.yul\":400:454   */\n  and\n    /* \"#utility.yul\":389:454   */\n  swap1\n  pop\n    /* \"#utility.yul\":334:460   */\n  swap2\n  swap1\n  pop\n  jump\t// out\n    /* \"#utility.yul\":466:562   */\ntag_14:\n    /* \"#utility.yul\":503:510   */\n  0x00\n    /* \"#utility.yul\":532:556   */\n  tag_26\n    /* \"#utility.yul\":550:555   */\n  dup3\n    /* \"#utility.yul\":532:556   */\n  tag_13\n  jump\t// in\ntag_26:\n    /* \"#utility.yul\":521:556   */\n  swap1\n  pop\n    /* \"#utility.yul\":466:562   */\n  swap2\n  swap1\n  pop\n  jump\t// out\n    /* \"#utility.yul\":568:690   */\ntag_15:\n    /* \"#utility.yul\":641:665   */\n  tag_28\n    /* \"#utility.yul\":659:664   */\n  dup2\n    /* \"#utility.yul\":641:665   */\n  tag_14\n  jump\t// in\ntag_28:\n    /* \"#utility.yul\":634:639   */\n  dup2\n    /* \"#utility.yul\":631:666   */\n  eq\n    /* \"#utility.yul\":621:684   */\n  tag_29\n  jumpi\n    /* \"#utility.yul\":680:681   */\n  0x00\n    /* \"#utility.yul\":677:678   */\n  0x00\n    /* \"#utility.yul\":670:682   */\n  revert\n    /* \"#utility.yul\":621:684   */\ntag_29:\n    /* \"#utility.yul\":568:690   */\n  pop\n  jump\t// out\n    /* \"#utility.yul\":696:839   */\ntag_16:\n    /* \"#utility.yul\":753:758   */\n  0x00\n    /* \"#utility.yul\":784:790   */\n  dup2\n    /* \"#utility.yul\":778:791   */\n  mload\n    /* \"#utility.yul\":769:791   */\n  swap1\n  pop\n    /* \"#utility.yul\":800:833   */\n  tag_31\n    /* \"#utility.yul\":827:832   */\n  dup2\n    /* \"#utility.yul\":800:833   */\n  tag_15\n  jump\t// in\ntag_31:\n    /* \"#utility.yul\":696:839   */\n  swap3\n  swap2\n  pop\n  pop\n  jump\t// out\n    /* \"#utility.yul\":845:1196   */\ntag_3:\n    /* \"#utility.yul\":915:921   */\n  0x00\n    /* \"#utility.yul\":964:966   */\n  0x20\n    /* \"#utility.yul\":952:961   */\n  dup3\n    /* \"#utility.yul\":943:950   */\n  dup5\n    /* \"#utility.yul\":939:962   */\n  sub\n    /* \"#utility.yul\":935:967   */\n  slt\n    /* \"#utility.yul\":932:1051   */\n  iszero\n  tag_33\n  jumpi\n    /* \"#utility.yul\":970:1049   */\n  tag_34\n  tag_11\n  jump\t// in\ntag_34:\n    /* \"#utility.yul\":932:1051   */\ntag_33:\n    /* \"#utility.yul\":1090:1091   */\n  0x00\n    /* \"#utility.yul\":1115:1179   */\n  tag_35\n    /* \"#utility.yul\":1171:1178   */\n  dup5\n    /* \"#utility.yul\":1162:1168   */\n  dup3\n    /* \"#utility.yul\":1151:1160   */\n  dup6\n    /* \"#utility.yul\":1147:1169   */\n  add\n    /* \"#utility.yul\":1115:1179   */\n  tag_16\n  jump\t// in\ntag_35:\n    /* \"#utility.yul\":1105:1179   */\n  swap2\n  pop\n    /* \"#utility.yul\":1061:1189   */\n  pop\n    /* \"#utility.yul\":845:1196   */\n  swap3\n  swap2\n  pop\n  pop\n  jump\t// out\n    /* \"#utility.yul\":1202:1371   */\ntag_17:\n    /* \"#utility.yul\":1286:1297   */\n  0x00\n    /* \"#utility.yul\":1320:1326   */\n  dup3\n    /* \"#utility.yul\":1315:1318   */\n  dup3\n    /* \"#utility.yul\":1308:1327   */\n  mstore\n    /* \"#utility.yul\":1360:1364   */\n  0x20\n    /* \"#utility.yul\":1355:1358   */\n  dup3\n    /* \"#utility.yul\":1351:1365   */\n  add\n    /* \"#utility.yul\":1336:1365   */\n  swap1\n  pop\n    /* \"#utility.yul\":1202:1371   */\n  swap3\n  swap2\n  pop\n  pop\n  jump\t// out\n    /* \"#utility.yul\":1377:1548   */\ntag_18:\n    /* \"#utility.yul\":1517:1540   */\n  0x496e76616c696420746f6b656e20616464726573730000000000000000000000\n    /* \"#utility.yul\":1513:1514   */\n  0x00\n    /* \"#utility.yul\":1505:1511   */\n  dup3\n    /* \"#utility.yul\":1501:1515   */\n  add\n    /* \"#utility.yul\":1494:1541   */\n  mstore\n    /* \"#utility.yul\":1377:1548   */\n  pop\n  jump\t// out\n    /* \"#utility.yul\":1554:1920   */\ntag_19:\n    /* \"#utility.yul\":1696:1699   */\n  0x00\n    /* \"#utility.yul\":1717:1784   */\n  tag_39\n    /* \"#utility.yul\":1781:1783   */\n  0x15\n    /* \"#utility.yul\":1776:1779   */\n  dup4\n    /* \"#utility.yul\":1717:1784   */\n  tag_17\n  jump\t// in\ntag_39:\n    /* \"#utility.yul\":1710:1784   */\n  swap2\n  pop\n    /* \"#utility.yul\":1793:1886   */\n  tag_40\n    /* \"#utility.yul\":1882:1885   */\n  dup3\n    /* \"#utility.yul\":1793:1886   */\n  tag_18\n  jump\t// in\ntag_40:\n    /* \"#utility.yul\":1911:1913   */\n  0x20\n    /* \"#utility.yul\":1906:1909   */\n  dup3\n    /* \"#utility.yul\":1902:1914   */\n  add\n    /* \"#utility.yul\":1895:1914   */\n  swap1\n  pop\n    /* \"#utility.yul\":1554:1920   */\n  swap2\n  swap1\n  pop\n  jump\t// out\n    /* \"#utility.yul\":1926:2345   */\ntag_8:\n    /* \"#utility.yul\":2092:2096   */\n  0x00\n    /* \"#utility.yul\":2130:2132   */\n  0x20\n    /* \"#utility.yul\":2119:2128   */\n  dup3\n    /* \"#utility.yul\":2115:2133   */\n  add\n    /* \"#utility.yul\":2107:2133   */\n  swap1\n  pop\n    /* \"#utility.yul\":2179:2188   */\n  dup2\n    /* \"#utility.yul\":2173:2177   */\n  dup2\n    /* \"#utility.yul\":2169:2189   */\n  sub\n    /* \"#utility.yul\":2165:2166   */\n  0x00\n    /* \"#utility.yul\":2154:2163   */\n  dup4\n    /* \"#utility.yul\":2150:2167   */\n  add\n    /* \"#utility.yul\":2143:2190   */\n  mstore\n    /* \"#utility.yul\":2207:2338   */\n  tag_42\n    /* \"#utility.yul\":2333:2337   */\n  dup2\n    /* \"#utility.yul\":2207:2338   */\n  tag_19\n  jump\t// in\ntag_42:\n    /* \"#utility.yul\":2199:2338   */\n  swap1\n  pop\n    /* \"#utility.yul\":1926:2345   */\n  swap2\n  swap1\n  pop\n  jump\t// out\n    /* \"GFCPLoan.sol\":330:3489  contract GFCPLoan {... */\ntag_9:\n  dataSize(sub_0)\n  dup1\n  dataOffset(sub_0)\n  0x00\n  codecopy\n  0x00\n  return\nstop\n\nsub_0: assembly {\n        /* \"GFCPLoan.sol\":330:3489  contract GFCPLoan {... */\n      mstore(0x40, 0x80)\n      callvalue\n      dup1\n      iszero\n      tag_1\n      jumpi\n      revert(0x00, 0x00)\n    tag_1:\n      pop\n      jumpi(tag_2, lt(calldatasize, 0x04))\n      shr(0xe0, calldataload(0x00))\n      dup1\n      0x8d5d3429\n      gt\n      tag_16\n      jumpi\n      dup1\n      0xc42df5a4\n      gt\n      tag_17\n      jumpi\n      dup1\n      0xc42df5a4\n      eq\n      tag_12\n      jumpi\n      dup1\n      0xd8bad5bd\n      eq\n      tag_13\n      jumpi\n      dup1\n      0xe1ec3c68\n      eq\n      tag_14\n      jumpi\n      dup1\n      0xf851a440\n      eq\n      tag_15\n      jumpi\n      jump(tag_2)\n    tag_17:\n      dup1\n      0x8d5d3429\n      eq\n      tag_9\n      jumpi\n      dup1\n      0xab7b1c89\n      eq\n      tag_10\n      jumpi\n      dup1\n      0xc09100db\n      eq\n      tag_11\n      jumpi\n      jump(tag_2)\n    tag_16:\n      dup1\n      0x02bf321f\n      eq\n      tag_3\n      jumpi\n      dup1\n      0x043151bc\n      eq\n      tag_4\n      jumpi\n      dup1\n      0x189b8358\n      eq\n      tag_5\n      jumpi\n      dup1\n      0x1d0602a3\n      eq\n      tag_6\n      jumpi\n      dup1\n      0x34d9289e\n      eq\n      tag_7\n      jumpi\n      dup1\n      0x7c5b4a37\n      eq\n      tag_8\n      jumpi\n    tag_2:\n      revert(0x00, 0x00)\n        /* \"GFCPLoan.sol\":3368:3486  function getUserLoans(address user) external view returns (uint256[] memory) {... */\n    tag_3:\n      tag_18\n      0x04\n      dup1\n      calldatasize\n      sub\n      dup2\n      add\n      swap1\n      tag_19\n      swap2\n      swap1\n      tag_20\n      jump\t// in\n    tag_19:\n      tag_21\n      jump\t// in\n    tag_18:\n      mload(0x40)\n      tag_22\n      swap2\n      swap1\n      tag_23\n      jump\t// in\n    tag_22:\n      mload(0x40)\n      dup1\n      swap2\n      sub\n      swap1\n      return\n        /* \"GFCPLoan.sol\":3035:3160  function setUserCreditLimit(address user, uint256 limit) external onlyAdmin {... */\n    tag_4:\n      tag_24\n      0x04\n      dup1\n      calldatasize\n      sub\n      dup2\n      add\n      swap1\n      tag_25\n      swap2\n      swap1\n      tag_26\n      jump\t// in\n    tag_25:\n      tag_27\n      jump\t// in\n    tag_24:\n      stop\n        /* \"GFCPLoan.sol\":490:536  uint256 public globalLoanLimit = 1000 * 10**18 */\n    tag_5:\n      tag_28\n      tag_29\n      jump\t// in\n    tag_28:\n      mload(0x40)\n      tag_30\n      swap2\n      swap1\n      tag_31\n      jump\t// in\n    tag_30:\n      mload(0x40)\n      dup1\n      swap2\n      sub\n      swap1\n      return\n        /* \"GFCPLoan.sol\":3209:3324  function getAvailablePool() external view returns (uint256) {... */\n    tag_6:\n      tag_32\n      tag_33\n      jump\t// in\n    tag_32:\n      mload(0x40)\n      tag_34\n      swap2\n      swap1\n      tag_31\n      jump\t// in\n    tag_34:\n      mload(0x40)\n      dup1\n      swap2\n      sub\n      swap1\n      return\n        /* \"GFCPLoan.sol\":994:1020  uint256 public loanCounter */\n    tag_7:\n      tag_35\n      tag_36\n      jump\t// in\n    tag_35:\n      mload(0x40)\n      tag_37\n      swap2\n      swap1\n      tag_31\n      jump\t// in\n    tag_37:\n      mload(0x40)\n      dup1\n      swap2\n      sub\n      swap1\n      return\n        /* \"GFCPLoan.sol\":2746:2975  function adminWithdraw(uint256 amount) external onlyAdmin {... */\n    tag_8:\n      tag_38\n      0x04\n      dup1\n      calldatasize\n      sub\n      dup2\n      add\n      swap1\n      tag_39\n      swap2\n      swap1\n      tag_40\n      jump\t// in\n    tag_39:\n      tag_41\n      jump\t// in\n    tag_38:\n      stop\n        /* \"GFCPLoan.sol\":1447:2299  function requestLoan(uint256 amount) external {... */\n    tag_9:\n      tag_42\n      0x04\n      dup1\n      calldatasize\n      sub\n      dup2\n      add\n      swap1\n      tag_43\n      swap2\n      swap1\n      tag_40\n      jump\t// in\n    tag_43:\n      tag_44\n      jump\t// in\n    tag_42:\n      stop\n        /* \"GFCPLoan.sol\":2334:2694  function repayLoan(uint256 loanId) external {... */\n    tag_10:\n      tag_45\n      0x04\n      dup1\n      calldatasize\n      sub\n      dup2\n      add\n      swap1\n      tag_46\n      swap2\n      swap1\n      tag_40\n      jump\t// in\n    tag_46:\n      tag_47\n      jump\t// in\n    tag_45:\n      stop\n        /* \"GFCPLoan.sol\":357:375  IERC20 public cCTC */\n    tag_11:\n      tag_48\n      tag_49\n      jump\t// in\n    tag_48:\n      mload(0x40)\n      tag_50\n      swap2\n      swap1\n      tag_51\n      jump\t// in\n    tag_50:\n      mload(0x40)\n      dup1\n      swap2\n      sub\n      swap1\n      return\n        /* \"GFCPLoan.sol\":616:667  mapping(address => uint256) public userCreditLimits */\n    tag_12:\n      tag_52\n      0x04\n      dup1\n      calldatasize\n      sub\n      dup2\n      add\n      swap1\n      tag_53\n      swap2\n      swap1\n      tag_20\n      jump\t// in\n    tag_53:\n      tag_54\n      jump\t// in\n    tag_52:\n      mload(0x40)\n      tag_55\n      swap2\n      swap1\n      tag_31\n      jump\t// in\n    tag_55:\n      mload(0x40)\n      dup1\n      swap2\n      sub\n      swap1\n      return\n        /* \"GFCPLoan.sol\":1073:1119  mapping(address => uint256[]) public userLoans */\n    tag_13:\n      tag_56\n      0x04\n      dup1\n      calldatasize\n      sub\n      dup2\n      add\n      swap1\n      tag_57\n      swap2\n      swap1\n      tag_26\n      jump\t// in\n    tag_57:\n      tag_58\n      jump\t// in\n    tag_56:\n      mload(0x40)\n      tag_59\n      swap2\n      swap1\n      tag_31\n      jump\t// in\n    tag_59:\n      mload(0x40)\n      dup1\n      swap2\n      sub\n      swap1\n      return\n        /* \"GFCPLoan.sol\":1029:1066  mapping(uint256 => Loan) public loans */\n    tag_14:\n      tag_60\n      0x04\n      dup1\n      calldatasize\n      sub\n      dup2\n      add\n      swap1\n      tag_61\n      swap2\n      swap1\n      tag_40\n      jump\t// in\n    tag_61:\n      tag_62\n      jump\t// in\n    tag_60:\n      mload(0x40)\n      tag_63\n      swap6\n      swap5\n      swap4\n      swap3\n      swap2\n      swap1\n      tag_64\n      jump\t// in\n    tag_63:\n      mload(0x40)\n      dup1\n      swap2\n      sub\n      swap1\n      return\n        /* \"GFCPLoan.sol\":382:402  address public admin */\n    tag_15:\n      tag_65\n      tag_66\n      jump\t// in\n    tag_65:\n      mload(0x40)\n      tag_67\n      swap2\n      swap1\n      tag_68\n      jump\t// in\n    tag_67:\n      mload(0x40)\n      dup1\n      swap2\n      sub\n      swap1\n      return\n        /* \"GFCPLoan.sol\":3368:3486  function getUserLoans(address user) external view returns (uint256[] memory) {... */\n    tag_21:\n        /* \"GFCPLoan.sol\":3427:3443  uint256[] memory */\n      0x60\n        /* \"GFCPLoan.sol\":3463:3472  userLoans */\n      0x06\n        /* \"GFCPLoan.sol\":3463:3478  userLoans[user] */\n      0x00\n        /* \"GFCPLoan.sol\":3473:3477  user */\n      dup4\n        /* \"GFCPLoan.sol\":3463:3478  userLoans[user] */\n      0xffffffffffffffffffffffffffffffffffffffff\n      and\n      0xffffffffffffffffffffffffffffffffffffffff\n      and\n      dup2\n      mstore\n      0x20\n      add\n      swap1\n      dup2\n      mstore\n      0x20\n      add\n      0x00\n      keccak256\n        /* \"GFCPLoan.sol\":3456:3478  return userLoans[user] */\n      dup1\n      sload\n      dup1\n      0x20\n      mul\n      0x20\n      add\n      mload(0x40)\n      swap1\n      dup2\n      add\n      0x40\n      mstore\n      dup1\n      swap3\n      swap2\n      swap1\n      dup2\n      dup2\n      mstore\n      0x20\n      add\n      dup3\n      dup1\n      sload\n      dup1\n      iszero\n      tag_70\n      jumpi\n      0x20\n      mul\n      dup3\n      add\n      swap2\n      swap1\n      0x00\n      mstore\n      keccak256(0x00, 0x20)\n      swap1\n    tag_71:\n      dup2\n      sload\n      dup2\n      mstore\n      0x20\n      add\n      swap1\n      0x01\n      add\n      swap1\n      dup1\n      dup4\n      gt\n      tag_71\n      jumpi\n    tag_70:\n      pop\n      pop\n      pop\n      pop\n      pop\n      swap1\n      pop\n        /* \"GFCPLoan.sol\":3368:3486  function getUserLoans(address user) external view returns (uint256[] memory) {... */\n      swap2\n      swap1\n      pop\n      jump\t// out\n        /* \"GFCPLoan.sol\":3035:3160  function setUserCreditLimit(address user, uint256 limit) external onlyAdmin {... */\n    tag_27:\n        /* \"GFCPLoan.sol\":1371:1376  admin */\n      0x01\n      0x00\n      swap1\n      sload\n      swap1\n      0x0100\n      exp\n      swap1\n      div\n      0xffffffffffffffffffffffffffffffffffffffff\n      and\n        /* \"GFCPLoan.sol\":1357:1376  msg.sender == admin */\n      0xffffffffffffffffffffffffffffffffffffffff\n      and\n        /* \"GFCPLoan.sol\":1357:1367  msg.sender */\n      caller\n        /* \"GFCPLoan.sol\":1357:1376  msg.sender == admin */\n      0xffffffffffffffffffffffffffffffffffffffff\n      and\n      eq\n        /* \"GFCPLoan.sol\":1349:1390  require(msg.sender == admin, \"Not admin\") */\n      tag_73\n      jumpi\n      mload(0x40)\n      0x08c379a000000000000000000000000000000000000000000000000000000000\n      dup2\n      mstore\n      0x04\n      add\n      tag_74\n      swap1\n      tag_75\n      jump\t// in\n    tag_74:\n      mload(0x40)\n      dup1\n      swap2\n      sub\n      swap1\n      revert\n    tag_73:\n        /* \"GFCPLoan.sol\":3147:3152  limit */\n      dup1\n        /* \"GFCPLoan.sol\":3122:3138  userCreditLimits */\n      0x03\n        /* \"GFCPLoan.sol\":3122:3144  userCreditLimits[user] */\n      0x00\n        /* \"GFCPLoan.sol\":3139:3143  user */\n      dup5\n        /* \"GFCPLoan.sol\":3122:3144  userCreditLimits[user] */\n      0xffffffffffffffffffffffffffffffffffffffff\n      and\n      0xffffffffffffffffffffffffffffffffffffffff\n      and\n      dup2\n      mstore\n      0x20\n      add\n      swap1\n      dup2\n      mstore\n      0x20\n      add\n      0x00\n      keccak256\n        /* \"GFCPLoan.sol\":3122:3152  userCreditLimits[user] = limit */\n      dup2\n      swap1\n      sstore\n      pop\n        /* \"GFCPLoan.sol\":3035:3160  function setUserCreditLimit(address user, uint256 limit) external onlyAdmin {... */\n      pop\n      pop\n      jump\t// out\n        /* \"GFCPLoan.sol\":490:536  uint256 public globalLoanLimit = 1000 * 10**18 */\n    tag_29:\n      sload(0x02)\n      dup2\n      jump\t// out\n        /* \"GFCPLoan.sol\":3209:3324  function getAvailablePool() external view returns (uint256) {... */\n    tag_33:\n        /* \"GFCPLoan.sol\":3260:3267  uint256 */\n      0x00\n        /* \"GFCPLoan.sol\":3287:3291  cCTC */\n      0x00\n      0x00\n      swap1\n      sload\n      swap1\n      0x0100\n      exp\n      swap1\n      div\n      0xffffffffffffffffffffffffffffffffffffffff\n      and\n        /* \"GFCPLoan.sol\":3287:3301  cCTC.balanceOf */\n      0xffffffffffffffffffffffffffffffffffffffff\n      and\n      0x70a08231\n        /* \"GFCPLoan.sol\":3310:3314  this */\n      address\n        /* \"GFCPLoan.sol\":3287:3316  cCTC.balanceOf(address(this)) */\n      mload(0x40)\n      dup3\n      0xffffffff\n      and\n      0xe0\n      shl\n      dup2\n      mstore\n      0x04\n      add\n      tag_78\n      swap2\n      swap1\n      tag_68\n      jump\t// in\n    tag_78:\n      0x20\n      mload(0x40)\n      dup1\n      dup4\n      sub\n      dup2\n      dup7\n      gas\n      staticcall\n      iszero\n      dup1\n      iszero\n      tag_80\n      jumpi\n      returndatacopy(0x00, 0x00, returndatasize)\n      revert(0x00, returndatasize)\n    tag_80:\n      pop\n      pop\n      pop\n      pop\n      mload(0x40)\n      returndatasize\n      not(0x1f)\n      0x1f\n      dup3\n      add\n      and\n      dup3\n      add\n      dup1\n      0x40\n      mstore\n      pop\n      dup2\n      add\n      swap1\n      tag_81\n      swap2\n      swap1\n      tag_82\n      jump\t// in\n    tag_81:\n        /* \"GFCPLoan.sol\":3280:3316  return cCTC.balanceOf(address(this)) */\n      swap1\n      pop\n        /* \"GFCPLoan.sol\":3209:3324  function getAvailablePool() external view returns (uint256) {... */\n      swap1\n      jump\t// out\n        /* \"GFCPLoan.sol\":994:1020  uint256 public loanCounter */\n    tag_36:\n      sload(0x04)\n      dup2\n      jump\t// out\n        /* \"GFCPLoan.sol\":2746:2975  function adminWithdraw(uint256 amount) external onlyAdmin {... */\n    tag_41:\n        /* \"GFCPLoan.sol\":1371:1376  admin */\n      0x01\n      0x00\n      swap1\n      sload\n      swap1\n      0x0100\n      exp\n      swap1\n      div\n      0xffffffffffffffffffffffffffffffffffffffff\n      and\n        /* \"GFCPLoan.sol\":1357:1376  msg.sender == admin */\n      0xffffffffffffffffffffffffffffffffffffffff\n      and\n        /* \"GFCPLoan.sol\":1357:1367  msg.sender */\n      caller\n        /* \"GFCPLoan.sol\":1357:1376  msg.sender == admin */\n      0xffffffffffffffffffffffffffffffffffffffff\n      and\n      eq\n        /* \"GFCPLoan.sol\":1349:1390  require(msg.sender == admin, \"Not admin\") */\n      tag_84\n      jumpi\n      mload(0x40)\n      0x08c379a000000000000000000000000000000000000000000000000000000000\n      dup2\n      mstore\n      0x04\n      add\n      tag_85\n      swap1\n      tag_75\n      jump\t// in\n    tag_85:\n      mload(0x40)\n      dup1\n      swap2\n      sub\n      swap1\n      revert\n    tag_84:\n        /* \"GFCPLoan.sol\":2833:2837  cCTC */\n      0x00\n      0x00\n      swap1\n      sload\n      swap1\n      0x0100\n      exp\n      swap1\n      div\n      0xffffffffffffffffffffffffffffffffffffffff\n      and\n        /* \"GFCPLoan.sol\":2833:2847  cCTC.balanceOf */\n      0xffffffffffffffffffffffffffffffffffffffff\n      and\n      0x70a08231\n        /* \"GFCPLoan.sol\":2856:2860  this */\n      address\n        /* \"GFCPLoan.sol\":2833:2862  cCTC.balanceOf(address(this)) */\n      mload(0x40)\n      dup3\n      0xffffffff\n      and\n      0xe0\n      shl\n      dup2\n      mstore\n      0x04\n      add\n      tag_87\n      swap2\n      swap1\n      tag_68\n      jump\t// in\n    tag_87:\n      0x20\n      mload(0x40)\n      dup1\n      dup4\n      sub\n      dup2\n      dup7\n      gas\n      staticcall\n      iszero\n      dup1\n      iszero\n      tag_89\n      jumpi\n      returndatacopy(0x00, 0x00, returndatasize)\n      revert(0x00, returndatasize)\n    tag_89:\n      pop\n      pop\n      pop\n      pop\n      mload(0x40)\n      returndatasize\n      not(0x1f)\n      0x1f\n      dup3\n      add\n      and\n      dup3\n      add\n      dup1\n      0x40\n      mstore\n      pop\n      dup2\n      add\n      swap1\n      tag_90\n      swap2\n      swap1\n      tag_82\n      jump\t// in\n    tag_90:\n        /* \"GFCPLoan.sol\":2823:2829  amount */\n      dup2\n        /* \"GFCPLoan.sol\":2823:2862  amount <= cCTC.balanceOf(address(this)) */\n      gt\n      iszero\n        /* \"GFCPLoan.sol\":2815:2884  require(amount <= cCTC.balanceOf(address(this)), \"Insufficient pool\") */\n      tag_91\n      jumpi\n      mload(0x40)\n      0x08c379a000000000000000000000000000000000000000000000000000000000\n      dup2\n      mstore\n      0x04\n      add\n      tag_92\n      swap1\n      tag_93\n      jump\t// in\n    tag_92:\n      mload(0x40)\n      dup1\n      swap2\n      sub\n      swap1\n      revert\n    tag_91:\n        /* \"GFCPLoan.sol\":2895:2899  cCTC */\n      0x00\n      0x00\n      swap1\n      sload\n      swap1\n      0x0100\n      exp\n      swap1\n      div\n      0xffffffffffffffffffffffffffffffffffffffff\n      and\n        /* \"GFCPLoan.sol\":2895:2908  cCTC.transfer */\n      0xffffffffffffffffffffffffffffffffffffffff\n      and\n      0xa9059cbb\n        /* \"GFCPLoan.sol\":2909:2914  admin */\n      0x01\n      0x00\n      swap1\n      sload\n      swap1\n      0x0100\n      exp\n      swap1\n      div\n      0xffffffffffffffffffffffffffffffffffffffff\n      and\n        /* \"GFCPLoan.sol\":2916:2922  amount */\n      dup4\n        /* \"GFCPLoan.sol\":2895:2923  cCTC.transfer(admin, amount) */\n      mload(0x40)\n      dup4\n      0xffffffff\n      and\n      0xe0\n      shl\n      dup2\n      mstore\n      0x04\n      add\n      tag_94\n      swap3\n      swap2\n      swap1\n      tag_95\n      jump\t// in\n    tag_94:\n      0x20\n      mload(0x40)\n      dup1\n      dup4\n      sub\n      dup2\n      0x00\n      dup8\n      gas\n      call\n      iszero\n      dup1\n      iszero\n      tag_97\n      jumpi\n      returndatacopy(0x00, 0x00, returndatasize)\n      revert(0x00, returndatasize)\n    tag_97:\n      pop\n      pop\n      pop\n      pop\n      mload(0x40)\n      returndatasize\n      not(0x1f)\n      0x1f\n      dup3\n      add\n      and\n      dup3\n      add\n      dup1\n      0x40\n      mstore\n      pop\n      dup2\n      add\n      swap1\n      tag_98\n      swap2\n      swap1\n      tag_99\n      jump\t// in\n    tag_98:\n      pop\n        /* \"GFCPLoan.sol\":2939:2967  AdminWithdraw(admin, amount) */\n      0xba443e8671971c36cdeb74f87321041daff421230cbc5e36cb835269ed1d8b7e\n        /* \"GFCPLoan.sol\":2953:2958  admin */\n      0x01\n      0x00\n      swap1\n      sload\n      swap1\n      0x0100\n      exp\n      swap1\n      div\n      0xffffffffffffffffffffffffffffffffffffffff\n      and\n        /* \"GFCPLoan.sol\":2960:2966  amount */\n      dup3\n        /* \"GFCPLoan.sol\":2939:2967  AdminWithdraw(admin, amount) */\n      mload(0x40)\n      tag_100\n      swap3\n      swap2\n      swap1\n      tag_95\n      jump\t// in\n    tag_100:\n      mload(0x40)\n      dup1\n      swap2\n      sub\n      swap1\n      log1\n        /* \"GFCPLoan.sol\":2746:2975  function adminWithdraw(uint256 amount) external onlyAdmin {... */\n      pop\n      jump\t// out\n        /* \"GFCPLoan.sol\":1447:2299  function requestLoan(uint256 amount) external {... */\n    tag_44:\n        /* \"GFCPLoan.sol\":1521:1522  0 */\n      0x00\n        /* \"GFCPLoan.sol\":1512:1518  amount */\n      dup2\n        /* \"GFCPLoan.sol\":1512:1522  amount > 0 */\n      gt\n        /* \"GFCPLoan.sol\":1504:1559  require(amount > 0, \"Amount must be greater than zero\") */\n      tag_102\n      jumpi\n      mload(0x40)\n      0x08c379a000000000000000000000000000000000000000000000000000000000\n      dup2\n      mstore\n      0x04\n      add\n      tag_103\n      swap1\n      tag_104\n      jump\t// in\n    tag_103:\n      mload(0x40)\n      dup1\n      swap2\n      sub\n      swap1\n      revert\n    tag_102:\n        /* \"GFCPLoan.sol\":1580:1597  uint256 userLimit */\n      0x00\n        /* \"GFCPLoan.sol\":1600:1616  userCreditLimits */\n      0x03\n        /* \"GFCPLoan.sol\":1600:1628  userCreditLimits[msg.sender] */\n      0x00\n        /* \"GFCPLoan.sol\":1617:1627  msg.sender */\n      caller\n        /* \"GFCPLoan.sol\":1600:1628  userCreditLimits[msg.sender] */\n      0xffffffffffffffffffffffffffffffffffffffff\n      and\n      0xffffffffffffffffffffffffffffffffffffffff\n      and\n      dup2\n      mstore\n      0x20\n      add\n      swap1\n      dup2\n      mstore\n      0x20\n      add\n      0x00\n      keccak256\n      sload\n        /* \"GFCPLoan.sol\":1580:1628  uint256 userLimit = userCreditLimits[msg.sender] */\n      swap1\n      pop\n        /* \"GFCPLoan.sol\":1659:1660  0 */\n      0x00\n        /* \"GFCPLoan.sol\":1647:1656  userLimit */\n      dup2\n        /* \"GFCPLoan.sol\":1647:1660  userLimit > 0 */\n      gt\n        /* \"GFCPLoan.sol\":1639:1684  require(userLimit > 0, \"No credit limit set\") */\n      tag_105\n      jumpi\n      mload(0x40)\n      0x08c379a000000000000000000000000000000000000000000000000000000000\n      dup2\n      mstore\n      0x04\n      add\n      tag_106\n      swap1\n      tag_107\n      jump\t// in\n    tag_106:\n      mload(0x40)\n      dup1\n      swap2\n      sub\n      swap1\n      revert\n    tag_105:\n        /* \"GFCPLoan.sol\":1713:1722  userLimit */\n      dup1\n        /* \"GFCPLoan.sol\":1703:1709  amount */\n      dup3\n        /* \"GFCPLoan.sol\":1703:1722  amount <= userLimit */\n      gt\n      iszero\n        /* \"GFCPLoan.sol\":1695:1758  require(amount <= userLimit, \"Exceeds max loan limit for user\") */\n      tag_108\n      jumpi\n      mload(0x40)\n      0x08c379a000000000000000000000000000000000000000000000000000000000\n      dup2\n      mstore\n      0x04\n      add\n      tag_109\n      swap1\n      tag_110\n      jump\t// in\n    tag_109:\n      mload(0x40)\n      dup1\n      swap2\n      sub\n      swap1\n      revert\n    tag_108:\n        /* \"GFCPLoan.sol\":1824:1830  amount */\n      dup2\n        /* \"GFCPLoan.sol\":1791:1795  cCTC */\n      0x00\n      0x00\n      swap1\n      sload\n      swap1\n      0x0100\n      exp\n      swap1\n      div\n      0xffffffffffffffffffffffffffffffffffffffff\n      and\n        /* \"GFCPLoan.sol\":1791:1805  cCTC.balanceOf */\n      0xffffffffffffffffffffffffffffffffffffffff\n      and\n      0x70a08231\n        /* \"GFCPLoan.sol\":1814:1818  this */\n      address\n        /* \"GFCPLoan.sol\":1791:1820  cCTC.balanceOf(address(this)) */\n      mload(0x40)\n      dup3\n      0xffffffff\n      and\n      0xe0\n      shl\n      dup2\n      mstore\n      0x04\n      add\n      tag_111\n      swap2\n      swap1\n      tag_68\n      jump\t// in\n    tag_111:\n      0x20\n      mload(0x40)\n      dup1\n      dup4\n      sub\n      dup2\n      dup7\n      gas\n      staticcall\n      iszero\n      dup1\n      iszero\n      tag_113\n      jumpi\n      returndatacopy(0x00, 0x00, returndatasize)\n      revert(0x00, returndatasize)\n    tag_113:\n      pop\n      pop\n      pop\n      pop\n      mload(0x40)\n      returndatasize\n      not(0x1f)\n      0x1f\n      dup3\n      add\n      and\n      dup3\n      add\n      dup1\n      0x40\n      mstore\n      pop\n      dup2\n      add\n      swap1\n      tag_114\n      swap2\n      swap1\n      tag_82\n      jump\t// in\n    tag_114:\n        /* \"GFCPLoan.sol\":1791:1830  cCTC.balanceOf(address(this)) >= amount */\n      lt\n      iszero\n        /* \"GFCPLoan.sol\":1769:1889  require(... */\n      tag_115\n      jumpi\n      mload(0x40)\n      0x08c379a000000000000000000000000000000000000000000000000000000000\n      dup2\n      mstore\n      0x04\n      add\n      tag_116\n      swap1\n      tag_117\n      jump\t// in\n    tag_116:\n      mload(0x40)\n      dup1\n      swap2\n      sub\n      swap1\n      revert\n    tag_115:\n        /* \"GFCPLoan.sol\":1902:1913  loanCounter */\n      0x04\n      0x00\n        /* \"GFCPLoan.sol\":1902:1915  loanCounter++ */\n      dup2\n      sload\n      dup1\n      swap3\n      swap2\n      swap1\n      tag_118\n      swap1\n      tag_119\n      jump\t// in\n    tag_118:\n      swap2\n      swap1\n      pop\n      sstore\n      pop\n        /* \"GFCPLoan.sol\":1949:2129  Loan({... */\n      mload(0x40)\n      dup1\n      0xa0\n      add\n      0x40\n      mstore\n      dup1\n        /* \"GFCPLoan.sol\":1973:1984  loanCounter */\n      sload(0x04)\n        /* \"GFCPLoan.sol\":1949:2129  Loan({... */\n      dup2\n      mstore\n      0x20\n      add\n        /* \"GFCPLoan.sol\":2009:2019  msg.sender */\n      caller\n        /* \"GFCPLoan.sol\":1949:2129  Loan({... */\n      0xffffffffffffffffffffffffffffffffffffffff\n      and\n      dup2\n      mstore\n      0x20\n      add\n        /* \"GFCPLoan.sol\":2042:2048  amount */\n      dup4\n        /* \"GFCPLoan.sol\":1949:2129  Loan({... */\n      dup2\n      mstore\n      0x20\n      add\n        /* \"GFCPLoan.sol\":2074:2089  block.timestamp */\n      timestamp\n        /* \"GFCPLoan.sol\":1949:2129  Loan({... */\n      dup2\n      mstore\n      0x20\n      add\n        /* \"GFCPLoan.sol\":2112:2117  false */\n      0x00\n        /* \"GFCPLoan.sol\":1949:2129  Loan({... */\n      iszero\n      iszero\n      dup2\n      mstore\n      pop\n        /* \"GFCPLoan.sol\":1928:1933  loans */\n      0x05\n        /* \"GFCPLoan.sol\":1928:1946  loans[loanCounter] */\n      0x00\n        /* \"GFCPLoan.sol\":1934:1945  loanCounter */\n      sload(0x04)\n        /* \"GFCPLoan.sol\":1928:1946  loans[loanCounter] */\n      dup2\n      mstore\n      0x20\n      add\n      swap1\n      dup2\n      mstore\n      0x20\n      add\n      0x00\n      keccak256\n        /* \"GFCPLoan.sol\":1928:2129  loans[loanCounter] = Loan({... */\n      0x00\n      dup3\n      add\n      mload\n      dup2\n      0x00\n      add\n      sstore\n      0x20\n      dup3\n      add\n      mload\n      dup2\n      0x01\n      add\n      exp(0x0100, 0x00)\n      dup2\n      sload\n      dup2\n      0xffffffffffffffffffffffffffffffffffffffff\n      mul\n      not\n      and\n      swap1\n      dup4\n      0xffffffffffffffffffffffffffffffffffffffff\n      and\n      mul\n      or\n      swap1\n      sstore\n      pop\n      0x40\n      dup3\n      add\n      mload\n      dup2\n      0x02\n      add\n      sstore\n      0x60\n      dup3\n      add\n      mload\n      dup2\n      0x03\n      add\n      sstore\n      0x80\n      dup3\n      add\n      mload\n      dup2\n      0x04\n      add\n      exp(0x0100, 0x00)\n      dup2\n      sload\n      dup2\n      0xff\n      mul\n      not\n      and\n      swap1\n      dup4\n      iszero\n      iszero\n      mul\n      or\n      swap1\n      sstore\n      pop\n      swap1\n      pop\n      pop\n        /* \"GFCPLoan.sol\":2142:2151  userLoans */\n      0x06\n        /* \"GFCPLoan.sol\":2142:2163  userLoans[msg.sender] */\n      0x00\n        /* \"GFCPLoan.sol\":2152:2162  msg.sender */\n      caller\n        /* \"GFCPLoan.sol\":2142:2163  userLoans[msg.sender] */\n      0xffffffffffffffffffffffffffffffffffffffff\n      and\n      0xffffffffffffffffffffffffffffffffffffffff\n      and\n      dup2\n      mstore\n      0x20\n      add\n      swap1\n      dup2\n      mstore\n      0x20\n      add\n      0x00\n      keccak256\n        /* \"GFCPLoan.sol\":2169:2180  loanCounter */\n      sload(0x04)\n        /* \"GFCPLoan.sol\":2142:2181  userLoans[msg.sender].push(loanCounter) */\n      swap1\n      dup1\n      0x01\n      dup2\n      sload\n      add\n      dup1\n      dup3\n      sstore\n      dup1\n      swap2\n      pop\n      pop\n      0x01\n      swap1\n      sub\n      swap1\n      0x00\n      mstore\n      keccak256(0x00, 0x20)\n      add\n      0x00\n      swap1\n      swap2\n      swap1\n      swap2\n      swap1\n      swap2\n      pop\n      sstore\n        /* \"GFCPLoan.sol\":2194:2198  cCTC */\n      0x00\n      0x00\n      swap1\n      sload\n      swap1\n      0x0100\n      exp\n      swap1\n      div\n      0xffffffffffffffffffffffffffffffffffffffff\n      and\n        /* \"GFCPLoan.sol\":2194:2207  cCTC.transfer */\n      0xffffffffffffffffffffffffffffffffffffffff\n      and\n      0xa9059cbb\n        /* \"GFCPLoan.sol\":2208:2218  msg.sender */\n      caller\n        /* \"GFCPLoan.sol\":2220:2226  amount */\n      dup5\n        /* \"GFCPLoan.sol\":2194:2227  cCTC.transfer(msg.sender, amount) */\n      mload(0x40)\n      dup4\n      0xffffffff\n      and\n      0xe0\n      shl\n      dup2\n      mstore\n      0x04\n      add\n      tag_121\n      swap3\n      swap2\n      swap1\n      tag_95\n      jump\t// in\n    tag_121:\n      0x20\n      mload(0x40)\n      dup1\n      dup4\n      sub\n      dup2\n      0x00\n      dup8\n      gas\n      call\n      iszero\n      dup1\n      iszero\n      tag_123\n      jumpi\n      returndatacopy(0x00, 0x00, returndatasize)\n      revert(0x00, returndatasize)\n    tag_123:\n      pop\n      pop\n      pop\n      pop\n      mload(0x40)\n      returndatasize\n      not(0x1f)\n      0x1f\n      dup3\n      add\n      and\n      dup3\n      add\n      dup1\n      0x40\n      mstore\n      pop\n      dup2\n      add\n      swap1\n      tag_124\n      swap2\n      swap1\n      tag_99\n      jump\t// in\n    tag_124:\n      pop\n        /* \"GFCPLoan.sol\":2245:2291  LoanRequested(msg.sender, loanCounter, amount) */\n      0x7468760830aff5679376e50470c0493d21c88c599388e89b08c9512b3f3fbc7d\n        /* \"GFCPLoan.sol\":2259:2269  msg.sender */\n      caller\n        /* \"GFCPLoan.sol\":2271:2282  loanCounter */\n      sload(0x04)\n        /* \"GFCPLoan.sol\":2284:2290  amount */\n      dup5\n        /* \"GFCPLoan.sol\":2245:2291  LoanRequested(msg.sender, loanCounter, amount) */\n      mload(0x40)\n      tag_125\n      swap4\n      swap3\n      swap2\n      swap1\n      tag_126\n      jump\t// in\n    tag_125:\n      mload(0x40)\n      dup1\n      swap2\n      sub\n      swap1\n      log1\n        /* \"GFCPLoan.sol\":1493:2299  {... */\n      pop\n        /* \"GFCPLoan.sol\":1447:2299  function requestLoan(uint256 amount) external {... */\n      pop\n      jump\t// out\n        /* \"GFCPLoan.sol\":2334:2694  function repayLoan(uint256 loanId) external {... */\n    tag_47:\n        /* \"GFCPLoan.sol\":2389:2406  Loan storage loan */\n      0x00\n        /* \"GFCPLoan.sol\":2409:2414  loans */\n      0x05\n        /* \"GFCPLoan.sol\":2409:2422  loans[loanId] */\n      0x00\n        /* \"GFCPLoan.sol\":2415:2421  loanId */\n      dup4\n        /* \"GFCPLoan.sol\":2409:2422  loans[loanId] */\n      dup2\n      mstore\n      0x20\n      add\n      swap1\n      dup2\n      mstore\n      0x20\n      add\n      0x00\n      keccak256\n        /* \"GFCPLoan.sol\":2389:2422  Loan storage loan = loans[loanId] */\n      swap1\n      pop\n        /* \"GFCPLoan.sol\":2460:2470  msg.sender */\n      caller\n        /* \"GFCPLoan.sol\":2443:2470  loan.borrower == msg.sender */\n      0xffffffffffffffffffffffffffffffffffffffff\n      and\n        /* \"GFCPLoan.sol\":2443:2447  loan */\n      dup2\n        /* \"GFCPLoan.sol\":2443:2456  loan.borrower */\n      0x01\n      add\n      0x00\n      swap1\n      sload\n      swap1\n      0x0100\n      exp\n      swap1\n      div\n      0xffffffffffffffffffffffffffffffffffffffff\n      and\n        /* \"GFCPLoan.sol\":2443:2470  loan.borrower == msg.sender */\n      0xffffffffffffffffffffffffffffffffffffffff\n      and\n      eq\n        /* \"GFCPLoan.sol\":2435:2487  require(loan.borrower == msg.sender, \"Not borrower\") */\n      tag_128\n      jumpi\n      mload(0x40)\n      0x08c379a000000000000000000000000000000000000000000000000000000000\n      dup2\n      mstore\n      0x04\n      add\n      tag_129\n      swap1\n      tag_130\n      jump\t// in\n    tag_129:\n      mload(0x40)\n      dup1\n      swap2\n      sub\n      swap1\n      revert\n    tag_128:\n        /* \"GFCPLoan.sol\":2507:2511  loan */\n      dup1\n        /* \"GFCPLoan.sol\":2507:2518  loan.repaid */\n      0x04\n      add\n      0x00\n      swap1\n      sload\n      swap1\n      0x0100\n      exp\n      swap1\n      div\n      0xff\n      and\n        /* \"GFCPLoan.sol\":2506:2518  !loan.repaid */\n      iszero\n        /* \"GFCPLoan.sol\":2498:2537  require(!loan.repaid, \"Already repaid\") */\n      tag_131\n      jumpi\n      mload(0x40)\n      0x08c379a000000000000000000000000000000000000000000000000000000000\n      dup2\n      mstore\n      0x04\n      add\n      tag_132\n      swap1\n      tag_133\n      jump\t// in\n    tag_132:\n      mload(0x40)\n      dup1\n      swap2\n      sub\n      swap1\n      revert\n    tag_131:\n        /* \"GFCPLoan.sol\":2550:2554  cCTC */\n      0x00\n      0x00\n      swap1\n      sload\n      swap1\n      0x0100\n      exp\n      swap1\n      div\n      0xffffffffffffffffffffffffffffffffffffffff\n      and\n        /* \"GFCPLoan.sol\":2550:2567  cCTC.transferFrom */\n      0xffffffffffffffffffffffffffffffffffffffff\n      and\n      0x23b872dd\n        /* \"GFCPLoan.sol\":2568:2578  msg.sender */\n      caller\n        /* \"GFCPLoan.sol\":2588:2592  this */\n      address\n        /* \"GFCPLoan.sol\":2595:2599  loan */\n      dup5\n        /* \"GFCPLoan.sol\":2595:2606  loan.amount */\n      0x02\n      add\n      sload\n        /* \"GFCPLoan.sol\":2550:2607  cCTC.transferFrom(msg.sender, address(this), loan.amount) */\n      mload(0x40)\n      dup5\n      0xffffffff\n      and\n      0xe0\n      shl\n      dup2\n      mstore\n      0x04\n      add\n      tag_134\n      swap4\n      swap3\n      swap2\n      swap1\n      tag_135\n      jump\t// in\n    tag_134:\n      0x20\n      mload(0x40)\n      dup1\n      dup4\n      sub\n      dup2\n      0x00\n      dup8\n      gas\n      call\n      iszero\n      dup1\n      iszero\n      tag_137\n      jumpi\n      returndatacopy(0x00, 0x00, returndatasize)\n      revert(0x00, returndatasize)\n    tag_137:\n      pop\n      pop\n      pop\n      pop\n      mload(0x40)\n      returndatasize\n      not(0x1f)\n      0x1f\n      dup3\n      add\n      and\n      dup3\n      add\n      dup1\n      0x40\n      mstore\n      pop\n      dup2\n      add\n      swap1\n      tag_138\n      swap2\n      swap1\n      tag_99\n      jump\t// in\n    tag_138:\n      pop\n        /* \"GFCPLoan.sol\":2634:2638  true */\n      0x01\n        /* \"GFCPLoan.sol\":2620:2624  loan */\n      dup2\n        /* \"GFCPLoan.sol\":2620:2631  loan.repaid */\n      0x04\n      add\n      0x00\n        /* \"GFCPLoan.sol\":2620:2638  loan.repaid = true */\n      0x0100\n      exp\n      dup2\n      sload\n      dup2\n      0xff\n      mul\n      not\n      and\n      swap1\n      dup4\n      iszero\n      iszero\n      mul\n      or\n      swap1\n      sstore\n      pop\n        /* \"GFCPLoan.sol\":2656:2686  LoanRepaid(msg.sender, loanId) */\n      0xc200a1f31dd659e356e0f112c82558e25f49f7b0f84438691cd96f5cb3558823\n        /* \"GFCPLoan.sol\":2667:2677  msg.sender */\n      caller\n        /* \"GFCPLoan.sol\":2679:2685  loanId */\n      dup4\n        /* \"GFCPLoan.sol\":2656:2686  LoanRepaid(msg.sender, loanId) */\n      mload(0x40)\n      tag_139\n      swap3\n      swap2\n      swap1\n      tag_95\n      jump\t// in\n    tag_139:\n      mload(0x40)\n      dup1\n      swap2\n      sub\n      swap1\n      log1\n        /* \"GFCPLoan.sol\":2378:2694  {... */\n      pop\n        /* \"GFCPLoan.sol\":2334:2694  function repayLoan(uint256 loanId) external {... */\n      pop\n      jump\t// out\n        /* \"GFCPLoan.sol\":357:375  IERC20 public cCTC */\n    tag_49:\n      0x00\n      0x00\n      swap1\n      sload\n      swap1\n      0x0100\n      exp\n      swap1\n      div\n      0xffffffffffffffffffffffffffffffffffffffff\n      and\n      dup2\n      jump\t// out\n        /* \"GFCPLoan.sol\":616:667  mapping(address => uint256) public userCreditLimits */\n    tag_54:\n      mstore(0x20, 0x03)\n      dup1\n      0x00\n      mstore\n      keccak256(0x00, 0x40)\n      0x00\n      swap2\n      pop\n      swap1\n      pop\n      sload\n      dup2\n      jump\t// out\n        /* \"GFCPLoan.sol\":1073:1119  mapping(address => uint256[]) public userLoans */\n    tag_58:\n      mstore(0x20, 0x06)\n      dup2\n      0x00\n      mstore\n      keccak256(0x00, 0x40)\n      dup2\n      dup2\n      sload\n      dup2\n      lt\n      tag_140\n      jumpi\n      0x00\n      dup1\n      revert\n    tag_140:\n      swap1\n      0x00\n      mstore\n      keccak256(0x00, 0x20)\n      add\n      0x00\n      swap2\n      pop\n      swap2\n      pop\n      pop\n      sload\n      dup2\n      jump\t// out\n        /* \"GFCPLoan.sol\":1029:1066  mapping(uint256 => Loan) public loans */\n    tag_62:\n      mstore(0x20, 0x05)\n      dup1\n      0x00\n      mstore\n      keccak256(0x00, 0x40)\n      0x00\n      swap2\n      pop\n      swap1\n      pop\n      dup1\n      0x00\n      add\n      sload\n      swap1\n      dup1\n      0x01\n      add\n      0x00\n      swap1\n      sload\n      swap1\n      0x0100\n      exp\n      swap1\n      div\n      0xffffffffffffffffffffffffffffffffffffffff\n      and\n      swap1\n      dup1\n      0x02\n      add\n      sload\n      swap1\n      dup1\n      0x03\n      add\n      sload\n      swap1\n      dup1\n      0x04\n      add\n      0x00\n      swap1\n      sload\n      swap1\n      0x0100\n      exp\n      swap1\n      div\n      0xff\n      and\n      swap1\n      pop\n      dup6\n      jump\t// out\n        /* \"GFCPLoan.sol\":382:402  address public admin */\n    tag_66:\n      0x01\n      0x00\n      swap1\n      sload\n      swap1\n      0x0100\n      exp\n      swap1\n      div\n      0xffffffffffffffffffffffffffffffffffffffff\n      and\n      dup2\n      jump\t// out\n        /* \"#utility.yul\":88:205   */\n    tag_143:\n        /* \"#utility.yul\":197:198   */\n      0x00\n        /* \"#utility.yul\":194:195   */\n      0x00\n        /* \"#utility.yul\":187:199   */\n      revert\n        /* \"#utility.yul\":334:460   */\n    tag_145:\n        /* \"#utility.yul\":371:378   */\n      0x00\n        /* \"#utility.yul\":411:453   */\n      0xffffffffffffffffffffffffffffffffffffffff\n        /* \"#utility.yul\":404:409   */\n      dup3\n        /* \"#utility.yul\":400:454   */\n      and\n        /* \"#utility.yul\":389:454   */\n      swap1\n      pop\n        /* \"#utility.yul\":334:460   */\n      swap2\n      swap1\n      pop\n      jump\t// out\n        /* \"#utility.yul\":466:562   */\n    tag_146:\n        /* \"#utility.yul\":503:510   */\n      0x00\n        /* \"#utility.yul\":532:556   */\n      tag_195\n        /* \"#utility.yul\":550:555   */\n      dup3\n        /* \"#utility.yul\":532:556   */\n      tag_145\n      jump\t// in\n    tag_195:\n        /* \"#utility.yul\":521:556   */\n      swap1\n      pop\n        /* \"#utility.yul\":466:562   */\n      swap2\n      swap1\n      pop\n      jump\t// out\n        /* \"#utility.yul\":568:690   */\n    tag_147:\n        /* \"#utility.yul\":641:665   */\n      tag_197\n        /* \"#utility.yul\":659:664   */\n      dup2\n        /* \"#utility.yul\":641:665   */\n      tag_146\n      jump\t// in\n    tag_197:\n        /* \"#utility.yul\":634:639   */\n      dup2\n        /* \"#utility.yul\":631:666   */\n      eq\n        /* \"#utility.yul\":621:684   */\n      tag_198\n      jumpi\n        /* \"#utility.yul\":680:681   */\n      0x00\n        /* \"#utility.yul\":677:678   */\n      0x00\n        /* \"#utility.yul\":670:682   */\n      revert\n        /* \"#utility.yul\":621:684   */\n    tag_198:\n        /* \"#utility.yul\":568:690   */\n      pop\n      jump\t// out\n        /* \"#utility.yul\":696:835   */\n    tag_148:\n        /* \"#utility.yul\":742:747   */\n      0x00\n        /* \"#utility.yul\":780:786   */\n      dup2\n        /* \"#utility.yul\":767:787   */\n      calldataload\n        /* \"#utility.yul\":758:787   */\n      swap1\n      pop\n        /* \"#utility.yul\":796:829   */\n      tag_200\n        /* \"#utility.yul\":823:828   */\n      dup2\n        /* \"#utility.yul\":796:829   */\n      tag_147\n      jump\t// in\n    tag_200:\n        /* \"#utility.yul\":696:835   */\n      swap3\n      swap2\n      pop\n      pop\n      jump\t// out\n        /* \"#utility.yul\":841:1170   */\n    tag_20:\n        /* \"#utility.yul\":900:906   */\n      0x00\n        /* \"#utility.yul\":949:951   */\n      0x20\n        /* \"#utility.yul\":937:946   */\n      dup3\n        /* \"#utility.yul\":928:935   */\n      dup5\n        /* \"#utility.yul\":924:947   */\n      sub\n        /* \"#utility.yul\":920:952   */\n      slt\n        /* \"#utility.yul\":917:1036   */\n      iszero\n      tag_202\n      jumpi\n        /* \"#utility.yul\":955:1034   */\n      tag_203\n      tag_143\n      jump\t// in\n    tag_203:\n        /* \"#utility.yul\":917:1036   */\n    tag_202:\n        /* \"#utility.yul\":1075:1076   */\n      0x00\n        /* \"#utility.yul\":1100:1153   */\n      tag_204\n        /* \"#utility.yul\":1145:1152   */\n      dup5\n        /* \"#utility.yul\":1136:1142   */\n      dup3\n        /* \"#utility.yul\":1125:1134   */\n      dup6\n        /* \"#utility.yul\":1121:1143   */\n      add\n        /* \"#utility.yul\":1100:1153   */\n      tag_148\n      jump\t// in\n    tag_204:\n        /* \"#utility.yul\":1090:1153   */\n      swap2\n      pop\n        /* \"#utility.yul\":1046:1163   */\n      pop\n        /* \"#utility.yul\":841:1170   */\n      swap3\n      swap2\n      pop\n      pop\n      jump\t// out\n        /* \"#utility.yul\":1176:1290   */\n    tag_149:\n        /* \"#utility.yul\":1243:1249   */\n      0x00\n        /* \"#utility.yul\":1277:1282   */\n      dup2\n        /* \"#utility.yul\":1271:1283   */\n      mload\n        /* \"#utility.yul\":1261:1283   */\n      swap1\n      pop\n        /* \"#utility.yul\":1176:1290   */\n      swap2\n      swap1\n      pop\n      jump\t// out\n        /* \"#utility.yul\":1296:1480   */\n    tag_150:\n        /* \"#utility.yul\":1395:1406   */\n      0x00\n        /* \"#utility.yul\":1429:1435   */\n      dup3\n        /* \"#utility.yul\":1424:1427   */\n      dup3\n        /* \"#utility.yul\":1417:1436   */\n      mstore\n        /* \"#utility.yul\":1469:1473   */\n      0x20\n        /* \"#utility.yul\":1464:1467   */\n      dup3\n        /* \"#utility.yul\":1460:1474   */\n      add\n        /* \"#utility.yul\":1445:1474   */\n      swap1\n      pop\n        /* \"#utility.yul\":1296:1480   */\n      swap3\n      swap2\n      pop\n      pop\n      jump\t// out\n        /* \"#utility.yul\":1486:1618   */\n    tag_151:\n        /* \"#utility.yul\":1553:1557   */\n      0x00\n        /* \"#utility.yul\":1576:1579   */\n      dup2\n        /* \"#utility.yul\":1568:1579   */\n      swap1\n      pop\n        /* \"#utility.yul\":1606:1610   */\n      0x20\n        /* \"#utility.yul\":1601:1604   */\n      dup3\n        /* \"#utility.yul\":1597:1611   */\n      add\n        /* \"#utility.yul\":1589:1611   */\n      swap1\n      pop\n        /* \"#utility.yul\":1486:1618   */\n      swap2\n      swap1\n      pop\n      jump\t// out\n        /* \"#utility.yul\":1624:1701   */\n    tag_152:\n        /* \"#utility.yul\":1661:1668   */\n      0x00\n        /* \"#utility.yul\":1690:1695   */\n      dup2\n        /* \"#utility.yul\":1679:1695   */\n      swap1\n      pop\n        /* \"#utility.yul\":1624:1701   */\n      swap2\n      swap1\n      pop\n      jump\t// out\n        /* \"#utility.yul\":1707:1815   */\n    tag_153:\n        /* \"#utility.yul\":1784:1808   */\n      tag_210\n        /* \"#utility.yul\":1802:1807   */\n      dup2\n        /* \"#utility.yul\":1784:1808   */\n      tag_152\n      jump\t// in\n    tag_210:\n        /* \"#utility.yul\":1779:1782   */\n      dup3\n        /* \"#utility.yul\":1772:1809   */\n      mstore\n        /* \"#utility.yul\":1707:1815   */\n      pop\n      pop\n      jump\t// out\n        /* \"#utility.yul\":1821:2000   */\n    tag_154:\n        /* \"#utility.yul\":1890:1900   */\n      0x00\n        /* \"#utility.yul\":1911:1957   */\n      tag_212\n        /* \"#utility.yul\":1953:1956   */\n      dup4\n        /* \"#utility.yul\":1945:1951   */\n      dup4\n        /* \"#utility.yul\":1911:1957   */\n      tag_153\n      jump\t// in\n    tag_212:\n        /* \"#utility.yul\":1989:1993   */\n      0x20\n        /* \"#utility.yul\":1984:1987   */\n      dup4\n        /* \"#utility.yul\":1980:1994   */\n      add\n        /* \"#utility.yul\":1966:1994   */\n      swap1\n      pop\n        /* \"#utility.yul\":1821:2000   */\n      swap3\n      swap2\n      pop\n      pop\n      jump\t// out\n        /* \"#utility.yul\":2006:2119   */\n    tag_155:\n        /* \"#utility.yul\":2076:2080   */\n      0x00\n        /* \"#utility.yul\":2108:2112   */\n      0x20\n        /* \"#utility.yul\":2103:2106   */\n      dup3\n        /* \"#utility.yul\":2099:2113   */\n      add\n        /* \"#utility.yul\":2091:2113   */\n      swap1\n      pop\n        /* \"#utility.yul\":2006:2119   */\n      swap2\n      swap1\n      pop\n      jump\t// out\n        /* \"#utility.yul\":2155:2887   */\n    tag_156:\n        /* \"#utility.yul\":2274:2277   */\n      0x00\n        /* \"#utility.yul\":2303:2357   */\n      tag_215\n        /* \"#utility.yul\":2351:2356   */\n      dup3\n        /* \"#utility.yul\":2303:2357   */\n      tag_149\n      jump\t// in\n    tag_215:\n        /* \"#utility.yul\":2373:2459   */\n      tag_216\n        /* \"#utility.yul\":2452:2458   */\n      dup2\n        /* \"#utility.yul\":2447:2450   */\n      dup6\n        /* \"#utility.yul\":2373:2459   */\n      tag_150\n      jump\t// in\n    tag_216:\n        /* \"#utility.yul\":2366:2459   */\n      swap4\n      pop\n        /* \"#utility.yul\":2483:2539   */\n      tag_217\n        /* \"#utility.yul\":2533:2538   */\n      dup4\n        /* \"#utility.yul\":2483:2539   */\n      tag_151\n      jump\t// in\n    tag_217:\n        /* \"#utility.yul\":2562:2569   */\n      dup1\n        /* \"#utility.yul\":2593:2594   */\n      0x00\n        /* \"#utility.yul\":2578:2862   */\n    tag_218:\n        /* \"#utility.yul\":2603:2609   */\n      dup4\n        /* \"#utility.yul\":2600:2601   */\n      dup2\n        /* \"#utility.yul\":2597:2610   */\n      lt\n        /* \"#utility.yul\":2578:2862   */\n      iszero\n      tag_220\n      jumpi\n        /* \"#utility.yul\":2679:2685   */\n      dup2\n        /* \"#utility.yul\":2673:2686   */\n      mload\n        /* \"#utility.yul\":2706:2769   */\n      tag_221\n        /* \"#utility.yul\":2765:2768   */\n      dup9\n        /* \"#utility.yul\":2750:2763   */\n      dup3\n        /* \"#utility.yul\":2706:2769   */\n      tag_154\n      jump\t// in\n    tag_221:\n        /* \"#utility.yul\":2699:2769   */\n      swap8\n      pop\n        /* \"#utility.yul\":2792:2852   */\n      tag_222\n        /* \"#utility.yul\":2845:2851   */\n      dup4\n        /* \"#utility.yul\":2792:2852   */\n      tag_155\n      jump\t// in\n    tag_222:\n        /* \"#utility.yul\":2782:2852   */\n      swap3\n      pop\n        /* \"#utility.yul\":2638:2862   */\n      pop\n        /* \"#utility.yul\":2625:2626   */\n      0x01\n        /* \"#utility.yul\":2622:2623   */\n      dup2\n        /* \"#utility.yul\":2618:2627   */\n      add\n        /* \"#utility.yul\":2613:2627   */\n      swap1\n      pop\n        /* \"#utility.yul\":2578:2862   */\n      jump(tag_218)\n    tag_220:\n        /* \"#utility.yul\":2582:2596   */\n      pop\n        /* \"#utility.yul\":2878:2881   */\n      dup6\n        /* \"#utility.yul\":2871:2881   */\n      swap4\n      pop\n        /* \"#utility.yul\":2279:2887   */\n      pop\n      pop\n      pop\n        /* \"#utility.yul\":2155:2887   */\n      swap3\n      swap2\n      pop\n      pop\n      jump\t// out\n        /* \"#utility.yul\":2893:3266   */\n    tag_23:\n        /* \"#utility.yul\":3036:3040   */\n      0x00\n        /* \"#utility.yul\":3074:3076   */\n      0x20\n        /* \"#utility.yul\":3063:3072   */\n      dup3\n        /* \"#utility.yul\":3059:3077   */\n      add\n        /* \"#utility.yul\":3051:3077   */\n      swap1\n      pop\n        /* \"#utility.yul\":3123:3132   */\n      dup2\n        /* \"#utility.yul\":3117:3121   */\n      dup2\n        /* \"#utility.yul\":3113:3133   */\n      sub\n        /* \"#utility.yul\":3109:3110   */\n      0x00\n        /* \"#utility.yul\":3098:3107   */\n      dup4\n        /* \"#utility.yul\":3094:3111   */\n      add\n        /* \"#utility.yul\":3087:3134   */\n      mstore\n        /* \"#utility.yul\":3151:3259   */\n      tag_224\n        /* \"#utility.yul\":3254:3258   */\n      dup2\n        /* \"#utility.yul\":3245:3251   */\n      dup5\n        /* \"#utility.yul\":3151:3259   */\n      tag_156\n      jump\t// in\n    tag_224:\n        /* \"#utility.yul\":3143:3259   */\n      swap1\n      pop\n        /* \"#utility.yul\":2893:3266   */\n      swap3\n      swap2\n      pop\n      pop\n      jump\t// out\n        /* \"#utility.yul\":3272:3394   */\n    tag_157:\n        /* \"#utility.yul\":3345:3369   */\n      tag_226\n        /* \"#utility.yul\":3363:3368   */\n      dup2\n        /* \"#utility.yul\":3345:3369   */\n      tag_152\n      jump\t// in\n    tag_226:\n        /* \"#utility.yul\":3338:3343   */\n      dup2\n        /* \"#utility.yul\":3335:3370   */\n      eq\n        /* \"#utility.yul\":3325:3388   */\n      tag_227\n      jumpi\n        /* \"#utility.yul\":3384:3385   */\n      0x00\n        /* \"#utility.yul\":3381:3382   */\n      0x00\n        /* \"#utility.yul\":3374:3386   */\n      revert\n        /* \"#utility.yul\":3325:3388   */\n    tag_227:\n        /* \"#utility.yul\":3272:3394   */\n      pop\n      jump\t// out\n        /* \"#utility.yul\":3400:3539   */\n    tag_158:\n        /* \"#utility.yul\":3446:3451   */\n      0x00\n        /* \"#utility.yul\":3484:3490   */\n      dup2\n        /* \"#utility.yul\":3471:3491   */\n      calldataload\n        /* \"#utility.yul\":3462:3491   */\n      swap1\n      pop\n        /* \"#utility.yul\":3500:3533   */\n      tag_229\n        /* \"#utility.yul\":3527:3532   */\n      dup2\n        /* \"#utility.yul\":3500:3533   */\n      tag_157\n      jump\t// in\n    tag_229:\n        /* \"#utility.yul\":3400:3539   */\n      swap3\n      swap2\n      pop\n      pop\n      jump\t// out\n        /* \"#utility.yul\":3545:4019   */\n    tag_26:\n        /* \"#utility.yul\":3613:3619   */\n      0x00\n        /* \"#utility.yul\":3621:3627   */\n      0x00\n        /* \"#utility.yul\":3670:3672   */\n      0x40\n        /* \"#utility.yul\":3658:3667   */\n      dup4\n        /* \"#utility.yul\":3649:3656   */\n      dup6\n        /* \"#utility.yul\":3645:3668   */\n      sub\n        /* \"#utility.yul\":3641:3673   */\n      slt\n        /* \"#utility.yul\":3638:3757   */\n      iszero\n      tag_231\n      jumpi\n        /* \"#utility.yul\":3676:3755   */\n      tag_232\n      tag_143\n      jump\t// in\n    tag_232:\n        /* \"#utility.yul\":3638:3757   */\n    tag_231:\n        /* \"#utility.yul\":3796:3797   */\n      0x00\n        /* \"#utility.yul\":3821:3874   */\n      tag_233\n        /* \"#utility.yul\":3866:3873   */\n      dup6\n        /* \"#utility.yul\":3857:3863   */\n      dup3\n        /* \"#utility.yul\":3846:3855   */\n      dup7\n        /* \"#utility.yul\":3842:3864   */\n      add\n        /* \"#utility.yul\":3821:3874   */\n      tag_148\n      jump\t// in\n    tag_233:\n        /* \"#utility.yul\":3811:3874   */\n      swap3\n      pop\n        /* \"#utility.yul\":3767:3884   */\n      pop\n        /* \"#utility.yul\":3923:3925   */\n      0x20\n        /* \"#utility.yul\":3949:4002   */\n      tag_234\n        /* \"#utility.yul\":3994:4001   */\n      dup6\n        /* \"#utility.yul\":3985:3991   */\n      dup3\n        /* \"#utility.yul\":3974:3983   */\n      dup7\n        /* \"#utility.yul\":3970:3992   */\n      add\n        /* \"#utility.yul\":3949:4002   */\n      tag_158\n      jump\t// in\n    tag_234:\n        /* \"#utility.yul\":3939:4002   */\n      swap2\n      pop\n        /* \"#utility.yul\":3894:4012   */\n      pop\n        /* \"#utility.yul\":3545:4019   */\n      swap3\n      pop\n      swap3\n      swap1\n      pop\n      jump\t// out\n        /* \"#utility.yul\":4025:4143   */\n    tag_159:\n        /* \"#utility.yul\":4112:4136   */\n      tag_236\n        /* \"#utility.yul\":4130:4135   */\n      dup2\n        /* \"#utility.yul\":4112:4136   */\n      tag_152\n      jump\t// in\n    tag_236:\n        /* \"#utility.yul\":4107:4110   */\n      dup3\n        /* \"#utility.yul\":4100:4137   */\n      mstore\n        /* \"#utility.yul\":4025:4143   */\n      pop\n      pop\n      jump\t// out\n        /* \"#utility.yul\":4149:4371   */\n    tag_31:\n        /* \"#utility.yul\":4242:4246   */\n      0x00\n        /* \"#utility.yul\":4280:4282   */\n      0x20\n        /* \"#utility.yul\":4269:4278   */\n      dup3\n        /* \"#utility.yul\":4265:4283   */\n      add\n        /* \"#utility.yul\":4257:4283   */\n      swap1\n      pop\n        /* \"#utility.yul\":4293:4364   */\n      tag_238\n        /* \"#utility.yul\":4361:4362   */\n      0x00\n        /* \"#utility.yul\":4350:4359   */\n      dup4\n        /* \"#utility.yul\":4346:4363   */\n      add\n        /* \"#utility.yul\":4337:4343   */\n      dup5\n        /* \"#utility.yul\":4293:4364   */\n      tag_159\n      jump\t// in\n    tag_238:\n        /* \"#utility.yul\":4149:4371   */\n      swap3\n      swap2\n      pop\n      pop\n      jump\t// out\n        /* \"#utility.yul\":4377:4706   */\n    tag_40:\n        /* \"#utility.yul\":4436:4442   */\n      0x00\n        /* \"#utility.yul\":4485:4487   */\n      0x20\n        /* \"#utility.yul\":4473:4482   */\n      dup3\n        /* \"#utility.yul\":4464:4471   */\n      dup5\n        /* \"#utility.yul\":4460:4483   */\n      sub\n        /* \"#utility.yul\":4456:4488   */\n      slt\n        /* \"#utility.yul\":4453:4572   */\n      iszero\n      tag_240\n      jumpi\n        /* \"#utility.yul\":4491:4570   */\n      tag_241\n      tag_143\n      jump\t// in\n    tag_241:\n        /* \"#utility.yul\":4453:4572   */\n    tag_240:\n        /* \"#utility.yul\":4611:4612   */\n      0x00\n        /* \"#utility.yul\":4636:4689   */\n      tag_242\n        /* \"#utility.yul\":4681:4688   */\n      dup5\n        /* \"#utility.yul\":4672:4678   */\n      dup3\n        /* \"#utility.yul\":4661:4670   */\n      dup6\n        /* \"#utility.yul\":4657:4679   */\n      add\n        /* \"#utility.yul\":4636:4689   */\n      tag_158\n      jump\t// in\n    tag_242:\n        /* \"#utility.yul\":4626:4689   */\n      swap2\n      pop\n        /* \"#utility.yul\":4582:4699   */\n      pop\n        /* \"#utility.yul\":4377:4706   */\n      swap3\n      swap2\n      pop\n      pop\n      jump\t// out\n        /* \"#utility.yul\":4712:4772   */\n    tag_160:\n        /* \"#utility.yul\":4740:4743   */\n      0x00\n        /* \"#utility.yul\":4761:4766   */\n      dup2\n        /* \"#utility.yul\":4754:4766   */\n      swap1\n      pop\n        /* \"#utility.yul\":4712:4772   */\n      swap2\n      swap1\n      pop\n      jump\t// out\n        /* \"#utility.yul\":4778:4920   */\n    tag_161:\n        /* \"#utility.yul\":4828:4837   */\n      0x00\n        /* \"#utility.yul\":4861:4914   */\n      tag_245\n        /* \"#utility.yul\":4879:4913   */\n      tag_246\n        /* \"#utility.yul\":4888:4912   */\n      tag_247\n        /* \"#utility.yul\":4906:4911   */\n      dup5\n        /* \"#utility.yul\":4888:4912   */\n      tag_145\n      jump\t// in\n    tag_247:\n        /* \"#utility.yul\":4879:4913   */\n      tag_160\n      jump\t// in\n    tag_246:\n        /* \"#utility.yul\":4861:4914   */\n      tag_145\n      jump\t// in\n    tag_245:\n        /* \"#utility.yul\":4848:4914   */\n      swap1\n      pop\n        /* \"#utility.yul\":4778:4920   */\n      swap2\n      swap1\n      pop\n      jump\t// out\n        /* \"#utility.yul\":4926:5052   */\n    tag_162:\n        /* \"#utility.yul\":4976:4985   */\n      0x00\n        /* \"#utility.yul\":5009:5046   */\n      tag_249\n        /* \"#utility.yul\":5040:5045   */\n      dup3\n        /* \"#utility.yul\":5009:5046   */\n      tag_161\n      jump\t// in\n    tag_249:\n        /* \"#utility.yul\":4996:5046   */\n      swap1\n      pop\n        /* \"#utility.yul\":4926:5052   */\n      swap2\n      swap1\n      pop\n      jump\t// out\n        /* \"#utility.yul\":5058:5197   */\n    tag_163:\n        /* \"#utility.yul\":5121:5130   */\n      0x00\n        /* \"#utility.yul\":5154:5191   */\n      tag_251\n        /* \"#utility.yul\":5185:5190   */\n      dup3\n        /* \"#utility.yul\":5154:5191   */\n      tag_162\n      jump\t// in\n    tag_251:\n        /* \"#utility.yul\":5141:5191   */\n      swap1\n      pop\n        /* \"#utility.yul\":5058:5197   */\n      swap2\n      swap1\n      pop\n      jump\t// out\n        /* \"#utility.yul\":5203:5360   */\n    tag_164:\n        /* \"#utility.yul\":5303:5353   */\n      tag_253\n        /* \"#utility.yul\":5347:5352   */\n      dup2\n        /* \"#utility.yul\":5303:5353   */\n      tag_163\n      jump\t// in\n    tag_253:\n        /* \"#utility.yul\":5298:5301   */\n      dup3\n        /* \"#utility.yul\":5291:5354   */\n      mstore\n        /* \"#utility.yul\":5203:5360   */\n      pop\n      pop\n      jump\t// out\n        /* \"#utility.yul\":5366:5614   */\n    tag_51:\n        /* \"#utility.yul\":5472:5476   */\n      0x00\n        /* \"#utility.yul\":5510:5512   */\n      0x20\n        /* \"#utility.yul\":5499:5508   */\n      dup3\n        /* \"#utility.yul\":5495:5513   */\n      add\n        /* \"#utility.yul\":5487:5513   */\n      swap1\n      pop\n        /* \"#utility.yul\":5523:5607   */\n      tag_255\n        /* \"#utility.yul\":5604:5605   */\n      0x00\n        /* \"#utility.yul\":5593:5602   */\n      dup4\n        /* \"#utility.yul\":5589:5606   */\n      add\n        /* \"#utility.yul\":5580:5586   */\n      dup5\n        /* \"#utility.yul\":5523:5607   */\n      tag_164\n      jump\t// in\n    tag_255:\n        /* \"#utility.yul\":5366:5614   */\n      swap3\n      swap2\n      pop\n      pop\n      jump\t// out\n        /* \"#utility.yul\":5620:5738   */\n    tag_165:\n        /* \"#utility.yul\":5707:5731   */\n      tag_257\n        /* \"#utility.yul\":5725:5730   */\n      dup2\n        /* \"#utility.yul\":5707:5731   */\n      tag_146\n      jump\t// in\n    tag_257:\n        /* \"#utility.yul\":5702:5705   */\n      dup3\n        /* \"#utility.yul\":5695:5732   */\n      mstore\n        /* \"#utility.yul\":5620:5738   */\n      pop\n      pop\n      jump\t// out\n        /* \"#utility.yul\":5744:5834   */\n    tag_166:\n        /* \"#utility.yul\":5778:5785   */\n      0x00\n        /* \"#utility.yul\":5821:5826   */\n      dup2\n        /* \"#utility.yul\":5814:5827   */\n      iszero\n        /* \"#utility.yul\":5807:5828   */\n      iszero\n        /* \"#utility.yul\":5796:5828   */\n      swap1\n      pop\n        /* \"#utility.yul\":5744:5834   */\n      swap2\n      swap1\n      pop\n      jump\t// out\n        /* \"#utility.yul\":5840:5949   */\n    tag_167:\n        /* \"#utility.yul\":5921:5942   */\n      tag_260\n        /* \"#utility.yul\":5936:5941   */\n      dup2\n        /* \"#utility.yul\":5921:5942   */\n      tag_166\n      jump\t// in\n    tag_260:\n        /* \"#utility.yul\":5916:5919   */\n      dup3\n        /* \"#utility.yul\":5909:5943   */\n      mstore\n        /* \"#utility.yul\":5840:5949   */\n      pop\n      pop\n      jump\t// out\n        /* \"#utility.yul\":5955:6607   */\n    tag_64:\n        /* \"#utility.yul\":6154:6158   */\n      0x00\n        /* \"#utility.yul\":6192:6195   */\n      0xa0\n        /* \"#utility.yul\":6181:6190   */\n      dup3\n        /* \"#utility.yul\":6177:6196   */\n      add\n        /* \"#utility.yul\":6169:6196   */\n      swap1\n      pop\n        /* \"#utility.yul\":6206:6277   */\n      tag_262\n        /* \"#utility.yul\":6274:6275   */\n      0x00\n        /* \"#utility.yul\":6263:6272   */\n      dup4\n        /* \"#utility.yul\":6259:6276   */\n      add\n        /* \"#utility.yul\":6250:6256   */\n      dup9\n        /* \"#utility.yul\":6206:6277   */\n      tag_159\n      jump\t// in\n    tag_262:\n        /* \"#utility.yul\":6287:6359   */\n      tag_263\n        /* \"#utility.yul\":6355:6357   */\n      0x20\n        /* \"#utility.yul\":6344:6353   */\n      dup4\n        /* \"#utility.yul\":6340:6358   */\n      add\n        /* \"#utility.yul\":6331:6337   */\n      dup8\n        /* \"#utility.yul\":6287:6359   */\n      tag_165\n      jump\t// in\n    tag_263:\n        /* \"#utility.yul\":6369:6441   */\n      tag_264\n        /* \"#utility.yul\":6437:6439   */\n      0x40\n        /* \"#utility.yul\":6426:6435   */\n      dup4\n        /* \"#utility.yul\":6422:6440   */\n      add\n        /* \"#utility.yul\":6413:6419   */\n      dup7\n        /* \"#utility.yul\":6369:6441   */\n      tag_159\n      jump\t// in\n    tag_264:\n        /* \"#utility.yul\":6451:6523   */\n      tag_265\n        /* \"#utility.yul\":6519:6521   */\n      0x60\n        /* \"#utility.yul\":6508:6517   */\n      dup4\n        /* \"#utility.yul\":6504:6522   */\n      add\n        /* \"#utility.yul\":6495:6501   */\n      dup6\n        /* \"#utility.yul\":6451:6523   */\n      tag_159\n      jump\t// in\n    tag_265:\n        /* \"#utility.yul\":6533:6600   */\n      tag_266\n        /* \"#utility.yul\":6595:6598   */\n      0x80\n        /* \"#utility.yul\":6584:6593   */\n      dup4\n        /* \"#utility.yul\":6580:6599   */\n      add\n        /* \"#utility.yul\":6571:6577   */\n      dup5\n        /* \"#utility.yul\":6533:6600   */\n      tag_167\n      jump\t// in\n    tag_266:\n        /* \"#utility.yul\":5955:6607   */\n      swap7\n      swap6\n      pop\n      pop\n      pop\n      pop\n      pop\n      pop\n      jump\t// out\n        /* \"#utility.yul\":6613:6835   */\n    tag_68:\n        /* \"#utility.yul\":6706:6710   */\n      0x00\n        /* \"#utility.yul\":6744:6746   */\n      0x20\n        /* \"#utility.yul\":6733:6742   */\n      dup3\n        /* \"#utility.yul\":6729:6747   */\n      add\n        /* \"#utility.yul\":6721:6747   */\n      swap1\n      pop\n        /* \"#utility.yul\":6757:6828   */\n      tag_268\n        /* \"#utility.yul\":6825:6826   */\n      0x00\n        /* \"#utility.yul\":6814:6823   */\n      dup4\n        /* \"#utility.yul\":6810:6827   */\n      add\n        /* \"#utility.yul\":6801:6807   */\n      dup5\n        /* \"#utility.yul\":6757:6828   */\n      tag_165\n      jump\t// in\n    tag_268:\n        /* \"#utility.yul\":6613:6835   */\n      swap3\n      swap2\n      pop\n      pop\n      jump\t// out\n        /* \"#utility.yul\":6841:7010   */\n    tag_168:\n        /* \"#utility.yul\":6925:6936   */\n      0x00\n        /* \"#utility.yul\":6959:6965   */\n      dup3\n        /* \"#utility.yul\":6954:6957   */\n      dup3\n        /* \"#utility.yul\":6947:6966   */\n      mstore\n        /* \"#utility.yul\":6999:7003   */\n      0x20\n        /* \"#utility.yul\":6994:6997   */\n      dup3\n        /* \"#utility.yul\":6990:7004   */\n      add\n        /* \"#utility.yul\":6975:7004   */\n      swap1\n      pop\n        /* \"#utility.yul\":6841:7010   */\n      swap3\n      swap2\n      pop\n      pop\n      jump\t// out\n        /* \"#utility.yul\":7016:7175   */\n    tag_169:\n        /* \"#utility.yul\":7156:7167   */\n      0x4e6f742061646d696e0000000000000000000000000000000000000000000000\n        /* \"#utility.yul\":7152:7153   */\n      0x00\n        /* \"#utility.yul\":7144:7150   */\n      dup3\n        /* \"#utility.yul\":7140:7154   */\n      add\n        /* \"#utility.yul\":7133:7168   */\n      mstore\n        /* \"#utility.yul\":7016:7175   */\n      pop\n      jump\t// out\n        /* \"#utility.yul\":7181:7546   */\n    tag_170:\n        /* \"#utility.yul\":7323:7326   */\n      0x00\n        /* \"#utility.yul\":7344:7410   */\n      tag_272\n        /* \"#utility.yul\":7408:7409   */\n      0x09\n        /* \"#utility.yul\":7403:7406   */\n      dup4\n        /* \"#utility.yul\":7344:7410   */\n      tag_168\n      jump\t// in\n    tag_272:\n        /* \"#utility.yul\":7337:7410   */\n      swap2\n      pop\n        /* \"#utility.yul\":7419:7512   */\n      tag_273\n        /* \"#utility.yul\":7508:7511   */\n      dup3\n        /* \"#utility.yul\":7419:7512   */\n      tag_169\n      jump\t// in\n    tag_273:\n        /* \"#utility.yul\":7537:7539   */\n      0x20\n        /* \"#utility.yul\":7532:7535   */\n      dup3\n        /* \"#utility.yul\":7528:7540   */\n      add\n        /* \"#utility.yul\":7521:7540   */\n      swap1\n      pop\n        /* \"#utility.yul\":7181:7546   */\n      swap2\n      swap1\n      pop\n      jump\t// out\n        /* \"#utility.yul\":7552:7971   */\n    tag_75:\n        /* \"#utility.yul\":7718:7722   */\n      0x00\n        /* \"#utility.yul\":7756:7758   */\n      0x20\n        /* \"#utility.yul\":7745:7754   */\n      dup3\n        /* \"#utility.yul\":7741:7759   */\n      add\n        /* \"#utility.yul\":7733:7759   */\n      swap1\n      pop\n        /* \"#utility.yul\":7805:7814   */\n      dup2\n        /* \"#utility.yul\":7799:7803   */\n      dup2\n        /* \"#utility.yul\":7795:7815   */\n      sub\n        /* \"#utility.yul\":7791:7792   */\n      0x00\n        /* \"#utility.yul\":7780:7789   */\n      dup4\n        /* \"#utility.yul\":7776:7793   */\n      add\n        /* \"#utility.yul\":7769:7816   */\n      mstore\n        /* \"#utility.yul\":7833:7964   */\n      tag_275\n        /* \"#utility.yul\":7959:7963   */\n      dup2\n        /* \"#utility.yul\":7833:7964   */\n      tag_170\n      jump\t// in\n    tag_275:\n        /* \"#utility.yul\":7825:7964   */\n      swap1\n      pop\n        /* \"#utility.yul\":7552:7971   */\n      swap2\n      swap1\n      pop\n      jump\t// out\n        /* \"#utility.yul\":7977:8120   */\n    tag_171:\n        /* \"#utility.yul\":8034:8039   */\n      0x00\n        /* \"#utility.yul\":8065:8071   */\n      dup2\n        /* \"#utility.yul\":8059:8072   */\n      mload\n        /* \"#utility.yul\":8050:8072   */\n      swap1\n      pop\n        /* \"#utility.yul\":8081:8114   */\n      tag_277\n        /* \"#utility.yul\":8108:8113   */\n      dup2\n        /* \"#utility.yul\":8081:8114   */\n      tag_157\n      jump\t// in\n    tag_277:\n        /* \"#utility.yul\":7977:8120   */\n      swap3\n      swap2\n      pop\n      pop\n      jump\t// out\n        /* \"#utility.yul\":8126:8477   */\n    tag_82:\n        /* \"#utility.yul\":8196:8202   */\n      0x00\n        /* \"#utility.yul\":8245:8247   */\n      0x20\n        /* \"#utility.yul\":8233:8242   */\n      dup3\n        /* \"#utility.yul\":8224:8231   */\n      dup5\n        /* \"#utility.yul\":8220:8243   */\n      sub\n        /* \"#utility.yul\":8216:8248   */\n      slt\n        /* \"#utility.yul\":8213:8332   */\n      iszero\n      tag_279\n      jumpi\n        /* \"#utility.yul\":8251:8330   */\n      tag_280\n      tag_143\n      jump\t// in\n    tag_280:\n        /* \"#utility.yul\":8213:8332   */\n    tag_279:\n        /* \"#utility.yul\":8371:8372   */\n      0x00\n        /* \"#utility.yul\":8396:8460   */\n      tag_281\n        /* \"#utility.yul\":8452:8459   */\n      dup5\n        /* \"#utility.yul\":8443:8449   */\n      dup3\n        /* \"#utility.yul\":8432:8441   */\n      dup6\n        /* \"#utility.yul\":8428:8450   */\n      add\n        /* \"#utility.yul\":8396:8460   */\n      tag_171\n      jump\t// in\n    tag_281:\n        /* \"#utility.yul\":8386:8460   */\n      swap2\n      pop\n        /* \"#utility.yul\":8342:8470   */\n      pop\n        /* \"#utility.yul\":8126:8477   */\n      swap3\n      swap2\n      pop\n      pop\n      jump\t// out\n        /* \"#utility.yul\":8483:8650   */\n    tag_172:\n        /* \"#utility.yul\":8623:8642   */\n      0x496e73756666696369656e7420706f6f6c000000000000000000000000000000\n        /* \"#utility.yul\":8619:8620   */\n      0x00\n        /* \"#utility.yul\":8611:8617   */\n      dup3\n        /* \"#utility.yul\":8607:8621   */\n      add\n        /* \"#utility.yul\":8600:8643   */\n      mstore\n        /* \"#utility.yul\":8483:8650   */\n      pop\n      jump\t// out\n        /* \"#utility.yul\":8656:9022   */\n    tag_173:\n        /* \"#utility.yul\":8798:8801   */\n      0x00\n        /* \"#utility.yul\":8819:8886   */\n      tag_284\n        /* \"#utility.yul\":8883:8885   */\n      0x11\n        /* \"#utility.yul\":8878:8881   */\n      dup4\n        /* \"#utility.yul\":8819:8886   */\n      tag_168\n      jump\t// in\n    tag_284:\n        /* \"#utility.yul\":8812:8886   */\n      swap2\n      pop\n        /* \"#utility.yul\":8895:8988   */\n      tag_285\n        /* \"#utility.yul\":8984:8987   */\n      dup3\n        /* \"#utility.yul\":8895:8988   */\n      tag_172\n      jump\t// in\n    tag_285:\n        /* \"#utility.yul\":9013:9015   */\n      0x20\n        /* \"#utility.yul\":9008:9011   */\n      dup3\n        /* \"#utility.yul\":9004:9016   */\n      add\n        /* \"#utility.yul\":8997:9016   */\n      swap1\n      pop\n        /* \"#utility.yul\":8656:9022   */\n      swap2\n      swap1\n      pop\n      jump\t// out\n        /* \"#utility.yul\":9028:9447   */\n    tag_93:\n        /* \"#utility.yul\":9194:9198   */\n      0x00\n        /* \"#utility.yul\":9232:9234   */\n      0x20\n        /* \"#utility.yul\":9221:9230   */\n      dup3\n        /* \"#utility.yul\":9217:9235   */\n      add\n        /* \"#utility.yul\":9209:9235   */\n      swap1\n      pop\n        /* \"#utility.yul\":9281:9290   */\n      dup2\n        /* \"#utility.yul\":9275:9279   */\n      dup2\n        /* \"#utility.yul\":9271:9291   */\n      sub\n        /* \"#utility.yul\":9267:9268   */\n      0x00\n        /* \"#utility.yul\":9256:9265   */\n      dup4\n        /* \"#utility.yul\":9252:9269   */\n      add\n        /* \"#utility.yul\":9245:9292   */\n      mstore\n        /* \"#utility.yul\":9309:9440   */\n      tag_287\n        /* \"#utility.yul\":9435:9439   */\n      dup2\n        /* \"#utility.yul\":9309:9440   */\n      tag_173\n      jump\t// in\n    tag_287:\n        /* \"#utility.yul\":9301:9440   */\n      swap1\n      pop\n        /* \"#utility.yul\":9028:9447   */\n      swap2\n      swap1\n      pop\n      jump\t// out\n        /* \"#utility.yul\":9453:9785   */\n    tag_95:\n        /* \"#utility.yul\":9574:9578   */\n      0x00\n        /* \"#utility.yul\":9612:9614   */\n      0x40\n        /* \"#utility.yul\":9601:9610   */\n      dup3\n        /* \"#utility.yul\":9597:9615   */\n      add\n        /* \"#utility.yul\":9589:9615   */\n      swap1\n      pop\n        /* \"#utility.yul\":9625:9696   */\n      tag_289\n        /* \"#utility.yul\":9693:9694   */\n      0x00\n        /* \"#utility.yul\":9682:9691   */\n      dup4\n        /* \"#utility.yul\":9678:9695   */\n      add\n        /* \"#utility.yul\":9669:9675   */\n      dup6\n        /* \"#utility.yul\":9625:9696   */\n      tag_165\n      jump\t// in\n    tag_289:\n        /* \"#utility.yul\":9706:9778   */\n      tag_290\n        /* \"#utility.yul\":9774:9776   */\n      0x20\n        /* \"#utility.yul\":9763:9772   */\n      dup4\n        /* \"#utility.yul\":9759:9777   */\n      add\n        /* \"#utility.yul\":9750:9756   */\n      dup5\n        /* \"#utility.yul\":9706:9778   */\n      tag_159\n      jump\t// in\n    tag_290:\n        /* \"#utility.yul\":9453:9785   */\n      swap4\n      swap3\n      pop\n      pop\n      pop\n      jump\t// out\n        /* \"#utility.yul\":9791:9907   */\n    tag_174:\n        /* \"#utility.yul\":9861:9882   */\n      tag_292\n        /* \"#utility.yul\":9876:9881   */\n      dup2\n        /* \"#utility.yul\":9861:9882   */\n      tag_166\n      jump\t// in\n    tag_292:\n        /* \"#utility.yul\":9854:9859   */\n      dup2\n        /* \"#utility.yul\":9851:9883   */\n      eq\n        /* \"#utility.yul\":9841:9901   */\n      tag_293\n      jumpi\n        /* \"#utility.yul\":9897:9898   */\n      0x00\n        /* \"#utility.yul\":9894:9895   */\n      0x00\n        /* \"#utility.yul\":9887:9899   */\n      revert\n        /* \"#utility.yul\":9841:9901   */\n    tag_293:\n        /* \"#utility.yul\":9791:9907   */\n      pop\n      jump\t// out\n        /* \"#utility.yul\":9913:10050   */\n    tag_175:\n        /* \"#utility.yul\":9967:9972   */\n      0x00\n        /* \"#utility.yul\":9998:10004   */\n      dup2\n        /* \"#utility.yul\":9992:10005   */\n      mload\n        /* \"#utility.yul\":9983:10005   */\n      swap1\n      pop\n        /* \"#utility.yul\":10014:10044   */\n      tag_295\n        /* \"#utility.yul\":10038:10043   */\n      dup2\n        /* \"#utility.yul\":10014:10044   */\n      tag_174\n      jump\t// in\n    tag_295:\n        /* \"#utility.yul\":9913:10050   */\n      swap3\n      swap2\n      pop\n      pop\n      jump\t// out\n        /* \"#utility.yul\":10056:10401   */\n    tag_99:\n        /* \"#utility.yul\":10123:10129   */\n      0x00\n        /* \"#utility.yul\":10172:10174   */\n      0x20\n        /* \"#utility.yul\":10160:10169   */\n      dup3\n        /* \"#utility.yul\":10151:10158   */\n      dup5\n        /* \"#utility.yul\":10147:10170   */\n      sub\n        /* \"#utility.yul\":10143:10175   */\n      slt\n        /* \"#utility.yul\":10140:10259   */\n      iszero\n      tag_297\n      jumpi\n        /* \"#utility.yul\":10178:10257   */\n      tag_298\n      tag_143\n      jump\t// in\n    tag_298:\n        /* \"#utility.yul\":10140:10259   */\n    tag_297:\n        /* \"#utility.yul\":10298:10299   */\n      0x00\n        /* \"#utility.yul\":10323:10384   */\n      tag_299\n        /* \"#utility.yul\":10376:10383   */\n      dup5\n        /* \"#utility.yul\":10367:10373   */\n      dup3\n        /* \"#utility.yul\":10356:10365   */\n      dup6\n        /* \"#utility.yul\":10352:10374   */\n      add\n        /* \"#utility.yul\":10323:10384   */\n      tag_175\n      jump\t// in\n    tag_299:\n        /* \"#utility.yul\":10313:10384   */\n      swap2\n      pop\n        /* \"#utility.yul\":10269:10394   */\n      pop\n        /* \"#utility.yul\":10056:10401   */\n      swap3\n      swap2\n      pop\n      pop\n      jump\t// out\n        /* \"#utility.yul\":10407:10589   */\n    tag_176:\n        /* \"#utility.yul\":10547:10581   */\n      0x416d6f756e74206d7573742062652067726561746572207468616e207a65726f\n        /* \"#utility.yul\":10543:10544   */\n      0x00\n        /* \"#utility.yul\":10535:10541   */\n      dup3\n        /* \"#utility.yul\":10531:10545   */\n      add\n        /* \"#utility.yul\":10524:10582   */\n      mstore\n        /* \"#utility.yul\":10407:10589   */\n      pop\n      jump\t// out\n        /* \"#utility.yul\":10595:10961   */\n    tag_177:\n        /* \"#utility.yul\":10737:10740   */\n      0x00\n        /* \"#utility.yul\":10758:10825   */\n      tag_302\n        /* \"#utility.yul\":10822:10824   */\n      0x20\n        /* \"#utility.yul\":10817:10820   */\n      dup4\n        /* \"#utility.yul\":10758:10825   */\n      tag_168\n      jump\t// in\n    tag_302:\n        /* \"#utility.yul\":10751:10825   */\n      swap2\n      pop\n        /* \"#utility.yul\":10834:10927   */\n      tag_303\n        /* \"#utility.yul\":10923:10926   */\n      dup3\n        /* \"#utility.yul\":10834:10927   */\n      tag_176\n      jump\t// in\n    tag_303:\n        /* \"#utility.yul\":10952:10954   */\n      0x20\n        /* \"#utility.yul\":10947:10950   */\n      dup3\n        /* \"#utility.yul\":10943:10955   */\n      add\n        /* \"#utility.yul\":10936:10955   */\n      swap1\n      pop\n        /* \"#utility.yul\":10595:10961   */\n      swap2\n      swap1\n      pop\n      jump\t// out\n        /* \"#utility.yul\":10967:11386   */\n    tag_104:\n        /* \"#utility.yul\":11133:11137   */\n      0x00\n        /* \"#utility.yul\":11171:11173   */\n      0x20\n        /* \"#utility.yul\":11160:11169   */\n      dup3\n        /* \"#utility.yul\":11156:11174   */\n      add\n        /* \"#utility.yul\":11148:11174   */\n      swap1\n      pop\n        /* \"#utility.yul\":11220:11229   */\n      dup2\n        /* \"#utility.yul\":11214:11218   */\n      dup2\n        /* \"#utility.yul\":11210:11230   */\n      sub\n        /* \"#utility.yul\":11206:11207   */\n      0x00\n        /* \"#utility.yul\":11195:11204   */\n      dup4\n        /* \"#utility.yul\":11191:11208   */\n      add\n        /* \"#utility.yul\":11184:11231   */\n      mstore\n        /* \"#utility.yul\":11248:11379   */\n      tag_305\n        /* \"#utility.yul\":11374:11378   */\n      dup2\n        /* \"#utility.yul\":11248:11379   */\n      tag_177\n      jump\t// in\n    tag_305:\n        /* \"#utility.yul\":11240:11379   */\n      swap1\n      pop\n        /* \"#utility.yul\":10967:11386   */\n      swap2\n      swap1\n      pop\n      jump\t// out\n        /* \"#utility.yul\":11392:11561   */\n    tag_178:\n        /* \"#utility.yul\":11532:11553   */\n      0x4e6f20637265646974206c696d69742073657400000000000000000000000000\n        /* \"#utility.yul\":11528:11529   */\n      0x00\n        /* \"#utility.yul\":11520:11526   */\n      dup3\n        /* \"#utility.yul\":11516:11530   */\n      add\n        /* \"#utility.yul\":11509:11554   */\n      mstore\n        /* \"#utility.yul\":11392:11561   */\n      pop\n      jump\t// out\n        /* \"#utility.yul\":11567:11933   */\n    tag_179:\n        /* \"#utility.yul\":11709:11712   */\n      0x00\n        /* \"#utility.yul\":11730:11797   */\n      tag_308\n        /* \"#utility.yul\":11794:11796   */\n      0x13\n        /* \"#utility.yul\":11789:11792   */\n      dup4\n        /* \"#utility.yul\":11730:11797   */\n      tag_168\n      jump\t// in\n    tag_308:\n        /* \"#utility.yul\":11723:11797   */\n      swap2\n      pop\n        /* \"#utility.yul\":11806:11899   */\n      tag_309\n        /* \"#utility.yul\":11895:11898   */\n      dup3\n        /* \"#utility.yul\":11806:11899   */\n      tag_178\n      jump\t// in\n    tag_309:\n        /* \"#utility.yul\":11924:11926   */\n      0x20\n        /* \"#utility.yul\":11919:11922   */\n      dup3\n        /* \"#utility.yul\":11915:11927   */\n      add\n        /* \"#utility.yul\":11908:11927   */\n      swap1\n      pop\n        /* \"#utility.yul\":11567:11933   */\n      swap2\n      swap1\n      pop\n      jump\t// out\n        /* \"#utility.yul\":11939:12358   */\n    tag_107:\n        /* \"#utility.yul\":12105:12109   */\n      0x00\n        /* \"#utility.yul\":12143:12145   */\n      0x20\n        /* \"#utility.yul\":12132:12141   */\n      dup3\n        /* \"#utility.yul\":12128:12146   */\n      add\n        /* \"#utility.yul\":12120:12146   */\n      swap1\n      pop\n        /* \"#utility.yul\":12192:12201   */\n      dup2\n        /* \"#utility.yul\":12186:12190   */\n      dup2\n        /* \"#utility.yul\":12182:12202   */\n      sub\n        /* \"#utility.yul\":12178:12179   */\n      0x00\n        /* \"#utility.yul\":12167:12176   */\n      dup4\n        /* \"#utility.yul\":12163:12180   */\n      add\n        /* \"#utility.yul\":12156:12203   */\n      mstore\n        /* \"#utility.yul\":12220:12351   */\n      tag_311\n        /* \"#utility.yul\":12346:12350   */\n      dup2\n        /* \"#utility.yul\":12220:12351   */\n      tag_179\n      jump\t// in\n    tag_311:\n        /* \"#utility.yul\":12212:12351   */\n      swap1\n      pop\n        /* \"#utility.yul\":11939:12358   */\n      swap2\n      swap1\n      pop\n      jump\t// out\n        /* \"#utility.yul\":12364:12545   */\n    tag_180:\n        /* \"#utility.yul\":12504:12537   */\n      0x45786365656473206d6178206c6f616e206c696d697420666f72207573657200\n        /* \"#utility.yul\":12500:12501   */\n      0x00\n        /* \"#utility.yul\":12492:12498   */\n      dup3\n        /* \"#utility.yul\":12488:12502   */\n      add\n        /* \"#utility.yul\":12481:12538   */\n      mstore\n        /* \"#utility.yul\":12364:12545   */\n      pop\n      jump\t// out\n        /* \"#utility.yul\":12551:12917   */\n    tag_181:\n        /* \"#utility.yul\":12693:12696   */\n      0x00\n        /* \"#utility.yul\":12714:12781   */\n      tag_314\n        /* \"#utility.yul\":12778:12780   */\n      0x1f\n        /* \"#utility.yul\":12773:12776   */\n      dup4\n        /* \"#utility.yul\":12714:12781   */\n      tag_168\n      jump\t// in\n    tag_314:\n        /* \"#utility.yul\":12707:12781   */\n      swap2\n      pop\n        /* \"#utility.yul\":12790:12883   */\n      tag_315\n        /* \"#utility.yul\":12879:12882   */\n      dup3\n        /* \"#utility.yul\":12790:12883   */\n      tag_180\n      jump\t// in\n    tag_315:\n        /* \"#utility.yul\":12908:12910   */\n      0x20\n        /* \"#utility.yul\":12903:12906   */\n      dup3\n        /* \"#utility.yul\":12899:12911   */\n      add\n        /* \"#utility.yul\":12892:12911   */\n      swap1\n      pop\n        /* \"#utility.yul\":12551:12917   */\n      swap2\n      swap1\n      pop\n      jump\t// out\n        /* \"#utility.yul\":12923:13342   */\n    tag_110:\n        /* \"#utility.yul\":13089:13093   */\n      0x00\n        /* \"#utility.yul\":13127:13129   */\n      0x20\n        /* \"#utility.yul\":13116:13125   */\n      dup3\n        /* \"#utility.yul\":13112:13130   */\n      add\n        /* \"#utility.yul\":13104:13130   */\n      swap1\n      pop\n        /* \"#utility.yul\":13176:13185   */\n      dup2\n        /* \"#utility.yul\":13170:13174   */\n      dup2\n        /* \"#utility.yul\":13166:13186   */\n      sub\n        /* \"#utility.yul\":13162:13163   */\n      0x00\n        /* \"#utility.yul\":13151:13160   */\n      dup4\n        /* \"#utility.yul\":13147:13164   */\n      add\n        /* \"#utility.yul\":13140:13187   */\n      mstore\n        /* \"#utility.yul\":13204:13335   */\n      tag_317\n        /* \"#utility.yul\":13330:13334   */\n      dup2\n        /* \"#utility.yul\":13204:13335   */\n      tag_181\n      jump\t// in\n    tag_317:\n        /* \"#utility.yul\":13196:13335   */\n      swap1\n      pop\n        /* \"#utility.yul\":12923:13342   */\n      swap2\n      swap1\n      pop\n      jump\t// out\n        /* \"#utility.yul\":13348:13529   */\n    tag_182:\n        /* \"#utility.yul\":13488:13521   */\n      0x436f6e74726163742068617320696e73756666696369656e742066756e647300\n        /* \"#utility.yul\":13484:13485   */\n      0x00\n        /* \"#utility.yul\":13476:13482   */\n      dup3\n        /* \"#utility.yul\":13472:13486   */\n      add\n        /* \"#utility.yul\":13465:13522   */\n      mstore\n        /* \"#utility.yul\":13348:13529   */\n      pop\n      jump\t// out\n        /* \"#utility.yul\":13535:13901   */\n    tag_183:\n        /* \"#utility.yul\":13677:13680   */\n      0x00\n        /* \"#utility.yul\":13698:13765   */\n      tag_320\n        /* \"#utility.yul\":13762:13764   */\n      0x1f\n        /* \"#utility.yul\":13757:13760   */\n      dup4\n        /* \"#utility.yul\":13698:13765   */\n      tag_168\n      jump\t// in\n    tag_320:\n        /* \"#utility.yul\":13691:13765   */\n      swap2\n      pop\n        /* \"#utility.yul\":13774:13867   */\n      tag_321\n        /* \"#utility.yul\":13863:13866   */\n      dup3\n        /* \"#utility.yul\":13774:13867   */\n      tag_182\n      jump\t// in\n    tag_321:\n        /* \"#utility.yul\":13892:13894   */\n      0x20\n        /* \"#utility.yul\":13887:13890   */\n      dup3\n        /* \"#utility.yul\":13883:13895   */\n      add\n        /* \"#utility.yul\":13876:13895   */\n      swap1\n      pop\n        /* \"#utility.yul\":13535:13901   */\n      swap2\n      swap1\n      pop\n      jump\t// out\n        /* \"#utility.yul\":13907:14326   */\n    tag_117:\n        /* \"#utility.yul\":14073:14077   */\n      0x00\n        /* \"#utility.yul\":14111:14113   */\n      0x20\n        /* \"#utility.yul\":14100:14109   */\n      dup3\n        /* \"#utility.yul\":14096:14114   */\n      add\n        /* \"#utility.yul\":14088:14114   */\n      swap1\n      pop\n        /* \"#utility.yul\":14160:14169   */\n      dup2\n        /* \"#utility.yul\":14154:14158   */\n      dup2\n        /* \"#utility.yul\":14150:14170   */\n      sub\n        /* \"#utility.yul\":14146:14147   */\n      0x00\n        /* \"#utility.yul\":14135:14144   */\n      dup4\n        /* \"#utility.yul\":14131:14148   */\n      add\n        /* \"#utility.yul\":14124:14171   */\n      mstore\n        /* \"#utility.yul\":14188:14319   */\n      tag_323\n        /* \"#utility.yul\":14314:14318   */\n      dup2\n        /* \"#utility.yul\":14188:14319   */\n      tag_183\n      jump\t// in\n    tag_323:\n        /* \"#utility.yul\":14180:14319   */\n      swap1\n      pop\n        /* \"#utility.yul\":13907:14326   */\n      swap2\n      swap1\n      pop\n      jump\t// out\n        /* \"#utility.yul\":14332:14512   */\n    tag_184:\n        /* \"#utility.yul\":14380:14457   */\n      0x4e487b7100000000000000000000000000000000000000000000000000000000\n        /* \"#utility.yul\":14377:14378   */\n      0x00\n        /* \"#utility.yul\":14370:14458   */\n      mstore\n        /* \"#utility.yul\":14477:14481   */\n      0x11\n        /* \"#utility.yul\":14474:14475   */\n      0x04\n        /* \"#utility.yul\":14467:14482   */\n      mstore\n        /* \"#utility.yul\":14501:14505   */\n      0x24\n        /* \"#utility.yul\":14498:14499   */\n      0x00\n        /* \"#utility.yul\":14491:14506   */\n      revert\n        /* \"#utility.yul\":14518:14751   */\n    tag_119:\n        /* \"#utility.yul\":14557:14560   */\n      0x00\n        /* \"#utility.yul\":14580:14604   */\n      tag_326\n        /* \"#utility.yul\":14598:14603   */\n      dup3\n        /* \"#utility.yul\":14580:14604   */\n      tag_152\n      jump\t// in\n    tag_326:\n        /* \"#utility.yul\":14571:14604   */\n      swap2\n      pop\n        /* \"#utility.yul\":14626:14692   */\n      0xffffffffffffffffffffffffffffffffffffffffffffffffffffffffffffffff\n        /* \"#utility.yul\":14619:14624   */\n      dup3\n        /* \"#utility.yul\":14616:14693   */\n      sub\n        /* \"#utility.yul\":14613:14716   */\n      tag_327\n      jumpi\n        /* \"#utility.yul\":14696:14714   */\n      tag_328\n      tag_184\n      jump\t// in\n    tag_328:\n        /* \"#utility.yul\":14613:14716   */\n    tag_327:\n        /* \"#utility.yul\":14743:14744   */\n      0x01\n        /* \"#utility.yul\":14736:14741   */\n      dup3\n        /* \"#utility.yul\":14732:14745   */\n      add\n        /* \"#utility.yul\":14725:14745   */\n      swap1\n      pop\n        /* \"#utility.yul\":14518:14751   */\n      swap2\n      swap1\n      pop\n      jump\t// out\n        /* \"#utility.yul\":14757:15199   */\n    tag_126:\n        /* \"#utility.yul\":14906:14910   */\n      0x00\n        /* \"#utility.yul\":14944:14946   */\n      0x60\n        /* \"#utility.yul\":14933:14942   */\n      dup3\n        /* \"#utility.yul\":14929:14947   */\n      add\n        /* \"#utility.yul\":14921:14947   */\n      swap1\n      pop\n        /* \"#utility.yul\":14957:15028   */\n      tag_330\n        /* \"#utility.yul\":15025:15026   */\n      0x00\n        /* \"#utility.yul\":15014:15023   */\n      dup4\n        /* \"#utility.yul\":15010:15027   */\n      add\n        /* \"#utility.yul\":15001:15007   */\n      dup7\n        /* \"#utility.yul\":14957:15028   */\n      tag_165\n      jump\t// in\n    tag_330:\n        /* \"#utility.yul\":15038:15110   */\n      tag_331\n        /* \"#utility.yul\":15106:15108   */\n      0x20\n        /* \"#utility.yul\":15095:15104   */\n      dup4\n        /* \"#utility.yul\":15091:15109   */\n      add\n        /* \"#utility.yul\":15082:15088   */\n      dup6\n        /* \"#utility.yul\":15038:15110   */\n      tag_159\n      jump\t// in\n    tag_331:\n        /* \"#utility.yul\":15120:15192   */\n      tag_332\n        /* \"#utility.yul\":15188:15190   */\n      0x40\n        /* \"#utility.yul\":15177:15186   */\n      dup4\n        /* \"#utility.yul\":15173:15191   */\n      add\n        /* \"#utility.yul\":15164:15170   */\n      dup5\n        /* \"#utility.yul\":15120:15192   */\n      tag_159\n      jump\t// in\n    tag_332:\n        /* \"#utility.yul\":14757:15199   */\n      swap5\n      swap4\n      pop\n      pop\n      pop\n      pop\n      jump\t// out\n        /* \"#utility.yul\":15205:15367   */\n    tag_185:\n        /* \"#utility.yul\":15345:15359   */\n      0x4e6f7420626f72726f7765720000000000000000000000000000000000000000\n        /* \"#utility.yul\":15341:15342   */\n      0x00\n        /* \"#utility.yul\":15333:15339   */\n      dup3\n        /* \"#utility.yul\":15329:15343   */\n      add\n        /* \"#utility.yul\":15322:15360   */\n      mstore\n        /* \"#utility.yul\":15205:15367   */\n      pop\n      jump\t// out\n        /* \"#utility.yul\":15373:15739   */\n    tag_186:\n        /* \"#utility.yul\":15515:15518   */\n      0x00\n        /* \"#utility.yul\":15536:15603   */\n      tag_335\n        /* \"#utility.yul\":15600:15602   */\n      0x0c\n        /* \"#utility.yul\":15595:15598   */\n      dup4\n        /* \"#utility.yul\":15536:15603   */\n      tag_168\n      jump\t// in\n    tag_335:\n        /* \"#utility.yul\":15529:15603   */\n      swap2\n      pop\n        /* \"#utility.yul\":15612:15705   */\n      tag_336\n        /* \"#utility.yul\":15701:15704   */\n      dup3\n        /* \"#utility.yul\":15612:15705   */\n      tag_185\n      jump\t// in\n    tag_336:\n        /* \"#utility.yul\":15730:15732   */\n      0x20\n        /* \"#utility.yul\":15725:15728   */\n      dup3\n        /* \"#utility.yul\":15721:15733   */\n      add\n        /* \"#utility.yul\":15714:15733   */\n      swap1\n      pop\n        /* \"#utility.yul\":15373:15739   */\n      swap2\n      swap1\n      pop\n      jump\t// out\n        /* \"#utility.yul\":15745:16164   */\n    tag_130:\n        /* \"#utility.yul\":15911:15915   */\n      0x00\n        /* \"#utility.yul\":15949:15951   */\n      0x20\n        /* \"#utility.yul\":15938:15947   */\n      dup3\n        /* \"#utility.yul\":15934:15952   */\n      add\n        /* \"#utility.yul\":15926:15952   */\n      swap1\n      pop\n        /* \"#utility.yul\":15998:16007   */\n      dup2\n        /* \"#utility.yul\":15992:15996   */\n      dup2\n        /* \"#utility.yul\":15988:16008   */\n      sub\n        /* \"#utility.yul\":15984:15985   */\n      0x00\n        /* \"#utility.yul\":15973:15982   */\n      dup4\n        /* \"#utility.yul\":15969:15986   */\n      add\n        /* \"#utility.yul\":15962:16009   */\n      mstore\n        /* \"#utility.yul\":16026:16157   */\n      tag_338\n        /* \"#utility.yul\":16152:16156   */\n      dup2\n        /* \"#utility.yul\":16026:16157   */\n      tag_186\n      jump\t// in\n    tag_338:\n        /* \"#utility.yul\":16018:16157   */\n      swap1\n      pop\n        /* \"#utility.yul\":15745:16164   */\n      swap2\n      swap1\n      pop\n      jump\t// out\n        /* \"#utility.yul\":16170:16334   */\n    tag_187:\n        /* \"#utility.yul\":16310:16326   */\n      0x416c726561647920726570616964000000000000000000000000000000000000\n        /* \"#utility.yul\":16306:16307   */\n      0x00\n        /* \"#utility.yul\":16298:16304   */\n      dup3\n        /* \"#utility.yul\":16294:16308   */\n      add\n        /* \"#utility.yul\":16287:16327   */\n      mstore\n        /* \"#utility.yul\":16170:16334   */\n      pop\n      jump\t// out\n        /* \"#utility.yul\":16340:16706   */\n    tag_188:\n        /* \"#utility.yul\":16482:16485   */\n      0x00\n        /* \"#utility.yul\":16503:16570   */\n      tag_341\n        /* \"#utility.yul\":16567:16569   */\n      0x0e\n        /* \"#utility.yul\":16562:16565   */\n      dup4\n        /* \"#utility.yul\":16503:16570   */\n      tag_168\n      jump\t// in\n    tag_341:\n        /* \"#utility.yul\":16496:16570   */\n      swap2\n      pop\n        /* \"#utility.yul\":16579:16672   */\n      tag_342\n        /* \"#utility.yul\":16668:16671   */\n      dup3\n        /* \"#utility.yul\":16579:16672   */\n      tag_187\n      jump\t// in\n    tag_342:\n        /* \"#utility.yul\":16697:16699   */\n      0x20\n        /* \"#utility.yul\":16692:16695   */\n      dup3\n        /* \"#utility.yul\":16688:16700   */\n      add\n        /* \"#utility.yul\":16681:16700   */\n      swap1\n      pop\n        /* \"#utility.yul\":16340:16706   */\n      swap2\n      swap1\n      pop\n      jump\t// out\n        /* \"#utility.yul\":16712:17131   */\n    tag_133:\n        /* \"#utility.yul\":16878:16882   */\n      0x00\n        /* \"#utility.yul\":16916:16918   */\n      0x20\n        /* \"#utility.yul\":16905:16914   */\n      dup3\n        /* \"#utility.yul\":16901:16919   */\n      add\n        /* \"#utility.yul\":16893:16919   */\n      swap1\n      pop\n        /* \"#utility.yul\":16965:16974   */\n      dup2\n        /* \"#utility.yul\":16959:16963   */\n      dup2\n        /* \"#utility.yul\":16955:16975   */\n      sub\n        /* \"#utility.yul\":16951:16952   */\n      0x00\n        /* \"#utility.yul\":16940:16949   */\n      dup4\n        /* \"#utility.yul\":16936:16953   */\n      add\n        /* \"#utility.yul\":16929:16976   */\n      mstore\n        /* \"#utility.yul\":16993:17124   */\n      tag_344\n        /* \"#utility.yul\":17119:17123   */\n      dup2\n        /* \"#utility.yul\":16993:17124   */\n      tag_188\n      jump\t// in\n    tag_344:\n        /* \"#utility.yul\":16985:17124   */\n      swap1\n      pop\n        /* \"#utility.yul\":16712:17131   */\n      swap2\n      swap1\n      pop\n      jump\t// out\n        /* \"#utility.yul\":17137:17579   */\n    tag_135:\n        /* \"#utility.yul\":17286:17290   */\n      0x00\n        /* \"#utility.yul\":17324:17326   */\n      0x60\n        /* \"#utility.yul\":17313:17322   */\n      dup3\n        /* \"#utility.yul\":17309:17327   */\n      add\n        /* \"#utility.yul\":17301:17327   */\n      swap1\n      pop\n        /* \"#utility.yul\":17337:17408   */\n      tag_346\n        /* \"#utility.yul\":17405:17406   */\n      0x00\n        /* \"#utility.yul\":17394:17403   */\n      dup4\n        /* \"#utility.yul\":17390:17407   */\n      add\n        /* \"#utility.yul\":17381:17387   */\n      dup7\n        /* \"#utility.yul\":17337:17408   */\n      tag_165\n      jump\t// in\n    tag_346:\n        /* \"#utility.yul\":17418:17490   */\n      tag_347\n        /* \"#utility.yul\":17486:17488   */\n      0x20\n        /* \"#utility.yul\":17475:17484   */\n      dup4\n        /* \"#utility.yul\":17471:17489   */\n      add\n        /* \"#utility.yul\":17462:17468   */\n      dup6\n        /* \"#utility.yul\":17418:17490   */\n      tag_165\n      jump\t// in\n    tag_347:\n        /* \"#utility.yul\":17500:17572   */\n      tag_348\n        /* \"#utility.yul\":17568:17570   */\n      0x40\n        /* \"#utility.yul\":17557:17566   */\n      dup4\n        /* \"#utility.yul\":17553:17571   */\n      add\n        /* \"#utility.yul\":17544:17550   */\n      dup5\n        /* \"#utility.yul\":17500:17572   */\n      tag_159\n      jump\t// in\n    tag_348:\n        /* \"#utility.yul\":17137:17579   */\n      swap5\n      swap4\n      pop\n      pop\n      pop\n      pop\n      jump\t// out\n\n    auxdata: 0xa2646970667358221220db6241c51ac2b3df4de25b706f79c930c15f847ead998f0089e108ab8c1019c064736f6c634300081e0033\n}\n",
				"bytecode": {
					"linkReferences": {},
					"object": "6080604052683635c9adc5dea0000060025534801561001c575f5ffd5b506040516118a13803806118a1833981810160405281019061003e919061018f565b5f73ffffffffffffffffffffffffffffffffffffffff168173ffffffffffffffffffffffffffffffffffffffff16036100ac576040517f08c379a00000000000000000000000000000000000000000000000000000000081526004016100a390610214565b60405180910390fd5b805f5f6101000a81548173ffffffffffffffffffffffffffffffffffffffff021916908373ffffffffffffffffffffffffffffffffffffffff1602179055503360015f6101000a81548173ffffffffffffffffffffffffffffffffffffffff021916908373ffffffffffffffffffffffffffffffffffffffff16021790555050610232565b5f5ffd5b5f73ffffffffffffffffffffffffffffffffffffffff82169050919050565b5f61015e82610135565b9050919050565b61016e81610154565b8114610178575f5ffd5b50565b5f8151905061018981610165565b92915050565b5f602082840312156101a4576101a3610131565b5b5f6101b18482850161017b565b91505092915050565b5f82825260208201905092915050565b7f496e76616c696420746f6b656e206164647265737300000000000000000000005f82015250565b5f6101fe6015836101ba565b9150610209826101ca565b602082019050919050565b5f6020820190508181035f83015261022b816101f2565b9050919050565b6116628061023f5f395ff3fe608060405234801561000f575f5ffd5b50600436106100cd575f3560e01c80638d5d34291161008a578063c42df5a411610064578063c42df5a4146101e9578063d8bad5bd14610219578063e1ec3c6814610249578063f851a4401461027d576100cd565b80638d5d342914610193578063ab7b1c89146101af578063c09100db146101cb576100cd565b806302bf321f146100d1578063043151bc14610101578063189b83581461011d5780631d0602a31461013b57806334d9289e146101595780637c5b4a3714610177575b5f5ffd5b6100eb60048036038101906100e69190610e76565b61029b565b6040516100f89190610f61565b60405180910390f35b61011b60048036038101906101169190610fab565b61032e565b005b610125610403565b6040516101329190610ff8565b60405180910390f35b610143610409565b6040516101509190610ff8565b60405180910390f35b6101616104a7565b60405161016e9190610ff8565b60405180910390f35b610191600480360381019061018c9190611011565b6104ad565b005b6101ad60048036038101906101a89190611011565b610730565b005b6101c960048036038101906101c49190611011565b610b41565b005b6101d3610d32565b6040516101e09190611097565b60405180910390f35b61020360048036038101906101fe9190610e76565b610d56565b6040516102109190610ff8565b60405180910390f35b610233600480360381019061022e9190610fab565b610d6b565b6040516102409190610ff8565b60405180910390f35b610263600480360381019061025e9190611011565b610d96565b6040516102749594939291906110d9565b60405180910390f35b610285610df3565b604051610292919061112a565b60405180910390f35b606060065f8373ffffffffffffffffffffffffffffffffffffffff1673ffffffffffffffffffffffffffffffffffffffff1681526020019081526020015f2080548060200260200160405190810160405280929190818152602001828054801561032257602002820191905f5260205f20905b81548152602001906001019080831161030e575b50505050509050919050565b60015f9054906101000a900473ffffffffffffffffffffffffffffffffffffffff1673ffffffffffffffffffffffffffffffffffffffff163373ffffffffffffffffffffffffffffffffffffffff16146103bd576040517f08c379a00000000000000000000000000000000000000000000000000000000081526004016103b49061119d565b60405180910390fd5b8060035f8473ffffffffffffffffffffffffffffffffffffffff1673ffffffffffffffffffffffffffffffffffffffff1681526020019081526020015f20819055505050565b60025481565b5f5f5f9054906101000a900473ffffffffffffffffffffffffffffffffffffffff1673ffffffffffffffffffffffffffffffffffffffff166370a08231306040518263ffffffff1660e01b8152600401610463919061112a565b602060405180830381865afa15801561047e573d5f5f3e3d5ffd5b505050506040513d601f19601f820116820180604052508101906104a291906111cf565b905090565b60045481565b60015f9054906101000a900473ffffffffffffffffffffffffffffffffffffffff1673ffffffffffffffffffffffffffffffffffffffff163373ffffffffffffffffffffffffffffffffffffffff161461053c576040517f08c379a00000000000000000000000000000000000000000000000000000000081526004016105339061119d565b60405180910390fd5b5f5f9054906101000a900473ffffffffffffffffffffffffffffffffffffffff1673ffffffffffffffffffffffffffffffffffffffff166370a08231306040518263ffffffff1660e01b8152600401610595919061112a565b602060405180830381865afa1580156105b0573d5f5f3e3d5ffd5b505050506040513d601f19601f820116820180604052508101906105d491906111cf565b811115610616576040517f08c379a000000000000000000000000000000000000000000000000000000000815260040161060d90611244565b60405180910390fd5b5f5f9054906101000a900473ffffffffffffffffffffffffffffffffffffffff1673ffffffffffffffffffffffffffffffffffffffff1663a9059cbb60015f9054906101000a900473ffffffffffffffffffffffffffffffffffffffff16836040518363ffffffff1660e01b8152600401610692929190611262565b6020604051808303815f875af11580156106ae573d5f5f3e3d5ffd5b505050506040513d601f19601f820116820180604052508101906106d291906112b3565b507fba443e8671971c36cdeb74f87321041daff421230cbc5e36cb835269ed1d8b7e60015f9054906101000a900473ffffffffffffffffffffffffffffffffffffffff1682604051610725929190611262565b60405180910390a150565b5f8111610772576040517f08c379a000000000000000000000000000000000000000000000000000000000815260040161076990611328565b60405180910390fd5b5f60035f3373ffffffffffffffffffffffffffffffffffffffff1673ffffffffffffffffffffffffffffffffffffffff1681526020019081526020015f205490505f81116107f5576040517f08c379a00000000000000000000000000000000000000000000000000000000081526004016107ec90611390565b60405180910390fd5b80821115610838576040517f08c379a000000000000000000000000000000000000000000000000000000000815260040161082f906113f8565b60405180910390fd5b815f5f9054906101000a900473ffffffffffffffffffffffffffffffffffffffff1673ffffffffffffffffffffffffffffffffffffffff166370a08231306040518263ffffffff1660e01b8152600401610892919061112a565b602060405180830381865afa1580156108ad573d5f5f3e3d5ffd5b505050506040513d601f19601f820116820180604052508101906108d191906111cf565b1015610912576040517f08c379a000000000000000000000000000000000000000000000000000000000815260040161090990611460565b60405180910390fd5b60045f815480929190610924906114ab565b91905055506040518060a0016040528060045481526020013373ffffffffffffffffffffffffffffffffffffffff1681526020018381526020014281526020015f151581525060055f60045481526020019081526020015f205f820151815f01556020820151816001015f6101000a81548173ffffffffffffffffffffffffffffffffffffffff021916908373ffffffffffffffffffffffffffffffffffffffff16021790555060408201518160020155606082015181600301556080820151816004015f6101000a81548160ff02191690831515021790555090505060065f3373ffffffffffffffffffffffffffffffffffffffff1673ffffffffffffffffffffffffffffffffffffffff1681526020019081526020015f20600454908060018154018082558091505060019003905f5260205f20015f90919091909150555f5f9054906101000a900473ffffffffffffffffffffffffffffffffffffffff1673ffffffffffffffffffffffffffffffffffffffff1663a9059cbb33846040518363ffffffff1660e01b8152600401610abf929190611262565b6020604051808303815f875af1158015610adb573d5f5f3e3d5ffd5b505050506040513d601f19601f82011682018060405250810190610aff91906112b3565b507f7468760830aff5679376e50470c0493d21c88c599388e89b08c9512b3f3fbc7d3360045484604051610b35939291906114f2565b60405180910390a15050565b5f60055f8381526020019081526020015f2090503373ffffffffffffffffffffffffffffffffffffffff16816001015f9054906101000a900473ffffffffffffffffffffffffffffffffffffffff1673ffffffffffffffffffffffffffffffffffffffff1614610be6576040517f08c379a0000000000000000000000000000000000000000000000000000000008152600401610bdd90611571565b60405180910390fd5b806004015f9054906101000a900460ff1615610c37576040517f08c379a0000000000000000000000000000000000000000000000000000000008152600401610c2e906115d9565b60405180910390fd5b5f5f9054906101000a900473ffffffffffffffffffffffffffffffffffffffff1673ffffffffffffffffffffffffffffffffffffffff166323b872dd333084600201546040518463ffffffff1660e01b8152600401610c98939291906115f7565b6020604051808303815f875af1158015610cb4573d5f5f3e3d5ffd5b505050506040513d601f19601f82011682018060405250810190610cd891906112b3565b506001816004015f6101000a81548160ff0219169083151502179055507fc200a1f31dd659e356e0f112c82558e25f49f7b0f84438691cd96f5cb35588233383604051610d26929190611262565b60405180910390a15050565b5f5f9054906101000a900473ffffffffffffffffffffffffffffffffffffffff1681565b6003602052805f5260405f205f915090505481565b6006602052815f5260405f208181548110610d84575f80fd5b905f5260205f20015f91509150505481565b6005602052805f5260405f205f91509050805f015490806001015f9054906101000a900473ffffffffffffffffffffffffffffffffffffffff1690806002015490806003015490806004015f9054906101000a900460ff16905085565b60015f9054906101000a900473ffffffffffffffffffffffffffffffffffffffff1681565b5f5ffd5b5f73ffffffffffffffffffffffffffffffffffffffff82169050919050565b5f610e4582610e1c565b9050919050565b610e5581610e3b565b8114610e5f575f5ffd5b50565b5f81359050610e7081610e4c565b92915050565b5f60208284031215610e8b57610e8a610e18565b5b5f610e9884828501610e62565b91505092915050565b5f81519050919050565b5f82825260208201905092915050565b5f819050602082019050919050565b5f819050919050565b610edc81610eca565b82525050565b5f610eed8383610ed3565b60208301905092915050565b5f602082019050919050565b5f610f0f82610ea1565b610f198185610eab565b9350610f2483610ebb565b805f5b83811015610f54578151610f3b8882610ee2565b9750610f4683610ef9565b925050600181019050610f27565b5085935050505092915050565b5f6020820190508181035f830152610f798184610f05565b905092915050565b610f8a81610eca565b8114610f94575f5ffd5b50565b5f81359050610fa581610f81565b92915050565b5f5f60408385031215610fc157610fc0610e18565b5b5f610fce85828601610e62565b9250506020610fdf85828601610f97565b9150509250929050565b610ff281610eca565b82525050565b5f60208201905061100b5f830184610fe9565b92915050565b5f6020828403121561102657611025610e18565b5b5f61103384828501610f97565b91505092915050565b5f819050919050565b5f61105f61105a61105584610e1c565b61103c565b610e1c565b9050919050565b5f61107082611045565b9050919050565b5f61108182611066565b9050919050565b61109181611077565b82525050565b5f6020820190506110aa5f830184611088565b92915050565b6110b981610e3b565b82525050565b5f8115159050919050565b6110d3816110bf565b82525050565b5f60a0820190506110ec5f830188610fe9565b6110f960208301876110b0565b6111066040830186610fe9565b6111136060830185610fe9565b61112060808301846110ca565b9695505050505050565b5f60208201905061113d5f8301846110b0565b92915050565b5f82825260208201905092915050565b7f4e6f742061646d696e00000000000000000000000000000000000000000000005f82015250565b5f611187600983611143565b915061119282611153565b602082019050919050565b5f6020820190508181035f8301526111b48161117b565b9050919050565b5f815190506111c981610f81565b92915050565b5f602082840312156111e4576111e3610e18565b5b5f6111f1848285016111bb565b91505092915050565b7f496e73756666696369656e7420706f6f6c0000000000000000000000000000005f82015250565b5f61122e601183611143565b9150611239826111fa565b602082019050919050565b5f6020820190508181035f83015261125b81611222565b9050919050565b5f6040820190506112755f8301856110b0565b6112826020830184610fe9565b9392505050565b611292816110bf565b811461129c575f5ffd5b50565b5f815190506112ad81611289565b92915050565b5f602082840312156112c8576112c7610e18565b5b5f6112d58482850161129f565b91505092915050565b7f416d6f756e74206d7573742062652067726561746572207468616e207a65726f5f82015250565b5f611312602083611143565b915061131d826112de565b602082019050919050565b5f6020820190508181035f83015261133f81611306565b9050919050565b7f4e6f20637265646974206c696d697420736574000000000000000000000000005f82015250565b5f61137a601383611143565b915061138582611346565b602082019050919050565b5f6020820190508181035f8301526113a78161136e565b9050919050565b7f45786365656473206d6178206c6f616e206c696d697420666f722075736572005f82015250565b5f6113e2601f83611143565b91506113ed826113ae565b602082019050919050565b5f6020820190508181035f83015261140f816113d6565b9050919050565b7f436f6e74726163742068617320696e73756666696369656e742066756e6473005f82015250565b5f61144a601f83611143565b915061145582611416565b602082019050919050565b5f6020820190508181035f8301526114778161143e565b9050919050565b7f4e487b71000000000000000000000000000000000000000000000000000000005f52601160045260245ffd5b5f6114b582610eca565b91507fffffffffffffffffffffffffffffffffffffffffffffffffffffffffffffffff82036114e7576114e661147e565b5b600182019050919050565b5f6060820190506115055f8301866110b0565b6115126020830185610fe9565b61151f6040830184610fe9565b949350505050565b7f4e6f7420626f72726f77657200000000000000000000000000000000000000005f82015250565b5f61155b600c83611143565b915061156682611527565b602082019050919050565b5f6020820190508181035f8301526115888161154f565b9050919050565b7f416c7265616479207265706169640000000000000000000000000000000000005f82015250565b5f6115c3600e83611143565b91506115ce8261158f565b602082019050919050565b5f6020820190508181035f8301526115f0816115b7565b9050919050565b5f60608201905061160a5f8301866110b0565b61161760208301856110b0565b6116246040830184610fe9565b94935050505056fea2646970667358221220db6241c51ac2b3df4de25b706f79c930c15f847ead998f0089e108ab8c1019c064736f6c634300081e0033",
					"opcodes": "PUSH1 0x80 PUSH1 0x40 MSTORE PUSH9 0x3635C9ADC5DEA00000 PUSH1 0x2 SSTORE CALLVALUE DUP1 ISZERO PUSH2 0x1C JUMPI PUSH0 PUSH0 REVERT JUMPDEST POP PUSH1 0x40 MLOAD PUSH2 0x18A1 CODESIZE SUB DUP1 PUSH2 0x18A1 DUP4 CODECOPY DUP2 DUP2 ADD PUSH1 0x40 MSTORE DUP2 ADD SWAP1 PUSH2 0x3E SWAP2 SWAP1 PUSH2 0x18F JUMP JUMPDEST PUSH0 PUSH20 0xFFFFFFFFFFFFFFFFFFFFFFFFFFFFFFFFFFFFFFFF AND DUP2 PUSH20 0xFFFFFFFFFFFFFFFFFFFFFFFFFFFFFFFFFFFFFFFF AND SUB PUSH2 0xAC JUMPI PUSH1 0x40 MLOAD PUSH32 0x8C379A000000000000000000000000000000000000000000000000000000000 DUP2 MSTORE PUSH1 0x4 ADD PUSH2 0xA3 SWAP1 PUSH2 0x214 JUMP JUMPDEST PUSH1 0x40 MLOAD DUP1 SWAP2 SUB SWAP1 REVERT JUMPDEST DUP1 PUSH0 PUSH0 PUSH2 0x100 EXP DUP2 SLOAD DUP2 PUSH20 0xFFFFFFFFFFFFFFFFFFFFFFFFFFFFFFFFFFFFFFFF MUL NOT AND SWAP1 DUP4 PUSH20 0xFFFFFFFFFFFFFFFFFFFFFFFFFFFFFFFFFFFFFFFF AND MUL OR SWAP1 SSTORE POP CALLER PUSH1 0x1 PUSH0 PUSH2 0x100 EXP DUP2 SLOAD DUP2 PUSH20 0xFFFFFFFFFFFFFFFFFFFFFFFFFFFFFFFFFFFFFFFF MUL NOT AND SWAP1 DUP4 PUSH20 0xFFFFFFFFFFFFFFFFFFFFFFFFFFFFFFFFFFFFFFFF AND MUL OR SWAP1 SSTORE POP POP PUSH2 0x232 JUMP JUMPDEST PUSH0 PUSH0 REVERT JUMPDEST PUSH0 PUSH20 0xFFFFFFFFFFFFFFFFFFFFFFFFFFFFFFFFFFFFFFFF DUP3 AND SWAP1 POP SWAP2 SWAP1 POP JUMP JUMPDEST PUSH0 PUSH2 0x15E DUP3 PUSH2 0x135 JUMP JUMPDEST SWAP1 POP SWAP2 SWAP1 POP JUMP JUMPDEST PUSH2 0x16E DUP2 PUSH2 0x154 JUMP JUMPDEST DUP2 EQ PUSH2 0x178 JUMPI PUSH0 PUSH0 REVERT JUMPDEST POP JUMP JUMPDEST PUSH0 DUP2 MLOAD SWAP1 POP PUSH2 0x189 DUP2 PUSH2 0x165 JUMP JUMPDEST SWAP3 SWAP2 POP POP JUMP JUMPDEST PUSH0 PUSH1 0x20 DUP3 DUP5 SUB SLT ISZERO PUSH2 0x1A4 JUMPI PUSH2 0x1A3 PUSH2 0x131 JUMP JUMPDEST JUMPDEST PUSH0 PUSH2 0x1B1 DUP5 DUP3 DUP6 ADD PUSH2 0x17B JUMP JUMPDEST SWAP2 POP POP SWAP3 SWAP2 POP POP JUMP JUMPDEST PUSH0 DUP3 DUP3 MSTORE PUSH1 0x20 DUP3 ADD SWAP1 POP SWAP3 SWAP2 POP POP JUMP JUMPDEST PUSH32 0x496E76616C696420746F6B656E20616464726573730000000000000000000000 PUSH0 DUP3 ADD MSTORE POP JUMP JUMPDEST PUSH0 PUSH2 0x1FE PUSH1 0x15 DUP4 PUSH2 0x1BA JUMP JUMPDEST SWAP2 POP PUSH2 0x209 DUP3 PUSH2 0x1CA JUMP JUMPDEST PUSH1 0x20 DUP3 ADD SWAP1 POP SWAP2 SWAP1 POP JUMP JUMPDEST PUSH0 PUSH1 0x20 DUP3 ADD SWAP1 POP DUP2 DUP2 SUB PUSH0 DUP4 ADD MSTORE PUSH2 0x22B DUP2 PUSH2 0x1F2 JUMP JUMPDEST SWAP1 POP SWAP2 SWAP1 POP JUMP JUMPDEST PUSH2 0x1662 DUP1 PUSH2 0x23F PUSH0 CODECOPY PUSH0 RETURN INVALID PUSH1 0x80 PUSH1 0x40 MSTORE CALLVALUE DUP1 ISZERO PUSH2 0xF JUMPI PUSH0 PUSH0 REVERT JUMPDEST POP PUSH1 0x4 CALLDATASIZE LT PUSH2 0xCD JUMPI PUSH0 CALLDATALOAD PUSH1 0xE0 SHR DUP1 PUSH4 0x8D5D3429 GT PUSH2 0x8A JUMPI DUP1 PUSH4 0xC42DF5A4 GT PUSH2 0x64 JUMPI DUP1 PUSH4 0xC42DF5A4 EQ PUSH2 0x1E9 JUMPI DUP1 PUSH4 0xD8BAD5BD EQ PUSH2 0x219 JUMPI DUP1 PUSH4 0xE1EC3C68 EQ PUSH2 0x249 JUMPI DUP1 PUSH4 0xF851A440 EQ PUSH2 0x27D JUMPI PUSH2 0xCD JUMP JUMPDEST DUP1 PUSH4 0x8D5D3429 EQ PUSH2 0x193 JUMPI DUP1 PUSH4 0xAB7B1C89 EQ PUSH2 0x1AF JUMPI DUP1 PUSH4 0xC09100DB EQ PUSH2 0x1CB JUMPI PUSH2 0xCD JUMP JUMPDEST DUP1 PUSH4 0x2BF321F EQ PUSH2 0xD1 JUMPI DUP1 PUSH4 0x43151BC EQ PUSH2 0x101 JUMPI DUP1 PUSH4 0x189B8358 EQ PUSH2 0x11D JUMPI DUP1 PUSH4 0x1D0602A3 EQ PUSH2 0x13B JUMPI DUP1 PUSH4 0x34D9289E EQ PUSH2 0x159 JUMPI DUP1 PUSH4 0x7C5B4A37 EQ PUSH2 0x177 JUMPI JUMPDEST PUSH0 PUSH0 REVERT JUMPDEST PUSH2 0xEB PUSH1 0x4 DUP1 CALLDATASIZE SUB DUP2 ADD SWAP1 PUSH2 0xE6 SWAP2 SWAP1 PUSH2 0xE76 JUMP JUMPDEST PUSH2 0x29B JUMP JUMPDEST PUSH1 0x40 MLOAD PUSH2 0xF8 SWAP2 SWAP1 PUSH2 0xF61 JUMP JUMPDEST PUSH1 0x40 MLOAD DUP1 SWAP2 SUB SWAP1 RETURN JUMPDEST PUSH2 0x11B PUSH1 0x4 DUP1 CALLDATASIZE SUB DUP2 ADD SWAP1 PUSH2 0x116 SWAP2 SWAP1 PUSH2 0xFAB JUMP JUMPDEST PUSH2 0x32E JUMP JUMPDEST STOP JUMPDEST PUSH2 0x125 PUSH2 0x403 JUMP JUMPDEST PUSH1 0x40 MLOAD PUSH2 0x132 SWAP2 SWAP1 PUSH2 0xFF8 JUMP JUMPDEST PUSH1 0x40 MLOAD DUP1 SWAP2 SUB SWAP1 RETURN JUMPDEST PUSH2 0x143 PUSH2 0x409 JUMP JUMPDEST PUSH1 0x40 MLOAD PUSH2 0x150 SWAP2 SWAP1 PUSH2 0xFF8 JUMP JUMPDEST PUSH1 0x40 MLOAD DUP1 SWAP2 SUB SWAP1 RETURN JUMPDEST PUSH2 0x161 PUSH2 0x4A7 JUMP JUMPDEST PUSH1 0x40 MLOAD PUSH2 0x16E SWAP2 SWAP1 PUSH2 0xFF8 JUMP JUMPDEST PUSH1 0x40 MLOAD DUP1 SWAP2 SUB SWAP1 RETURN JUMPDEST PUSH2 0x191 PUSH1 0x4 DUP1 CALLDATASIZE SUB DUP2 ADD SWAP1 PUSH2 0x18C SWAP2 SWAP1 PUSH2 0x1011 JUMP JUMPDEST PUSH2 0x4AD JUMP JUMPDEST STOP JUMPDEST PUSH2 0x1AD PUSH1 0x4 DUP1 CALLDATASIZE SUB DUP2 ADD SWAP1 PUSH2 0x1A8 SWAP2 SWAP1 PUSH2 0x1011 JUMP JUMPDEST PUSH2 0x730 JUMP JUMPDEST STOP JUMPDEST PUSH2 0x1C9 PUSH1 0x4 DUP1 CALLDATASIZE SUB DUP2 ADD SWAP1 PUSH2 0x1C4 SWAP2 SWAP1 PUSH2 0x1011 JUMP JUMPDEST PUSH2 0xB41 JUMP JUMPDEST STOP JUMPDEST PUSH2 0x1D3 PUSH2 0xD32 JUMP JUMPDEST PUSH1 0x40 MLOAD PUSH2 0x1E0 SWAP2 SWAP1 PUSH2 0x1097 JUMP JUMPDEST PUSH1 0x40 MLOAD DUP1 SWAP2 SUB SWAP1 RETURN JUMPDEST PUSH2 0x203 PUSH1 0x4 DUP1 CALLDATASIZE SUB DUP2 ADD SWAP1 PUSH2 0x1FE SWAP2 SWAP1 PUSH2 0xE76 JUMP JUMPDEST PUSH2 0xD56 JUMP JUMPDEST PUSH1 0x40 MLOAD PUSH2 0x210 SWAP2 SWAP1 PUSH2 0xFF8 JUMP JUMPDEST PUSH1 0x40 MLOAD DUP1 SWAP2 SUB SWAP1 RETURN JUMPDEST PUSH2 0x233 PUSH1 0x4 DUP1 CALLDATASIZE SUB DUP2 ADD SWAP1 PUSH2 0x22E SWAP2 SWAP1 PUSH2 0xFAB JUMP JUMPDEST PUSH2 0xD6B JUMP JUMPDEST PUSH1 0x40 MLOAD PUSH2 0x240 SWAP2 SWAP1 PUSH2 0xFF8 JUMP JUMPDEST PUSH1 0x40 MLOAD DUP1 SWAP2 SUB SWAP1 RETURN JUMPDEST PUSH2 0x263 PUSH1 0x4 DUP1 CALLDATASIZE SUB DUP2 ADD SWAP1 PUSH2 0x25E SWAP2 SWAP1 PUSH2 0x1011 JUMP JUMPDEST PUSH2 0xD96 JUMP JUMPDEST PUSH1 0x40 MLOAD PUSH2 0x274 SWAP6 SWAP5 SWAP4 SWAP3 SWAP2 SWAP1 PUSH2 0x10D9 JUMP JUMPDEST PUSH1 0x40 MLOAD DUP1 SWAP2 SUB SWAP1 RETURN JUMPDEST PUSH2 0x285 PUSH2 0xDF3 JUMP JUMPDEST PUSH1 0x40 MLOAD PUSH2 0x292 SWAP2 SWAP1 PUSH2 0x112A JUMP JUMPDEST PUSH1 0x40 MLOAD DUP1 SWAP2 SUB SWAP1 RETURN JUMPDEST PUSH1 0x60 PUSH1 0x6 PUSH0 DUP4 PUSH20 0xFFFFFFFFFFFFFFFFFFFFFFFFFFFFFFFFFFFFFFFF AND PUSH20 0xFFFFFFFFFFFFFFFFFFFFFFFFFFFFFFFFFFFFFFFF AND DUP2 MSTORE PUSH1 0x20 ADD SWAP1 DUP2 MSTORE PUSH1 0x20 ADD PUSH0 KECCAK256 DUP1 SLOAD DUP1 PUSH1 0x20 MUL PUSH1 0x20 ADD PUSH1 0x40 MLOAD SWAP1 DUP2 ADD PUSH1 0x40 MSTORE DUP1 SWAP3 SWAP2 SWAP1 DUP2 DUP2 MSTORE PUSH1 0x20 ADD DUP3 DUP1 SLOAD DUP1 ISZERO PUSH2 0x322 JUMPI PUSH1 0x20 MUL DUP3 ADD SWAP2 SWAP1 PUSH0 MSTORE PUSH1 0x20 PUSH0 KECCAK256 SWAP1 JUMPDEST DUP2 SLOAD DUP2 MSTORE PUSH1 0x20 ADD SWAP1 PUSH1 0x1 ADD SWAP1 DUP1 DUP4 GT PUSH2 0x30E JUMPI JUMPDEST POP POP POP POP POP SWAP1 POP SWAP2 SWAP1 POP JUMP JUMPDEST PUSH1 0x1 PUSH0 SWAP1 SLOAD SWAP1 PUSH2 0x100 EXP SWAP1 DIV PUSH20 0xFFFFFFFFFFFFFFFFFFFFFFFFFFFFFFFFFFFFFFFF AND PUSH20 0xFFFFFFFFFFFFFFFFFFFFFFFFFFFFFFFFFFFFFFFF AND CALLER PUSH20 0xFFFFFFFFFFFFFFFFFFFFFFFFFFFFFFFFFFFFFFFF AND EQ PUSH2 0x3BD JUMPI PUSH1 0x40 MLOAD PUSH32 0x8C379A000000000000000000000000000000000000000000000000000000000 DUP2 MSTORE PUSH1 0x4 ADD PUSH2 0x3B4 SWAP1 PUSH2 0x119D JUMP JUMPDEST PUSH1 0x40 MLOAD DUP1 SWAP2 SUB SWAP1 REVERT JUMPDEST DUP1 PUSH1 0x3 PUSH0 DUP5 PUSH20 0xFFFFFFFFFFFFFFFFFFFFFFFFFFFFFFFFFFFFFFFF AND PUSH20 0xFFFFFFFFFFFFFFFFFFFFFFFFFFFFFFFFFFFFFFFF AND DUP2 MSTORE PUSH1 0x20 ADD SWAP1 DUP2 MSTORE PUSH1 0x20 ADD PUSH0 KECCAK256 DUP2 SWAP1 SSTORE POP POP POP JUMP JUMPDEST PUSH1 0x2 SLOAD DUP2 JUMP JUMPDEST PUSH0 PUSH0 PUSH0 SWAP1 SLOAD SWAP1 PUSH2 0x100 EXP SWAP1 DIV PUSH20 0xFFFFFFFFFFFFFFFFFFFFFFFFFFFFFFFFFFFFFFFF AND PUSH20 0xFFFFFFFFFFFFFFFFFFFFFFFFFFFFFFFFFFFFFFFF AND PUSH4 0x70A08231 ADDRESS PUSH1 0x40 MLOAD DUP3 PUSH4 0xFFFFFFFF AND PUSH1 0xE0 SHL DUP2 MSTORE PUSH1 0x4 ADD PUSH2 0x463 SWAP2 SWAP1 PUSH2 0x112A JUMP JUMPDEST PUSH1 0x20 PUSH1 0x40 MLOAD DUP1 DUP4 SUB DUP2 DUP7 GAS STATICCALL ISZERO DUP1 ISZERO PUSH2 0x47E JUMPI RETURNDATASIZE PUSH0 PUSH0 RETURNDATACOPY RETURNDATASIZE PUSH0 REVERT JUMPDEST POP POP POP POP PUSH1 0x40 MLOAD RETURNDATASIZE PUSH1 0x1F NOT PUSH1 0x1F DUP3 ADD AND DUP3 ADD DUP1 PUSH1 0x40 MSTORE POP DUP2 ADD SWAP1 PUSH2 0x4A2 SWAP2 SWAP1 PUSH2 0x11CF JUMP JUMPDEST SWAP1 POP SWAP1 JUMP JUMPDEST PUSH1 0x4 SLOAD DUP2 JUMP JUMPDEST PUSH1 0x1 PUSH0 SWAP1 SLOAD SWAP1 PUSH2 0x100 EXP SWAP1 DIV PUSH20 0xFFFFFFFFFFFFFFFFFFFFFFFFFFFFFFFFFFFFFFFF AND PUSH20 0xFFFFFFFFFFFFFFFFFFFFFFFFFFFFFFFFFFFFFFFF AND CALLER PUSH20 0xFFFFFFFFFFFFFFFFFFFFFFFFFFFFFFFFFFFFFFFF AND EQ PUSH2 0x53C JUMPI PUSH1 0x40 MLOAD PUSH32 0x8C379A000000000000000000000000000000000000000000000000000000000 DUP2 MSTORE PUSH1 0x4 ADD PUSH2 0x533 SWAP1 PUSH2 0x119D JUMP JUMPDEST PUSH1 0x40 MLOAD DUP1 SWAP2 SUB SWAP1 REVERT JUMPDEST PUSH0 PUSH0 SWAP1 SLOAD SWAP1 PUSH2 0x100 EXP SWAP1 DIV PUSH20 0xFFFFFFFFFFFFFFFFFFFFFFFFFFFFFFFFFFFFFFFF AND PUSH20 0xFFFFFFFFFFFFFFFFFFFFFFFFFFFFFFFFFFFFFFFF AND PUSH4 0x70A08231 ADDRESS PUSH1 0x40 MLOAD DUP3 PUSH4 0xFFFFFFFF AND PUSH1 0xE0 SHL DUP2 MSTORE PUSH1 0x4 ADD PUSH2 0x595 SWAP2 SWAP1 PUSH2 0x112A JUMP JUMPDEST PUSH1 0x20 PUSH1 0x40 MLOAD DUP1 DUP4 SUB DUP2 DUP7 GAS STATICCALL ISZERO DUP1 ISZERO PUSH2 0x5B0 JUMPI RETURNDATASIZE PUSH0 PUSH0 RETURNDATACOPY RETURNDATASIZE PUSH0 REVERT JUMPDEST POP POP POP POP PUSH1 0x40 MLOAD RETURNDATASIZE PUSH1 0x1F NOT PUSH1 0x1F DUP3 ADD AND DUP3 ADD DUP1 PUSH1 0x40 MSTORE POP DUP2 ADD SWAP1 PUSH2 0x5D4 SWAP2 SWAP1 PUSH2 0x11CF JUMP JUMPDEST DUP2 GT ISZERO PUSH2 0x616 JUMPI PUSH1 0x40 MLOAD PUSH32 0x8C379A000000000000000000000000000000000000000000000000000000000 DUP2 MSTORE PUSH1 0x4 ADD PUSH2 0x60D SWAP1 PUSH2 0x1244 JUMP JUMPDEST PUSH1 0x40 MLOAD DUP1 SWAP2 SUB SWAP1 REVERT JUMPDEST PUSH0 PUSH0 SWAP1 SLOAD SWAP1 PUSH2 0x100 EXP SWAP1 DIV PUSH20 0xFFFFFFFFFFFFFFFFFFFFFFFFFFFFFFFFFFFFFFFF AND PUSH20 0xFFFFFFFFFFFFFFFFFFFFFFFFFFFFFFFFFFFFFFFF AND PUSH4 0xA9059CBB PUSH1 0x1 PUSH0 SWAP1 SLOAD SWAP1 PUSH2 0x100 EXP SWAP1 DIV PUSH20 0xFFFFFFFFFFFFFFFFFFFFFFFFFFFFFFFFFFFFFFFF AND DUP4 PUSH1 0x40 MLOAD DUP4 PUSH4 0xFFFFFFFF AND PUSH1 0xE0 SHL DUP2 MSTORE PUSH1 0x4 ADD PUSH2 0x692 SWAP3 SWAP2 SWAP1 PUSH2 0x1262 JUMP JUMPDEST PUSH1 0x20 PUSH1 0x40 MLOAD DUP1 DUP4 SUB DUP2 PUSH0 DUP8 GAS CALL ISZERO DUP1 ISZERO PUSH2 0x6AE JUMPI RETURNDATASIZE PUSH0 PUSH0 RETURNDATACOPY RETURNDATASIZE PUSH0 REVERT JUMPDEST POP POP POP POP PUSH1 0x40 MLOAD RETURNDATASIZE PUSH1 0x1F NOT PUSH1 0x1F DUP3 ADD AND DUP3 ADD DUP1 PUSH1 0x40 MSTORE POP DUP2 ADD SWAP1 PUSH2 0x6D2 SWAP2 SWAP1 PUSH2 0x12B3 JUMP JUMPDEST POP PUSH32 0xBA443E8671971C36CDEB74F87321041DAFF421230CBC5E36CB835269ED1D8B7E PUSH1 0x1 PUSH0 SWAP1 SLOAD SWAP1 PUSH2 0x100 EXP SWAP1 DIV PUSH20 0xFFFFFFFFFFFFFFFFFFFFFFFFFFFFFFFFFFFFFFFF AND DUP3 PUSH1 0x40 MLOAD PUSH2 0x725 SWAP3 SWAP2 SWAP1 PUSH2 0x1262 JUMP JUMPDEST PUSH1 0x40 MLOAD DUP1 SWAP2 SUB SWAP1 LOG1 POP JUMP JUMPDEST PUSH0 DUP2 GT PUSH2 0x772 JUMPI PUSH1 0x40 MLOAD PUSH32 0x8C379A000000000000000000000000000000000000000000000000000000000 DUP2 MSTORE PUSH1 0x4 ADD PUSH2 0x769 SWAP1 PUSH2 0x1328 JUMP JUMPDEST PUSH1 0x40 MLOAD DUP1 SWAP2 SUB SWAP1 REVERT JUMPDEST PUSH0 PUSH1 0x3 PUSH0 CALLER PUSH20 0xFFFFFFFFFFFFFFFFFFFFFFFFFFFFFFFFFFFFFFFF AND PUSH20 0xFFFFFFFFFFFFFFFFFFFFFFFFFFFFFFFFFFFFFFFF AND DUP2 MSTORE PUSH1 0x20 ADD SWAP1 DUP2 MSTORE PUSH1 0x20 ADD PUSH0 KECCAK256 SLOAD SWAP1 POP PUSH0 DUP2 GT PUSH2 0x7F5 JUMPI PUSH1 0x40 MLOAD PUSH32 0x8C379A000000000000000000000000000000000000000000000000000000000 DUP2 MSTORE PUSH1 0x4 ADD PUSH2 0x7EC SWAP1 PUSH2 0x1390 JUMP JUMPDEST PUSH1 0x40 MLOAD DUP1 SWAP2 SUB SWAP1 REVERT JUMPDEST DUP1 DUP3 GT ISZERO PUSH2 0x838 JUMPI PUSH1 0x40 MLOAD PUSH32 0x8C379A000000000000000000000000000000000000000000000000000000000 DUP2 MSTORE PUSH1 0x4 ADD PUSH2 0x82F SWAP1 PUSH2 0x13F8 JUMP JUMPDEST PUSH1 0x40 MLOAD DUP1 SWAP2 SUB SWAP1 REVERT JUMPDEST DUP2 PUSH0 PUSH0 SWAP1 SLOAD SWAP1 PUSH2 0x100 EXP SWAP1 DIV PUSH20 0xFFFFFFFFFFFFFFFFFFFFFFFFFFFFFFFFFFFFFFFF AND PUSH20 0xFFFFFFFFFFFFFFFFFFFFFFFFFFFFFFFFFFFFFFFF AND PUSH4 0x70A08231 ADDRESS PUSH1 0x40 MLOAD DUP3 PUSH4 0xFFFFFFFF AND PUSH1 0xE0 SHL DUP2 MSTORE PUSH1 0x4 ADD PUSH2 0x892 SWAP2 SWAP1 PUSH2 0x112A JUMP JUMPDEST PUSH1 0x20 PUSH1 0x40 MLOAD DUP1 DUP4 SUB DUP2 DUP7 GAS STATICCALL ISZERO DUP1 ISZERO PUSH2 0x8AD JUMPI RETURNDATASIZE PUSH0 PUSH0 RETURNDATACOPY RETURNDATASIZE PUSH0 REVERT JUMPDEST POP POP POP POP PUSH1 0x40 MLOAD RETURNDATASIZE PUSH1 0x1F NOT PUSH1 0x1F DUP3 ADD AND DUP3 ADD DUP1 PUSH1 0x40 MSTORE POP DUP2 ADD SWAP1 PUSH2 0x8D1 SWAP2 SWAP1 PUSH2 0x11CF JUMP JUMPDEST LT ISZERO PUSH2 0x912 JUMPI PUSH1 0x40 MLOAD PUSH32 0x8C379A000000000000000000000000000000000000000000000000000000000 DUP2 MSTORE PUSH1 0x4 ADD PUSH2 0x909 SWAP1 PUSH2 0x1460 JUMP JUMPDEST PUSH1 0x40 MLOAD DUP1 SWAP2 SUB SWAP1 REVERT JUMPDEST PUSH1 0x4 PUSH0 DUP2 SLOAD DUP1 SWAP3 SWAP2 SWAP1 PUSH2 0x924 SWAP1 PUSH2 0x14AB JUMP JUMPDEST SWAP2 SWAP1 POP SSTORE POP PUSH1 0x40 MLOAD DUP1 PUSH1 0xA0 ADD PUSH1 0x40 MSTORE DUP1 PUSH1 0x4 SLOAD DUP2 MSTORE PUSH1 0x20 ADD CALLER PUSH20 0xFFFFFFFFFFFFFFFFFFFFFFFFFFFFFFFFFFFFFFFF AND DUP2 MSTORE PUSH1 0x20 ADD DUP4 DUP2 MSTORE PUSH1 0x20 ADD TIMESTAMP DUP2 MSTORE PUSH1 0x20 ADD PUSH0 ISZERO ISZERO DUP2 MSTORE POP PUSH1 0x5 PUSH0 PUSH1 0x4 SLOAD DUP2 MSTORE PUSH1 0x20 ADD SWAP1 DUP2 MSTORE PUSH1 0x20 ADD PUSH0 KECCAK256 PUSH0 DUP3 ADD MLOAD DUP2 PUSH0 ADD SSTORE PUSH1 0x20 DUP3 ADD MLOAD DUP2 PUSH1 0x1 ADD PUSH0 PUSH2 0x100 EXP DUP2 SLOAD DUP2 PUSH20 0xFFFFFFFFFFFFFFFFFFFFFFFFFFFFFFFFFFFFFFFF MUL NOT AND SWAP1 DUP4 PUSH20 0xFFFFFFFFFFFFFFFFFFFFFFFFFFFFFFFFFFFFFFFF AND MUL OR SWAP1 SSTORE POP PUSH1 0x40 DUP3 ADD MLOAD DUP2 PUSH1 0x2 ADD SSTORE PUSH1 0x60 DUP3 ADD MLOAD DUP2 PUSH1 0x3 ADD SSTORE PUSH1 0x80 DUP3 ADD MLOAD DUP2 PUSH1 0x4 ADD PUSH0 PUSH2 0x100 EXP DUP2 SLOAD DUP2 PUSH1 0xFF MUL NOT AND SWAP1 DUP4 ISZERO ISZERO MUL OR SWAP1 SSTORE POP SWAP1 POP POP PUSH1 0x6 PUSH0 CALLER PUSH20 0xFFFFFFFFFFFFFFFFFFFFFFFFFFFFFFFFFFFFFFFF AND PUSH20 0xFFFFFFFFFFFFFFFFFFFFFFFFFFFFFFFFFFFFFFFF AND DUP2 MSTORE PUSH1 0x20 ADD SWAP1 DUP2 MSTORE PUSH1 0x20 ADD PUSH0 KECCAK256 PUSH1 0x4 SLOAD SWAP1 DUP1 PUSH1 0x1 DUP2 SLOAD ADD DUP1 DUP3 SSTORE DUP1 SWAP2 POP POP PUSH1 0x1 SWAP1 SUB SWAP1 PUSH0 MSTORE PUSH1 0x20 PUSH0 KECCAK256 ADD PUSH0 SWAP1 SWAP2 SWAP1 SWAP2 SWAP1 SWAP2 POP SSTORE PUSH0 PUSH0 SWAP1 SLOAD SWAP1 PUSH2 0x100 EXP SWAP1 DIV PUSH20 0xFFFFFFFFFFFFFFFFFFFFFFFFFFFFFFFFFFFFFFFF AND PUSH20 0xFFFFFFFFFFFFFFFFFFFFFFFFFFFFFFFFFFFFFFFF AND PUSH4 0xA9059CBB CALLER DUP5 PUSH1 0x40 MLOAD DUP4 PUSH4 0xFFFFFFFF AND PUSH1 0xE0 SHL DUP2 MSTORE PUSH1 0x4 ADD PUSH2 0xABF SWAP3 SWAP2 SWAP1 PUSH2 0x1262 JUMP JUMPDEST PUSH1 0x20 PUSH1 0x40 MLOAD DUP1 DUP4 SUB DUP2 PUSH0 DUP8 GAS CALL ISZERO DUP1 ISZERO PUSH2 0xADB JUMPI RETURNDATASIZE PUSH0 PUSH0 RETURNDATACOPY RETURNDATASIZE PUSH0 REVERT JUMPDEST POP POP POP POP PUSH1 0x40 MLOAD RETURNDATASIZE PUSH1 0x1F NOT PUSH1 0x1F DUP3 ADD AND DUP3 ADD DUP1 PUSH1 0x40 MSTORE POP DUP2 ADD SWAP1 PUSH2 0xAFF SWAP2 SWAP1 PUSH2 0x12B3 JUMP JUMPDEST POP PUSH32 0x7468760830AFF5679376E50470C0493D21C88C599388E89B08C9512B3F3FBC7D CALLER PUSH1 0x4 SLOAD DUP5 PUSH1 0x40 MLOAD PUSH2 0xB35 SWAP4 SWAP3 SWAP2 SWAP1 PUSH2 0x14F2 JUMP JUMPDEST PUSH1 0x40 MLOAD DUP1 SWAP2 SUB SWAP1 LOG1 POP POP JUMP JUMPDEST PUSH0 PUSH1 0x5 PUSH0 DUP4 DUP2 MSTORE PUSH1 0x20 ADD SWAP1 DUP2 MSTORE PUSH1 0x20 ADD PUSH0 KECCAK256 SWAP1 POP CALLER PUSH20 0xFFFFFFFFFFFFFFFFFFFFFFFFFFFFFFFFFFFFFFFF AND DUP2 PUSH1 0x1 ADD PUSH0 SWAP1 SLOAD SWAP1 PUSH2 0x100 EXP SWAP1 DIV PUSH20 0xFFFFFFFFFFFFFFFFFFFFFFFFFFFFFFFFFFFFFFFF AND PUSH20 0xFFFFFFFFFFFFFFFFFFFFFFFFFFFFFFFFFFFFFFFF AND EQ PUSH2 0xBE6 JUMPI PUSH1 0x40 MLOAD PUSH32 0x8C379A000000000000000000000000000000000000000000000000000000000 DUP2 MSTORE PUSH1 0x4 ADD PUSH2 0xBDD SWAP1 PUSH2 0x1571 JUMP JUMPDEST PUSH1 0x40 MLOAD DUP1 SWAP2 SUB SWAP1 REVERT JUMPDEST DUP1 PUSH1 0x4 ADD PUSH0 SWAP1 SLOAD SWAP1 PUSH2 0x100 EXP SWAP1 DIV PUSH1 0xFF AND ISZERO PUSH2 0xC37 JUMPI PUSH1 0x40 MLOAD PUSH32 0x8C379A000000000000000000000000000000000000000000000000000000000 DUP2 MSTORE PUSH1 0x4 ADD PUSH2 0xC2E SWAP1 PUSH2 0x15D9 JUMP JUMPDEST PUSH1 0x40 MLOAD DUP1 SWAP2 SUB SWAP1 REVERT JUMPDEST PUSH0 PUSH0 SWAP1 SLOAD SWAP1 PUSH2 0x100 EXP SWAP1 DIV PUSH20 0xFFFFFFFFFFFFFFFFFFFFFFFFFFFFFFFFFFFFFFFF AND PUSH20 0xFFFFFFFFFFFFFFFFFFFFFFFFFFFFFFFFFFFFFFFF AND PUSH4 0x23B872DD CALLER ADDRESS DUP5 PUSH1 0x2 ADD SLOAD PUSH1 0x40 MLOAD DUP5 PUSH4 0xFFFFFFFF AND PUSH1 0xE0 SHL DUP2 MSTORE PUSH1 0x4 ADD PUSH2 0xC98 SWAP4 SWAP3 SWAP2 SWAP1 PUSH2 0x15F7 JUMP JUMPDEST PUSH1 0x20 PUSH1 0x40 MLOAD DUP1 DUP4 SUB DUP2 PUSH0 DUP8 GAS CALL ISZERO DUP1 ISZERO PUSH2 0xCB4 JUMPI RETURNDATASIZE PUSH0 PUSH0 RETURNDATACOPY RETURNDATASIZE PUSH0 REVERT JUMPDEST POP POP POP POP PUSH1 0x40 MLOAD RETURNDATASIZE PUSH1 0x1F NOT PUSH1 0x1F DUP3 ADD AND DUP3 ADD DUP1 PUSH1 0x40 MSTORE POP DUP2 ADD SWAP1 PUSH2 0xCD8 SWAP2 SWAP1 PUSH2 0x12B3 JUMP JUMPDEST POP PUSH1 0x1 DUP2 PUSH1 0x4 ADD PUSH0 PUSH2 0x100 EXP DUP2 SLOAD DUP2 PUSH1 0xFF MUL NOT AND SWAP1 DUP4 ISZERO ISZERO MUL OR SWAP1 SSTORE POP PUSH32 0xC200A1F31DD659E356E0F112C82558E25F49F7B0F84438691CD96F5CB3558823 CALLER DUP4 PUSH1 0x40 MLOAD PUSH2 0xD26 SWAP3 SWAP2 SWAP1 PUSH2 0x1262 JUMP JUMPDEST PUSH1 0x40 MLOAD DUP1 SWAP2 SUB SWAP1 LOG1 POP POP JUMP JUMPDEST PUSH0 PUSH0 SWAP1 SLOAD SWAP1 PUSH2 0x100 EXP SWAP1 DIV PUSH20 0xFFFFFFFFFFFFFFFFFFFFFFFFFFFFFFFFFFFFFFFF AND DUP2 JUMP JUMPDEST PUSH1 0x3 PUSH1 0x20 MSTORE DUP1 PUSH0 MSTORE PUSH1 0x40 PUSH0 KECCAK256 PUSH0 SWAP2 POP SWAP1 POP SLOAD DUP2 JUMP JUMPDEST PUSH1 0x6 PUSH1 0x20 MSTORE DUP2 PUSH0 MSTORE PUSH1 0x40 PUSH0 KECCAK256 DUP2 DUP2 SLOAD DUP2 LT PUSH2 0xD84 JUMPI PUSH0 DUP1 REVERT JUMPDEST SWAP1 PUSH0 MSTORE PUSH1 0x20 PUSH0 KECCAK256 ADD PUSH0 SWAP2 POP SWAP2 POP POP SLOAD DUP2 JUMP JUMPDEST PUSH1 0x5 PUSH1 0x20 MSTORE DUP1 PUSH0 MSTORE PUSH1 0x40 PUSH0 KECCAK256 PUSH0 SWAP2 POP SWAP1 POP DUP1 PUSH0 ADD SLOAD SWAP1 DUP1 PUSH1 0x1 ADD PUSH0 SWAP1 SLOAD SWAP1 PUSH2 0x100 EXP SWAP1 DIV PUSH20 0xFFFFFFFFFFFFFFFFFFFFFFFFFFFFFFFFFFFFFFFF AND SWAP1 DUP1 PUSH1 0x2 ADD SLOAD SWAP1 DUP1 PUSH1 0x3 ADD SLOAD SWAP1 DUP1 PUSH1 0x4 ADD PUSH0 SWAP1 SLOAD SWAP1 PUSH2 0x100 EXP SWAP1 DIV PUSH1 0xFF AND SWAP1 POP DUP6 JUMP JUMPDEST PUSH1 0x1 PUSH0 SWAP1 SLOAD SWAP1 PUSH2 0x100 EXP SWAP1 DIV PUSH20 0xFFFFFFFFFFFFFFFFFFFFFFFFFFFFFFFFFFFFFFFF AND DUP2 JUMP JUMPDEST PUSH0 PUSH0 REVERT JUMPDEST PUSH0 PUSH20 0xFFFFFFFFFFFFFFFFFFFFFFFFFFFFFFFFFFFFFFFF DUP3 AND SWAP1 POP SWAP2 SWAP1 POP JUMP JUMPDEST PUSH0 PUSH2 0xE45 DUP3 PUSH2 0xE1C JUMP JUMPDEST SWAP1 POP SWAP2 SWAP1 POP JUMP JUMPDEST PUSH2 0xE55 DUP2 PUSH2 0xE3B JUMP JUMPDEST DUP2 EQ PUSH2 0xE5F JUMPI PUSH0 PUSH0 REVERT JUMPDEST POP JUMP JUMPDEST PUSH0 DUP2 CALLDATALOAD SWAP1 POP PUSH2 0xE70 DUP2 PUSH2 0xE4C JUMP JUMPDEST SWAP3 SWAP2 POP POP JUMP JUMPDEST PUSH0 PUSH1 0x20 DUP3 DUP5 SUB SLT ISZERO PUSH2 0xE8B JUMPI PUSH2 0xE8A PUSH2 0xE18 JUMP JUMPDEST JUMPDEST PUSH0 PUSH2 0xE98 DUP5 DUP3 DUP6 ADD PUSH2 0xE62 JUMP JUMPDEST SWAP2 POP POP SWAP3 SWAP2 POP POP JUMP JUMPDEST PUSH0 DUP2 MLOAD SWAP1 POP SWAP2 SWAP1 POP JUMP JUMPDEST PUSH0 DUP3 DUP3 MSTORE PUSH1 0x20 DUP3 ADD SWAP1 POP SWAP3 SWAP2 POP POP JUMP JUMPDEST PUSH0 DUP2 SWAP1 POP PUSH1 0x20 DUP3 ADD SWAP1 POP SWAP2 SWAP1 POP JUMP JUMPDEST PUSH0 DUP2 SWAP1 POP SWAP2 SWAP1 POP JUMP JUMPDEST PUSH2 0xEDC DUP2 PUSH2 0xECA JUMP JUMPDEST DUP3 MSTORE POP POP JUMP JUMPDEST PUSH0 PUSH2 0xEED DUP4 DUP4 PUSH2 0xED3 JUMP JUMPDEST PUSH1 0x20 DUP4 ADD SWAP1 POP SWAP3 SWAP2 POP POP JUMP JUMPDEST PUSH0 PUSH1 0x20 DUP3 ADD SWAP1 POP SWAP2 SWAP1 POP JUMP JUMPDEST PUSH0 PUSH2 0xF0F DUP3 PUSH2 0xEA1 JUMP JUMPDEST PUSH2 0xF19 DUP2 DUP6 PUSH2 0xEAB JUMP JUMPDEST SWAP4 POP PUSH2 0xF24 DUP4 PUSH2 0xEBB JUMP JUMPDEST DUP1 PUSH0 JUMPDEST DUP4 DUP2 LT ISZERO PUSH2 0xF54 JUMPI DUP2 MLOAD PUSH2 0xF3B DUP9 DUP3 PUSH2 0xEE2 JUMP JUMPDEST SWAP8 POP PUSH2 0xF46 DUP4 PUSH2 0xEF9 JUMP JUMPDEST SWAP3 POP POP PUSH1 0x1 DUP2 ADD SWAP1 POP PUSH2 0xF27 JUMP JUMPDEST POP DUP6 SWAP4 POP POP POP POP SWAP3 SWAP2 POP POP JUMP JUMPDEST PUSH0 PUSH1 0x20 DUP3 ADD SWAP1 POP DUP2 DUP2 SUB PUSH0 DUP4 ADD MSTORE PUSH2 0xF79 DUP2 DUP5 PUSH2 0xF05 JUMP JUMPDEST SWAP1 POP SWAP3 SWAP2 POP POP JUMP JUMPDEST PUSH2 0xF8A DUP2 PUSH2 0xECA JUMP JUMPDEST DUP2 EQ PUSH2 0xF94 JUMPI PUSH0 PUSH0 REVERT JUMPDEST POP JUMP JUMPDEST PUSH0 DUP2 CALLDATALOAD SWAP1 POP PUSH2 0xFA5 DUP2 PUSH2 0xF81 JUMP JUMPDEST SWAP3 SWAP2 POP POP JUMP JUMPDEST PUSH0 PUSH0 PUSH1 0x40 DUP4 DUP6 SUB SLT ISZERO PUSH2 0xFC1 JUMPI PUSH2 0xFC0 PUSH2 0xE18 JUMP JUMPDEST JUMPDEST PUSH0 PUSH2 0xFCE DUP6 DUP3 DUP7 ADD PUSH2 0xE62 JUMP JUMPDEST SWAP3 POP POP PUSH1 0x20 PUSH2 0xFDF DUP6 DUP3 DUP7 ADD PUSH2 0xF97 JUMP JUMPDEST SWAP2 POP POP SWAP3 POP SWAP3 SWAP1 POP JUMP JUMPDEST PUSH2 0xFF2 DUP2 PUSH2 0xECA JUMP JUMPDEST DUP3 MSTORE POP POP JUMP JUMPDEST PUSH0 PUSH1 0x20 DUP3 ADD SWAP1 POP PUSH2 0x100B PUSH0 DUP4 ADD DUP5 PUSH2 0xFE9 JUMP JUMPDEST SWAP3 SWAP2 POP POP JUMP JUMPDEST PUSH0 PUSH1 0x20 DUP3 DUP5 SUB SLT ISZERO PUSH2 0x1026 JUMPI PUSH2 0x1025 PUSH2 0xE18 JUMP JUMPDEST JUMPDEST PUSH0 PUSH2 0x1033 DUP5 DUP3 DUP6 ADD PUSH2 0xF97 JUMP JUMPDEST SWAP2 POP POP SWAP3 SWAP2 POP POP JUMP JUMPDEST PUSH0 DUP2 SWAP1 POP SWAP2 SWAP1 POP JUMP JUMPDEST PUSH0 PUSH2 0x105F PUSH2 0x105A PUSH2 0x1055 DUP5 PUSH2 0xE1C JUMP JUMPDEST PUSH2 0x103C JUMP JUMPDEST PUSH2 0xE1C JUMP JUMPDEST SWAP1 POP SWAP2 SWAP1 POP JUMP JUMPDEST PUSH0 PUSH2 0x1070 DUP3 PUSH2 0x1045 JUMP JUMPDEST SWAP1 POP SWAP2 SWAP1 POP JUMP JUMPDEST PUSH0 PUSH2 0x1081 DUP3 PUSH2 0x1066 JUMP JUMPDEST SWAP1 POP SWAP2 SWAP1 POP JUMP JUMPDEST PUSH2 0x1091 DUP2 PUSH2 0x1077 JUMP JUMPDEST DUP3 MSTORE POP POP JUMP JUMPDEST PUSH0 PUSH1 0x20 DUP3 ADD SWAP1 POP PUSH2 0x10AA PUSH0 DUP4 ADD DUP5 PUSH2 0x1088 JUMP JUMPDEST SWAP3 SWAP2 POP POP JUMP JUMPDEST PUSH2 0x10B9 DUP2 PUSH2 0xE3B JUMP JUMPDEST DUP3 MSTORE POP POP JUMP JUMPDEST PUSH0 DUP2 ISZERO ISZERO SWAP1 POP SWAP2 SWAP1 POP JUMP JUMPDEST PUSH2 0x10D3 DUP2 PUSH2 0x10BF JUMP JUMPDEST DUP3 MSTORE POP POP JUMP JUMPDEST PUSH0 PUSH1 0xA0 DUP3 ADD SWAP1 POP PUSH2 0x10EC PUSH0 DUP4 ADD DUP9 PUSH2 0xFE9 JUMP JUMPDEST PUSH2 0x10F9 PUSH1 0x20 DUP4 ADD DUP8 PUSH2 0x10B0 JUMP JUMPDEST PUSH2 0x1106 PUSH1 0x40 DUP4 ADD DUP7 PUSH2 0xFE9 JUMP JUMPDEST PUSH2 0x1113 PUSH1 0x60 DUP4 ADD DUP6 PUSH2 0xFE9 JUMP JUMPDEST PUSH2 0x1120 PUSH1 0x80 DUP4 ADD DUP5 PUSH2 0x10CA JUMP JUMPDEST SWAP7 SWAP6 POP POP POP POP POP POP JUMP JUMPDEST PUSH0 PUSH1 0x20 DUP3 ADD SWAP1 POP PUSH2 0x113D PUSH0 DUP4 ADD DUP5 PUSH2 0x10B0 JUMP JUMPDEST SWAP3 SWAP2 POP POP JUMP JUMPDEST PUSH0 DUP3 DUP3 MSTORE PUSH1 0x20 DUP3 ADD SWAP1 POP SWAP3 SWAP2 POP POP JUMP JUMPDEST PUSH32 0x4E6F742061646D696E0000000000000000000000000000000000000000000000 PUSH0 DUP3 ADD MSTORE POP JUMP JUMPDEST PUSH0 PUSH2 0x1187 PUSH1 0x9 DUP4 PUSH2 0x1143 JUMP JUMPDEST SWAP2 POP PUSH2 0x1192 DUP3 PUSH2 0x1153 JUMP JUMPDEST PUSH1 0x20 DUP3 ADD SWAP1 POP SWAP2 SWAP1 POP JUMP JUMPDEST PUSH0 PUSH1 0x20 DUP3 ADD SWAP1 POP DUP2 DUP2 SUB PUSH0 DUP4 ADD MSTORE PUSH2 0x11B4 DUP2 PUSH2 0x117B JUMP JUMPDEST SWAP1 POP SWAP2 SWAP1 POP JUMP JUMPDEST PUSH0 DUP2 MLOAD SWAP1 POP PUSH2 0x11C9 DUP2 PUSH2 0xF81 JUMP JUMPDEST SWAP3 SWAP2 POP POP JUMP JUMPDEST PUSH0 PUSH1 0x20 DUP3 DUP5 SUB SLT ISZERO PUSH2 0x11E4 JUMPI PUSH2 0x11E3 PUSH2 0xE18 JUMP JUMPDEST JUMPDEST PUSH0 PUSH2 0x11F1 DUP5 DUP3 DUP6 ADD PUSH2 0x11BB JUMP JUMPDEST SWAP2 POP POP SWAP3 SWAP2 POP POP JUMP JUMPDEST PUSH32 0x496E73756666696369656E7420706F6F6C000000000000000000000000000000 PUSH0 DUP3 ADD MSTORE POP JUMP JUMPDEST PUSH0 PUSH2 0x122E PUSH1 0x11 DUP4 PUSH2 0x1143 JUMP JUMPDEST SWAP2 POP PUSH2 0x1239 DUP3 PUSH2 0x11FA JUMP JUMPDEST PUSH1 0x20 DUP3 ADD SWAP1 POP SWAP2 SWAP1 POP JUMP JUMPDEST PUSH0 PUSH1 0x20 DUP3 ADD SWAP1 POP DUP2 DUP2 SUB PUSH0 DUP4 ADD MSTORE PUSH2 0x125B DUP2 PUSH2 0x1222 JUMP JUMPDEST SWAP1 POP SWAP2 SWAP1 POP JUMP JUMPDEST PUSH0 PUSH1 0x40 DUP3 ADD SWAP1 POP PUSH2 0x1275 PUSH0 DUP4 ADD DUP6 PUSH2 0x10B0 JUMP JUMPDEST PUSH2 0x1282 PUSH1 0x20 DUP4 ADD DUP5 PUSH2 0xFE9 JUMP JUMPDEST SWAP4 SWAP3 POP POP POP JUMP JUMPDEST PUSH2 0x1292 DUP2 PUSH2 0x10BF JUMP JUMPDEST DUP2 EQ PUSH2 0x129C JUMPI PUSH0 PUSH0 REVERT JUMPDEST POP JUMP JUMPDEST PUSH0 DUP2 MLOAD SWAP1 POP PUSH2 0x12AD DUP2 PUSH2 0x1289 JUMP JUMPDEST SWAP3 SWAP2 POP POP JUMP JUMPDEST PUSH0 PUSH1 0x20 DUP3 DUP5 SUB SLT ISZERO PUSH2 0x12C8 JUMPI PUSH2 0x12C7 PUSH2 0xE18 JUMP JUMPDEST JUMPDEST PUSH0 PUSH2 0x12D5 DUP5 DUP3 DUP6 ADD PUSH2 0x129F JUMP JUMPDEST SWAP2 POP POP SWAP3 SWAP2 POP POP JUMP JUMPDEST PUSH32 0x416D6F756E74206D7573742062652067726561746572207468616E207A65726F PUSH0 DUP3 ADD MSTORE POP JUMP JUMPDEST PUSH0 PUSH2 0x1312 PUSH1 0x20 DUP4 PUSH2 0x1143 JUMP JUMPDEST SWAP2 POP PUSH2 0x131D DUP3 PUSH2 0x12DE JUMP JUMPDEST PUSH1 0x20 DUP3 ADD SWAP1 POP SWAP2 SWAP1 POP JUMP JUMPDEST PUSH0 PUSH1 0x20 DUP3 ADD SWAP1 POP DUP2 DUP2 SUB PUSH0 DUP4 ADD MSTORE PUSH2 0x133F DUP2 PUSH2 0x1306 JUMP JUMPDEST SWAP1 POP SWAP2 SWAP1 POP JUMP JUMPDEST PUSH32 0x4E6F20637265646974206C696D69742073657400000000000000000000000000 PUSH0 DUP3 ADD MSTORE POP JUMP JUMPDEST PUSH0 PUSH2 0x137A PUSH1 0x13 DUP4 PUSH2 0x1143 JUMP JUMPDEST SWAP2 POP PUSH2 0x1385 DUP3 PUSH2 0x1346 JUMP JUMPDEST PUSH1 0x20 DUP3 ADD SWAP1 POP SWAP2 SWAP1 POP JUMP JUMPDEST PUSH0 PUSH1 0x20 DUP3 ADD SWAP1 POP DUP2 DUP2 SUB PUSH0 DUP4 ADD MSTORE PUSH2 0x13A7 DUP2 PUSH2 0x136E JUMP JUMPDEST SWAP1 POP SWAP2 SWAP1 POP JUMP JUMPDEST PUSH32 0x45786365656473206D6178206C6F616E206C696D697420666F72207573657200 PUSH0 DUP3 ADD MSTORE POP JUMP JUMPDEST PUSH0 PUSH2 0x13E2 PUSH1 0x1F DUP4 PUSH2 0x1143 JUMP JUMPDEST SWAP2 POP PUSH2 0x13ED DUP3 PUSH2 0x13AE JUMP JUMPDEST PUSH1 0x20 DUP3 ADD SWAP1 POP SWAP2 SWAP1 POP JUMP JUMPDEST PUSH0 PUSH1 0x20 DUP3 ADD SWAP1 POP DUP2 DUP2 SUB PUSH0 DUP4 ADD MSTORE PUSH2 0x140F DUP2 PUSH2 0x13D6 JUMP JUMPDEST SWAP1 POP SWAP2 SWAP1 POP JUMP JUMPDEST PUSH32 0x436F6E74726163742068617320696E73756666696369656E742066756E647300 PUSH0 DUP3 ADD MSTORE POP JUMP JUMPDEST PUSH0 PUSH2 0x144A PUSH1 0x1F DUP4 PUSH2 0x1143 JUMP JUMPDEST SWAP2 POP PUSH2 0x1455 DUP3 PUSH2 0x1416 JUMP JUMPDEST PUSH1 0x20 DUP3 ADD SWAP1 POP SWAP2 SWAP1 POP JUMP JUMPDEST PUSH0 PUSH1 0x20 DUP3 ADD SWAP1 POP DUP2 DUP2 SUB PUSH0 DUP4 ADD MSTORE PUSH2 0x1477 DUP2 PUSH2 0x143E JUMP JUMPDEST SWAP1 POP SWAP2 SWAP1 POP JUMP JUMPDEST PUSH32 0x4E487B7100000000000000000000000000000000000000000000000000000000 PUSH0 MSTORE PUSH1 0x11 PUSH1 0x4 MSTORE PUSH1 0x24 PUSH0 REVERT JUMPDEST PUSH0 PUSH2 0x14B5 DUP3 PUSH2 0xECA JUMP JUMPDEST SWAP2 POP PUSH32 0xFFFFFFFFFFFFFFFFFFFFFFFFFFFFFFFFFFFFFFFFFFFFFFFFFFFFFFFFFFFFFFFF DUP3 SUB PUSH2 0x14E7 JUMPI PUSH2 0x14E6 PUSH2 0x147E JUMP JUMPDEST JUMPDEST PUSH1 0x1 DUP3 ADD SWAP1 POP SWAP2 SWAP1 POP JUMP JUMPDEST PUSH0 PUSH1 0x60 DUP3 ADD SWAP1 POP PUSH2 0x1505 PUSH0 DUP4 ADD DUP7 PUSH2 0x10B0 JUMP JUMPDEST PUSH2 0x1512 PUSH1 0x20 DUP4 ADD DUP6 PUSH2 0xFE9 JUMP JUMPDEST PUSH2 0x151F PUSH1 0x40 DUP4 ADD DUP5 PUSH2 0xFE9 JUMP JUMPDEST SWAP5 SWAP4 POP POP POP POP JUMP JUMPDEST PUSH32 0x4E6F7420626F72726F7765720000000000000000000000000000000000000000 PUSH0 DUP3 ADD MSTORE POP JUMP JUMPDEST PUSH0 PUSH2 0x155B PUSH1 0xC DUP4 PUSH2 0x1143 JUMP JUMPDEST SWAP2 POP PUSH2 0x1566 DUP3 PUSH2 0x1527 JUMP JUMPDEST PUSH1 0x20 DUP3 ADD SWAP1 POP SWAP2 SWAP1 POP JUMP JUMPDEST PUSH0 PUSH1 0x20 DUP3 ADD SWAP1 POP DUP2 DUP2 SUB PUSH0 DUP4 ADD MSTORE PUSH2 0x1588 DUP2 PUSH2 0x154F JUMP JUMPDEST SWAP1 POP SWAP2 SWAP1 POP JUMP JUMPDEST PUSH32 0x416C726561647920726570616964000000000000000000000000000000000000 PUSH0 DUP3 ADD MSTORE POP JUMP JUMPDEST PUSH0 PUSH2 0x15C3 PUSH1 0xE DUP4 PUSH2 0x1143 JUMP JUMPDEST SWAP2 POP PUSH2 0x15CE DUP3 PUSH2 0x158F JUMP JUMPDEST PUSH1 0x20 DUP3 ADD SWAP1 POP SWAP2 SWAP1 POP JUMP JUMPDEST PUSH0 PUSH1 0x20 DUP3 ADD SWAP1 POP DUP2 DUP2 SUB PUSH0 DUP4 ADD MSTORE PUSH2 0x15F0 DUP2 PUSH2 0x15B7 JUMP JUMPDEST SWAP1 POP SWAP2 SWAP1 POP JUMP JUMPDEST PUSH0 PUSH1 0x60 DUP3 ADD SWAP1 POP PUSH2 0x160A PUSH0 DUP4 ADD DUP7 PUSH2 0x10B0 JUMP JUMPDEST PUSH2 0x1617 PUSH1 0x20 DUP4 ADD DUP6 PUSH2 0x10B0 JUMP JUMPDEST PUSH2 0x1624 PUSH1 0x40 DUP4 ADD DUP5 PUSH2 0xFE9 JUMP JUMPDEST SWAP5 SWAP4 POP POP POP POP JUMP INVALID LOG2 PUSH5 0x6970667358 0x22 SLT KECCAK256 0xDB PUSH3 0x41C51A 0xC2 0xB3 0xDF 0x4D 0xE2 JUMPDEST PUSH17 0x6F79C930C15F847EAD998F0089E108AB8C LT NOT 0xC0 PUSH5 0x736F6C6343 STOP ADDMOD 0x1E STOP CALLER "
				},
				"gasEstimates": {
					"creation": {
						"codeDepositCost": "1146000",
						"executionCost": "infinite",
						"totalCost": "infinite"
					},
					"external": {
						"admin()": "2596",
						"adminWithdraw(uint256)": "infinite",
						"cCTC()": "infinite",
						"getAvailablePool()": "infinite",
						"getUserLoans(address)": "infinite",
						"globalLoanLimit()": "2470",
						"loanCounter()": "2514",
						"loans(uint256)": "infinite",
						"repayLoan(uint256)": "infinite",
						"requestLoan(uint256)": "infinite",
						"setUserCreditLimit(address,uint256)": "25013",
						"userCreditLimits(address)": "2824",
						"userLoans(address,uint256)": "infinite"
					}
				},
				"methodIdentifiers": {
					"admin()": "f851a440",
					"adminWithdraw(uint256)": "7c5b4a37",
					"cCTC()": "c09100db",
					"getAvailablePool()": "1d0602a3",
					"getUserLoans(address)": "02bf321f",
					"globalLoanLimit()": "189b8358",
					"loanCounter()": "34d9289e",
					"loans(uint256)": "e1ec3c68",
					"repayLoan(uint256)": "ab7b1c89",
					"requestLoan(uint256)": "8d5d3429",
					"setUserCreditLimit(address,uint256)": "043151bc",
					"userCreditLimits(address)": "c42df5a4",
					"userLoans(address,uint256)": "d8bad5bd"
				}
			},
			"storageLayout": {
				"storage": [
					{
						"astId": 32,
						"contract": "GFCPLoan.sol:GFCPLoan",
						"label": "cCTC",
						"offset": 0,
						"slot": "0",
						"type": "t_contract(IERC20)29"
					},
					{
						"astId": 34,
						"contract": "GFCPLoan.sol:GFCPLoan",
						"label": "admin",
						"offset": 0,
						"slot": "1",
						"type": "t_address"
					},
					{
						"astId": 41,
						"contract": "GFCPLoan.sol:GFCPLoan",
						"label": "globalLoanLimit",
						"offset": 0,
						"slot": "2",
						"type": "t_uint256"
					},
					{
						"astId": 45,
						"contract": "GFCPLoan.sol:GFCPLoan",
						"label": "userCreditLimits",
						"offset": 0,
						"slot": "3",
						"type": "t_mapping(t_address,t_uint256)"
					},
					{
						"astId": 85,
						"contract": "GFCPLoan.sol:GFCPLoan",
						"label": "loanCounter",
						"offset": 0,
						"slot": "4",
						"type": "t_uint256"
					},
					{
						"astId": 90,
						"contract": "GFCPLoan.sol:GFCPLoan",
						"label": "loans",
						"offset": 0,
						"slot": "5",
						"type": "t_mapping(t_uint256,t_struct(Loan)83_storage)"
					},
					{
						"astId": 95,
						"contract": "GFCPLoan.sol:GFCPLoan",
						"label": "userLoans",
						"offset": 0,
						"slot": "6",
						"type": "t_mapping(t_address,t_array(t_uint256)dyn_storage)"
					}
				],
				"types": {
					"t_address": {
						"encoding": "inplace",
						"label": "address",
						"numberOfBytes": "20"
					},
					"t_array(t_uint256)dyn_storage": {
						"base": "t_uint256",
						"encoding": "dynamic_array",
						"label": "uint256[]",
						"numberOfBytes": "32"
					},
					"t_bool": {
						"encoding": "inplace",
						"label": "bool",
						"numberOfBytes": "1"
					},
					"t_contract(IERC20)29": {
						"encoding": "inplace",
						"label": "contract IERC20",
						"numberOfBytes": "20"
					},
					"t_mapping(t_address,t_array(t_uint256)dyn_storage)": {
						"encoding": "mapping",
						"key": "t_address",
						"label": "mapping(address => uint256[])",
						"numberOfBytes": "32",
						"value": "t_array(t_uint256)dyn_storage"
					},
					"t_mapping(t_address,t_uint256)": {
						"encoding": "mapping",
						"key": "t_address",
						"label": "mapping(address => uint256)",
						"numberOfBytes": "32",
						"value": "t_uint256"
					},
					"t_mapping(t_uint256,t_struct(Loan)83_storage)": {
						"encoding": "mapping",
						"key": "t_uint256",
						"label": "mapping(uint256 => struct GFCPLoan.Loan)",
						"numberOfBytes": "32",
						"value": "t_struct(Loan)83_storage"
					},
					"t_struct(Loan)83_storage": {
						"encoding": "inplace",
						"label": "struct GFCPLoan.Loan",
						"members": [
							{
								"astId": 74,
								"contract": "GFCPLoan.sol:GFCPLoan",
								"label": "id",
								"offset": 0,
								"slot": "0",
								"type": "t_uint256"
							},
							{
								"astId": 76,
								"contract": "GFCPLoan.sol:GFCPLoan",
								"label": "borrower",
								"offset": 0,
								"slot": "1",
								"type": "t_address"
							},
							{
								"astId": 78,
								"contract": "GFCPLoan.sol:GFCPLoan",
								"label": "amount",
								"offset": 0,
								"slot": "2",
								"type": "t_uint256"
							},
							{
								"astId": 80,
								"contract": "GFCPLoan.sol:GFCPLoan",
								"label": "timestamp",
								"offset": 0,
								"slot": "3",
								"type": "t_uint256"
							},
							{
								"astId": 82,
								"contract": "GFCPLoan.sol:GFCPLoan",
								"label": "repaid",
								"offset": 0,
								"slot": "4",
								"type": "t_bool"
							}
						],
						"numberOfBytes": "160"
					},
					"t_uint256": {
						"encoding": "inplace",
						"label": "uint256",
						"numberOfBytes": "32"
					}
				}
			},
			"userdoc": {
				"kind": "user",
				"methods": {},
				"version": 1
			}
		}
	}
}