{
	"HedgeContract.sol": {
		"HedgeContract": {
			"abi": [
				{
					"inputs": [
						{
							"internalType": "address",
							"name": "oracleAddress",
							"type": "address"
						},
						{
							"internalType": "address",
							"name": "usdtAddress",
							"type": "address"
						}
					],
					"stateMutability": "nonpayable",
					"type": "constructor"
				},
				{
					"anonymous": false,
					"inputs": [
						{
							"indexed": true,
							"internalType": "uint256",
							"name": "id",
							"type": "uint256"
						},
						{
							"indexed": true,
							"internalType": "address",
							"name": "owner",
							"type": "address"
						},
						{
							"indexed": false,
							"internalType": "uint256",
							"name": "finalPrice",
							"type": "uint256"
						},
						{
							"indexed": false,
							"internalType": "uint256",
							"name": "payout",
							"type": "uint256"
						}
					],
					"name": "HedgeClosed",
					"type": "event"
				},
				{
					"anonymous": false,
					"inputs": [
						{
							"indexed": true,
							"internalType": "uint256",
							"name": "id",
							"type": "uint256"
						},
						{
							"indexed": true,
							"internalType": "address",
							"name": "owner",
							"type": "address"
						},
						{
							"indexed": false,
							"internalType": "string",
							"name": "commodity",
							"type": "string"
						},
						{
							"indexed": false,
							"internalType": "uint256",
							"name": "amount",
							"type": "uint256"
						},
						{
							"indexed": false,
							"internalType": "uint256",
							"name": "strikePrice",
							"type": "uint256"
						},
						{
							"indexed": false,
							"internalType": "uint256",
							"name": "expireAt",
							"type": "uint256"
						},
						{
							"indexed": false,
							"internalType": "uint256",
							"name": "lockedValue",
							"type": "uint256"
						}
					],
					"name": "HedgeCreated",
					"type": "event"
				},
				{
					"inputs": [],
					"name": "admin",
					"outputs": [
						{
							"internalType": "address",
							"name": "",
							"type": "address"
						}
					],
					"stateMutability": "view",
					"type": "function"
				},
				{
					"inputs": [
						{
							"internalType": "uint256",
							"name": "id",
							"type": "uint256"
						}
					],
					"name": "closeHedge",
					"outputs": [],
					"stateMutability": "nonpayable",
					"type": "function"
				},
				{
					"inputs": [
						{
							"internalType": "string",
							"name": "commodity",
							"type": "string"
						},
						{
							"internalType": "uint256",
							"name": "amount",
							"type": "uint256"
						},
						{
							"internalType": "uint256",
							"name": "strikePrice",
							"type": "uint256"
						},
						{
							"internalType": "uint256",
							"name": "expireOption",
							"type": "uint256"
						}
					],
					"name": "createHedge",
					"outputs": [],
					"stateMutability": "nonpayable",
					"type": "function"
				},
				{
					"inputs": [
						{
							"internalType": "address",
							"name": "user",
							"type": "address"
						}
					],
					"name": "getUserPositions",
					"outputs": [
						{
							"internalType": "uint256[]",
							"name": "",
							"type": "uint256[]"
						}
					],
					"stateMutability": "view",
					"type": "function"
				},
				{
					"inputs": [],
					"name": "oracle",
					"outputs": [
						{
							"internalType": "contract IPriceOracle",
							"name": "",
							"type": "address"
						}
					],
					"stateMutability": "view",
					"type": "function"
				},
				{
					"inputs": [
						{
							"internalType": "uint256",
							"name": "",
							"type": "uint256"
						}
					],
					"name": "positions",
					"outputs": [
						{
							"internalType": "address",
							"name": "owner",
							"type": "address"
						},
						{
							"internalType": "string",
							"name": "commodity",
							"type": "string"
						},
						{
							"internalType": "uint256",
							"name": "amount",
							"type": "uint256"
						},
						{
							"internalType": "uint256",
							"name": "strikePrice",
							"type": "uint256"
						},
						{
							"internalType": "uint256",
							"name": "expireAt",
							"type": "uint256"
						},
						{
							"internalType": "uint256",
							"name": "lockedValue",
							"type": "uint256"
						},
						{
							"internalType": "bool",
							"name": "closed",
							"type": "bool"
						}
					],
					"stateMutability": "view",
					"type": "function"
				},
				{
					"inputs": [],
					"name": "totalPositions",
					"outputs": [
						{
							"internalType": "uint256",
							"name": "",
							"type": "uint256"
						}
					],
					"stateMutability": "view",
					"type": "function"
				},
				{
					"inputs": [],
					"name": "usdt",
					"outputs": [
						{
							"internalType": "contract IERC20",
							"name": "",
							"type": "address"
						}
					],
					"stateMutability": "view",
					"type": "function"
				},
				{
					"inputs": [
						{
							"internalType": "address",
							"name": "",
							"type": "address"
						},
						{
							"internalType": "uint256",
							"name": "",
							"type": "uint256"
						}
					],
					"name": "userPositions",
					"outputs": [
						{
							"internalType": "uint256",
							"name": "",
							"type": "uint256"
						}
					],
					"stateMutability": "view",
					"type": "function"
				}
			],
			"devdoc": {
				"kind": "dev",
				"methods": {},
				"version": 1
			},
			"evm": {
				"assembly": "    /* \"HedgeContract.sol\":435:4384  contract HedgeContract {... */\n  mstore(0x40, 0x80)\n    /* \"HedgeContract.sol\":1228:1525  constructor(address oracleAddress, address usdtAddress) {... */\n  callvalue\n  dup1\n  iszero\n  tag_1\n  jumpi\n  revert(0x00, 0x00)\ntag_1:\n  pop\n  mload(0x40)\n  sub(codesize, bytecodeSize)\n  dup1\n  bytecodeSize\n  dup4\n  codecopy\n  dup2\n  dup2\n  add\n  0x40\n  mstore\n  dup2\n  add\n  swap1\n  tag_2\n  swap2\n  swap1\n  tag_3\n  jump\t// in\ntag_2:\n    /* \"HedgeContract.sol\":1327:1328  0 */\n  0x00\n    /* \"HedgeContract.sol\":1302:1329  oracleAddress != address(0) */\n  0xffffffffffffffffffffffffffffffffffffffff\n  and\n    /* \"HedgeContract.sol\":1302:1315  oracleAddress */\n  dup3\n    /* \"HedgeContract.sol\":1302:1329  oracleAddress != address(0) */\n  0xffffffffffffffffffffffffffffffffffffffff\n  and\n  sub\n    /* \"HedgeContract.sol\":1294:1348  require(oracleAddress != address(0), \"Invalid oracle\") */\n  tag_6\n  jumpi\n  mload(0x40)\n  0x08c379a000000000000000000000000000000000000000000000000000000000\n  dup2\n  mstore\n  0x04\n  add\n  tag_7\n  swap1\n  tag_8\n  jump\t// in\ntag_7:\n  mload(0x40)\n  dup1\n  swap2\n  sub\n  swap1\n  revert\ntag_6:\n    /* \"HedgeContract.sol\":1389:1390  0 */\n  0x00\n    /* \"HedgeContract.sol\":1366:1391  usdtAddress != address(0) */\n  0xffffffffffffffffffffffffffffffffffffffff\n  and\n    /* \"HedgeContract.sol\":1366:1377  usdtAddress */\n  dup2\n    /* \"HedgeContract.sol\":1366:1391  usdtAddress != address(0) */\n  0xffffffffffffffffffffffffffffffffffffffff\n  and\n  sub\n    /* \"HedgeContract.sol\":1358:1408  require(usdtAddress != address(0), \"Invalid USDT\") */\n  tag_9\n  jumpi\n  mload(0x40)\n  0x08c379a000000000000000000000000000000000000000000000000000000000\n  dup2\n  mstore\n  0x04\n  add\n  tag_10\n  swap1\n  tag_11\n  jump\t// in\ntag_10:\n  mload(0x40)\n  dup1\n  swap2\n  sub\n  swap1\n  revert\ntag_9:\n    /* \"HedgeContract.sol\":1440:1453  oracleAddress */\n  dup2\n    /* \"HedgeContract.sol\":1418:1424  oracle */\n  0x00\n  0x00\n    /* \"HedgeContract.sol\":1418:1454  oracle = IPriceOracle(oracleAddress) */\n  0x0100\n  exp\n  dup2\n  sload\n  dup2\n  0xffffffffffffffffffffffffffffffffffffffff\n  mul\n  not\n  and\n  swap1\n  dup4\n  0xffffffffffffffffffffffffffffffffffffffff\n  and\n  mul\n  or\n  swap1\n  sstore\n  pop\n    /* \"HedgeContract.sol\":1478:1489  usdtAddress */\n  dup1\n    /* \"HedgeContract.sol\":1464:1468  usdt */\n  0x01\n  0x00\n    /* \"HedgeContract.sol\":1464:1490  usdt = IERC20(usdtAddress) */\n  0x0100\n  exp\n  dup2\n  sload\n  dup2\n  0xffffffffffffffffffffffffffffffffffffffff\n  mul\n  not\n  and\n  swap1\n  dup4\n  0xffffffffffffffffffffffffffffffffffffffff\n  and\n  mul\n  or\n  swap1\n  sstore\n  pop\n    /* \"HedgeContract.sol\":1508:1518  msg.sender */\n  caller\n    /* \"HedgeContract.sol\":1500:1505  admin */\n  0x02\n  0x00\n    /* \"HedgeContract.sol\":1500:1518  admin = msg.sender */\n  0x0100\n  exp\n  dup2\n  sload\n  dup2\n  0xffffffffffffffffffffffffffffffffffffffff\n  mul\n  not\n  and\n  swap1\n  dup4\n  0xffffffffffffffffffffffffffffffffffffffff\n  and\n  mul\n  or\n  swap1\n  sstore\n  pop\n    /* \"HedgeContract.sol\":1228:1525  constructor(address oracleAddress, address usdtAddress) {... */\n  pop\n  pop\n    /* \"HedgeContract.sol\":435:4384  contract HedgeContract {... */\n  jump(tag_12)\n    /* \"#utility.yul\":88:205   */\ntag_14:\n    /* \"#utility.yul\":197:198   */\n  0x00\n    /* \"#utility.yul\":194:195   */\n  0x00\n    /* \"#utility.yul\":187:199   */\n  revert\n    /* \"#utility.yul\":334:460   */\ntag_16:\n    /* \"#utility.yul\":371:378   */\n  0x00\n    /* \"#utility.yul\":411:453   */\n  0xffffffffffffffffffffffffffffffffffffffff\n    /* \"#utility.yul\":404:409   */\n  dup3\n    /* \"#utility.yul\":400:454   */\n  and\n    /* \"#utility.yul\":389:454   */\n  swap1\n  pop\n    /* \"#utility.yul\":334:460   */\n  swap2\n  swap1\n  pop\n  jump\t// out\n    /* \"#utility.yul\":466:562   */\ntag_17:\n    /* \"#utility.yul\":503:510   */\n  0x00\n    /* \"#utility.yul\":532:556   */\n  tag_31\n    /* \"#utility.yul\":550:555   */\n  dup3\n    /* \"#utility.yul\":532:556   */\n  tag_16\n  jump\t// in\ntag_31:\n    /* \"#utility.yul\":521:556   */\n  swap1\n  pop\n    /* \"#utility.yul\":466:562   */\n  swap2\n  swap1\n  pop\n  jump\t// out\n    /* \"#utility.yul\":568:690   */\ntag_18:\n    /* \"#utility.yul\":641:665   */\n  tag_33\n    /* \"#utility.yul\":659:664   */\n  dup2\n    /* \"#utility.yul\":641:665   */\n  tag_17\n  jump\t// in\ntag_33:\n    /* \"#utility.yul\":634:639   */\n  dup2\n    /* \"#utility.yul\":631:666   */\n  eq\n    /* \"#utility.yul\":621:684   */\n  tag_34\n  jumpi\n    /* \"#utility.yul\":680:681   */\n  0x00\n    /* \"#utility.yul\":677:678   */\n  0x00\n    /* \"#utility.yul\":670:682   */\n  revert\n    /* \"#utility.yul\":621:684   */\ntag_34:\n    /* \"#utility.yul\":568:690   */\n  pop\n  jump\t// out\n    /* \"#utility.yul\":696:839   */\ntag_19:\n    /* \"#utility.yul\":753:758   */\n  0x00\n    /* \"#utility.yul\":784:790   */\n  dup2\n    /* \"#utility.yul\":778:791   */\n  mload\n    /* \"#utility.yul\":769:791   */\n  swap1\n  pop\n    /* \"#utility.yul\":800:833   */\n  tag_36\n    /* \"#utility.yul\":827:832   */\n  dup2\n    /* \"#utility.yul\":800:833   */\n  tag_18\n  jump\t// in\ntag_36:\n    /* \"#utility.yul\":696:839   */\n  swap3\n  swap2\n  pop\n  pop\n  jump\t// out\n    /* \"#utility.yul\":845:1352   */\ntag_3:\n    /* \"#utility.yul\":924:930   */\n  0x00\n    /* \"#utility.yul\":932:938   */\n  0x00\n    /* \"#utility.yul\":981:983   */\n  0x40\n    /* \"#utility.yul\":969:978   */\n  dup4\n    /* \"#utility.yul\":960:967   */\n  dup6\n    /* \"#utility.yul\":956:979   */\n  sub\n    /* \"#utility.yul\":952:984   */\n  slt\n    /* \"#utility.yul\":949:1068   */\n  iszero\n  tag_38\n  jumpi\n    /* \"#utility.yul\":987:1066   */\n  tag_39\n  tag_14\n  jump\t// in\ntag_39:\n    /* \"#utility.yul\":949:1068   */\ntag_38:\n    /* \"#utility.yul\":1107:1108   */\n  0x00\n    /* \"#utility.yul\":1132:1196   */\n  tag_40\n    /* \"#utility.yul\":1188:1195   */\n  dup6\n    /* \"#utility.yul\":1179:1185   */\n  dup3\n    /* \"#utility.yul\":1168:1177   */\n  dup7\n    /* \"#utility.yul\":1164:1186   */\n  add\n    /* \"#utility.yul\":1132:1196   */\n  tag_19\n  jump\t// in\ntag_40:\n    /* \"#utility.yul\":1122:1196   */\n  swap3\n  pop\n    /* \"#utility.yul\":1078:1206   */\n  pop\n    /* \"#utility.yul\":1245:1247   */\n  0x20\n    /* \"#utility.yul\":1271:1335   */\n  tag_41\n    /* \"#utility.yul\":1327:1334   */\n  dup6\n    /* \"#utility.yul\":1318:1324   */\n  dup3\n    /* \"#utility.yul\":1307:1316   */\n  dup7\n    /* \"#utility.yul\":1303:1325   */\n  add\n    /* \"#utility.yul\":1271:1335   */\n  tag_19\n  jump\t// in\ntag_41:\n    /* \"#utility.yul\":1261:1335   */\n  swap2\n  pop\n    /* \"#utility.yul\":1216:1345   */\n  pop\n    /* \"#utility.yul\":845:1352   */\n  swap3\n  pop\n  swap3\n  swap1\n  pop\n  jump\t// out\n    /* \"#utility.yul\":1358:1527   */\ntag_20:\n    /* \"#utility.yul\":1442:1453   */\n  0x00\n    /* \"#utility.yul\":1476:1482   */\n  dup3\n    /* \"#utility.yul\":1471:1474   */\n  dup3\n    /* \"#utility.yul\":1464:1483   */\n  mstore\n    /* \"#utility.yul\":1516:1520   */\n  0x20\n    /* \"#utility.yul\":1511:1514   */\n  dup3\n    /* \"#utility.yul\":1507:1521   */\n  add\n    /* \"#utility.yul\":1492:1521   */\n  swap1\n  pop\n    /* \"#utility.yul\":1358:1527   */\n  swap3\n  swap2\n  pop\n  pop\n  jump\t// out\n    /* \"#utility.yul\":1533:1697   */\ntag_21:\n    /* \"#utility.yul\":1673:1689   */\n  0x496e76616c6964206f7261636c65000000000000000000000000000000000000\n    /* \"#utility.yul\":1669:1670   */\n  0x00\n    /* \"#utility.yul\":1661:1667   */\n  dup3\n    /* \"#utility.yul\":1657:1671   */\n  add\n    /* \"#utility.yul\":1650:1690   */\n  mstore\n    /* \"#utility.yul\":1533:1697   */\n  pop\n  jump\t// out\n    /* \"#utility.yul\":1703:2069   */\ntag_22:\n    /* \"#utility.yul\":1845:1848   */\n  0x00\n    /* \"#utility.yul\":1866:1933   */\n  tag_45\n    /* \"#utility.yul\":1930:1932   */\n  0x0e\n    /* \"#utility.yul\":1925:1928   */\n  dup4\n    /* \"#utility.yul\":1866:1933   */\n  tag_20\n  jump\t// in\ntag_45:\n    /* \"#utility.yul\":1859:1933   */\n  swap2\n  pop\n    /* \"#utility.yul\":1942:2035   */\n  tag_46\n    /* \"#utility.yul\":2031:2034   */\n  dup3\n    /* \"#utility.yul\":1942:2035   */\n  tag_21\n  jump\t// in\ntag_46:\n    /* \"#utility.yul\":2060:2062   */\n  0x20\n    /* \"#utility.yul\":2055:2058   */\n  dup3\n    /* \"#utility.yul\":2051:2063   */\n  add\n    /* \"#utility.yul\":2044:2063   */\n  swap1\n  pop\n    /* \"#utility.yul\":1703:2069   */\n  swap2\n  swap1\n  pop\n  jump\t// out\n    /* \"#utility.yul\":2075:2494   */\ntag_8:\n    /* \"#utility.yul\":2241:2245   */\n  0x00\n    /* \"#utility.yul\":2279:2281   */\n  0x20\n    /* \"#utility.yul\":2268:2277   */\n  dup3\n    /* \"#utility.yul\":2264:2282   */\n  add\n    /* \"#utility.yul\":2256:2282   */\n  swap1\n  pop\n    /* \"#utility.yul\":2328:2337   */\n  dup2\n    /* \"#utility.yul\":2322:2326   */\n  dup2\n    /* \"#utility.yul\":2318:2338   */\n  sub\n    /* \"#utility.yul\":2314:2315   */\n  0x00\n    /* \"#utility.yul\":2303:2312   */\n  dup4\n    /* \"#utility.yul\":2299:2316   */\n  add\n    /* \"#utility.yul\":2292:2339   */\n  mstore\n    /* \"#utility.yul\":2356:2487   */\n  tag_48\n    /* \"#utility.yul\":2482:2486   */\n  dup2\n    /* \"#utility.yul\":2356:2487   */\n  tag_22\n  jump\t// in\ntag_48:\n    /* \"#utility.yul\":2348:2487   */\n  swap1\n  pop\n    /* \"#utility.yul\":2075:2494   */\n  swap2\n  swap1\n  pop\n  jump\t// out\n    /* \"#utility.yul\":2500:2662   */\ntag_23:\n    /* \"#utility.yul\":2640:2654   */\n  0x496e76616c696420555344540000000000000000000000000000000000000000\n    /* \"#utility.yul\":2636:2637   */\n  0x00\n    /* \"#utility.yul\":2628:2634   */\n  dup3\n    /* \"#utility.yul\":2624:2638   */\n  add\n    /* \"#utility.yul\":2617:2655   */\n  mstore\n    /* \"#utility.yul\":2500:2662   */\n  pop\n  jump\t// out\n    /* \"#utility.yul\":2668:3034   */\ntag_24:\n    /* \"#utility.yul\":2810:2813   */\n  0x00\n    /* \"#utility.yul\":2831:2898   */\n  tag_51\n    /* \"#utility.yul\":2895:2897   */\n  0x0c\n    /* \"#utility.yul\":2890:2893   */\n  dup4\n    /* \"#utility.yul\":2831:2898   */\n  tag_20\n  jump\t// in\ntag_51:\n    /* \"#utility.yul\":2824:2898   */\n  swap2\n  pop\n    /* \"#utility.yul\":2907:3000   */\n  tag_52\n    /* \"#utility.yul\":2996:2999   */\n  dup3\n    /* \"#utility.yul\":2907:3000   */\n  tag_23\n  jump\t// in\ntag_52:\n    /* \"#utility.yul\":3025:3027   */\n  0x20\n    /* \"#utility.yul\":3020:3023   */\n  dup3\n    /* \"#utility.yul\":3016:3028   */\n  add\n    /* \"#utility.yul\":3009:3028   */\n  swap1\n  pop\n    /* \"#utility.yul\":2668:3034   */\n  swap2\n  swap1\n  pop\n  jump\t// out\n    /* \"#utility.yul\":3040:3459   */\ntag_11:\n    /* \"#utility.yul\":3206:3210   */\n  0x00\n    /* \"#utility.yul\":3244:3246   */\n  0x20\n    /* \"#utility.yul\":3233:3242   */\n  dup3\n    /* \"#utility.yul\":3229:3247   */\n  add\n    /* \"#utility.yul\":3221:3247   */\n  swap1\n  pop\n    /* \"#utility.yul\":3293:3302   */\n  dup2\n    /* \"#utility.yul\":3287:3291   */\n  dup2\n    /* \"#utility.yul\":3283:3303   */\n  sub\n    /* \"#utility.yul\":3279:3280   */\n  0x00\n    /* \"#utility.yul\":3268:3277   */\n  dup4\n    /* \"#utility.yul\":3264:3281   */\n  add\n    /* \"#utility.yul\":3257:3304   */\n  mstore\n    /* \"#utility.yul\":3321:3452   */\n  tag_54\n    /* \"#utility.yul\":3447:3451   */\n  dup2\n    /* \"#utility.yul\":3321:3452   */\n  tag_24\n  jump\t// in\ntag_54:\n    /* \"#utility.yul\":3313:3452   */\n  swap1\n  pop\n    /* \"#utility.yul\":3040:3459   */\n  swap2\n  swap1\n  pop\n  jump\t// out\n    /* \"HedgeContract.sol\":435:4384  contract HedgeContract {... */\ntag_12:\n  dataSize(sub_0)\n  dup1\n  dataOffset(sub_0)\n  0x00\n  codecopy\n  0x00\n  return\nstop\n\nsub_0: assembly {\n        /* \"HedgeContract.sol\":435:4384  contract HedgeContract {... */\n      mstore(0x40, 0x80)\n      callvalue\n      dup1\n      iszero\n      tag_1\n      jumpi\n      revert(0x00, 0x00)\n    tag_1:\n      pop\n      jumpi(tag_2, lt(calldatasize, 0x04))\n      shr(0xe0, calldataload(0x00))\n      dup1\n      0x817f9bc4\n      gt\n      tag_12\n      jumpi\n      dup1\n      0x817f9bc4\n      eq\n      tag_7\n      jumpi\n      dup1\n      0x99fbab88\n      eq\n      tag_8\n      jumpi\n      dup1\n      0xdc0cc932\n      eq\n      tag_9\n      jumpi\n      dup1\n      0xf851a440\n      eq\n      tag_10\n      jumpi\n      dup1\n      0xfda1fa5f\n      eq\n      tag_11\n      jumpi\n      jump(tag_2)\n    tag_12:\n      dup1\n      0x2a6bc2dd\n      eq\n      tag_3\n      jumpi\n      dup1\n      0x2f48ab7d\n      eq\n      tag_4\n      jumpi\n      dup1\n      0x5e1b4d99\n      eq\n      tag_5\n      jumpi\n      dup1\n      0x7dc0d1d0\n      eq\n      tag_6\n      jumpi\n    tag_2:\n      revert(0x00, 0x00)\n        /* \"HedgeContract.sol\":4154:4278  function getUserPositions(address user) external view returns (uint256[] memory) {... */\n    tag_3:\n      tag_13\n      0x04\n      dup1\n      calldatasize\n      sub\n      dup2\n      add\n      swap1\n      tag_14\n      swap2\n      swap1\n      tag_15\n      jump\t// in\n    tag_14:\n      tag_16\n      jump\t// in\n    tag_13:\n      mload(0x40)\n      tag_17\n      swap2\n      swap1\n      tag_18\n      jump\t// in\n    tag_17:\n      mload(0x40)\n      dup1\n      swap2\n      sub\n      swap1\n      return\n        /* \"HedgeContract.sol\":496:514  IERC20 public usdt */\n    tag_4:\n      tag_19\n      tag_20\n      jump\t// in\n    tag_19:\n      mload(0x40)\n      tag_21\n      swap2\n      swap1\n      tag_22\n      jump\t// in\n    tag_21:\n      mload(0x40)\n      dup1\n      swap2\n      sub\n      swap1\n      return\n        /* \"HedgeContract.sol\":844:894  mapping(address => uint256[]) public userPositions */\n    tag_5:\n      tag_23\n      0x04\n      dup1\n      calldatasize\n      sub\n      dup2\n      add\n      swap1\n      tag_24\n      swap2\n      swap1\n      tag_25\n      jump\t// in\n    tag_24:\n      tag_26\n      jump\t// in\n    tag_23:\n      mload(0x40)\n      tag_27\n      swap2\n      swap1\n      tag_28\n      jump\t// in\n    tag_27:\n      mload(0x40)\n      dup1\n      swap2\n      sub\n      swap1\n      return\n        /* \"HedgeContract.sol\":464:490  IPriceOracle public oracle */\n    tag_6:\n      tag_29\n      tag_30\n      jump\t// in\n    tag_29:\n      mload(0x40)\n      tag_31\n      swap2\n      swap1\n      tag_32\n      jump\t// in\n    tag_31:\n      mload(0x40)\n      dup1\n      swap2\n      sub\n      swap1\n      return\n        /* \"HedgeContract.sol\":2997:4148  function closeHedge(uint256 id) external {... */\n    tag_7:\n      tag_33\n      0x04\n      dup1\n      calldatasize\n      sub\n      dup2\n      add\n      swap1\n      tag_34\n      swap2\n      swap1\n      tag_35\n      jump\t// in\n    tag_34:\n      tag_36\n      jump\t// in\n    tag_33:\n      stop\n        /* \"HedgeContract.sol\":806:838  HedgePosition[] public positions */\n    tag_8:\n      tag_37\n      0x04\n      dup1\n      calldatasize\n      sub\n      dup2\n      add\n      swap1\n      tag_38\n      swap2\n      swap1\n      tag_35\n      jump\t// in\n    tag_38:\n      tag_39\n      jump\t// in\n    tag_37:\n      mload(0x40)\n      tag_40\n      swap8\n      swap7\n      swap6\n      swap5\n      swap4\n      swap3\n      swap2\n      swap1\n      tag_41\n      jump\t// in\n    tag_40:\n      mload(0x40)\n      dup1\n      swap2\n      sub\n      swap1\n      return\n        /* \"HedgeContract.sol\":1581:2937  function createHedge(string calldata commodity, uint256 amount, uint256 strikePrice, uint256 expireOption) external {... */\n    tag_9:\n      tag_42\n      0x04\n      dup1\n      calldatasize\n      sub\n      dup2\n      add\n      swap1\n      tag_43\n      swap2\n      swap1\n      tag_44\n      jump\t// in\n    tag_43:\n      tag_45\n      jump\t// in\n    tag_42:\n      stop\n        /* \"HedgeContract.sol\":520:540  address public admin */\n    tag_10:\n      tag_46\n      tag_47\n      jump\t// in\n    tag_46:\n      mload(0x40)\n      tag_48\n      swap2\n      swap1\n      tag_49\n      jump\t// in\n    tag_48:\n      mload(0x40)\n      dup1\n      swap2\n      sub\n      swap1\n      return\n        /* \"HedgeContract.sol\":4284:4382  function totalPositions() external view returns (uint256) {... */\n    tag_11:\n      tag_50\n      tag_51\n      jump\t// in\n    tag_50:\n      mload(0x40)\n      tag_52\n      swap2\n      swap1\n      tag_28\n      jump\t// in\n    tag_52:\n      mload(0x40)\n      dup1\n      swap2\n      sub\n      swap1\n      return\n        /* \"HedgeContract.sol\":4154:4278  function getUserPositions(address user) external view returns (uint256[] memory) {... */\n    tag_16:\n        /* \"HedgeContract.sol\":4217:4233  uint256[] memory */\n      0x60\n        /* \"HedgeContract.sol\":4252:4265  userPositions */\n      0x04\n        /* \"HedgeContract.sol\":4252:4271  userPositions[user] */\n      0x00\n        /* \"HedgeContract.sol\":4266:4270  user */\n      dup4\n        /* \"HedgeContract.sol\":4252:4271  userPositions[user] */\n      0xffffffffffffffffffffffffffffffffffffffff\n      and\n      0xffffffffffffffffffffffffffffffffffffffff\n      and\n      dup2\n      mstore\n      0x20\n      add\n      swap1\n      dup2\n      mstore\n      0x20\n      add\n      0x00\n      keccak256\n        /* \"HedgeContract.sol\":4245:4271  return userPositions[user] */\n      dup1\n      sload\n      dup1\n      0x20\n      mul\n      0x20\n      add\n      mload(0x40)\n      swap1\n      dup2\n      add\n      0x40\n      mstore\n      dup1\n      swap3\n      swap2\n      swap1\n      dup2\n      dup2\n      mstore\n      0x20\n      add\n      dup3\n      dup1\n      sload\n      dup1\n      iszero\n      tag_54\n      jumpi\n      0x20\n      mul\n      dup3\n      add\n      swap2\n      swap1\n      0x00\n      mstore\n      keccak256(0x00, 0x20)\n      swap1\n    tag_55:\n      dup2\n      sload\n      dup2\n      mstore\n      0x20\n      add\n      swap1\n      0x01\n      add\n      swap1\n      dup1\n      dup4\n      gt\n      tag_55\n      jumpi\n    tag_54:\n      pop\n      pop\n      pop\n      pop\n      pop\n      swap1\n      pop\n        /* \"HedgeContract.sol\":4154:4278  function getUserPositions(address user) external view returns (uint256[] memory) {... */\n      swap2\n      swap1\n      pop\n      jump\t// out\n        /* \"HedgeContract.sol\":496:514  IERC20 public usdt */\n    tag_20:\n      0x01\n      0x00\n      swap1\n      sload\n      swap1\n      0x0100\n      exp\n      swap1\n      div\n      0xffffffffffffffffffffffffffffffffffffffff\n      and\n      dup2\n      jump\t// out\n        /* \"HedgeContract.sol\":844:894  mapping(address => uint256[]) public userPositions */\n    tag_26:\n      mstore(0x20, 0x04)\n      dup2\n      0x00\n      mstore\n      keccak256(0x00, 0x40)\n      dup2\n      dup2\n      sload\n      dup2\n      lt\n      tag_56\n      jumpi\n      0x00\n      dup1\n      revert\n    tag_56:\n      swap1\n      0x00\n      mstore\n      keccak256(0x00, 0x20)\n      add\n      0x00\n      swap2\n      pop\n      swap2\n      pop\n      pop\n      sload\n      dup2\n      jump\t// out\n        /* \"HedgeContract.sol\":464:490  IPriceOracle public oracle */\n    tag_30:\n      0x00\n      0x00\n      swap1\n      sload\n      swap1\n      0x0100\n      exp\n      swap1\n      div\n      0xffffffffffffffffffffffffffffffffffffffff\n      and\n      dup2\n      jump\t// out\n        /* \"HedgeContract.sol\":2997:4148  function closeHedge(uint256 id) external {... */\n    tag_36:\n        /* \"HedgeContract.sol\":3061:3070  positions */\n      0x03\n        /* \"HedgeContract.sol\":3061:3077  positions.length */\n      dup1\n      sload\n      swap1\n      pop\n        /* \"HedgeContract.sol\":3056:3058  id */\n      dup2\n        /* \"HedgeContract.sol\":3056:3077  id < positions.length */\n      lt\n        /* \"HedgeContract.sol\":3048:3098  require(id < positions.length, \"Invalid hedge ID\") */\n      tag_59\n      jumpi\n      mload(0x40)\n      0x08c379a000000000000000000000000000000000000000000000000000000000\n      dup2\n      mstore\n      0x04\n      add\n      tag_60\n      swap1\n      tag_61\n      jump\t// in\n    tag_60:\n      mload(0x40)\n      dup1\n      swap2\n      sub\n      swap1\n      revert\n    tag_59:\n        /* \"HedgeContract.sol\":3108:3135  HedgePosition storage hedge */\n      0x00\n        /* \"HedgeContract.sol\":3138:3147  positions */\n      0x03\n        /* \"HedgeContract.sol\":3148:3150  id */\n      dup3\n        /* \"HedgeContract.sol\":3138:3151  positions[id] */\n      dup2\n      sload\n      dup2\n      lt\n      tag_62\n      jumpi\n      tag_63\n      tag_64\n      jump\t// in\n    tag_63:\n    tag_62:\n      swap1\n      0x00\n      mstore\n      keccak256(0x00, 0x20)\n      swap1\n      0x07\n      mul\n      add\n        /* \"HedgeContract.sol\":3108:3151  HedgePosition storage hedge = positions[id] */\n      swap1\n      pop\n        /* \"HedgeContract.sol\":3183:3188  hedge */\n      dup1\n        /* \"HedgeContract.sol\":3183:3194  hedge.owner */\n      0x00\n      add\n      0x00\n      swap1\n      sload\n      swap1\n      0x0100\n      exp\n      swap1\n      div\n      0xffffffffffffffffffffffffffffffffffffffff\n      and\n        /* \"HedgeContract.sol\":3169:3194  msg.sender == hedge.owner */\n      0xffffffffffffffffffffffffffffffffffffffff\n      and\n        /* \"HedgeContract.sol\":3169:3179  msg.sender */\n      caller\n        /* \"HedgeContract.sol\":3169:3194  msg.sender == hedge.owner */\n      0xffffffffffffffffffffffffffffffffffffffff\n      and\n      eq\n        /* \"HedgeContract.sol\":3161:3213  require(msg.sender == hedge.owner, \"Not your hedge\") */\n      tag_66\n      jumpi\n      mload(0x40)\n      0x08c379a000000000000000000000000000000000000000000000000000000000\n      dup2\n      mstore\n      0x04\n      add\n      tag_67\n      swap1\n      tag_68\n      jump\t// in\n    tag_67:\n      mload(0x40)\n      dup1\n      swap2\n      sub\n      swap1\n      revert\n    tag_66:\n        /* \"HedgeContract.sol\":3232:3237  hedge */\n      dup1\n        /* \"HedgeContract.sol\":3232:3244  hedge.closed */\n      0x06\n      add\n      0x00\n      swap1\n      sload\n      swap1\n      0x0100\n      exp\n      swap1\n      div\n      0xff\n      and\n        /* \"HedgeContract.sol\":3231:3244  !hedge.closed */\n      iszero\n        /* \"HedgeContract.sol\":3223:3263  require(!hedge.closed, \"Already closed\") */\n      tag_69\n      jumpi\n      mload(0x40)\n      0x08c379a000000000000000000000000000000000000000000000000000000000\n      dup2\n      mstore\n      0x04\n      add\n      tag_70\n      swap1\n      tag_71\n      jump\t// in\n    tag_70:\n      mload(0x40)\n      dup1\n      swap2\n      sub\n      swap1\n      revert\n    tag_69:\n        /* \"HedgeContract.sol\":3300:3305  hedge */\n      dup1\n        /* \"HedgeContract.sol\":3300:3314  hedge.expireAt */\n      0x04\n      add\n      sload\n        /* \"HedgeContract.sol\":3281:3296  block.timestamp */\n      timestamp\n        /* \"HedgeContract.sol\":3281:3314  block.timestamp >= hedge.expireAt */\n      lt\n      iszero\n        /* \"HedgeContract.sol\":3273:3334  require(block.timestamp >= hedge.expireAt, \"Not expired yet\") */\n      tag_72\n      jumpi\n      mload(0x40)\n      0x08c379a000000000000000000000000000000000000000000000000000000000\n      dup2\n      mstore\n      0x04\n      add\n      tag_73\n      swap1\n      tag_74\n      jump\t// in\n    tag_73:\n      mload(0x40)\n      dup1\n      swap2\n      sub\n      swap1\n      revert\n    tag_72:\n        /* \"HedgeContract.sol\":3344:3364  uint256 currentPrice */\n      0x00\n        /* \"HedgeContract.sol\":3367:3373  oracle */\n      0x00\n      0x00\n      swap1\n      sload\n      swap1\n      0x0100\n      exp\n      swap1\n      div\n      0xffffffffffffffffffffffffffffffffffffffff\n      and\n        /* \"HedgeContract.sol\":3367:3382  oracle.getPrice */\n      0xffffffffffffffffffffffffffffffffffffffff\n      and\n      0x524f3889\n        /* \"HedgeContract.sol\":3383:3388  hedge */\n      dup4\n        /* \"HedgeContract.sol\":3383:3398  hedge.commodity */\n      0x01\n      add\n        /* \"HedgeContract.sol\":3367:3399  oracle.getPrice(hedge.commodity) */\n      mload(0x40)\n      dup3\n      0xffffffff\n      and\n      0xe0\n      shl\n      dup2\n      mstore\n      0x04\n      add\n      tag_75\n      swap2\n      swap1\n      tag_76\n      jump\t// in\n    tag_75:\n      0x20\n      mload(0x40)\n      dup1\n      dup4\n      sub\n      dup2\n      dup7\n      gas\n      staticcall\n      iszero\n      dup1\n      iszero\n      tag_78\n      jumpi\n      returndatacopy(0x00, 0x00, returndatasize)\n      revert(0x00, returndatasize)\n    tag_78:\n      pop\n      pop\n      pop\n      pop\n      mload(0x40)\n      returndatasize\n      not(0x1f)\n      0x1f\n      dup3\n      add\n      and\n      dup3\n      add\n      dup1\n      0x40\n      mstore\n      pop\n      dup2\n      add\n      swap1\n      tag_79\n      swap2\n      swap1\n      tag_80\n      jump\t// in\n    tag_79:\n        /* \"HedgeContract.sol\":3344:3399  uint256 currentPrice = oracle.getPrice(hedge.commodity) */\n      swap1\n      pop\n        /* \"HedgeContract.sol\":3432:3433  0 */\n      0x00\n        /* \"HedgeContract.sol\":3417:3429  currentPrice */\n      dup2\n        /* \"HedgeContract.sol\":3417:3433  currentPrice > 0 */\n      gt\n        /* \"HedgeContract.sol\":3409:3458  require(currentPrice > 0, \"Invalid oracle price\") */\n      tag_81\n      jumpi\n      mload(0x40)\n      0x08c379a000000000000000000000000000000000000000000000000000000000\n      dup2\n      mstore\n      0x04\n      add\n      tag_82\n      swap1\n      tag_83\n      jump\t// in\n    tag_82:\n      mload(0x40)\n      dup1\n      swap2\n      sub\n      swap1\n      revert\n    tag_81:\n        /* \"HedgeContract.sol\":3483:3487  true */\n      0x01\n        /* \"HedgeContract.sol\":3468:3473  hedge */\n      dup3\n        /* \"HedgeContract.sol\":3468:3480  hedge.closed */\n      0x06\n      add\n      0x00\n        /* \"HedgeContract.sol\":3468:3487  hedge.closed = true */\n      0x0100\n      exp\n      dup2\n      sload\n      dup2\n      0xff\n      mul\n      not\n      and\n      swap1\n      dup4\n      iszero\n      iszero\n      mul\n      or\n      swap1\n      sstore\n      pop\n        /* \"HedgeContract.sol\":3497:3511  uint256 payout */\n      0x00\n        /* \"HedgeContract.sol\":3589:3594  hedge */\n      dup3\n        /* \"HedgeContract.sol\":3589:3606  hedge.strikePrice */\n      0x03\n      add\n      sload\n        /* \"HedgeContract.sol\":3574:3586  currentPrice */\n      dup3\n        /* \"HedgeContract.sol\":3574:3606  currentPrice < hedge.strikePrice */\n      lt\n        /* \"HedgeContract.sol\":3570:3795  if (currentPrice < hedge.strikePrice) {... */\n      iszero\n      tag_84\n      jumpi\n        /* \"HedgeContract.sol\":3631:3636  hedge */\n      dup3\n        /* \"HedgeContract.sol\":3631:3648  hedge.lockedValue */\n      0x05\n      add\n      sload\n        /* \"HedgeContract.sol\":3622:3648  payout = hedge.lockedValue */\n      swap1\n      pop\n        /* \"HedgeContract.sol\":3570:3795  if (currentPrice < hedge.strikePrice) {... */\n      jump(tag_85)\n    tag_84:\n        /* \"HedgeContract.sol\":3780:3784  1e18 */\n      0x0de0b6b3a7640000\n        /* \"HedgeContract.sol\":3764:3776  currentPrice */\n      dup3\n        /* \"HedgeContract.sol\":3749:3754  hedge */\n      dup5\n        /* \"HedgeContract.sol\":3749:3761  hedge.amount */\n      0x02\n      add\n      sload\n        /* \"HedgeContract.sol\":3749:3776  hedge.amount * currentPrice */\n      tag_86\n      swap2\n      swap1\n      tag_87\n      jump\t// in\n    tag_86:\n        /* \"HedgeContract.sol\":3748:3784  (hedge.amount * currentPrice) / 1e18 */\n      tag_88\n      swap2\n      swap1\n      tag_89\n      jump\t// in\n    tag_88:\n        /* \"HedgeContract.sol\":3739:3784  payout = (hedge.amount * currentPrice) / 1e18 */\n      swap1\n      pop\n        /* \"HedgeContract.sol\":3570:3795  if (currentPrice < hedge.strikePrice) {... */\n    tag_85:\n        /* \"HedgeContract.sol\":3863:3886  uint256 contractBalance */\n      0x00\n        /* \"HedgeContract.sol\":3889:3893  usdt */\n      0x01\n      0x00\n      swap1\n      sload\n      swap1\n      0x0100\n      exp\n      swap1\n      div\n      0xffffffffffffffffffffffffffffffffffffffff\n      and\n        /* \"HedgeContract.sol\":3889:3903  usdt.balanceOf */\n      0xffffffffffffffffffffffffffffffffffffffff\n      and\n      0x70a08231\n        /* \"HedgeContract.sol\":3912:3916  this */\n      address\n        /* \"HedgeContract.sol\":3889:3918  usdt.balanceOf(address(this)) */\n      mload(0x40)\n      dup3\n      0xffffffff\n      and\n      0xe0\n      shl\n      dup2\n      mstore\n      0x04\n      add\n      tag_90\n      swap2\n      swap1\n      tag_49\n      jump\t// in\n    tag_90:\n      0x20\n      mload(0x40)\n      dup1\n      dup4\n      sub\n      dup2\n      dup7\n      gas\n      staticcall\n      iszero\n      dup1\n      iszero\n      tag_92\n      jumpi\n      returndatacopy(0x00, 0x00, returndatasize)\n      revert(0x00, returndatasize)\n    tag_92:\n      pop\n      pop\n      pop\n      pop\n      mload(0x40)\n      returndatasize\n      not(0x1f)\n      0x1f\n      dup3\n      add\n      and\n      dup3\n      add\n      dup1\n      0x40\n      mstore\n      pop\n      dup2\n      add\n      swap1\n      tag_93\n      swap2\n      swap1\n      tag_80\n      jump\t// in\n    tag_93:\n        /* \"HedgeContract.sol\":3863:3918  uint256 contractBalance = usdt.balanceOf(address(this)) */\n      swap1\n      pop\n        /* \"HedgeContract.sol\":3941:3956  contractBalance */\n      dup1\n        /* \"HedgeContract.sol\":3932:3938  payout */\n      dup3\n        /* \"HedgeContract.sol\":3932:3956  payout > contractBalance */\n      gt\n        /* \"HedgeContract.sol\":3928:4007  if (payout > contractBalance) {... */\n      iszero\n      tag_94\n      jumpi\n        /* \"HedgeContract.sol\":3981:3996  contractBalance */\n      dup1\n        /* \"HedgeContract.sol\":3972:3996  payout = contractBalance */\n      swap2\n      pop\n        /* \"HedgeContract.sol\":3928:4007  if (payout > contractBalance) {... */\n    tag_94:\n        /* \"HedgeContract.sol\":4024:4028  usdt */\n      0x01\n      0x00\n      swap1\n      sload\n      swap1\n      0x0100\n      exp\n      swap1\n      div\n      0xffffffffffffffffffffffffffffffffffffffff\n      and\n        /* \"HedgeContract.sol\":4024:4037  usdt.transfer */\n      0xffffffffffffffffffffffffffffffffffffffff\n      and\n      0xa9059cbb\n        /* \"HedgeContract.sol\":4038:4043  hedge */\n      dup6\n        /* \"HedgeContract.sol\":4038:4049  hedge.owner */\n      0x00\n      add\n      0x00\n      swap1\n      sload\n      swap1\n      0x0100\n      exp\n      swap1\n      div\n      0xffffffffffffffffffffffffffffffffffffffff\n      and\n        /* \"HedgeContract.sol\":4051:4057  payout */\n      dup5\n        /* \"HedgeContract.sol\":4024:4058  usdt.transfer(hedge.owner, payout) */\n      mload(0x40)\n      dup4\n      0xffffffff\n      and\n      0xe0\n      shl\n      dup2\n      mstore\n      0x04\n      add\n      tag_95\n      swap3\n      swap2\n      swap1\n      tag_96\n      jump\t// in\n    tag_95:\n      0x20\n      mload(0x40)\n      dup1\n      dup4\n      sub\n      dup2\n      0x00\n      dup8\n      gas\n      call\n      iszero\n      dup1\n      iszero\n      tag_98\n      jumpi\n      returndatacopy(0x00, 0x00, returndatasize)\n      revert(0x00, returndatasize)\n    tag_98:\n      pop\n      pop\n      pop\n      pop\n      mload(0x40)\n      returndatasize\n      not(0x1f)\n      0x1f\n      dup3\n      add\n      and\n      dup3\n      add\n      dup1\n      0x40\n      mstore\n      pop\n      dup2\n      add\n      swap1\n      tag_99\n      swap2\n      swap1\n      tag_100\n      jump\t// in\n    tag_99:\n        /* \"HedgeContract.sol\":4016:4076  require(usdt.transfer(hedge.owner, payout), \"Payout failed\") */\n      tag_101\n      jumpi\n      mload(0x40)\n      0x08c379a000000000000000000000000000000000000000000000000000000000\n      dup2\n      mstore\n      0x04\n      add\n      tag_102\n      swap1\n      tag_103\n      jump\t// in\n    tag_102:\n      mload(0x40)\n      dup1\n      swap2\n      sub\n      swap1\n      revert\n    tag_101:\n        /* \"HedgeContract.sol\":4107:4112  hedge */\n      dup4\n        /* \"HedgeContract.sol\":4107:4118  hedge.owner */\n      0x00\n      add\n      0x00\n      swap1\n      sload\n      swap1\n      0x0100\n      exp\n      swap1\n      div\n      0xffffffffffffffffffffffffffffffffffffffff\n      and\n        /* \"HedgeContract.sol\":4091:4141  HedgeClosed(id, hedge.owner, currentPrice, payout) */\n      0xffffffffffffffffffffffffffffffffffffffff\n      and\n        /* \"HedgeContract.sol\":4103:4105  id */\n      dup6\n        /* \"HedgeContract.sol\":4091:4141  HedgeClosed(id, hedge.owner, currentPrice, payout) */\n      0xde73936f9628ebab11b98ca57ce5d4f0d112e5ba3d04e6ed1941fd8792f62356\n        /* \"HedgeContract.sol\":4120:4132  currentPrice */\n      dup6\n        /* \"HedgeContract.sol\":4134:4140  payout */\n      dup6\n        /* \"HedgeContract.sol\":4091:4141  HedgeClosed(id, hedge.owner, currentPrice, payout) */\n      mload(0x40)\n      tag_104\n      swap3\n      swap2\n      swap1\n      tag_105\n      jump\t// in\n    tag_104:\n      mload(0x40)\n      dup1\n      swap2\n      sub\n      swap1\n      log3\n        /* \"HedgeContract.sol\":3038:4148  {... */\n      pop\n      pop\n      pop\n      pop\n        /* \"HedgeContract.sol\":2997:4148  function closeHedge(uint256 id) external {... */\n      pop\n      jump\t// out\n        /* \"HedgeContract.sol\":806:838  HedgePosition[] public positions */\n    tag_39:\n      0x03\n      dup2\n      dup2\n      sload\n      dup2\n      lt\n      tag_106\n      jumpi\n      0x00\n      dup1\n      revert\n    tag_106:\n      swap1\n      0x00\n      mstore\n      keccak256(0x00, 0x20)\n      swap1\n      0x07\n      mul\n      add\n      0x00\n      swap2\n      pop\n      swap1\n      pop\n      dup1\n      0x00\n      add\n      0x00\n      swap1\n      sload\n      swap1\n      0x0100\n      exp\n      swap1\n      div\n      0xffffffffffffffffffffffffffffffffffffffff\n      and\n      swap1\n      dup1\n      0x01\n      add\n      dup1\n      sload\n      tag_108\n      swap1\n      tag_109\n      jump\t// in\n    tag_108:\n      dup1\n      0x1f\n      add\n      0x20\n      dup1\n      swap2\n      div\n      mul\n      0x20\n      add\n      mload(0x40)\n      swap1\n      dup2\n      add\n      0x40\n      mstore\n      dup1\n      swap3\n      swap2\n      swap1\n      dup2\n      dup2\n      mstore\n      0x20\n      add\n      dup3\n      dup1\n      sload\n      tag_110\n      swap1\n      tag_109\n      jump\t// in\n    tag_110:\n      dup1\n      iszero\n      tag_111\n      jumpi\n      dup1\n      0x1f\n      lt\n      tag_112\n      jumpi\n      0x0100\n      dup1\n      dup4\n      sload\n      div\n      mul\n      dup4\n      mstore\n      swap2\n      0x20\n      add\n      swap2\n      jump(tag_111)\n    tag_112:\n      dup3\n      add\n      swap2\n      swap1\n      0x00\n      mstore\n      keccak256(0x00, 0x20)\n      swap1\n    tag_113:\n      dup2\n      sload\n      dup2\n      mstore\n      swap1\n      0x01\n      add\n      swap1\n      0x20\n      add\n      dup1\n      dup4\n      gt\n      tag_113\n      jumpi\n      dup3\n      swap1\n      sub\n      0x1f\n      and\n      dup3\n      add\n      swap2\n    tag_111:\n      pop\n      pop\n      pop\n      pop\n      pop\n      swap1\n      dup1\n      0x02\n      add\n      sload\n      swap1\n      dup1\n      0x03\n      add\n      sload\n      swap1\n      dup1\n      0x04\n      add\n      sload\n      swap1\n      dup1\n      0x05\n      add\n      sload\n      swap1\n      dup1\n      0x06\n      add\n      0x00\n      swap1\n      sload\n      swap1\n      0x0100\n      exp\n      swap1\n      div\n      0xff\n      and\n      swap1\n      pop\n      dup8\n      jump\t// out\n        /* \"HedgeContract.sol\":1581:2937  function createHedge(string calldata commodity, uint256 amount, uint256 strikePrice, uint256 expireOption) external {... */\n    tag_45:\n        /* \"HedgeContract.sol\":1724:1725  0 */\n      0x00\n        /* \"HedgeContract.sol\":1715:1721  amount */\n      dup4\n        /* \"HedgeContract.sol\":1715:1725  amount > 0 */\n      gt\n        /* \"HedgeContract.sol\":1707:1748  require(amount > 0, \"Amount must be > 0\") */\n      tag_115\n      jumpi\n      mload(0x40)\n      0x08c379a000000000000000000000000000000000000000000000000000000000\n      dup2\n      mstore\n      0x04\n      add\n      tag_116\n      swap1\n      tag_117\n      jump\t// in\n    tag_116:\n      mload(0x40)\n      dup1\n      swap2\n      sub\n      swap1\n      revert\n    tag_115:\n        /* \"HedgeContract.sol\":1780:1781  0 */\n      0x00\n        /* \"HedgeContract.sol\":1766:1777  strikePrice */\n      dup3\n        /* \"HedgeContract.sol\":1766:1781  strikePrice > 0 */\n      gt\n        /* \"HedgeContract.sol\":1758:1810  require(strikePrice > 0, \"Strike price must be > 0\") */\n      tag_118\n      jumpi\n      mload(0x40)\n      0x08c379a000000000000000000000000000000000000000000000000000000000\n      dup2\n      mstore\n      0x04\n      add\n      tag_119\n      swap1\n      tag_120\n      jump\t// in\n    tag_119:\n      mload(0x40)\n      dup1\n      swap2\n      sub\n      swap1\n      revert\n    tag_118:\n        /* \"HedgeContract.sol\":1820:1836  uint256 expireAt */\n      0x00\n        /* \"HedgeContract.sol\":1866:1867  1 */\n      0x01\n        /* \"HedgeContract.sol\":1850:1862  expireOption */\n      dup3\n        /* \"HedgeContract.sol\":1850:1867  expireOption == 1 */\n      sub\n        /* \"HedgeContract.sol\":1846:2262  if (expireOption == 1) {... */\n      tag_121\n      jumpi\n        /* \"HedgeContract.sol\":1912:1918  7 days */\n      0x093a80\n        /* \"HedgeContract.sol\":1894:1909  block.timestamp */\n      timestamp\n        /* \"HedgeContract.sol\":1894:1918  block.timestamp + 7 days */\n      tag_122\n      swap2\n      swap1\n      tag_123\n      jump\t// in\n    tag_122:\n        /* \"HedgeContract.sol\":1883:1918  expireAt = block.timestamp + 7 days */\n      swap1\n      pop\n        /* \"HedgeContract.sol\":1846:2262  if (expireOption == 1) {... */\n      jump(tag_124)\n    tag_121:\n        /* \"HedgeContract.sol\":1956:1957  2 */\n      0x02\n        /* \"HedgeContract.sol\":1940:1952  expireOption */\n      dup3\n        /* \"HedgeContract.sol\":1940:1957  expireOption == 2 */\n      sub\n        /* \"HedgeContract.sol\":1936:2262  if (expireOption == 2) {... */\n      tag_125\n      jumpi\n        /* \"HedgeContract.sol\":2002:2009  14 days */\n      0x127500\n        /* \"HedgeContract.sol\":1984:1999  block.timestamp */\n      timestamp\n        /* \"HedgeContract.sol\":1984:2009  block.timestamp + 14 days */\n      tag_126\n      swap2\n      swap1\n      tag_123\n      jump\t// in\n    tag_126:\n        /* \"HedgeContract.sol\":1973:2009  expireAt = block.timestamp + 14 days */\n      swap1\n      pop\n        /* \"HedgeContract.sol\":1936:2262  if (expireOption == 2) {... */\n      jump(tag_127)\n    tag_125:\n        /* \"HedgeContract.sol\":2046:2047  3 */\n      0x03\n        /* \"HedgeContract.sol\":2030:2042  expireOption */\n      dup3\n        /* \"HedgeContract.sol\":2030:2047  expireOption == 3 */\n      sub\n        /* \"HedgeContract.sol\":2026:2262  if (expireOption == 3) {... */\n      tag_128\n      jumpi\n        /* \"HedgeContract.sol\":2092:2099  30 days */\n      0x278d00\n        /* \"HedgeContract.sol\":2074:2089  block.timestamp */\n      timestamp\n        /* \"HedgeContract.sol\":2074:2099  block.timestamp + 30 days */\n      tag_129\n      swap2\n      swap1\n      tag_123\n      jump\t// in\n    tag_129:\n        /* \"HedgeContract.sol\":2063:2099  expireAt = block.timestamp + 30 days */\n      swap1\n      pop\n        /* \"HedgeContract.sol\":2026:2262  if (expireOption == 3) {... */\n      jump(tag_130)\n    tag_128:\n        /* \"HedgeContract.sol\":2136:2137  4 */\n      0x04\n        /* \"HedgeContract.sol\":2120:2132  expireOption */\n      dup3\n        /* \"HedgeContract.sol\":2120:2137  expireOption == 4 */\n      sub\n        /* \"HedgeContract.sol\":2116:2262  if (expireOption == 4) {... */\n      tag_131\n      jumpi\n        /* \"HedgeContract.sol\":2182:2189  60 days */\n      0x4f1a00\n        /* \"HedgeContract.sol\":2164:2179  block.timestamp */\n      timestamp\n        /* \"HedgeContract.sol\":2164:2189  block.timestamp + 60 days */\n      tag_132\n      swap2\n      swap1\n      tag_123\n      jump\t// in\n    tag_132:\n        /* \"HedgeContract.sol\":2153:2189  expireAt = block.timestamp + 60 days */\n      swap1\n      pop\n        /* \"HedgeContract.sol\":2116:2262  if (expireOption == 4) {... */\n      jump(tag_133)\n    tag_131:\n        /* \"HedgeContract.sol\":2220:2251  revert(\"Invalid expire option\") */\n      mload(0x40)\n      0x08c379a000000000000000000000000000000000000000000000000000000000\n      dup2\n      mstore\n      0x04\n      add\n      tag_134\n      swap1\n      tag_135\n      jump\t// in\n    tag_134:\n      mload(0x40)\n      dup1\n      swap2\n      sub\n      swap1\n      revert\n        /* \"HedgeContract.sol\":2116:2262  if (expireOption == 4) {... */\n    tag_133:\n        /* \"HedgeContract.sol\":2026:2262  if (expireOption == 3) {... */\n    tag_130:\n        /* \"HedgeContract.sol\":1936:2262  if (expireOption == 2) {... */\n    tag_127:\n        /* \"HedgeContract.sol\":1846:2262  if (expireOption == 1) {... */\n    tag_124:\n        /* \"HedgeContract.sol\":2310:2328  uint256 totalValue */\n      0x00\n        /* \"HedgeContract.sol\":2356:2360  1e18 */\n      0x0de0b6b3a7640000\n        /* \"HedgeContract.sol\":2341:2352  strikePrice */\n      dup5\n        /* \"HedgeContract.sol\":2332:2338  amount */\n      dup7\n        /* \"HedgeContract.sol\":2332:2352  amount * strikePrice */\n      tag_136\n      swap2\n      swap1\n      tag_87\n      jump\t// in\n    tag_136:\n        /* \"HedgeContract.sol\":2331:2360  (amount * strikePrice) / 1e18 */\n      tag_137\n      swap2\n      swap1\n      tag_89\n      jump\t// in\n    tag_137:\n        /* \"HedgeContract.sol\":2310:2360  uint256 totalValue = (amount * strikePrice) / 1e18 */\n      swap1\n      pop\n        /* \"HedgeContract.sol\":2431:2435  usdt */\n      0x01\n      0x00\n      swap1\n      sload\n      swap1\n      0x0100\n      exp\n      swap1\n      div\n      0xffffffffffffffffffffffffffffffffffffffff\n      and\n        /* \"HedgeContract.sol\":2431:2448  usdt.transferFrom */\n      0xffffffffffffffffffffffffffffffffffffffff\n      and\n      0x23b872dd\n        /* \"HedgeContract.sol\":2449:2459  msg.sender */\n      caller\n        /* \"HedgeContract.sol\":2469:2473  this */\n      address\n        /* \"HedgeContract.sol\":2476:2486  totalValue */\n      dup5\n        /* \"HedgeContract.sol\":2431:2487  usdt.transferFrom(msg.sender, address(this), totalValue) */\n      mload(0x40)\n      dup5\n      0xffffffff\n      and\n      0xe0\n      shl\n      dup2\n      mstore\n      0x04\n      add\n      tag_138\n      swap4\n      swap3\n      swap2\n      swap1\n      tag_139\n      jump\t// in\n    tag_138:\n      0x20\n      mload(0x40)\n      dup1\n      dup4\n      sub\n      dup2\n      0x00\n      dup8\n      gas\n      call\n      iszero\n      dup1\n      iszero\n      tag_141\n      jumpi\n      returndatacopy(0x00, 0x00, returndatasize)\n      revert(0x00, returndatasize)\n    tag_141:\n      pop\n      pop\n      pop\n      pop\n      mload(0x40)\n      returndatasize\n      not(0x1f)\n      0x1f\n      dup3\n      add\n      and\n      dup3\n      add\n      dup1\n      0x40\n      mstore\n      pop\n      dup2\n      add\n      swap1\n      tag_142\n      swap2\n      swap1\n      tag_100\n      jump\t// in\n    tag_142:\n        /* \"HedgeContract.sol\":2423:2512  require(usdt.transferFrom(msg.sender, address(this), totalValue), \"USDT transfer failed\") */\n      tag_143\n      jumpi\n      mload(0x40)\n      0x08c379a000000000000000000000000000000000000000000000000000000000\n      dup2\n      mstore\n      0x04\n      add\n      tag_144\n      swap1\n      tag_145\n      jump\t// in\n    tag_144:\n      mload(0x40)\n      dup1\n      swap2\n      sub\n      swap1\n      revert\n    tag_143:\n        /* \"HedgeContract.sol\":2522:2551  HedgePosition memory newHedge */\n      0x00\n        /* \"HedgeContract.sol\":2554:2712  HedgePosition({owner: msg.sender, commodity: commodity, amount: amount, strikePrice: strikePrice, expireAt: expireAt, lockedValue: totalValue, closed: false}) */\n      mload(0x40)\n      dup1\n      0xe0\n      add\n      0x40\n      mstore\n      dup1\n        /* \"HedgeContract.sol\":2576:2586  msg.sender */\n      caller\n        /* \"HedgeContract.sol\":2554:2712  HedgePosition({owner: msg.sender, commodity: commodity, amount: amount, strikePrice: strikePrice, expireAt: expireAt, lockedValue: totalValue, closed: false}) */\n      0xffffffffffffffffffffffffffffffffffffffff\n      and\n      dup2\n      mstore\n      0x20\n      add\n        /* \"HedgeContract.sol\":2599:2608  commodity */\n      dup10\n      dup10\n        /* \"HedgeContract.sol\":2554:2712  HedgePosition({owner: msg.sender, commodity: commodity, amount: amount, strikePrice: strikePrice, expireAt: expireAt, lockedValue: totalValue, closed: false}) */\n      dup1\n      dup1\n      0x1f\n      add\n      0x20\n      dup1\n      swap2\n      div\n      mul\n      0x20\n      add\n      mload(0x40)\n      swap1\n      dup2\n      add\n      0x40\n      mstore\n      dup1\n      swap4\n      swap3\n      swap2\n      swap1\n      dup2\n      dup2\n      mstore\n      0x20\n      add\n      dup4\n      dup4\n      dup1\n      dup3\n      dup5\n      calldatacopy\n      0x00\n      dup2\n      dup5\n      add\n      mstore\n      not(0x1f)\n      0x1f\n      dup3\n      add\n      and\n      swap1\n      pop\n      dup1\n      dup4\n      add\n      swap3\n      pop\n      pop\n      pop\n      pop\n      pop\n      pop\n      pop\n      dup2\n      mstore\n      0x20\n      add\n        /* \"HedgeContract.sol\":2618:2624  amount */\n      dup8\n        /* \"HedgeContract.sol\":2554:2712  HedgePosition({owner: msg.sender, commodity: commodity, amount: amount, strikePrice: strikePrice, expireAt: expireAt, lockedValue: totalValue, closed: false}) */\n      dup2\n      mstore\n      0x20\n      add\n        /* \"HedgeContract.sol\":2639:2650  strikePrice */\n      dup7\n        /* \"HedgeContract.sol\":2554:2712  HedgePosition({owner: msg.sender, commodity: commodity, amount: amount, strikePrice: strikePrice, expireAt: expireAt, lockedValue: totalValue, closed: false}) */\n      dup2\n      mstore\n      0x20\n      add\n        /* \"HedgeContract.sol\":2662:2670  expireAt */\n      dup5\n        /* \"HedgeContract.sol\":2554:2712  HedgePosition({owner: msg.sender, commodity: commodity, amount: amount, strikePrice: strikePrice, expireAt: expireAt, lockedValue: totalValue, closed: false}) */\n      dup2\n      mstore\n      0x20\n      add\n        /* \"HedgeContract.sol\":2685:2695  totalValue */\n      dup4\n        /* \"HedgeContract.sol\":2554:2712  HedgePosition({owner: msg.sender, commodity: commodity, amount: amount, strikePrice: strikePrice, expireAt: expireAt, lockedValue: totalValue, closed: false}) */\n      dup2\n      mstore\n      0x20\n      add\n        /* \"HedgeContract.sol\":2705:2710  false */\n      0x00\n        /* \"HedgeContract.sol\":2554:2712  HedgePosition({owner: msg.sender, commodity: commodity, amount: amount, strikePrice: strikePrice, expireAt: expireAt, lockedValue: totalValue, closed: false}) */\n      iszero\n      iszero\n      dup2\n      mstore\n      pop\n        /* \"HedgeContract.sol\":2522:2712  HedgePosition memory newHedge = HedgePosition({owner: msg.sender, commodity: commodity, amount: amount, strikePrice: strikePrice, expireAt: expireAt, lockedValue: totalValue, closed: false}) */\n      swap1\n      pop\n        /* \"HedgeContract.sol\":2722:2731  positions */\n      0x03\n        /* \"HedgeContract.sol\":2737:2745  newHedge */\n      dup2\n        /* \"HedgeContract.sol\":2722:2746  positions.push(newHedge) */\n      swap1\n      dup1\n      0x01\n      dup2\n      sload\n      add\n      dup1\n      dup3\n      sstore\n      dup1\n      swap2\n      pop\n      pop\n      0x01\n      swap1\n      sub\n      swap1\n      0x00\n      mstore\n      keccak256(0x00, 0x20)\n      swap1\n      0x07\n      mul\n      add\n      0x00\n      swap1\n      swap2\n      swap1\n      swap2\n      swap1\n      swap2\n      pop\n      0x00\n      dup3\n      add\n      mload\n      dup2\n      0x00\n      add\n      exp(0x0100, 0x00)\n      dup2\n      sload\n      dup2\n      0xffffffffffffffffffffffffffffffffffffffff\n      mul\n      not\n      and\n      swap1\n      dup4\n      0xffffffffffffffffffffffffffffffffffffffff\n      and\n      mul\n      or\n      swap1\n      sstore\n      pop\n      0x20\n      dup3\n      add\n      mload\n      dup2\n      0x01\n      add\n      swap1\n      dup2\n      tag_147\n      swap2\n      swap1\n      tag_148\n      jump\t// in\n    tag_147:\n      pop\n      0x40\n      dup3\n      add\n      mload\n      dup2\n      0x02\n      add\n      sstore\n      0x60\n      dup3\n      add\n      mload\n      dup2\n      0x03\n      add\n      sstore\n      0x80\n      dup3\n      add\n      mload\n      dup2\n      0x04\n      add\n      sstore\n      0xa0\n      dup3\n      add\n      mload\n      dup2\n      0x05\n      add\n      sstore\n      0xc0\n      dup3\n      add\n      mload\n      dup2\n      0x06\n      add\n      exp(0x0100, 0x00)\n      dup2\n      sload\n      dup2\n      0xff\n      mul\n      not\n      and\n      swap1\n      dup4\n      iszero\n      iszero\n      mul\n      or\n      swap1\n      sstore\n      pop\n      pop\n      pop\n        /* \"HedgeContract.sol\":2756:2766  uint256 id */\n      0x00\n        /* \"HedgeContract.sol\":2788:2789  1 */\n      0x01\n        /* \"HedgeContract.sol\":2769:2778  positions */\n      0x03\n        /* \"HedgeContract.sol\":2769:2785  positions.length */\n      dup1\n      sload\n      swap1\n      pop\n        /* \"HedgeContract.sol\":2769:2789  positions.length - 1 */\n      tag_149\n      swap2\n      swap1\n      tag_150\n      jump\t// in\n    tag_149:\n        /* \"HedgeContract.sol\":2756:2789  uint256 id = positions.length - 1 */\n      swap1\n      pop\n        /* \"HedgeContract.sol\":2799:2812  userPositions */\n      0x04\n        /* \"HedgeContract.sol\":2799:2824  userPositions[msg.sender] */\n      0x00\n        /* \"HedgeContract.sol\":2813:2823  msg.sender */\n      caller\n        /* \"HedgeContract.sol\":2799:2824  userPositions[msg.sender] */\n      0xffffffffffffffffffffffffffffffffffffffff\n      and\n      0xffffffffffffffffffffffffffffffffffffffff\n      and\n      dup2\n      mstore\n      0x20\n      add\n      swap1\n      dup2\n      mstore\n      0x20\n      add\n      0x00\n      keccak256\n        /* \"HedgeContract.sol\":2830:2832  id */\n      dup2\n        /* \"HedgeContract.sol\":2799:2833  userPositions[msg.sender].push(id) */\n      swap1\n      dup1\n      0x01\n      dup2\n      sload\n      add\n      dup1\n      dup3\n      sstore\n      dup1\n      swap2\n      pop\n      pop\n      0x01\n      swap1\n      sub\n      swap1\n      0x00\n      mstore\n      keccak256(0x00, 0x20)\n      add\n      0x00\n      swap1\n      swap2\n      swap1\n      swap2\n      swap1\n      swap2\n      pop\n      sstore\n        /* \"HedgeContract.sol\":2865:2875  msg.sender */\n      caller\n        /* \"HedgeContract.sol\":2848:2930  HedgeCreated(id, msg.sender, commodity, amount, strikePrice, expireAt, totalValue) */\n      0xffffffffffffffffffffffffffffffffffffffff\n      and\n        /* \"HedgeContract.sol\":2861:2863  id */\n      dup2\n        /* \"HedgeContract.sol\":2848:2930  HedgeCreated(id, msg.sender, commodity, amount, strikePrice, expireAt, totalValue) */\n      0x9b9ff235f689c05d623a91b8cffd825bfc3c7ef4eefc1884b892e65732d123fa\n        /* \"HedgeContract.sol\":2877:2886  commodity */\n      dup12\n      dup12\n        /* \"HedgeContract.sol\":2888:2894  amount */\n      dup12\n        /* \"HedgeContract.sol\":2896:2907  strikePrice */\n      dup12\n        /* \"HedgeContract.sol\":2909:2917  expireAt */\n      dup11\n        /* \"HedgeContract.sol\":2919:2929  totalValue */\n      dup11\n        /* \"HedgeContract.sol\":2848:2930  HedgeCreated(id, msg.sender, commodity, amount, strikePrice, expireAt, totalValue) */\n      mload(0x40)\n      tag_152\n      swap7\n      swap6\n      swap5\n      swap4\n      swap3\n      swap2\n      swap1\n      tag_153\n      jump\t// in\n    tag_152:\n      mload(0x40)\n      dup1\n      swap2\n      sub\n      swap1\n      log3\n        /* \"HedgeContract.sol\":1697:2937  {... */\n      pop\n      pop\n      pop\n      pop\n        /* \"HedgeContract.sol\":1581:2937  function createHedge(string calldata commodity, uint256 amount, uint256 strikePrice, uint256 expireOption) external {... */\n      pop\n      pop\n      pop\n      pop\n      pop\n      jump\t// out\n        /* \"HedgeContract.sol\":520:540  address public admin */\n    tag_47:\n      0x02\n      0x00\n      swap1\n      sload\n      swap1\n      0x0100\n      exp\n      swap1\n      div\n      0xffffffffffffffffffffffffffffffffffffffff\n      and\n      dup2\n      jump\t// out\n        /* \"HedgeContract.sol\":4284:4382  function totalPositions() external view returns (uint256) {... */\n    tag_51:\n        /* \"HedgeContract.sol\":4333:4340  uint256 */\n      0x00\n        /* \"HedgeContract.sol\":4359:4368  positions */\n      0x03\n        /* \"HedgeContract.sol\":4359:4375  positions.length */\n      dup1\n      sload\n      swap1\n      pop\n        /* \"HedgeContract.sol\":4352:4375  return positions.length */\n      swap1\n      pop\n        /* \"HedgeContract.sol\":4284:4382  function totalPositions() external view returns (uint256) {... */\n      swap1\n      jump\t// out\n        /* \"#utility.yul\":88:205   */\n    tag_156:\n        /* \"#utility.yul\":197:198   */\n      0x00\n        /* \"#utility.yul\":194:195   */\n      0x00\n        /* \"#utility.yul\":187:199   */\n      revert\n        /* \"#utility.yul\":211:328   */\n    tag_157:\n        /* \"#utility.yul\":320:321   */\n      0x00\n        /* \"#utility.yul\":317:318   */\n      0x00\n        /* \"#utility.yul\":310:322   */\n      revert\n        /* \"#utility.yul\":334:460   */\n    tag_158:\n        /* \"#utility.yul\":371:378   */\n      0x00\n        /* \"#utility.yul\":411:453   */\n      0xffffffffffffffffffffffffffffffffffffffff\n        /* \"#utility.yul\":404:409   */\n      dup3\n        /* \"#utility.yul\":400:454   */\n      and\n        /* \"#utility.yul\":389:454   */\n      swap1\n      pop\n        /* \"#utility.yul\":334:460   */\n      swap2\n      swap1\n      pop\n      jump\t// out\n        /* \"#utility.yul\":466:562   */\n    tag_159:\n        /* \"#utility.yul\":503:510   */\n      0x00\n        /* \"#utility.yul\":532:556   */\n      tag_242\n        /* \"#utility.yul\":550:555   */\n      dup3\n        /* \"#utility.yul\":532:556   */\n      tag_158\n      jump\t// in\n    tag_242:\n        /* \"#utility.yul\":521:556   */\n      swap1\n      pop\n        /* \"#utility.yul\":466:562   */\n      swap2\n      swap1\n      pop\n      jump\t// out\n        /* \"#utility.yul\":568:690   */\n    tag_160:\n        /* \"#utility.yul\":641:665   */\n      tag_244\n        /* \"#utility.yul\":659:664   */\n      dup2\n        /* \"#utility.yul\":641:665   */\n      tag_159\n      jump\t// in\n    tag_244:\n        /* \"#utility.yul\":634:639   */\n      dup2\n        /* \"#utility.yul\":631:666   */\n      eq\n        /* \"#utility.yul\":621:684   */\n      tag_245\n      jumpi\n        /* \"#utility.yul\":680:681   */\n      0x00\n        /* \"#utility.yul\":677:678   */\n      0x00\n        /* \"#utility.yul\":670:682   */\n      revert\n        /* \"#utility.yul\":621:684   */\n    tag_245:\n        /* \"#utility.yul\":568:690   */\n      pop\n      jump\t// out\n        /* \"#utility.yul\":696:835   */\n    tag_161:\n        /* \"#utility.yul\":742:747   */\n      0x00\n        /* \"#utility.yul\":780:786   */\n      dup2\n        /* \"#utility.yul\":767:787   */\n      calldataload\n        /* \"#utility.yul\":758:787   */\n      swap1\n      pop\n        /* \"#utility.yul\":796:829   */\n      tag_247\n        /* \"#utility.yul\":823:828   */\n      dup2\n        /* \"#utility.yul\":796:829   */\n      tag_160\n      jump\t// in\n    tag_247:\n        /* \"#utility.yul\":696:835   */\n      swap3\n      swap2\n      pop\n      pop\n      jump\t// out\n        /* \"#utility.yul\":841:1170   */\n    tag_15:\n        /* \"#utility.yul\":900:906   */\n      0x00\n        /* \"#utility.yul\":949:951   */\n      0x20\n        /* \"#utility.yul\":937:946   */\n      dup3\n        /* \"#utility.yul\":928:935   */\n      dup5\n        /* \"#utility.yul\":924:947   */\n      sub\n        /* \"#utility.yul\":920:952   */\n      slt\n        /* \"#utility.yul\":917:1036   */\n      iszero\n      tag_249\n      jumpi\n        /* \"#utility.yul\":955:1034   */\n      tag_250\n      tag_156\n      jump\t// in\n    tag_250:\n        /* \"#utility.yul\":917:1036   */\n    tag_249:\n        /* \"#utility.yul\":1075:1076   */\n      0x00\n        /* \"#utility.yul\":1100:1153   */\n      tag_251\n        /* \"#utility.yul\":1145:1152   */\n      dup5\n        /* \"#utility.yul\":1136:1142   */\n      dup3\n        /* \"#utility.yul\":1125:1134   */\n      dup6\n        /* \"#utility.yul\":1121:1143   */\n      add\n        /* \"#utility.yul\":1100:1153   */\n      tag_161\n      jump\t// in\n    tag_251:\n        /* \"#utility.yul\":1090:1153   */\n      swap2\n      pop\n        /* \"#utility.yul\":1046:1163   */\n      pop\n        /* \"#utility.yul\":841:1170   */\n      swap3\n      swap2\n      pop\n      pop\n      jump\t// out\n        /* \"#utility.yul\":1176:1290   */\n    tag_162:\n        /* \"#utility.yul\":1243:1249   */\n      0x00\n        /* \"#utility.yul\":1277:1282   */\n      dup2\n        /* \"#utility.yul\":1271:1283   */\n      mload\n        /* \"#utility.yul\":1261:1283   */\n      swap1\n      pop\n        /* \"#utility.yul\":1176:1290   */\n      swap2\n      swap1\n      pop\n      jump\t// out\n        /* \"#utility.yul\":1296:1480   */\n    tag_163:\n        /* \"#utility.yul\":1395:1406   */\n      0x00\n        /* \"#utility.yul\":1429:1435   */\n      dup3\n        /* \"#utility.yul\":1424:1427   */\n      dup3\n        /* \"#utility.yul\":1417:1436   */\n      mstore\n        /* \"#utility.yul\":1469:1473   */\n      0x20\n        /* \"#utility.yul\":1464:1467   */\n      dup3\n        /* \"#utility.yul\":1460:1474   */\n      add\n        /* \"#utility.yul\":1445:1474   */\n      swap1\n      pop\n        /* \"#utility.yul\":1296:1480   */\n      swap3\n      swap2\n      pop\n      pop\n      jump\t// out\n        /* \"#utility.yul\":1486:1618   */\n    tag_164:\n        /* \"#utility.yul\":1553:1557   */\n      0x00\n        /* \"#utility.yul\":1576:1579   */\n      dup2\n        /* \"#utility.yul\":1568:1579   */\n      swap1\n      pop\n        /* \"#utility.yul\":1606:1610   */\n      0x20\n        /* \"#utility.yul\":1601:1604   */\n      dup3\n        /* \"#utility.yul\":1597:1611   */\n      add\n        /* \"#utility.yul\":1589:1611   */\n      swap1\n      pop\n        /* \"#utility.yul\":1486:1618   */\n      swap2\n      swap1\n      pop\n      jump\t// out\n        /* \"#utility.yul\":1624:1701   */\n    tag_165:\n        /* \"#utility.yul\":1661:1668   */\n      0x00\n        /* \"#utility.yul\":1690:1695   */\n      dup2\n        /* \"#utility.yul\":1679:1695   */\n      swap1\n      pop\n        /* \"#utility.yul\":1624:1701   */\n      swap2\n      swap1\n      pop\n      jump\t// out\n        /* \"#utility.yul\":1707:1815   */\n    tag_166:\n        /* \"#utility.yul\":1784:1808   */\n      tag_257\n        /* \"#utility.yul\":1802:1807   */\n      dup2\n        /* \"#utility.yul\":1784:1808   */\n      tag_165\n      jump\t// in\n    tag_257:\n        /* \"#utility.yul\":1779:1782   */\n      dup3\n        /* \"#utility.yul\":1772:1809   */\n      mstore\n        /* \"#utility.yul\":1707:1815   */\n      pop\n      pop\n      jump\t// out\n        /* \"#utility.yul\":1821:2000   */\n    tag_167:\n        /* \"#utility.yul\":1890:1900   */\n      0x00\n        /* \"#utility.yul\":1911:1957   */\n      tag_259\n        /* \"#utility.yul\":1953:1956   */\n      dup4\n        /* \"#utility.yul\":1945:1951   */\n      dup4\n        /* \"#utility.yul\":1911:1957   */\n      tag_166\n      jump\t// in\n    tag_259:\n        /* \"#utility.yul\":1989:1993   */\n      0x20\n        /* \"#utility.yul\":1984:1987   */\n      dup4\n        /* \"#utility.yul\":1980:1994   */\n      add\n        /* \"#utility.yul\":1966:1994   */\n      swap1\n      pop\n        /* \"#utility.yul\":1821:2000   */\n      swap3\n      swap2\n      pop\n      pop\n      jump\t// out\n        /* \"#utility.yul\":2006:2119   */\n    tag_168:\n        /* \"#utility.yul\":2076:2080   */\n      0x00\n        /* \"#utility.yul\":2108:2112   */\n      0x20\n        /* \"#utility.yul\":2103:2106   */\n      dup3\n        /* \"#utility.yul\":2099:2113   */\n      add\n        /* \"#utility.yul\":2091:2113   */\n      swap1\n      pop\n        /* \"#utility.yul\":2006:2119   */\n      swap2\n      swap1\n      pop\n      jump\t// out\n        /* \"#utility.yul\":2155:2887   */\n    tag_169:\n        /* \"#utility.yul\":2274:2277   */\n      0x00\n        /* \"#utility.yul\":2303:2357   */\n      tag_262\n        /* \"#utility.yul\":2351:2356   */\n      dup3\n        /* \"#utility.yul\":2303:2357   */\n      tag_162\n      jump\t// in\n    tag_262:\n        /* \"#utility.yul\":2373:2459   */\n      tag_263\n        /* \"#utility.yul\":2452:2458   */\n      dup2\n        /* \"#utility.yul\":2447:2450   */\n      dup6\n        /* \"#utility.yul\":2373:2459   */\n      tag_163\n      jump\t// in\n    tag_263:\n        /* \"#utility.yul\":2366:2459   */\n      swap4\n      pop\n        /* \"#utility.yul\":2483:2539   */\n      tag_264\n        /* \"#utility.yul\":2533:2538   */\n      dup4\n        /* \"#utility.yul\":2483:2539   */\n      tag_164\n      jump\t// in\n    tag_264:\n        /* \"#utility.yul\":2562:2569   */\n      dup1\n        /* \"#utility.yul\":2593:2594   */\n      0x00\n        /* \"#utility.yul\":2578:2862   */\n    tag_265:\n        /* \"#utility.yul\":2603:2609   */\n      dup4\n        /* \"#utility.yul\":2600:2601   */\n      dup2\n        /* \"#utility.yul\":2597:2610   */\n      lt\n        /* \"#utility.yul\":2578:2862   */\n      iszero\n      tag_267\n      jumpi\n        /* \"#utility.yul\":2679:2685   */\n      dup2\n        /* \"#utility.yul\":2673:2686   */\n      mload\n        /* \"#utility.yul\":2706:2769   */\n      tag_268\n        /* \"#utility.yul\":2765:2768   */\n      dup9\n        /* \"#utility.yul\":2750:2763   */\n      dup3\n        /* \"#utility.yul\":2706:2769   */\n      tag_167\n      jump\t// in\n    tag_268:\n        /* \"#utility.yul\":2699:2769   */\n      swap8\n      pop\n        /* \"#utility.yul\":2792:2852   */\n      tag_269\n        /* \"#utility.yul\":2845:2851   */\n      dup4\n        /* \"#utility.yul\":2792:2852   */\n      tag_168\n      jump\t// in\n    tag_269:\n        /* \"#utility.yul\":2782:2852   */\n      swap3\n      pop\n        /* \"#utility.yul\":2638:2862   */\n      pop\n        /* \"#utility.yul\":2625:2626   */\n      0x01\n        /* \"#utility.yul\":2622:2623   */\n      dup2\n        /* \"#utility.yul\":2618:2627   */\n      add\n        /* \"#utility.yul\":2613:2627   */\n      swap1\n      pop\n        /* \"#utility.yul\":2578:2862   */\n      jump(tag_265)\n    tag_267:\n        /* \"#utility.yul\":2582:2596   */\n      pop\n        /* \"#utility.yul\":2878:2881   */\n      dup6\n        /* \"#utility.yul\":2871:2881   */\n      swap4\n      pop\n        /* \"#utility.yul\":2279:2887   */\n      pop\n      pop\n      pop\n        /* \"#utility.yul\":2155:2887   */\n      swap3\n      swap2\n      pop\n      pop\n      jump\t// out\n        /* \"#utility.yul\":2893:3266   */\n    tag_18:\n        /* \"#utility.yul\":3036:3040   */\n      0x00\n        /* \"#utility.yul\":3074:3076   */\n      0x20\n        /* \"#utility.yul\":3063:3072   */\n      dup3\n        /* \"#utility.yul\":3059:3077   */\n      add\n        /* \"#utility.yul\":3051:3077   */\n      swap1\n      pop\n        /* \"#utility.yul\":3123:3132   */\n      dup2\n        /* \"#utility.yul\":3117:3121   */\n      dup2\n        /* \"#utility.yul\":3113:3133   */\n      sub\n        /* \"#utility.yul\":3109:3110   */\n      0x00\n        /* \"#utility.yul\":3098:3107   */\n      dup4\n        /* \"#utility.yul\":3094:3111   */\n      add\n        /* \"#utility.yul\":3087:3134   */\n      mstore\n        /* \"#utility.yul\":3151:3259   */\n      tag_271\n        /* \"#utility.yul\":3254:3258   */\n      dup2\n        /* \"#utility.yul\":3245:3251   */\n      dup5\n        /* \"#utility.yul\":3151:3259   */\n      tag_169\n      jump\t// in\n    tag_271:\n        /* \"#utility.yul\":3143:3259   */\n      swap1\n      pop\n        /* \"#utility.yul\":2893:3266   */\n      swap3\n      swap2\n      pop\n      pop\n      jump\t// out\n        /* \"#utility.yul\":3272:3332   */\n    tag_170:\n        /* \"#utility.yul\":3300:3303   */\n      0x00\n        /* \"#utility.yul\":3321:3326   */\n      dup2\n        /* \"#utility.yul\":3314:3326   */\n      swap1\n      pop\n        /* \"#utility.yul\":3272:3332   */\n      swap2\n      swap1\n      pop\n      jump\t// out\n        /* \"#utility.yul\":3338:3480   */\n    tag_171:\n        /* \"#utility.yul\":3388:3397   */\n      0x00\n        /* \"#utility.yul\":3421:3474   */\n      tag_274\n        /* \"#utility.yul\":3439:3473   */\n      tag_275\n        /* \"#utility.yul\":3448:3472   */\n      tag_276\n        /* \"#utility.yul\":3466:3471   */\n      dup5\n        /* \"#utility.yul\":3448:3472   */\n      tag_158\n      jump\t// in\n    tag_276:\n        /* \"#utility.yul\":3439:3473   */\n      tag_170\n      jump\t// in\n    tag_275:\n        /* \"#utility.yul\":3421:3474   */\n      tag_158\n      jump\t// in\n    tag_274:\n        /* \"#utility.yul\":3408:3474   */\n      swap1\n      pop\n        /* \"#utility.yul\":3338:3480   */\n      swap2\n      swap1\n      pop\n      jump\t// out\n        /* \"#utility.yul\":3486:3612   */\n    tag_172:\n        /* \"#utility.yul\":3536:3545   */\n      0x00\n        /* \"#utility.yul\":3569:3606   */\n      tag_278\n        /* \"#utility.yul\":3600:3605   */\n      dup3\n        /* \"#utility.yul\":3569:3606   */\n      tag_171\n      jump\t// in\n    tag_278:\n        /* \"#utility.yul\":3556:3606   */\n      swap1\n      pop\n        /* \"#utility.yul\":3486:3612   */\n      swap2\n      swap1\n      pop\n      jump\t// out\n        /* \"#utility.yul\":3618:3757   */\n    tag_173:\n        /* \"#utility.yul\":3681:3690   */\n      0x00\n        /* \"#utility.yul\":3714:3751   */\n      tag_280\n        /* \"#utility.yul\":3745:3750   */\n      dup3\n        /* \"#utility.yul\":3714:3751   */\n      tag_172\n      jump\t// in\n    tag_280:\n        /* \"#utility.yul\":3701:3751   */\n      swap1\n      pop\n        /* \"#utility.yul\":3618:3757   */\n      swap2\n      swap1\n      pop\n      jump\t// out\n        /* \"#utility.yul\":3763:3920   */\n    tag_174:\n        /* \"#utility.yul\":3863:3913   */\n      tag_282\n        /* \"#utility.yul\":3907:3912   */\n      dup2\n        /* \"#utility.yul\":3863:3913   */\n      tag_173\n      jump\t// in\n    tag_282:\n        /* \"#utility.yul\":3858:3861   */\n      dup3\n        /* \"#utility.yul\":3851:3914   */\n      mstore\n        /* \"#utility.yul\":3763:3920   */\n      pop\n      pop\n      jump\t// out\n        /* \"#utility.yul\":3926:4174   */\n    tag_22:\n        /* \"#utility.yul\":4032:4036   */\n      0x00\n        /* \"#utility.yul\":4070:4072   */\n      0x20\n        /* \"#utility.yul\":4059:4068   */\n      dup3\n        /* \"#utility.yul\":4055:4073   */\n      add\n        /* \"#utility.yul\":4047:4073   */\n      swap1\n      pop\n        /* \"#utility.yul\":4083:4167   */\n      tag_284\n        /* \"#utility.yul\":4164:4165   */\n      0x00\n        /* \"#utility.yul\":4153:4162   */\n      dup4\n        /* \"#utility.yul\":4149:4166   */\n      add\n        /* \"#utility.yul\":4140:4146   */\n      dup5\n        /* \"#utility.yul\":4083:4167   */\n      tag_174\n      jump\t// in\n    tag_284:\n        /* \"#utility.yul\":3926:4174   */\n      swap3\n      swap2\n      pop\n      pop\n      jump\t// out\n        /* \"#utility.yul\":4180:4302   */\n    tag_175:\n        /* \"#utility.yul\":4253:4277   */\n      tag_286\n        /* \"#utility.yul\":4271:4276   */\n      dup2\n        /* \"#utility.yul\":4253:4277   */\n      tag_165\n      jump\t// in\n    tag_286:\n        /* \"#utility.yul\":4246:4251   */\n      dup2\n        /* \"#utility.yul\":4243:4278   */\n      eq\n        /* \"#utility.yul\":4233:4296   */\n      tag_287\n      jumpi\n        /* \"#utility.yul\":4292:4293   */\n      0x00\n        /* \"#utility.yul\":4289:4290   */\n      0x00\n        /* \"#utility.yul\":4282:4294   */\n      revert\n        /* \"#utility.yul\":4233:4296   */\n    tag_287:\n        /* \"#utility.yul\":4180:4302   */\n      pop\n      jump\t// out\n        /* \"#utility.yul\":4308:4447   */\n    tag_176:\n        /* \"#utility.yul\":4354:4359   */\n      0x00\n        /* \"#utility.yul\":4392:4398   */\n      dup2\n        /* \"#utility.yul\":4379:4399   */\n      calldataload\n        /* \"#utility.yul\":4370:4399   */\n      swap1\n      pop\n        /* \"#utility.yul\":4408:4441   */\n      tag_289\n        /* \"#utility.yul\":4435:4440   */\n      dup2\n        /* \"#utility.yul\":4408:4441   */\n      tag_175\n      jump\t// in\n    tag_289:\n        /* \"#utility.yul\":4308:4447   */\n      swap3\n      swap2\n      pop\n      pop\n      jump\t// out\n        /* \"#utility.yul\":4453:4927   */\n    tag_25:\n        /* \"#utility.yul\":4521:4527   */\n      0x00\n        /* \"#utility.yul\":4529:4535   */\n      0x00\n        /* \"#utility.yul\":4578:4580   */\n      0x40\n        /* \"#utility.yul\":4566:4575   */\n      dup4\n        /* \"#utility.yul\":4557:4564   */\n      dup6\n        /* \"#utility.yul\":4553:4576   */\n      sub\n        /* \"#utility.yul\":4549:4581   */\n      slt\n        /* \"#utility.yul\":4546:4665   */\n      iszero\n      tag_291\n      jumpi\n        /* \"#utility.yul\":4584:4663   */\n      tag_292\n      tag_156\n      jump\t// in\n    tag_292:\n        /* \"#utility.yul\":4546:4665   */\n    tag_291:\n        /* \"#utility.yul\":4704:4705   */\n      0x00\n        /* \"#utility.yul\":4729:4782   */\n      tag_293\n        /* \"#utility.yul\":4774:4781   */\n      dup6\n        /* \"#utility.yul\":4765:4771   */\n      dup3\n        /* \"#utility.yul\":4754:4763   */\n      dup7\n        /* \"#utility.yul\":4750:4772   */\n      add\n        /* \"#utility.yul\":4729:4782   */\n      tag_161\n      jump\t// in\n    tag_293:\n        /* \"#utility.yul\":4719:4782   */\n      swap3\n      pop\n        /* \"#utility.yul\":4675:4792   */\n      pop\n        /* \"#utility.yul\":4831:4833   */\n      0x20\n        /* \"#utility.yul\":4857:4910   */\n      tag_294\n        /* \"#utility.yul\":4902:4909   */\n      dup6\n        /* \"#utility.yul\":4893:4899   */\n      dup3\n        /* \"#utility.yul\":4882:4891   */\n      dup7\n        /* \"#utility.yul\":4878:4900   */\n      add\n        /* \"#utility.yul\":4857:4910   */\n      tag_176\n      jump\t// in\n    tag_294:\n        /* \"#utility.yul\":4847:4910   */\n      swap2\n      pop\n        /* \"#utility.yul\":4802:4920   */\n      pop\n        /* \"#utility.yul\":4453:4927   */\n      swap3\n      pop\n      swap3\n      swap1\n      pop\n      jump\t// out\n        /* \"#utility.yul\":4933:5051   */\n    tag_177:\n        /* \"#utility.yul\":5020:5044   */\n      tag_296\n        /* \"#utility.yul\":5038:5043   */\n      dup2\n        /* \"#utility.yul\":5020:5044   */\n      tag_165\n      jump\t// in\n    tag_296:\n        /* \"#utility.yul\":5015:5018   */\n      dup3\n        /* \"#utility.yul\":5008:5045   */\n      mstore\n        /* \"#utility.yul\":4933:5051   */\n      pop\n      pop\n      jump\t// out\n        /* \"#utility.yul\":5057:5279   */\n    tag_28:\n        /* \"#utility.yul\":5150:5154   */\n      0x00\n        /* \"#utility.yul\":5188:5190   */\n      0x20\n        /* \"#utility.yul\":5177:5186   */\n      dup3\n        /* \"#utility.yul\":5173:5191   */\n      add\n        /* \"#utility.yul\":5165:5191   */\n      swap1\n      pop\n        /* \"#utility.yul\":5201:5272   */\n      tag_298\n        /* \"#utility.yul\":5269:5270   */\n      0x00\n        /* \"#utility.yul\":5258:5267   */\n      dup4\n        /* \"#utility.yul\":5254:5271   */\n      add\n        /* \"#utility.yul\":5245:5251   */\n      dup5\n        /* \"#utility.yul\":5201:5272   */\n      tag_177\n      jump\t// in\n    tag_298:\n        /* \"#utility.yul\":5057:5279   */\n      swap3\n      swap2\n      pop\n      pop\n      jump\t// out\n        /* \"#utility.yul\":5285:5429   */\n    tag_178:\n        /* \"#utility.yul\":5353:5362   */\n      0x00\n        /* \"#utility.yul\":5386:5423   */\n      tag_300\n        /* \"#utility.yul\":5417:5422   */\n      dup3\n        /* \"#utility.yul\":5386:5423   */\n      tag_172\n      jump\t// in\n    tag_300:\n        /* \"#utility.yul\":5373:5423   */\n      swap1\n      pop\n        /* \"#utility.yul\":5285:5429   */\n      swap2\n      swap1\n      pop\n      jump\t// out\n        /* \"#utility.yul\":5435:5602   */\n    tag_179:\n        /* \"#utility.yul\":5540:5595   */\n      tag_302\n        /* \"#utility.yul\":5589:5594   */\n      dup2\n        /* \"#utility.yul\":5540:5595   */\n      tag_178\n      jump\t// in\n    tag_302:\n        /* \"#utility.yul\":5535:5538   */\n      dup3\n        /* \"#utility.yul\":5528:5596   */\n      mstore\n        /* \"#utility.yul\":5435:5602   */\n      pop\n      pop\n      jump\t// out\n        /* \"#utility.yul\":5608:5866   */\n    tag_32:\n        /* \"#utility.yul\":5719:5723   */\n      0x00\n        /* \"#utility.yul\":5757:5759   */\n      0x20\n        /* \"#utility.yul\":5746:5755   */\n      dup3\n        /* \"#utility.yul\":5742:5760   */\n      add\n        /* \"#utility.yul\":5734:5760   */\n      swap1\n      pop\n        /* \"#utility.yul\":5770:5859   */\n      tag_304\n        /* \"#utility.yul\":5856:5857   */\n      0x00\n        /* \"#utility.yul\":5845:5854   */\n      dup4\n        /* \"#utility.yul\":5841:5858   */\n      add\n        /* \"#utility.yul\":5832:5838   */\n      dup5\n        /* \"#utility.yul\":5770:5859   */\n      tag_179\n      jump\t// in\n    tag_304:\n        /* \"#utility.yul\":5608:5866   */\n      swap3\n      swap2\n      pop\n      pop\n      jump\t// out\n        /* \"#utility.yul\":5872:6201   */\n    tag_35:\n        /* \"#utility.yul\":5931:5937   */\n      0x00\n        /* \"#utility.yul\":5980:5982   */\n      0x20\n        /* \"#utility.yul\":5968:5977   */\n      dup3\n        /* \"#utility.yul\":5959:5966   */\n      dup5\n        /* \"#utility.yul\":5955:5978   */\n      sub\n        /* \"#utility.yul\":5951:5983   */\n      slt\n        /* \"#utility.yul\":5948:6067   */\n      iszero\n      tag_306\n      jumpi\n        /* \"#utility.yul\":5986:6065   */\n      tag_307\n      tag_156\n      jump\t// in\n    tag_307:\n        /* \"#utility.yul\":5948:6067   */\n    tag_306:\n        /* \"#utility.yul\":6106:6107   */\n      0x00\n        /* \"#utility.yul\":6131:6184   */\n      tag_308\n        /* \"#utility.yul\":6176:6183   */\n      dup5\n        /* \"#utility.yul\":6167:6173   */\n      dup3\n        /* \"#utility.yul\":6156:6165   */\n      dup6\n        /* \"#utility.yul\":6152:6174   */\n      add\n        /* \"#utility.yul\":6131:6184   */\n      tag_176\n      jump\t// in\n    tag_308:\n        /* \"#utility.yul\":6121:6184   */\n      swap2\n      pop\n        /* \"#utility.yul\":6077:6194   */\n      pop\n        /* \"#utility.yul\":5872:6201   */\n      swap3\n      swap2\n      pop\n      pop\n      jump\t// out\n        /* \"#utility.yul\":6207:6325   */\n    tag_180:\n        /* \"#utility.yul\":6294:6318   */\n      tag_310\n        /* \"#utility.yul\":6312:6317   */\n      dup2\n        /* \"#utility.yul\":6294:6318   */\n      tag_159\n      jump\t// in\n    tag_310:\n        /* \"#utility.yul\":6289:6292   */\n      dup3\n        /* \"#utility.yul\":6282:6319   */\n      mstore\n        /* \"#utility.yul\":6207:6325   */\n      pop\n      pop\n      jump\t// out\n        /* \"#utility.yul\":6331:6430   */\n    tag_181:\n        /* \"#utility.yul\":6383:6389   */\n      0x00\n        /* \"#utility.yul\":6417:6422   */\n      dup2\n        /* \"#utility.yul\":6411:6423   */\n      mload\n        /* \"#utility.yul\":6401:6423   */\n      swap1\n      pop\n        /* \"#utility.yul\":6331:6430   */\n      swap2\n      swap1\n      pop\n      jump\t// out\n        /* \"#utility.yul\":6436:6605   */\n    tag_182:\n        /* \"#utility.yul\":6520:6531   */\n      0x00\n        /* \"#utility.yul\":6554:6560   */\n      dup3\n        /* \"#utility.yul\":6549:6552   */\n      dup3\n        /* \"#utility.yul\":6542:6561   */\n      mstore\n        /* \"#utility.yul\":6594:6598   */\n      0x20\n        /* \"#utility.yul\":6589:6592   */\n      dup3\n        /* \"#utility.yul\":6585:6599   */\n      add\n        /* \"#utility.yul\":6570:6599   */\n      swap1\n      pop\n        /* \"#utility.yul\":6436:6605   */\n      swap3\n      swap2\n      pop\n      pop\n      jump\t// out\n        /* \"#utility.yul\":6611:6750   */\n    tag_183:\n        /* \"#utility.yul\":6700:6706   */\n      dup3\n        /* \"#utility.yul\":6695:6698   */\n      dup2\n        /* \"#utility.yul\":6690:6693   */\n      dup4\n        /* \"#utility.yul\":6684:6707   */\n      mcopy\n        /* \"#utility.yul\":6741:6742   */\n      0x00\n        /* \"#utility.yul\":6732:6738   */\n      dup4\n        /* \"#utility.yul\":6727:6730   */\n      dup4\n        /* \"#utility.yul\":6723:6739   */\n      add\n        /* \"#utility.yul\":6716:6743   */\n      mstore\n        /* \"#utility.yul\":6611:6750   */\n      pop\n      pop\n      pop\n      jump\t// out\n        /* \"#utility.yul\":6756:6858   */\n    tag_184:\n        /* \"#utility.yul\":6797:6803   */\n      0x00\n        /* \"#utility.yul\":6848:6850   */\n      0x1f\n        /* \"#utility.yul\":6844:6851   */\n      not\n        /* \"#utility.yul\":6839:6841   */\n      0x1f\n        /* \"#utility.yul\":6832:6837   */\n      dup4\n        /* \"#utility.yul\":6828:6842   */\n      add\n        /* \"#utility.yul\":6824:6852   */\n      and\n        /* \"#utility.yul\":6814:6852   */\n      swap1\n      pop\n        /* \"#utility.yul\":6756:6858   */\n      swap2\n      swap1\n      pop\n      jump\t// out\n        /* \"#utility.yul\":6864:7241   */\n    tag_185:\n        /* \"#utility.yul\":6952:6955   */\n      0x00\n        /* \"#utility.yul\":6980:7019   */\n      tag_316\n        /* \"#utility.yul\":7013:7018   */\n      dup3\n        /* \"#utility.yul\":6980:7019   */\n      tag_181\n      jump\t// in\n    tag_316:\n        /* \"#utility.yul\":7035:7106   */\n      tag_317\n        /* \"#utility.yul\":7099:7105   */\n      dup2\n        /* \"#utility.yul\":7094:7097   */\n      dup6\n        /* \"#utility.yul\":7035:7106   */\n      tag_182\n      jump\t// in\n    tag_317:\n        /* \"#utility.yul\":7028:7106   */\n      swap4\n      pop\n        /* \"#utility.yul\":7115:7180   */\n      tag_318\n        /* \"#utility.yul\":7173:7179   */\n      dup2\n        /* \"#utility.yul\":7168:7171   */\n      dup6\n        /* \"#utility.yul\":7161:7165   */\n      0x20\n        /* \"#utility.yul\":7154:7159   */\n      dup7\n        /* \"#utility.yul\":7150:7166   */\n      add\n        /* \"#utility.yul\":7115:7180   */\n      tag_183\n      jump\t// in\n    tag_318:\n        /* \"#utility.yul\":7205:7234   */\n      tag_319\n        /* \"#utility.yul\":7227:7233   */\n      dup2\n        /* \"#utility.yul\":7205:7234   */\n      tag_184\n      jump\t// in\n    tag_319:\n        /* \"#utility.yul\":7200:7203   */\n      dup5\n        /* \"#utility.yul\":7196:7235   */\n      add\n        /* \"#utility.yul\":7189:7235   */\n      swap2\n      pop\n        /* \"#utility.yul\":6956:7241   */\n      pop\n        /* \"#utility.yul\":6864:7241   */\n      swap3\n      swap2\n      pop\n      pop\n      jump\t// out\n        /* \"#utility.yul\":7247:7337   */\n    tag_186:\n        /* \"#utility.yul\":7281:7288   */\n      0x00\n        /* \"#utility.yul\":7324:7329   */\n      dup2\n        /* \"#utility.yul\":7317:7330   */\n      iszero\n        /* \"#utility.yul\":7310:7331   */\n      iszero\n        /* \"#utility.yul\":7299:7331   */\n      swap1\n      pop\n        /* \"#utility.yul\":7247:7337   */\n      swap2\n      swap1\n      pop\n      jump\t// out\n        /* \"#utility.yul\":7343:7452   */\n    tag_187:\n        /* \"#utility.yul\":7424:7445   */\n      tag_322\n        /* \"#utility.yul\":7439:7444   */\n      dup2\n        /* \"#utility.yul\":7424:7445   */\n      tag_186\n      jump\t// in\n    tag_322:\n        /* \"#utility.yul\":7419:7422   */\n      dup3\n        /* \"#utility.yul\":7412:7446   */\n      mstore\n        /* \"#utility.yul\":7343:7452   */\n      pop\n      pop\n      jump\t// out\n        /* \"#utility.yul\":7458:8423   */\n    tag_41:\n        /* \"#utility.yul\":7733:7737   */\n      0x00\n        /* \"#utility.yul\":7771:7774   */\n      0xe0\n        /* \"#utility.yul\":7760:7769   */\n      dup3\n        /* \"#utility.yul\":7756:7775   */\n      add\n        /* \"#utility.yul\":7748:7775   */\n      swap1\n      pop\n        /* \"#utility.yul\":7785:7856   */\n      tag_324\n        /* \"#utility.yul\":7853:7854   */\n      0x00\n        /* \"#utility.yul\":7842:7851   */\n      dup4\n        /* \"#utility.yul\":7838:7855   */\n      add\n        /* \"#utility.yul\":7829:7835   */\n      dup11\n        /* \"#utility.yul\":7785:7856   */\n      tag_180\n      jump\t// in\n    tag_324:\n        /* \"#utility.yul\":7903:7912   */\n      dup2\n        /* \"#utility.yul\":7897:7901   */\n      dup2\n        /* \"#utility.yul\":7893:7913   */\n      sub\n        /* \"#utility.yul\":7888:7890   */\n      0x20\n        /* \"#utility.yul\":7877:7886   */\n      dup4\n        /* \"#utility.yul\":7873:7891   */\n      add\n        /* \"#utility.yul\":7866:7914   */\n      mstore\n        /* \"#utility.yul\":7931:8009   */\n      tag_325\n        /* \"#utility.yul\":8004:8008   */\n      dup2\n        /* \"#utility.yul\":7995:8001   */\n      dup10\n        /* \"#utility.yul\":7931:8009   */\n      tag_185\n      jump\t// in\n    tag_325:\n        /* \"#utility.yul\":7923:8009   */\n      swap1\n      pop\n        /* \"#utility.yul\":8019:8091   */\n      tag_326\n        /* \"#utility.yul\":8087:8089   */\n      0x40\n        /* \"#utility.yul\":8076:8085   */\n      dup4\n        /* \"#utility.yul\":8072:8090   */\n      add\n        /* \"#utility.yul\":8063:8069   */\n      dup9\n        /* \"#utility.yul\":8019:8091   */\n      tag_177\n      jump\t// in\n    tag_326:\n        /* \"#utility.yul\":8101:8173   */\n      tag_327\n        /* \"#utility.yul\":8169:8171   */\n      0x60\n        /* \"#utility.yul\":8158:8167   */\n      dup4\n        /* \"#utility.yul\":8154:8172   */\n      add\n        /* \"#utility.yul\":8145:8151   */\n      dup8\n        /* \"#utility.yul\":8101:8173   */\n      tag_177\n      jump\t// in\n    tag_327:\n        /* \"#utility.yul\":8183:8256   */\n      tag_328\n        /* \"#utility.yul\":8251:8254   */\n      0x80\n        /* \"#utility.yul\":8240:8249   */\n      dup4\n        /* \"#utility.yul\":8236:8255   */\n      add\n        /* \"#utility.yul\":8227:8233   */\n      dup7\n        /* \"#utility.yul\":8183:8256   */\n      tag_177\n      jump\t// in\n    tag_328:\n        /* \"#utility.yul\":8266:8339   */\n      tag_329\n        /* \"#utility.yul\":8334:8337   */\n      0xa0\n        /* \"#utility.yul\":8323:8332   */\n      dup4\n        /* \"#utility.yul\":8319:8338   */\n      add\n        /* \"#utility.yul\":8310:8316   */\n      dup6\n        /* \"#utility.yul\":8266:8339   */\n      tag_177\n      jump\t// in\n    tag_329:\n        /* \"#utility.yul\":8349:8416   */\n      tag_330\n        /* \"#utility.yul\":8411:8414   */\n      0xc0\n        /* \"#utility.yul\":8400:8409   */\n      dup4\n        /* \"#utility.yul\":8396:8415   */\n      add\n        /* \"#utility.yul\":8387:8393   */\n      dup5\n        /* \"#utility.yul\":8349:8416   */\n      tag_187\n      jump\t// in\n    tag_330:\n        /* \"#utility.yul\":7458:8423   */\n      swap9\n      swap8\n      pop\n      pop\n      pop\n      pop\n      pop\n      pop\n      pop\n      pop\n      jump\t// out\n        /* \"#utility.yul\":8429:8546   */\n    tag_188:\n        /* \"#utility.yul\":8538:8539   */\n      0x00\n        /* \"#utility.yul\":8535:8536   */\n      0x00\n        /* \"#utility.yul\":8528:8540   */\n      revert\n        /* \"#utility.yul\":8552:8669   */\n    tag_189:\n        /* \"#utility.yul\":8661:8662   */\n      0x00\n        /* \"#utility.yul\":8658:8659   */\n      0x00\n        /* \"#utility.yul\":8651:8663   */\n      revert\n        /* \"#utility.yul\":8675:8792   */\n    tag_190:\n        /* \"#utility.yul\":8784:8785   */\n      0x00\n        /* \"#utility.yul\":8781:8782   */\n      0x00\n        /* \"#utility.yul\":8774:8786   */\n      revert\n        /* \"#utility.yul\":8812:9365   */\n    tag_191:\n        /* \"#utility.yul\":8870:8878   */\n      0x00\n        /* \"#utility.yul\":8880:8886   */\n      0x00\n        /* \"#utility.yul\":8930:8933   */\n      dup4\n        /* \"#utility.yul\":8923:8927   */\n      0x1f\n        /* \"#utility.yul\":8915:8921   */\n      dup5\n        /* \"#utility.yul\":8911:8928   */\n      add\n        /* \"#utility.yul\":8907:8934   */\n      slt\n        /* \"#utility.yul\":8897:9019   */\n      tag_335\n      jumpi\n        /* \"#utility.yul\":8938:9017   */\n      tag_336\n      tag_188\n      jump\t// in\n    tag_336:\n        /* \"#utility.yul\":8897:9019   */\n    tag_335:\n        /* \"#utility.yul\":9051:9057   */\n      dup3\n        /* \"#utility.yul\":9038:9058   */\n      calldataload\n        /* \"#utility.yul\":9028:9058   */\n      swap1\n      pop\n        /* \"#utility.yul\":9081:9099   */\n      0xffffffffffffffff\n        /* \"#utility.yul\":9073:9079   */\n      dup2\n        /* \"#utility.yul\":9070:9100   */\n      gt\n        /* \"#utility.yul\":9067:9184   */\n      iszero\n      tag_337\n      jumpi\n        /* \"#utility.yul\":9103:9182   */\n      tag_338\n      tag_189\n      jump\t// in\n    tag_338:\n        /* \"#utility.yul\":9067:9184   */\n    tag_337:\n        /* \"#utility.yul\":9217:9221   */\n      0x20\n        /* \"#utility.yul\":9209:9215   */\n      dup4\n        /* \"#utility.yul\":9205:9222   */\n      add\n        /* \"#utility.yul\":9193:9222   */\n      swap2\n      pop\n        /* \"#utility.yul\":9271:9274   */\n      dup4\n        /* \"#utility.yul\":9263:9267   */\n      0x01\n        /* \"#utility.yul\":9255:9261   */\n      dup3\n        /* \"#utility.yul\":9251:9268   */\n      mul\n        /* \"#utility.yul\":9241:9249   */\n      dup4\n        /* \"#utility.yul\":9237:9269   */\n      add\n        /* \"#utility.yul\":9234:9275   */\n      gt\n        /* \"#utility.yul\":9231:9359   */\n      iszero\n      tag_339\n      jumpi\n        /* \"#utility.yul\":9278:9357   */\n      tag_340\n      tag_190\n      jump\t// in\n    tag_340:\n        /* \"#utility.yul\":9231:9359   */\n    tag_339:\n        /* \"#utility.yul\":8812:9365   */\n      swap3\n      pop\n      swap3\n      swap1\n      pop\n      jump\t// out\n        /* \"#utility.yul\":9371:10336   */\n    tag_44:\n        /* \"#utility.yul\":9469:9475   */\n      0x00\n        /* \"#utility.yul\":9477:9483   */\n      0x00\n        /* \"#utility.yul\":9485:9491   */\n      0x00\n        /* \"#utility.yul\":9493:9499   */\n      0x00\n        /* \"#utility.yul\":9501:9507   */\n      0x00\n        /* \"#utility.yul\":9550:9553   */\n      0x80\n        /* \"#utility.yul\":9538:9547   */\n      dup7\n        /* \"#utility.yul\":9529:9536   */\n      dup9\n        /* \"#utility.yul\":9525:9548   */\n      sub\n        /* \"#utility.yul\":9521:9554   */\n      slt\n        /* \"#utility.yul\":9518:9638   */\n      iszero\n      tag_342\n      jumpi\n        /* \"#utility.yul\":9557:9636   */\n      tag_343\n      tag_156\n      jump\t// in\n    tag_343:\n        /* \"#utility.yul\":9518:9638   */\n    tag_342:\n        /* \"#utility.yul\":9705:9706   */\n      0x00\n        /* \"#utility.yul\":9694:9703   */\n      dup7\n        /* \"#utility.yul\":9690:9707   */\n      add\n        /* \"#utility.yul\":9677:9708   */\n      calldataload\n        /* \"#utility.yul\":9735:9753   */\n      0xffffffffffffffff\n        /* \"#utility.yul\":9727:9733   */\n      dup2\n        /* \"#utility.yul\":9724:9754   */\n      gt\n        /* \"#utility.yul\":9721:9838   */\n      iszero\n      tag_344\n      jumpi\n        /* \"#utility.yul\":9757:9836   */\n      tag_345\n      tag_157\n      jump\t// in\n    tag_345:\n        /* \"#utility.yul\":9721:9838   */\n    tag_344:\n        /* \"#utility.yul\":9870:9935   */\n      tag_346\n        /* \"#utility.yul\":9927:9934   */\n      dup9\n        /* \"#utility.yul\":9918:9924   */\n      dup3\n        /* \"#utility.yul\":9907:9916   */\n      dup10\n        /* \"#utility.yul\":9903:9925   */\n      add\n        /* \"#utility.yul\":9870:9935   */\n      tag_191\n      jump\t// in\n    tag_346:\n        /* \"#utility.yul\":9852:9935   */\n      swap6\n      pop\n      swap6\n      pop\n        /* \"#utility.yul\":9648:9945   */\n      pop\n        /* \"#utility.yul\":9984:9986   */\n      0x20\n        /* \"#utility.yul\":10010:10063   */\n      tag_347\n        /* \"#utility.yul\":10055:10062   */\n      dup9\n        /* \"#utility.yul\":10046:10052   */\n      dup3\n        /* \"#utility.yul\":10035:10044   */\n      dup10\n        /* \"#utility.yul\":10031:10053   */\n      add\n        /* \"#utility.yul\":10010:10063   */\n      tag_176\n      jump\t// in\n    tag_347:\n        /* \"#utility.yul\":10000:10063   */\n      swap4\n      pop\n        /* \"#utility.yul\":9955:10073   */\n      pop\n        /* \"#utility.yul\":10112:10114   */\n      0x40\n        /* \"#utility.yul\":10138:10191   */\n      tag_348\n        /* \"#utility.yul\":10183:10190   */\n      dup9\n        /* \"#utility.yul\":10174:10180   */\n      dup3\n        /* \"#utility.yul\":10163:10172   */\n      dup10\n        /* \"#utility.yul\":10159:10181   */\n      add\n        /* \"#utility.yul\":10138:10191   */\n      tag_176\n      jump\t// in\n    tag_348:\n        /* \"#utility.yul\":10128:10191   */\n      swap3\n      pop\n        /* \"#utility.yul\":10083:10201   */\n      pop\n        /* \"#utility.yul\":10240:10242   */\n      0x60\n        /* \"#utility.yul\":10266:10319   */\n      tag_349\n        /* \"#utility.yul\":10311:10318   */\n      dup9\n        /* \"#utility.yul\":10302:10308   */\n      dup3\n        /* \"#utility.yul\":10291:10300   */\n      dup10\n        /* \"#utility.yul\":10287:10309   */\n      add\n        /* \"#utility.yul\":10266:10319   */\n      tag_176\n      jump\t// in\n    tag_349:\n        /* \"#utility.yul\":10256:10319   */\n      swap2\n      pop\n        /* \"#utility.yul\":10211:10329   */\n      pop\n        /* \"#utility.yul\":9371:10336   */\n      swap3\n      swap6\n      pop\n      swap3\n      swap6\n      swap1\n      swap4\n      pop\n      jump\t// out\n        /* \"#utility.yul\":10342:10564   */\n    tag_49:\n        /* \"#utility.yul\":10435:10439   */\n      0x00\n        /* \"#utility.yul\":10473:10475   */\n      0x20\n        /* \"#utility.yul\":10462:10471   */\n      dup3\n        /* \"#utility.yul\":10458:10476   */\n      add\n        /* \"#utility.yul\":10450:10476   */\n      swap1\n      pop\n        /* \"#utility.yul\":10486:10557   */\n      tag_351\n        /* \"#utility.yul\":10554:10555   */\n      0x00\n        /* \"#utility.yul\":10543:10552   */\n      dup4\n        /* \"#utility.yul\":10539:10556   */\n      add\n        /* \"#utility.yul\":10530:10536   */\n      dup5\n        /* \"#utility.yul\":10486:10557   */\n      tag_180\n      jump\t// in\n    tag_351:\n        /* \"#utility.yul\":10342:10564   */\n      swap3\n      swap2\n      pop\n      pop\n      jump\t// out\n        /* \"#utility.yul\":10570:10736   */\n    tag_192:\n        /* \"#utility.yul\":10710:10728   */\n      0x496e76616c696420686564676520494400000000000000000000000000000000\n        /* \"#utility.yul\":10706:10707   */\n      0x00\n        /* \"#utility.yul\":10698:10704   */\n      dup3\n        /* \"#utility.yul\":10694:10708   */\n      add\n        /* \"#utility.yul\":10687:10729   */\n      mstore\n        /* \"#utility.yul\":10570:10736   */\n      pop\n      jump\t// out\n        /* \"#utility.yul\":10742:11108   */\n    tag_193:\n        /* \"#utility.yul\":10884:10887   */\n      0x00\n        /* \"#utility.yul\":10905:10972   */\n      tag_354\n        /* \"#utility.yul\":10969:10971   */\n      0x10\n        /* \"#utility.yul\":10964:10967   */\n      dup4\n        /* \"#utility.yul\":10905:10972   */\n      tag_182\n      jump\t// in\n    tag_354:\n        /* \"#utility.yul\":10898:10972   */\n      swap2\n      pop\n        /* \"#utility.yul\":10981:11074   */\n      tag_355\n        /* \"#utility.yul\":11070:11073   */\n      dup3\n        /* \"#utility.yul\":10981:11074   */\n      tag_192\n      jump\t// in\n    tag_355:\n        /* \"#utility.yul\":11099:11101   */\n      0x20\n        /* \"#utility.yul\":11094:11097   */\n      dup3\n        /* \"#utility.yul\":11090:11102   */\n      add\n        /* \"#utility.yul\":11083:11102   */\n      swap1\n      pop\n        /* \"#utility.yul\":10742:11108   */\n      swap2\n      swap1\n      pop\n      jump\t// out\n        /* \"#utility.yul\":11114:11533   */\n    tag_61:\n        /* \"#utility.yul\":11280:11284   */\n      0x00\n        /* \"#utility.yul\":11318:11320   */\n      0x20\n        /* \"#utility.yul\":11307:11316   */\n      dup3\n        /* \"#utility.yul\":11303:11321   */\n      add\n        /* \"#utility.yul\":11295:11321   */\n      swap1\n      pop\n        /* \"#utility.yul\":11367:11376   */\n      dup2\n        /* \"#utility.yul\":11361:11365   */\n      dup2\n        /* \"#utility.yul\":11357:11377   */\n      sub\n        /* \"#utility.yul\":11353:11354   */\n      0x00\n        /* \"#utility.yul\":11342:11351   */\n      dup4\n        /* \"#utility.yul\":11338:11355   */\n      add\n        /* \"#utility.yul\":11331:11378   */\n      mstore\n        /* \"#utility.yul\":11395:11526   */\n      tag_357\n        /* \"#utility.yul\":11521:11525   */\n      dup2\n        /* \"#utility.yul\":11395:11526   */\n      tag_193\n      jump\t// in\n    tag_357:\n        /* \"#utility.yul\":11387:11526   */\n      swap1\n      pop\n        /* \"#utility.yul\":11114:11533   */\n      swap2\n      swap1\n      pop\n      jump\t// out\n        /* \"#utility.yul\":11539:11719   */\n    tag_64:\n        /* \"#utility.yul\":11587:11664   */\n      0x4e487b7100000000000000000000000000000000000000000000000000000000\n        /* \"#utility.yul\":11584:11585   */\n      0x00\n        /* \"#utility.yul\":11577:11665   */\n      mstore\n        /* \"#utility.yul\":11684:11688   */\n      0x32\n        /* \"#utility.yul\":11681:11682   */\n      0x04\n        /* \"#utility.yul\":11674:11689   */\n      mstore\n        /* \"#utility.yul\":11708:11712   */\n      0x24\n        /* \"#utility.yul\":11705:11706   */\n      0x00\n        /* \"#utility.yul\":11698:11713   */\n      revert\n        /* \"#utility.yul\":11725:11889   */\n    tag_194:\n        /* \"#utility.yul\":11865:11881   */\n      0x4e6f7420796f7572206865646765000000000000000000000000000000000000\n        /* \"#utility.yul\":11861:11862   */\n      0x00\n        /* \"#utility.yul\":11853:11859   */\n      dup3\n        /* \"#utility.yul\":11849:11863   */\n      add\n        /* \"#utility.yul\":11842:11882   */\n      mstore\n        /* \"#utility.yul\":11725:11889   */\n      pop\n      jump\t// out\n        /* \"#utility.yul\":11895:12261   */\n    tag_195:\n        /* \"#utility.yul\":12037:12040   */\n      0x00\n        /* \"#utility.yul\":12058:12125   */\n      tag_361\n        /* \"#utility.yul\":12122:12124   */\n      0x0e\n        /* \"#utility.yul\":12117:12120   */\n      dup4\n        /* \"#utility.yul\":12058:12125   */\n      tag_182\n      jump\t// in\n    tag_361:\n        /* \"#utility.yul\":12051:12125   */\n      swap2\n      pop\n        /* \"#utility.yul\":12134:12227   */\n      tag_362\n        /* \"#utility.yul\":12223:12226   */\n      dup3\n        /* \"#utility.yul\":12134:12227   */\n      tag_194\n      jump\t// in\n    tag_362:\n        /* \"#utility.yul\":12252:12254   */\n      0x20\n        /* \"#utility.yul\":12247:12250   */\n      dup3\n        /* \"#utility.yul\":12243:12255   */\n      add\n        /* \"#utility.yul\":12236:12255   */\n      swap1\n      pop\n        /* \"#utility.yul\":11895:12261   */\n      swap2\n      swap1\n      pop\n      jump\t// out\n        /* \"#utility.yul\":12267:12686   */\n    tag_68:\n        /* \"#utility.yul\":12433:12437   */\n      0x00\n        /* \"#utility.yul\":12471:12473   */\n      0x20\n        /* \"#utility.yul\":12460:12469   */\n      dup3\n        /* \"#utility.yul\":12456:12474   */\n      add\n        /* \"#utility.yul\":12448:12474   */\n      swap1\n      pop\n        /* \"#utility.yul\":12520:12529   */\n      dup2\n        /* \"#utility.yul\":12514:12518   */\n      dup2\n        /* \"#utility.yul\":12510:12530   */\n      sub\n        /* \"#utility.yul\":12506:12507   */\n      0x00\n        /* \"#utility.yul\":12495:12504   */\n      dup4\n        /* \"#utility.yul\":12491:12508   */\n      add\n        /* \"#utility.yul\":12484:12531   */\n      mstore\n        /* \"#utility.yul\":12548:12679   */\n      tag_364\n        /* \"#utility.yul\":12674:12678   */\n      dup2\n        /* \"#utility.yul\":12548:12679   */\n      tag_195\n      jump\t// in\n    tag_364:\n        /* \"#utility.yul\":12540:12679   */\n      swap1\n      pop\n        /* \"#utility.yul\":12267:12686   */\n      swap2\n      swap1\n      pop\n      jump\t// out\n        /* \"#utility.yul\":12692:12856   */\n    tag_196:\n        /* \"#utility.yul\":12832:12848   */\n      0x416c726561647920636c6f736564000000000000000000000000000000000000\n        /* \"#utility.yul\":12828:12829   */\n      0x00\n        /* \"#utility.yul\":12820:12826   */\n      dup3\n        /* \"#utility.yul\":12816:12830   */\n      add\n        /* \"#utility.yul\":12809:12849   */\n      mstore\n        /* \"#utility.yul\":12692:12856   */\n      pop\n      jump\t// out\n        /* \"#utility.yul\":12862:13228   */\n    tag_197:\n        /* \"#utility.yul\":13004:13007   */\n      0x00\n        /* \"#utility.yul\":13025:13092   */\n      tag_367\n        /* \"#utility.yul\":13089:13091   */\n      0x0e\n        /* \"#utility.yul\":13084:13087   */\n      dup4\n        /* \"#utility.yul\":13025:13092   */\n      tag_182\n      jump\t// in\n    tag_367:\n        /* \"#utility.yul\":13018:13092   */\n      swap2\n      pop\n        /* \"#utility.yul\":13101:13194   */\n      tag_368\n        /* \"#utility.yul\":13190:13193   */\n      dup3\n        /* \"#utility.yul\":13101:13194   */\n      tag_196\n      jump\t// in\n    tag_368:\n        /* \"#utility.yul\":13219:13221   */\n      0x20\n        /* \"#utility.yul\":13214:13217   */\n      dup3\n        /* \"#utility.yul\":13210:13222   */\n      add\n        /* \"#utility.yul\":13203:13222   */\n      swap1\n      pop\n        /* \"#utility.yul\":12862:13228   */\n      swap2\n      swap1\n      pop\n      jump\t// out\n        /* \"#utility.yul\":13234:13653   */\n    tag_71:\n        /* \"#utility.yul\":13400:13404   */\n      0x00\n        /* \"#utility.yul\":13438:13440   */\n      0x20\n        /* \"#utility.yul\":13427:13436   */\n      dup3\n        /* \"#utility.yul\":13423:13441   */\n      add\n        /* \"#utility.yul\":13415:13441   */\n      swap1\n      pop\n        /* \"#utility.yul\":13487:13496   */\n      dup2\n        /* \"#utility.yul\":13481:13485   */\n      dup2\n        /* \"#utility.yul\":13477:13497   */\n      sub\n        /* \"#utility.yul\":13473:13474   */\n      0x00\n        /* \"#utility.yul\":13462:13471   */\n      dup4\n        /* \"#utility.yul\":13458:13475   */\n      add\n        /* \"#utility.yul\":13451:13498   */\n      mstore\n        /* \"#utility.yul\":13515:13646   */\n      tag_370\n        /* \"#utility.yul\":13641:13645   */\n      dup2\n        /* \"#utility.yul\":13515:13646   */\n      tag_197\n      jump\t// in\n    tag_370:\n        /* \"#utility.yul\":13507:13646   */\n      swap1\n      pop\n        /* \"#utility.yul\":13234:13653   */\n      swap2\n      swap1\n      pop\n      jump\t// out\n        /* \"#utility.yul\":13659:13824   */\n    tag_198:\n        /* \"#utility.yul\":13799:13816   */\n      0x4e6f742065787069726564207965740000000000000000000000000000000000\n        /* \"#utility.yul\":13795:13796   */\n      0x00\n        /* \"#utility.yul\":13787:13793   */\n      dup3\n        /* \"#utility.yul\":13783:13797   */\n      add\n        /* \"#utility.yul\":13776:13817   */\n      mstore\n        /* \"#utility.yul\":13659:13824   */\n      pop\n      jump\t// out\n        /* \"#utility.yul\":13830:14196   */\n    tag_199:\n        /* \"#utility.yul\":13972:13975   */\n      0x00\n        /* \"#utility.yul\":13993:14060   */\n      tag_373\n        /* \"#utility.yul\":14057:14059   */\n      0x0f\n        /* \"#utility.yul\":14052:14055   */\n      dup4\n        /* \"#utility.yul\":13993:14060   */\n      tag_182\n      jump\t// in\n    tag_373:\n        /* \"#utility.yul\":13986:14060   */\n      swap2\n      pop\n        /* \"#utility.yul\":14069:14162   */\n      tag_374\n        /* \"#utility.yul\":14158:14161   */\n      dup3\n        /* \"#utility.yul\":14069:14162   */\n      tag_198\n      jump\t// in\n    tag_374:\n        /* \"#utility.yul\":14187:14189   */\n      0x20\n        /* \"#utility.yul\":14182:14185   */\n      dup3\n        /* \"#utility.yul\":14178:14190   */\n      add\n        /* \"#utility.yul\":14171:14190   */\n      swap1\n      pop\n        /* \"#utility.yul\":13830:14196   */\n      swap2\n      swap1\n      pop\n      jump\t// out\n        /* \"#utility.yul\":14202:14621   */\n    tag_74:\n        /* \"#utility.yul\":14368:14372   */\n      0x00\n        /* \"#utility.yul\":14406:14408   */\n      0x20\n        /* \"#utility.yul\":14395:14404   */\n      dup3\n        /* \"#utility.yul\":14391:14409   */\n      add\n        /* \"#utility.yul\":14383:14409   */\n      swap1\n      pop\n        /* \"#utility.yul\":14455:14464   */\n      dup2\n        /* \"#utility.yul\":14449:14453   */\n      dup2\n        /* \"#utility.yul\":14445:14465   */\n      sub\n        /* \"#utility.yul\":14441:14442   */\n      0x00\n        /* \"#utility.yul\":14430:14439   */\n      dup4\n        /* \"#utility.yul\":14426:14443   */\n      add\n        /* \"#utility.yul\":14419:14466   */\n      mstore\n        /* \"#utility.yul\":14483:14614   */\n      tag_376\n        /* \"#utility.yul\":14609:14613   */\n      dup2\n        /* \"#utility.yul\":14483:14614   */\n      tag_199\n      jump\t// in\n    tag_376:\n        /* \"#utility.yul\":14475:14614   */\n      swap1\n      pop\n        /* \"#utility.yul\":14202:14621   */\n      swap2\n      swap1\n      pop\n      jump\t// out\n        /* \"#utility.yul\":14627:14807   */\n    tag_200:\n        /* \"#utility.yul\":14675:14752   */\n      0x4e487b7100000000000000000000000000000000000000000000000000000000\n        /* \"#utility.yul\":14672:14673   */\n      0x00\n        /* \"#utility.yul\":14665:14753   */\n      mstore\n        /* \"#utility.yul\":14772:14776   */\n      0x22\n        /* \"#utility.yul\":14769:14770   */\n      0x04\n        /* \"#utility.yul\":14762:14777   */\n      mstore\n        /* \"#utility.yul\":14796:14800   */\n      0x24\n        /* \"#utility.yul\":14793:14794   */\n      0x00\n        /* \"#utility.yul\":14786:14801   */\n      revert\n        /* \"#utility.yul\":14813:15133   */\n    tag_109:\n        /* \"#utility.yul\":14857:14863   */\n      0x00\n        /* \"#utility.yul\":14894:14895   */\n      0x02\n        /* \"#utility.yul\":14888:14892   */\n      dup3\n        /* \"#utility.yul\":14884:14896   */\n      div\n        /* \"#utility.yul\":14874:14896   */\n      swap1\n      pop\n        /* \"#utility.yul\":14941:14942   */\n      0x01\n        /* \"#utility.yul\":14935:14939   */\n      dup3\n        /* \"#utility.yul\":14931:14943   */\n      and\n        /* \"#utility.yul\":14962:14980   */\n      dup1\n        /* \"#utility.yul\":14952:15033   */\n      tag_379\n      jumpi\n        /* \"#utility.yul\":15018:15022   */\n      0x7f\n        /* \"#utility.yul\":15010:15016   */\n      dup3\n        /* \"#utility.yul\":15006:15023   */\n      and\n        /* \"#utility.yul\":14996:15023   */\n      swap2\n      pop\n        /* \"#utility.yul\":14952:15033   */\n    tag_379:\n        /* \"#utility.yul\":15080:15082   */\n      0x20\n        /* \"#utility.yul\":15072:15078   */\n      dup3\n        /* \"#utility.yul\":15069:15083   */\n      lt\n        /* \"#utility.yul\":15049:15067   */\n      dup2\n        /* \"#utility.yul\":15046:15084   */\n      sub\n        /* \"#utility.yul\":15043:15127   */\n      tag_380\n      jumpi\n        /* \"#utility.yul\":15099:15117   */\n      tag_381\n      tag_200\n      jump\t// in\n    tag_381:\n        /* \"#utility.yul\":15043:15127   */\n    tag_380:\n        /* \"#utility.yul\":14864:15133   */\n      pop\n        /* \"#utility.yul\":14813:15133   */\n      swap2\n      swap1\n      pop\n      jump\t// out\n        /* \"#utility.yul\":15139:15280   */\n    tag_201:\n        /* \"#utility.yul\":15188:15192   */\n      0x00\n        /* \"#utility.yul\":15211:15214   */\n      dup2\n        /* \"#utility.yul\":15203:15214   */\n      swap1\n      pop\n        /* \"#utility.yul\":15234:15237   */\n      dup2\n        /* \"#utility.yul\":15231:15232   */\n      0x00\n        /* \"#utility.yul\":15224:15238   */\n      mstore\n        /* \"#utility.yul\":15268:15272   */\n      0x20\n        /* \"#utility.yul\":15265:15266   */\n      0x00\n        /* \"#utility.yul\":15255:15273   */\n      keccak256\n        /* \"#utility.yul\":15247:15273   */\n      swap1\n      pop\n        /* \"#utility.yul\":15139:15280   */\n      swap2\n      swap1\n      pop\n      jump\t// out\n        /* \"#utility.yul\":15310:16141   */\n    tag_202:\n        /* \"#utility.yul\":15395:15398   */\n      0x00\n        /* \"#utility.yul\":15432:15437   */\n      dup2\n        /* \"#utility.yul\":15426:15438   */\n      sload\n        /* \"#utility.yul\":15461:15497   */\n      tag_384\n        /* \"#utility.yul\":15487:15496   */\n      dup2\n        /* \"#utility.yul\":15461:15497   */\n      tag_109\n      jump\t// in\n    tag_384:\n        /* \"#utility.yul\":15513:15584   */\n      tag_385\n        /* \"#utility.yul\":15577:15583   */\n      dup2\n        /* \"#utility.yul\":15572:15575   */\n      dup7\n        /* \"#utility.yul\":15513:15584   */\n      tag_182\n      jump\t// in\n    tag_385:\n        /* \"#utility.yul\":15506:15584   */\n      swap5\n      pop\n        /* \"#utility.yul\":15615:15616   */\n      0x01\n        /* \"#utility.yul\":15604:15613   */\n      dup3\n        /* \"#utility.yul\":15600:15617   */\n      and\n        /* \"#utility.yul\":15631:15632   */\n      0x00\n        /* \"#utility.yul\":15626:15790   */\n      dup2\n      eq\n      tag_387\n      jumpi\n        /* \"#utility.yul\":15804:15805   */\n      0x01\n        /* \"#utility.yul\":15799:16135   */\n      dup2\n      eq\n      tag_388\n      jumpi\n        /* \"#utility.yul\":15593:16135   */\n      jump(tag_386)\n        /* \"#utility.yul\":15626:15790   */\n    tag_387:\n        /* \"#utility.yul\":15710:15714   */\n      0xff\n        /* \"#utility.yul\":15706:15715   */\n      not\n        /* \"#utility.yul\":15695:15704   */\n      dup4\n        /* \"#utility.yul\":15691:15716   */\n      and\n        /* \"#utility.yul\":15686:15689   */\n      dup7\n        /* \"#utility.yul\":15679:15717   */\n      mstore\n        /* \"#utility.yul\":15770:15776   */\n      dup2\n        /* \"#utility.yul\":15763:15777   */\n      iszero\n        /* \"#utility.yul\":15756:15778   */\n      iszero\n        /* \"#utility.yul\":15750:15754   */\n      0x20\n        /* \"#utility.yul\":15746:15779   */\n      mul\n        /* \"#utility.yul\":15741:15744   */\n      dup7\n        /* \"#utility.yul\":15737:15780   */\n      add\n        /* \"#utility.yul\":15730:15780   */\n      swap4\n      pop\n        /* \"#utility.yul\":15626:15790   */\n      jump(tag_386)\n        /* \"#utility.yul\":15799:16135   */\n    tag_388:\n        /* \"#utility.yul\":15866:15904   */\n      tag_389\n        /* \"#utility.yul\":15898:15903   */\n      dup6\n        /* \"#utility.yul\":15866:15904   */\n      tag_201\n      jump\t// in\n    tag_389:\n        /* \"#utility.yul\":15926:15927   */\n      0x00\n        /* \"#utility.yul\":15940:16094   */\n    tag_390:\n        /* \"#utility.yul\":15954:15960   */\n      dup4\n        /* \"#utility.yul\":15951:15952   */\n      dup2\n        /* \"#utility.yul\":15948:15961   */\n      lt\n        /* \"#utility.yul\":15940:16094   */\n      iszero\n      tag_392\n      jumpi\n        /* \"#utility.yul\":16028:16035   */\n      dup2\n        /* \"#utility.yul\":16022:16036   */\n      sload\n        /* \"#utility.yul\":16018:16019   */\n      dup2\n        /* \"#utility.yul\":16013:16016   */\n      dup10\n        /* \"#utility.yul\":16009:16020   */\n      add\n        /* \"#utility.yul\":16002:16037   */\n      mstore\n        /* \"#utility.yul\":16078:16079   */\n      0x01\n        /* \"#utility.yul\":16069:16076   */\n      dup3\n        /* \"#utility.yul\":16065:16080   */\n      add\n        /* \"#utility.yul\":16054:16080   */\n      swap2\n      pop\n        /* \"#utility.yul\":15976:15980   */\n      0x20\n        /* \"#utility.yul\":15973:15974   */\n      dup2\n        /* \"#utility.yul\":15969:15981   */\n      add\n        /* \"#utility.yul\":15964:15981   */\n      swap1\n      pop\n        /* \"#utility.yul\":15940:16094   */\n      jump(tag_390)\n    tag_392:\n        /* \"#utility.yul\":16123:16124   */\n      dup1\n        /* \"#utility.yul\":16118:16121   */\n      dup9\n        /* \"#utility.yul\":16114:16125   */\n      add\n        /* \"#utility.yul\":16107:16125   */\n      swap6\n      pop\n        /* \"#utility.yul\":15806:16135   */\n      pop\n      pop\n        /* \"#utility.yul\":15593:16135   */\n    tag_386:\n      pop\n        /* \"#utility.yul\":15399:16141   */\n      pop\n      pop\n        /* \"#utility.yul\":15310:16141   */\n      swap3\n      swap2\n      pop\n      pop\n      jump\t// out\n        /* \"#utility.yul\":16147:16454   */\n    tag_76:\n        /* \"#utility.yul\":16257:16261   */\n      0x00\n        /* \"#utility.yul\":16295:16297   */\n      0x20\n        /* \"#utility.yul\":16284:16293   */\n      dup3\n        /* \"#utility.yul\":16280:16298   */\n      add\n        /* \"#utility.yul\":16272:16298   */\n      swap1\n      pop\n        /* \"#utility.yul\":16344:16353   */\n      dup2\n        /* \"#utility.yul\":16338:16342   */\n      dup2\n        /* \"#utility.yul\":16334:16354   */\n      sub\n        /* \"#utility.yul\":16330:16331   */\n      0x00\n        /* \"#utility.yul\":16319:16328   */\n      dup4\n        /* \"#utility.yul\":16315:16332   */\n      add\n        /* \"#utility.yul\":16308:16355   */\n      mstore\n        /* \"#utility.yul\":16372:16447   */\n      tag_394\n        /* \"#utility.yul\":16442:16446   */\n      dup2\n        /* \"#utility.yul\":16433:16439   */\n      dup5\n        /* \"#utility.yul\":16372:16447   */\n      tag_202\n      jump\t// in\n    tag_394:\n        /* \"#utility.yul\":16364:16447   */\n      swap1\n      pop\n        /* \"#utility.yul\":16147:16454   */\n      swap3\n      swap2\n      pop\n      pop\n      jump\t// out\n        /* \"#utility.yul\":16460:16603   */\n    tag_203:\n        /* \"#utility.yul\":16517:16522   */\n      0x00\n        /* \"#utility.yul\":16548:16554   */\n      dup2\n        /* \"#utility.yul\":16542:16555   */\n      mload\n        /* \"#utility.yul\":16533:16555   */\n      swap1\n      pop\n        /* \"#utility.yul\":16564:16597   */\n      tag_396\n        /* \"#utility.yul\":16591:16596   */\n      dup2\n        /* \"#utility.yul\":16564:16597   */\n      tag_175\n      jump\t// in\n    tag_396:\n        /* \"#utility.yul\":16460:16603   */\n      swap3\n      swap2\n      pop\n      pop\n      jump\t// out\n        /* \"#utility.yul\":16609:16960   */\n    tag_80:\n        /* \"#utility.yul\":16679:16685   */\n      0x00\n        /* \"#utility.yul\":16728:16730   */\n      0x20\n        /* \"#utility.yul\":16716:16725   */\n      dup3\n        /* \"#utility.yul\":16707:16714   */\n      dup5\n        /* \"#utility.yul\":16703:16726   */\n      sub\n        /* \"#utility.yul\":16699:16731   */\n      slt\n        /* \"#utility.yul\":16696:16815   */\n      iszero\n      tag_398\n      jumpi\n        /* \"#utility.yul\":16734:16813   */\n      tag_399\n      tag_156\n      jump\t// in\n    tag_399:\n        /* \"#utility.yul\":16696:16815   */\n    tag_398:\n        /* \"#utility.yul\":16854:16855   */\n      0x00\n        /* \"#utility.yul\":16879:16943   */\n      tag_400\n        /* \"#utility.yul\":16935:16942   */\n      dup5\n        /* \"#utility.yul\":16926:16932   */\n      dup3\n        /* \"#utility.yul\":16915:16924   */\n      dup6\n        /* \"#utility.yul\":16911:16933   */\n      add\n        /* \"#utility.yul\":16879:16943   */\n      tag_203\n      jump\t// in\n    tag_400:\n        /* \"#utility.yul\":16869:16943   */\n      swap2\n      pop\n        /* \"#utility.yul\":16825:16953   */\n      pop\n        /* \"#utility.yul\":16609:16960   */\n      swap3\n      swap2\n      pop\n      pop\n      jump\t// out\n        /* \"#utility.yul\":16966:17136   */\n    tag_204:\n        /* \"#utility.yul\":17106:17128   */\n      0x496e76616c6964206f7261636c65207072696365000000000000000000000000\n        /* \"#utility.yul\":17102:17103   */\n      0x00\n        /* \"#utility.yul\":17094:17100   */\n      dup3\n        /* \"#utility.yul\":17090:17104   */\n      add\n        /* \"#utility.yul\":17083:17129   */\n      mstore\n        /* \"#utility.yul\":16966:17136   */\n      pop\n      jump\t// out\n        /* \"#utility.yul\":17142:17508   */\n    tag_205:\n        /* \"#utility.yul\":17284:17287   */\n      0x00\n        /* \"#utility.yul\":17305:17372   */\n      tag_403\n        /* \"#utility.yul\":17369:17371   */\n      0x14\n        /* \"#utility.yul\":17364:17367   */\n      dup4\n        /* \"#utility.yul\":17305:17372   */\n      tag_182\n      jump\t// in\n    tag_403:\n        /* \"#utility.yul\":17298:17372   */\n      swap2\n      pop\n        /* \"#utility.yul\":17381:17474   */\n      tag_404\n        /* \"#utility.yul\":17470:17473   */\n      dup3\n        /* \"#utility.yul\":17381:17474   */\n      tag_204\n      jump\t// in\n    tag_404:\n        /* \"#utility.yul\":17499:17501   */\n      0x20\n        /* \"#utility.yul\":17494:17497   */\n      dup3\n        /* \"#utility.yul\":17490:17502   */\n      add\n        /* \"#utility.yul\":17483:17502   */\n      swap1\n      pop\n        /* \"#utility.yul\":17142:17508   */\n      swap2\n      swap1\n      pop\n      jump\t// out\n        /* \"#utility.yul\":17514:17933   */\n    tag_83:\n        /* \"#utility.yul\":17680:17684   */\n      0x00\n        /* \"#utility.yul\":17718:17720   */\n      0x20\n        /* \"#utility.yul\":17707:17716   */\n      dup3\n        /* \"#utility.yul\":17703:17721   */\n      add\n        /* \"#utility.yul\":17695:17721   */\n      swap1\n      pop\n        /* \"#utility.yul\":17767:17776   */\n      dup2\n        /* \"#utility.yul\":17761:17765   */\n      dup2\n        /* \"#utility.yul\":17757:17777   */\n      sub\n        /* \"#utility.yul\":17753:17754   */\n      0x00\n        /* \"#utility.yul\":17742:17751   */\n      dup4\n        /* \"#utility.yul\":17738:17755   */\n      add\n        /* \"#utility.yul\":17731:17778   */\n      mstore\n        /* \"#utility.yul\":17795:17926   */\n      tag_406\n        /* \"#utility.yul\":17921:17925   */\n      dup2\n        /* \"#utility.yul\":17795:17926   */\n      tag_205\n      jump\t// in\n    tag_406:\n        /* \"#utility.yul\":17787:17926   */\n      swap1\n      pop\n        /* \"#utility.yul\":17514:17933   */\n      swap2\n      swap1\n      pop\n      jump\t// out\n        /* \"#utility.yul\":17939:18119   */\n    tag_206:\n        /* \"#utility.yul\":17987:18064   */\n      0x4e487b7100000000000000000000000000000000000000000000000000000000\n        /* \"#utility.yul\":17984:17985   */\n      0x00\n        /* \"#utility.yul\":17977:18065   */\n      mstore\n        /* \"#utility.yul\":18084:18088   */\n      0x11\n        /* \"#utility.yul\":18081:18082   */\n      0x04\n        /* \"#utility.yul\":18074:18089   */\n      mstore\n        /* \"#utility.yul\":18108:18112   */\n      0x24\n        /* \"#utility.yul\":18105:18106   */\n      0x00\n        /* \"#utility.yul\":18098:18113   */\n      revert\n        /* \"#utility.yul\":18125:18535   */\n    tag_87:\n        /* \"#utility.yul\":18165:18172   */\n      0x00\n        /* \"#utility.yul\":18188:18208   */\n      tag_409\n        /* \"#utility.yul\":18206:18207   */\n      dup3\n        /* \"#utility.yul\":18188:18208   */\n      tag_165\n      jump\t// in\n    tag_409:\n        /* \"#utility.yul\":18183:18208   */\n      swap2\n      pop\n        /* \"#utility.yul\":18222:18242   */\n      tag_410\n        /* \"#utility.yul\":18240:18241   */\n      dup4\n        /* \"#utility.yul\":18222:18242   */\n      tag_165\n      jump\t// in\n    tag_410:\n        /* \"#utility.yul\":18217:18242   */\n      swap3\n      pop\n        /* \"#utility.yul\":18277:18278   */\n      dup3\n        /* \"#utility.yul\":18274:18275   */\n      dup3\n        /* \"#utility.yul\":18270:18279   */\n      mul\n        /* \"#utility.yul\":18299:18329   */\n      tag_411\n        /* \"#utility.yul\":18317:18328   */\n      dup2\n        /* \"#utility.yul\":18299:18329   */\n      tag_165\n      jump\t// in\n    tag_411:\n        /* \"#utility.yul\":18288:18329   */\n      swap2\n      pop\n        /* \"#utility.yul\":18478:18479   */\n      dup3\n        /* \"#utility.yul\":18469:18476   */\n      dup3\n        /* \"#utility.yul\":18465:18480   */\n      div\n        /* \"#utility.yul\":18462:18463   */\n      dup5\n        /* \"#utility.yul\":18459:18481   */\n      eq\n        /* \"#utility.yul\":18439:18440   */\n      dup4\n        /* \"#utility.yul\":18432:18441   */\n      iszero\n        /* \"#utility.yul\":18412:18495   */\n      or\n        /* \"#utility.yul\":18389:18528   */\n      tag_412\n      jumpi\n        /* \"#utility.yul\":18508:18526   */\n      tag_413\n      tag_206\n      jump\t// in\n    tag_413:\n        /* \"#utility.yul\":18389:18528   */\n    tag_412:\n        /* \"#utility.yul\":18173:18535   */\n      pop\n        /* \"#utility.yul\":18125:18535   */\n      swap3\n      swap2\n      pop\n      pop\n      jump\t// out\n        /* \"#utility.yul\":18541:18721   */\n    tag_207:\n        /* \"#utility.yul\":18589:18666   */\n      0x4e487b7100000000000000000000000000000000000000000000000000000000\n        /* \"#utility.yul\":18586:18587   */\n      0x00\n        /* \"#utility.yul\":18579:18667   */\n      mstore\n        /* \"#utility.yul\":18686:18690   */\n      0x12\n        /* \"#utility.yul\":18683:18684   */\n      0x04\n        /* \"#utility.yul\":18676:18691   */\n      mstore\n        /* \"#utility.yul\":18710:18714   */\n      0x24\n        /* \"#utility.yul\":18707:18708   */\n      0x00\n        /* \"#utility.yul\":18700:18715   */\n      revert\n        /* \"#utility.yul\":18727:18912   */\n    tag_89:\n        /* \"#utility.yul\":18767:18768   */\n      0x00\n        /* \"#utility.yul\":18784:18804   */\n      tag_416\n        /* \"#utility.yul\":18802:18803   */\n      dup3\n        /* \"#utility.yul\":18784:18804   */\n      tag_165\n      jump\t// in\n    tag_416:\n        /* \"#utility.yul\":18779:18804   */\n      swap2\n      pop\n        /* \"#utility.yul\":18818:18838   */\n      tag_417\n        /* \"#utility.yul\":18836:18837   */\n      dup4\n        /* \"#utility.yul\":18818:18838   */\n      tag_165\n      jump\t// in\n    tag_417:\n        /* \"#utility.yul\":18813:18838   */\n      swap3\n      pop\n        /* \"#utility.yul\":18857:18858   */\n      dup3\n        /* \"#utility.yul\":18847:18882   */\n      tag_418\n      jumpi\n        /* \"#utility.yul\":18862:18880   */\n      tag_419\n      tag_207\n      jump\t// in\n    tag_419:\n        /* \"#utility.yul\":18847:18882   */\n    tag_418:\n        /* \"#utility.yul\":18904:18905   */\n      dup3\n        /* \"#utility.yul\":18901:18902   */\n      dup3\n        /* \"#utility.yul\":18897:18906   */\n      div\n        /* \"#utility.yul\":18892:18906   */\n      swap1\n      pop\n        /* \"#utility.yul\":18727:18912   */\n      swap3\n      swap2\n      pop\n      pop\n      jump\t// out\n        /* \"#utility.yul\":18918:19250   */\n    tag_96:\n        /* \"#utility.yul\":19039:19043   */\n      0x00\n        /* \"#utility.yul\":19077:19079   */\n      0x40\n        /* \"#utility.yul\":19066:19075   */\n      dup3\n        /* \"#utility.yul\":19062:19080   */\n      add\n        /* \"#utility.yul\":19054:19080   */\n      swap1\n      pop\n        /* \"#utility.yul\":19090:19161   */\n      tag_421\n        /* \"#utility.yul\":19158:19159   */\n      0x00\n        /* \"#utility.yul\":19147:19156   */\n      dup4\n        /* \"#utility.yul\":19143:19160   */\n      add\n        /* \"#utility.yul\":19134:19140   */\n      dup6\n        /* \"#utility.yul\":19090:19161   */\n      tag_180\n      jump\t// in\n    tag_421:\n        /* \"#utility.yul\":19171:19243   */\n      tag_422\n        /* \"#utility.yul\":19239:19241   */\n      0x20\n        /* \"#utility.yul\":19228:19237   */\n      dup4\n        /* \"#utility.yul\":19224:19242   */\n      add\n        /* \"#utility.yul\":19215:19221   */\n      dup5\n        /* \"#utility.yul\":19171:19243   */\n      tag_177\n      jump\t// in\n    tag_422:\n        /* \"#utility.yul\":18918:19250   */\n      swap4\n      swap3\n      pop\n      pop\n      pop\n      jump\t// out\n        /* \"#utility.yul\":19256:19372   */\n    tag_208:\n        /* \"#utility.yul\":19326:19347   */\n      tag_424\n        /* \"#utility.yul\":19341:19346   */\n      dup2\n        /* \"#utility.yul\":19326:19347   */\n      tag_186\n      jump\t// in\n    tag_424:\n        /* \"#utility.yul\":19319:19324   */\n      dup2\n        /* \"#utility.yul\":19316:19348   */\n      eq\n        /* \"#utility.yul\":19306:19366   */\n      tag_425\n      jumpi\n        /* \"#utility.yul\":19362:19363   */\n      0x00\n        /* \"#utility.yul\":19359:19360   */\n      0x00\n        /* \"#utility.yul\":19352:19364   */\n      revert\n        /* \"#utility.yul\":19306:19366   */\n    tag_425:\n        /* \"#utility.yul\":19256:19372   */\n      pop\n      jump\t// out\n        /* \"#utility.yul\":19378:19515   */\n    tag_209:\n        /* \"#utility.yul\":19432:19437   */\n      0x00\n        /* \"#utility.yul\":19463:19469   */\n      dup2\n        /* \"#utility.yul\":19457:19470   */\n      mload\n        /* \"#utility.yul\":19448:19470   */\n      swap1\n      pop\n        /* \"#utility.yul\":19479:19509   */\n      tag_427\n        /* \"#utility.yul\":19503:19508   */\n      dup2\n        /* \"#utility.yul\":19479:19509   */\n      tag_208\n      jump\t// in\n    tag_427:\n        /* \"#utility.yul\":19378:19515   */\n      swap3\n      swap2\n      pop\n      pop\n      jump\t// out\n        /* \"#utility.yul\":19521:19866   */\n    tag_100:\n        /* \"#utility.yul\":19588:19594   */\n      0x00\n        /* \"#utility.yul\":19637:19639   */\n      0x20\n        /* \"#utility.yul\":19625:19634   */\n      dup3\n        /* \"#utility.yul\":19616:19623   */\n      dup5\n        /* \"#utility.yul\":19612:19635   */\n      sub\n        /* \"#utility.yul\":19608:19640   */\n      slt\n        /* \"#utility.yul\":19605:19724   */\n      iszero\n      tag_429\n      jumpi\n        /* \"#utility.yul\":19643:19722   */\n      tag_430\n      tag_156\n      jump\t// in\n    tag_430:\n        /* \"#utility.yul\":19605:19724   */\n    tag_429:\n        /* \"#utility.yul\":19763:19764   */\n      0x00\n        /* \"#utility.yul\":19788:19849   */\n      tag_431\n        /* \"#utility.yul\":19841:19848   */\n      dup5\n        /* \"#utility.yul\":19832:19838   */\n      dup3\n        /* \"#utility.yul\":19821:19830   */\n      dup6\n        /* \"#utility.yul\":19817:19839   */\n      add\n        /* \"#utility.yul\":19788:19849   */\n      tag_209\n      jump\t// in\n    tag_431:\n        /* \"#utility.yul\":19778:19849   */\n      swap2\n      pop\n        /* \"#utility.yul\":19734:19859   */\n      pop\n        /* \"#utility.yul\":19521:19866   */\n      swap3\n      swap2\n      pop\n      pop\n      jump\t// out\n        /* \"#utility.yul\":19872:20035   */\n    tag_210:\n        /* \"#utility.yul\":20012:20027   */\n      0x5061796f7574206661696c656400000000000000000000000000000000000000\n        /* \"#utility.yul\":20008:20009   */\n      0x00\n        /* \"#utility.yul\":20000:20006   */\n      dup3\n        /* \"#utility.yul\":19996:20010   */\n      add\n        /* \"#utility.yul\":19989:20028   */\n      mstore\n        /* \"#utility.yul\":19872:20035   */\n      pop\n      jump\t// out\n        /* \"#utility.yul\":20041:20407   */\n    tag_211:\n        /* \"#utility.yul\":20183:20186   */\n      0x00\n        /* \"#utility.yul\":20204:20271   */\n      tag_434\n        /* \"#utility.yul\":20268:20270   */\n      0x0d\n        /* \"#utility.yul\":20263:20266   */\n      dup4\n        /* \"#utility.yul\":20204:20271   */\n      tag_182\n      jump\t// in\n    tag_434:\n        /* \"#utility.yul\":20197:20271   */\n      swap2\n      pop\n        /* \"#utility.yul\":20280:20373   */\n      tag_435\n        /* \"#utility.yul\":20369:20372   */\n      dup3\n        /* \"#utility.yul\":20280:20373   */\n      tag_210\n      jump\t// in\n    tag_435:\n        /* \"#utility.yul\":20398:20400   */\n      0x20\n        /* \"#utility.yul\":20393:20396   */\n      dup3\n        /* \"#utility.yul\":20389:20401   */\n      add\n        /* \"#utility.yul\":20382:20401   */\n      swap1\n      pop\n        /* \"#utility.yul\":20041:20407   */\n      swap2\n      swap1\n      pop\n      jump\t// out\n        /* \"#utility.yul\":20413:20832   */\n    tag_103:\n        /* \"#utility.yul\":20579:20583   */\n      0x00\n        /* \"#utility.yul\":20617:20619   */\n      0x20\n        /* \"#utility.yul\":20606:20615   */\n      dup3\n        /* \"#utility.yul\":20602:20620   */\n      add\n        /* \"#utility.yul\":20594:20620   */\n      swap1\n      pop\n        /* \"#utility.yul\":20666:20675   */\n      dup2\n        /* \"#utility.yul\":20660:20664   */\n      dup2\n        /* \"#utility.yul\":20656:20676   */\n      sub\n        /* \"#utility.yul\":20652:20653   */\n      0x00\n        /* \"#utility.yul\":20641:20650   */\n      dup4\n        /* \"#utility.yul\":20637:20654   */\n      add\n        /* \"#utility.yul\":20630:20677   */\n      mstore\n        /* \"#utility.yul\":20694:20825   */\n      tag_437\n        /* \"#utility.yul\":20820:20824   */\n      dup2\n        /* \"#utility.yul\":20694:20825   */\n      tag_211\n      jump\t// in\n    tag_437:\n        /* \"#utility.yul\":20686:20825   */\n      swap1\n      pop\n        /* \"#utility.yul\":20413:20832   */\n      swap2\n      swap1\n      pop\n      jump\t// out\n        /* \"#utility.yul\":20838:21170   */\n    tag_105:\n        /* \"#utility.yul\":20959:20963   */\n      0x00\n        /* \"#utility.yul\":20997:20999   */\n      0x40\n        /* \"#utility.yul\":20986:20995   */\n      dup3\n        /* \"#utility.yul\":20982:21000   */\n      add\n        /* \"#utility.yul\":20974:21000   */\n      swap1\n      pop\n        /* \"#utility.yul\":21010:21081   */\n      tag_439\n        /* \"#utility.yul\":21078:21079   */\n      0x00\n        /* \"#utility.yul\":21067:21076   */\n      dup4\n        /* \"#utility.yul\":21063:21080   */\n      add\n        /* \"#utility.yul\":21054:21060   */\n      dup6\n        /* \"#utility.yul\":21010:21081   */\n      tag_177\n      jump\t// in\n    tag_439:\n        /* \"#utility.yul\":21091:21163   */\n      tag_440\n        /* \"#utility.yul\":21159:21161   */\n      0x20\n        /* \"#utility.yul\":21148:21157   */\n      dup4\n        /* \"#utility.yul\":21144:21162   */\n      add\n        /* \"#utility.yul\":21135:21141   */\n      dup5\n        /* \"#utility.yul\":21091:21163   */\n      tag_177\n      jump\t// in\n    tag_440:\n        /* \"#utility.yul\":20838:21170   */\n      swap4\n      swap3\n      pop\n      pop\n      pop\n      jump\t// out\n        /* \"#utility.yul\":21176:21344   */\n    tag_212:\n        /* \"#utility.yul\":21316:21336   */\n      0x416d6f756e74206d757374206265203e20300000000000000000000000000000\n        /* \"#utility.yul\":21312:21313   */\n      0x00\n        /* \"#utility.yul\":21304:21310   */\n      dup3\n        /* \"#utility.yul\":21300:21314   */\n      add\n        /* \"#utility.yul\":21293:21337   */\n      mstore\n        /* \"#utility.yul\":21176:21344   */\n      pop\n      jump\t// out\n        /* \"#utility.yul\":21350:21716   */\n    tag_213:\n        /* \"#utility.yul\":21492:21495   */\n      0x00\n        /* \"#utility.yul\":21513:21580   */\n      tag_443\n        /* \"#utility.yul\":21577:21579   */\n      0x12\n        /* \"#utility.yul\":21572:21575   */\n      dup4\n        /* \"#utility.yul\":21513:21580   */\n      tag_182\n      jump\t// in\n    tag_443:\n        /* \"#utility.yul\":21506:21580   */\n      swap2\n      pop\n        /* \"#utility.yul\":21589:21682   */\n      tag_444\n        /* \"#utility.yul\":21678:21681   */\n      dup3\n        /* \"#utility.yul\":21589:21682   */\n      tag_212\n      jump\t// in\n    tag_444:\n        /* \"#utility.yul\":21707:21709   */\n      0x20\n        /* \"#utility.yul\":21702:21705   */\n      dup3\n        /* \"#utility.yul\":21698:21710   */\n      add\n        /* \"#utility.yul\":21691:21710   */\n      swap1\n      pop\n        /* \"#utility.yul\":21350:21716   */\n      swap2\n      swap1\n      pop\n      jump\t// out\n        /* \"#utility.yul\":21722:22141   */\n    tag_117:\n        /* \"#utility.yul\":21888:21892   */\n      0x00\n        /* \"#utility.yul\":21926:21928   */\n      0x20\n        /* \"#utility.yul\":21915:21924   */\n      dup3\n        /* \"#utility.yul\":21911:21929   */\n      add\n        /* \"#utility.yul\":21903:21929   */\n      swap1\n      pop\n        /* \"#utility.yul\":21975:21984   */\n      dup2\n        /* \"#utility.yul\":21969:21973   */\n      dup2\n        /* \"#utility.yul\":21965:21985   */\n      sub\n        /* \"#utility.yul\":21961:21962   */\n      0x00\n        /* \"#utility.yul\":21950:21959   */\n      dup4\n        /* \"#utility.yul\":21946:21963   */\n      add\n        /* \"#utility.yul\":21939:21986   */\n      mstore\n        /* \"#utility.yul\":22003:22134   */\n      tag_446\n        /* \"#utility.yul\":22129:22133   */\n      dup2\n        /* \"#utility.yul\":22003:22134   */\n      tag_213\n      jump\t// in\n    tag_446:\n        /* \"#utility.yul\":21995:22134   */\n      swap1\n      pop\n        /* \"#utility.yul\":21722:22141   */\n      swap2\n      swap1\n      pop\n      jump\t// out\n        /* \"#utility.yul\":22147:22321   */\n    tag_214:\n        /* \"#utility.yul\":22287:22313   */\n      0x537472696b65207072696365206d757374206265203e20300000000000000000\n        /* \"#utility.yul\":22283:22284   */\n      0x00\n        /* \"#utility.yul\":22275:22281   */\n      dup3\n        /* \"#utility.yul\":22271:22285   */\n      add\n        /* \"#utility.yul\":22264:22314   */\n      mstore\n        /* \"#utility.yul\":22147:22321   */\n      pop\n      jump\t// out\n        /* \"#utility.yul\":22327:22693   */\n    tag_215:\n        /* \"#utility.yul\":22469:22472   */\n      0x00\n        /* \"#utility.yul\":22490:22557   */\n      tag_449\n        /* \"#utility.yul\":22554:22556   */\n      0x18\n        /* \"#utility.yul\":22549:22552   */\n      dup4\n        /* \"#utility.yul\":22490:22557   */\n      tag_182\n      jump\t// in\n    tag_449:\n        /* \"#utility.yul\":22483:22557   */\n      swap2\n      pop\n        /* \"#utility.yul\":22566:22659   */\n      tag_450\n        /* \"#utility.yul\":22655:22658   */\n      dup3\n        /* \"#utility.yul\":22566:22659   */\n      tag_214\n      jump\t// in\n    tag_450:\n        /* \"#utility.yul\":22684:22686   */\n      0x20\n        /* \"#utility.yul\":22679:22682   */\n      dup3\n        /* \"#utility.yul\":22675:22687   */\n      add\n        /* \"#utility.yul\":22668:22687   */\n      swap1\n      pop\n        /* \"#utility.yul\":22327:22693   */\n      swap2\n      swap1\n      pop\n      jump\t// out\n        /* \"#utility.yul\":22699:23118   */\n    tag_120:\n        /* \"#utility.yul\":22865:22869   */\n      0x00\n        /* \"#utility.yul\":22903:22905   */\n      0x20\n        /* \"#utility.yul\":22892:22901   */\n      dup3\n        /* \"#utility.yul\":22888:22906   */\n      add\n        /* \"#utility.yul\":22880:22906   */\n      swap1\n      pop\n        /* \"#utility.yul\":22952:22961   */\n      dup2\n        /* \"#utility.yul\":22946:22950   */\n      dup2\n        /* \"#utility.yul\":22942:22962   */\n      sub\n        /* \"#utility.yul\":22938:22939   */\n      0x00\n        /* \"#utility.yul\":22927:22936   */\n      dup4\n        /* \"#utility.yul\":22923:22940   */\n      add\n        /* \"#utility.yul\":22916:22963   */\n      mstore\n        /* \"#utility.yul\":22980:23111   */\n      tag_452\n        /* \"#utility.yul\":23106:23110   */\n      dup2\n        /* \"#utility.yul\":22980:23111   */\n      tag_215\n      jump\t// in\n    tag_452:\n        /* \"#utility.yul\":22972:23111   */\n      swap1\n      pop\n        /* \"#utility.yul\":22699:23118   */\n      swap2\n      swap1\n      pop\n      jump\t// out\n        /* \"#utility.yul\":23124:23315   */\n    tag_123:\n        /* \"#utility.yul\":23164:23167   */\n      0x00\n        /* \"#utility.yul\":23183:23203   */\n      tag_454\n        /* \"#utility.yul\":23201:23202   */\n      dup3\n        /* \"#utility.yul\":23183:23203   */\n      tag_165\n      jump\t// in\n    tag_454:\n        /* \"#utility.yul\":23178:23203   */\n      swap2\n      pop\n        /* \"#utility.yul\":23217:23237   */\n      tag_455\n        /* \"#utility.yul\":23235:23236   */\n      dup4\n        /* \"#utility.yul\":23217:23237   */\n      tag_165\n      jump\t// in\n    tag_455:\n        /* \"#utility.yul\":23212:23237   */\n      swap3\n      pop\n        /* \"#utility.yul\":23260:23261   */\n      dup3\n        /* \"#utility.yul\":23257:23258   */\n      dup3\n        /* \"#utility.yul\":23253:23262   */\n      add\n        /* \"#utility.yul\":23246:23262   */\n      swap1\n      pop\n        /* \"#utility.yul\":23281:23284   */\n      dup1\n        /* \"#utility.yul\":23278:23279   */\n      dup3\n        /* \"#utility.yul\":23275:23285   */\n      gt\n        /* \"#utility.yul\":23272:23308   */\n      iszero\n      tag_456\n      jumpi\n        /* \"#utility.yul\":23288:23306   */\n      tag_457\n      tag_206\n      jump\t// in\n    tag_457:\n        /* \"#utility.yul\":23272:23308   */\n    tag_456:\n        /* \"#utility.yul\":23124:23315   */\n      swap3\n      swap2\n      pop\n      pop\n      jump\t// out\n        /* \"#utility.yul\":23321:23492   */\n    tag_216:\n        /* \"#utility.yul\":23461:23484   */\n      0x496e76616c696420657870697265206f7074696f6e0000000000000000000000\n        /* \"#utility.yul\":23457:23458   */\n      0x00\n        /* \"#utility.yul\":23449:23455   */\n      dup3\n        /* \"#utility.yul\":23445:23459   */\n      add\n        /* \"#utility.yul\":23438:23485   */\n      mstore\n        /* \"#utility.yul\":23321:23492   */\n      pop\n      jump\t// out\n        /* \"#utility.yul\":23498:23864   */\n    tag_217:\n        /* \"#utility.yul\":23640:23643   */\n      0x00\n        /* \"#utility.yul\":23661:23728   */\n      tag_460\n        /* \"#utility.yul\":23725:23727   */\n      0x15\n        /* \"#utility.yul\":23720:23723   */\n      dup4\n        /* \"#utility.yul\":23661:23728   */\n      tag_182\n      jump\t// in\n    tag_460:\n        /* \"#utility.yul\":23654:23728   */\n      swap2\n      pop\n        /* \"#utility.yul\":23737:23830   */\n      tag_461\n        /* \"#utility.yul\":23826:23829   */\n      dup3\n        /* \"#utility.yul\":23737:23830   */\n      tag_216\n      jump\t// in\n    tag_461:\n        /* \"#utility.yul\":23855:23857   */\n      0x20\n        /* \"#utility.yul\":23850:23853   */\n      dup3\n        /* \"#utility.yul\":23846:23858   */\n      add\n        /* \"#utility.yul\":23839:23858   */\n      swap1\n      pop\n        /* \"#utility.yul\":23498:23864   */\n      swap2\n      swap1\n      pop\n      jump\t// out\n        /* \"#utility.yul\":23870:24289   */\n    tag_135:\n        /* \"#utility.yul\":24036:24040   */\n      0x00\n        /* \"#utility.yul\":24074:24076   */\n      0x20\n        /* \"#utility.yul\":24063:24072   */\n      dup3\n        /* \"#utility.yul\":24059:24077   */\n      add\n        /* \"#utility.yul\":24051:24077   */\n      swap1\n      pop\n        /* \"#utility.yul\":24123:24132   */\n      dup2\n        /* \"#utility.yul\":24117:24121   */\n      dup2\n        /* \"#utility.yul\":24113:24133   */\n      sub\n        /* \"#utility.yul\":24109:24110   */\n      0x00\n        /* \"#utility.yul\":24098:24107   */\n      dup4\n        /* \"#utility.yul\":24094:24111   */\n      add\n        /* \"#utility.yul\":24087:24134   */\n      mstore\n        /* \"#utility.yul\":24151:24282   */\n      tag_463\n        /* \"#utility.yul\":24277:24281   */\n      dup2\n        /* \"#utility.yul\":24151:24282   */\n      tag_217\n      jump\t// in\n    tag_463:\n        /* \"#utility.yul\":24143:24282   */\n      swap1\n      pop\n        /* \"#utility.yul\":23870:24289   */\n      swap2\n      swap1\n      pop\n      jump\t// out\n        /* \"#utility.yul\":24295:24737   */\n    tag_139:\n        /* \"#utility.yul\":24444:24448   */\n      0x00\n        /* \"#utility.yul\":24482:24484   */\n      0x60\n        /* \"#utility.yul\":24471:24480   */\n      dup3\n        /* \"#utility.yul\":24467:24485   */\n      add\n        /* \"#utility.yul\":24459:24485   */\n      swap1\n      pop\n        /* \"#utility.yul\":24495:24566   */\n      tag_465\n        /* \"#utility.yul\":24563:24564   */\n      0x00\n        /* \"#utility.yul\":24552:24561   */\n      dup4\n        /* \"#utility.yul\":24548:24565   */\n      add\n        /* \"#utility.yul\":24539:24545   */\n      dup7\n        /* \"#utility.yul\":24495:24566   */\n      tag_180\n      jump\t// in\n    tag_465:\n        /* \"#utility.yul\":24576:24648   */\n      tag_466\n        /* \"#utility.yul\":24644:24646   */\n      0x20\n        /* \"#utility.yul\":24633:24642   */\n      dup4\n        /* \"#utility.yul\":24629:24647   */\n      add\n        /* \"#utility.yul\":24620:24626   */\n      dup6\n        /* \"#utility.yul\":24576:24648   */\n      tag_180\n      jump\t// in\n    tag_466:\n        /* \"#utility.yul\":24658:24730   */\n      tag_467\n        /* \"#utility.yul\":24726:24728   */\n      0x40\n        /* \"#utility.yul\":24715:24724   */\n      dup4\n        /* \"#utility.yul\":24711:24729   */\n      add\n        /* \"#utility.yul\":24702:24708   */\n      dup5\n        /* \"#utility.yul\":24658:24730   */\n      tag_177\n      jump\t// in\n    tag_467:\n        /* \"#utility.yul\":24295:24737   */\n      swap5\n      swap4\n      pop\n      pop\n      pop\n      pop\n      jump\t// out\n        /* \"#utility.yul\":24743:24913   */\n    tag_218:\n        /* \"#utility.yul\":24883:24905   */\n      0x55534454207472616e73666572206661696c6564000000000000000000000000\n        /* \"#utility.yul\":24879:24880   */\n      0x00\n        /* \"#utility.yul\":24871:24877   */\n      dup3\n        /* \"#utility.yul\":24867:24881   */\n      add\n        /* \"#utility.yul\":24860:24906   */\n      mstore\n        /* \"#utility.yul\":24743:24913   */\n      pop\n      jump\t// out\n        /* \"#utility.yul\":24919:25285   */\n    tag_219:\n        /* \"#utility.yul\":25061:25064   */\n      0x00\n        /* \"#utility.yul\":25082:25149   */\n      tag_470\n        /* \"#utility.yul\":25146:25148   */\n      0x14\n        /* \"#utility.yul\":25141:25144   */\n      dup4\n        /* \"#utility.yul\":25082:25149   */\n      tag_182\n      jump\t// in\n    tag_470:\n        /* \"#utility.yul\":25075:25149   */\n      swap2\n      pop\n        /* \"#utility.yul\":25158:25251   */\n      tag_471\n        /* \"#utility.yul\":25247:25250   */\n      dup3\n        /* \"#utility.yul\":25158:25251   */\n      tag_218\n      jump\t// in\n    tag_471:\n        /* \"#utility.yul\":25276:25278   */\n      0x20\n        /* \"#utility.yul\":25271:25274   */\n      dup3\n        /* \"#utility.yul\":25267:25279   */\n      add\n        /* \"#utility.yul\":25260:25279   */\n      swap1\n      pop\n        /* \"#utility.yul\":24919:25285   */\n      swap2\n      swap1\n      pop\n      jump\t// out\n        /* \"#utility.yul\":25291:25710   */\n    tag_145:\n        /* \"#utility.yul\":25457:25461   */\n      0x00\n        /* \"#utility.yul\":25495:25497   */\n      0x20\n        /* \"#utility.yul\":25484:25493   */\n      dup3\n        /* \"#utility.yul\":25480:25498   */\n      add\n        /* \"#utility.yul\":25472:25498   */\n      swap1\n      pop\n        /* \"#utility.yul\":25544:25553   */\n      dup2\n        /* \"#utility.yul\":25538:25542   */\n      dup2\n        /* \"#utility.yul\":25534:25554   */\n      sub\n        /* \"#utility.yul\":25530:25531   */\n      0x00\n        /* \"#utility.yul\":25519:25528   */\n      dup4\n        /* \"#utility.yul\":25515:25532   */\n      add\n        /* \"#utility.yul\":25508:25555   */\n      mstore\n        /* \"#utility.yul\":25572:25703   */\n      tag_473\n        /* \"#utility.yul\":25698:25702   */\n      dup2\n        /* \"#utility.yul\":25572:25703   */\n      tag_219\n      jump\t// in\n    tag_473:\n        /* \"#utility.yul\":25564:25703   */\n      swap1\n      pop\n        /* \"#utility.yul\":25291:25710   */\n      swap2\n      swap1\n      pop\n      jump\t// out\n        /* \"#utility.yul\":25716:25896   */\n    tag_220:\n        /* \"#utility.yul\":25764:25841   */\n      0x4e487b7100000000000000000000000000000000000000000000000000000000\n        /* \"#utility.yul\":25761:25762   */\n      0x00\n        /* \"#utility.yul\":25754:25842   */\n      mstore\n        /* \"#utility.yul\":25861:25865   */\n      0x41\n        /* \"#utility.yul\":25858:25859   */\n      0x04\n        /* \"#utility.yul\":25851:25866   */\n      mstore\n        /* \"#utility.yul\":25885:25889   */\n      0x24\n        /* \"#utility.yul\":25882:25883   */\n      0x00\n        /* \"#utility.yul\":25875:25890   */\n      revert\n        /* \"#utility.yul\":25902:25995   */\n    tag_221:\n        /* \"#utility.yul\":25939:25945   */\n      0x00\n        /* \"#utility.yul\":25986:25988   */\n      0x20\n        /* \"#utility.yul\":25981:25983   */\n      0x1f\n        /* \"#utility.yul\":25974:25979   */\n      dup4\n        /* \"#utility.yul\":25970:25984   */\n      add\n        /* \"#utility.yul\":25966:25989   */\n      div\n        /* \"#utility.yul\":25956:25989   */\n      swap1\n      pop\n        /* \"#utility.yul\":25902:25995   */\n      swap2\n      swap1\n      pop\n      jump\t// out\n        /* \"#utility.yul\":26001:26108   */\n    tag_222:\n        /* \"#utility.yul\":26045:26053   */\n      0x00\n        /* \"#utility.yul\":26095:26100   */\n      dup3\n        /* \"#utility.yul\":26089:26093   */\n      dup3\n        /* \"#utility.yul\":26085:26101   */\n      shl\n        /* \"#utility.yul\":26064:26101   */\n      swap1\n      pop\n        /* \"#utility.yul\":26001:26108   */\n      swap3\n      swap2\n      pop\n      pop\n      jump\t// out\n        /* \"#utility.yul\":26114:26507   */\n    tag_223:\n        /* \"#utility.yul\":26183:26189   */\n      0x00\n        /* \"#utility.yul\":26233:26234   */\n      0x08\n        /* \"#utility.yul\":26221:26231   */\n      dup4\n        /* \"#utility.yul\":26217:26235   */\n      mul\n        /* \"#utility.yul\":26256:26353   */\n      tag_478\n        /* \"#utility.yul\":26286:26352   */\n      0xffffffffffffffffffffffffffffffffffffffffffffffffffffffffffffffff\n        /* \"#utility.yul\":26275:26284   */\n      dup3\n        /* \"#utility.yul\":26256:26353   */\n      tag_222\n      jump\t// in\n    tag_478:\n        /* \"#utility.yul\":26374:26413   */\n      tag_479\n        /* \"#utility.yul\":26404:26412   */\n      dup7\n        /* \"#utility.yul\":26393:26402   */\n      dup4\n        /* \"#utility.yul\":26374:26413   */\n      tag_222\n      jump\t// in\n    tag_479:\n        /* \"#utility.yul\":26362:26413   */\n      swap6\n      pop\n        /* \"#utility.yul\":26446:26450   */\n      dup1\n        /* \"#utility.yul\":26442:26451   */\n      not\n        /* \"#utility.yul\":26435:26440   */\n      dup5\n        /* \"#utility.yul\":26431:26452   */\n      and\n        /* \"#utility.yul\":26422:26452   */\n      swap4\n      pop\n        /* \"#utility.yul\":26495:26499   */\n      dup1\n        /* \"#utility.yul\":26485:26493   */\n      dup7\n        /* \"#utility.yul\":26481:26500   */\n      and\n        /* \"#utility.yul\":26474:26479   */\n      dup5\n        /* \"#utility.yul\":26471:26501   */\n      or\n        /* \"#utility.yul\":26461:26501   */\n      swap3\n      pop\n        /* \"#utility.yul\":26190:26507   */\n      pop\n      pop\n        /* \"#utility.yul\":26114:26507   */\n      swap4\n      swap3\n      pop\n      pop\n      pop\n      jump\t// out\n        /* \"#utility.yul\":26513:26655   */\n    tag_224:\n        /* \"#utility.yul\":26563:26572   */\n      0x00\n        /* \"#utility.yul\":26596:26649   */\n      tag_481\n        /* \"#utility.yul\":26614:26648   */\n      tag_482\n        /* \"#utility.yul\":26623:26647   */\n      tag_483\n        /* \"#utility.yul\":26641:26646   */\n      dup5\n        /* \"#utility.yul\":26623:26647   */\n      tag_165\n      jump\t// in\n    tag_483:\n        /* \"#utility.yul\":26614:26648   */\n      tag_170\n      jump\t// in\n    tag_482:\n        /* \"#utility.yul\":26596:26649   */\n      tag_165\n      jump\t// in\n    tag_481:\n        /* \"#utility.yul\":26583:26649   */\n      swap1\n      pop\n        /* \"#utility.yul\":26513:26655   */\n      swap2\n      swap1\n      pop\n      jump\t// out\n        /* \"#utility.yul\":26661:26736   */\n    tag_225:\n        /* \"#utility.yul\":26704:26707   */\n      0x00\n        /* \"#utility.yul\":26725:26730   */\n      dup2\n        /* \"#utility.yul\":26718:26730   */\n      swap1\n      pop\n        /* \"#utility.yul\":26661:26736   */\n      swap2\n      swap1\n      pop\n      jump\t// out\n        /* \"#utility.yul\":26742:27011   */\n    tag_226:\n        /* \"#utility.yul\":26852:26891   */\n      tag_486\n        /* \"#utility.yul\":26883:26890   */\n      dup4\n        /* \"#utility.yul\":26852:26891   */\n      tag_224\n      jump\t// in\n    tag_486:\n        /* \"#utility.yul\":26913:27004   */\n      tag_487\n        /* \"#utility.yul\":26962:27003   */\n      tag_488\n        /* \"#utility.yul\":26986:27002   */\n      dup3\n        /* \"#utility.yul\":26962:27003   */\n      tag_225\n      jump\t// in\n    tag_488:\n        /* \"#utility.yul\":26954:26960   */\n      dup5\n        /* \"#utility.yul\":26947:26951   */\n      dup5\n        /* \"#utility.yul\":26941:26952   */\n      sload\n        /* \"#utility.yul\":26913:27004   */\n      tag_223\n      jump\t// in\n    tag_487:\n        /* \"#utility.yul\":26907:26911   */\n      dup3\n        /* \"#utility.yul\":26900:27005   */\n      sstore\n        /* \"#utility.yul\":26818:27011   */\n      pop\n        /* \"#utility.yul\":26742:27011   */\n      pop\n      pop\n      pop\n      jump\t// out\n        /* \"#utility.yul\":27017:27090   */\n    tag_227:\n        /* \"#utility.yul\":27062:27065   */\n      0x00\n        /* \"#utility.yul\":27083:27084   */\n      0x00\n        /* \"#utility.yul\":27076:27084   */\n      swap1\n      pop\n        /* \"#utility.yul\":27017:27090   */\n      swap1\n      jump\t// out\n        /* \"#utility.yul\":27096:27285   */\n    tag_228:\n        /* \"#utility.yul\":27173:27205   */\n      tag_491\n      tag_227\n      jump\t// in\n    tag_491:\n        /* \"#utility.yul\":27214:27279   */\n      tag_492\n        /* \"#utility.yul\":27272:27278   */\n      dup2\n        /* \"#utility.yul\":27264:27270   */\n      dup5\n        /* \"#utility.yul\":27258:27262   */\n      dup5\n        /* \"#utility.yul\":27214:27279   */\n      tag_226\n      jump\t// in\n    tag_492:\n        /* \"#utility.yul\":27149:27285   */\n      pop\n        /* \"#utility.yul\":27096:27285   */\n      pop\n      pop\n      jump\t// out\n        /* \"#utility.yul\":27291:27477   */\n    tag_229:\n        /* \"#utility.yul\":27351:27471   */\n    tag_494:\n        /* \"#utility.yul\":27368:27371   */\n      dup2\n        /* \"#utility.yul\":27361:27366   */\n      dup2\n        /* \"#utility.yul\":27358:27372   */\n      lt\n        /* \"#utility.yul\":27351:27471   */\n      iszero\n      tag_496\n      jumpi\n        /* \"#utility.yul\":27422:27461   */\n      tag_497\n        /* \"#utility.yul\":27459:27460   */\n      0x00\n        /* \"#utility.yul\":27452:27457   */\n      dup3\n        /* \"#utility.yul\":27422:27461   */\n      tag_228\n      jump\t// in\n    tag_497:\n        /* \"#utility.yul\":27395:27396   */\n      0x01\n        /* \"#utility.yul\":27388:27393   */\n      dup2\n        /* \"#utility.yul\":27384:27397   */\n      add\n        /* \"#utility.yul\":27375:27397   */\n      swap1\n      pop\n        /* \"#utility.yul\":27351:27471   */\n      jump(tag_494)\n    tag_496:\n        /* \"#utility.yul\":27291:27477   */\n      pop\n      pop\n      jump\t// out\n        /* \"#utility.yul\":27483:28026   */\n    tag_230:\n        /* \"#utility.yul\":27584:27586   */\n      0x1f\n        /* \"#utility.yul\":27579:27582   */\n      dup3\n        /* \"#utility.yul\":27576:27587   */\n      gt\n        /* \"#utility.yul\":27573:28019   */\n      iszero\n      tag_499\n      jumpi\n        /* \"#utility.yul\":27618:27656   */\n      tag_500\n        /* \"#utility.yul\":27650:27655   */\n      dup2\n        /* \"#utility.yul\":27618:27656   */\n      tag_201\n      jump\t// in\n    tag_500:\n        /* \"#utility.yul\":27702:27731   */\n      tag_501\n        /* \"#utility.yul\":27720:27730   */\n      dup5\n        /* \"#utility.yul\":27702:27731   */\n      tag_221\n      jump\t// in\n    tag_501:\n        /* \"#utility.yul\":27692:27700   */\n      dup2\n        /* \"#utility.yul\":27688:27732   */\n      add\n        /* \"#utility.yul\":27885:27887   */\n      0x20\n        /* \"#utility.yul\":27873:27883   */\n      dup6\n        /* \"#utility.yul\":27870:27888   */\n      lt\n        /* \"#utility.yul\":27867:27916   */\n      iszero\n      tag_502\n      jumpi\n        /* \"#utility.yul\":27906:27914   */\n      dup2\n        /* \"#utility.yul\":27891:27914   */\n      swap1\n      pop\n        /* \"#utility.yul\":27867:27916   */\n    tag_502:\n        /* \"#utility.yul\":27929:28009   */\n      tag_503\n        /* \"#utility.yul\":27985:28007   */\n      tag_504\n        /* \"#utility.yul\":28003:28006   */\n      dup6\n        /* \"#utility.yul\":27985:28007   */\n      tag_221\n      jump\t// in\n    tag_504:\n        /* \"#utility.yul\":27975:27983   */\n      dup4\n        /* \"#utility.yul\":27971:28008   */\n      add\n        /* \"#utility.yul\":27958:27969   */\n      dup3\n        /* \"#utility.yul\":27929:28009   */\n      tag_229\n      jump\t// in\n    tag_503:\n        /* \"#utility.yul\":27588:28019   */\n      pop\n      pop\n        /* \"#utility.yul\":27573:28019   */\n    tag_499:\n        /* \"#utility.yul\":27483:28026   */\n      pop\n      pop\n      pop\n      jump\t// out\n        /* \"#utility.yul\":28032:28149   */\n    tag_231:\n        /* \"#utility.yul\":28086:28094   */\n      0x00\n        /* \"#utility.yul\":28136:28141   */\n      dup3\n        /* \"#utility.yul\":28130:28134   */\n      dup3\n        /* \"#utility.yul\":28126:28142   */\n      shr\n        /* \"#utility.yul\":28105:28142   */\n      swap1\n      pop\n        /* \"#utility.yul\":28032:28149   */\n      swap3\n      swap2\n      pop\n      pop\n      jump\t// out\n        /* \"#utility.yul\":28155:28324   */\n    tag_232:\n        /* \"#utility.yul\":28199:28205   */\n      0x00\n        /* \"#utility.yul\":28232:28283   */\n      tag_507\n        /* \"#utility.yul\":28280:28281   */\n      0x00\n        /* \"#utility.yul\":28276:28282   */\n      not\n        /* \"#utility.yul\":28268:28273   */\n      dup5\n        /* \"#utility.yul\":28265:28266   */\n      0x08\n        /* \"#utility.yul\":28261:28274   */\n      mul\n        /* \"#utility.yul\":28232:28283   */\n      tag_231\n      jump\t// in\n    tag_507:\n        /* \"#utility.yul\":28228:28284   */\n      not\n        /* \"#utility.yul\":28313:28317   */\n      dup1\n        /* \"#utility.yul\":28307:28311   */\n      dup4\n        /* \"#utility.yul\":28303:28318   */\n      and\n        /* \"#utility.yul\":28293:28318   */\n      swap2\n      pop\n        /* \"#utility.yul\":28206:28324   */\n      pop\n        /* \"#utility.yul\":28155:28324   */\n      swap3\n      swap2\n      pop\n      pop\n      jump\t// out\n        /* \"#utility.yul\":28329:28624   */\n    tag_233:\n        /* \"#utility.yul\":28405:28409   */\n      0x00\n        /* \"#utility.yul\":28551:28580   */\n      tag_509\n        /* \"#utility.yul\":28576:28579   */\n      dup4\n        /* \"#utility.yul\":28570:28574   */\n      dup4\n        /* \"#utility.yul\":28551:28580   */\n      tag_232\n      jump\t// in\n    tag_509:\n        /* \"#utility.yul\":28543:28580   */\n      swap2\n      pop\n        /* \"#utility.yul\":28613:28616   */\n      dup3\n        /* \"#utility.yul\":28610:28611   */\n      0x02\n        /* \"#utility.yul\":28606:28617   */\n      mul\n        /* \"#utility.yul\":28600:28604   */\n      dup3\n        /* \"#utility.yul\":28597:28618   */\n      or\n        /* \"#utility.yul\":28589:28618   */\n      swap1\n      pop\n        /* \"#utility.yul\":28329:28624   */\n      swap3\n      swap2\n      pop\n      pop\n      jump\t// out\n        /* \"#utility.yul\":28629:30024   */\n    tag_148:\n        /* \"#utility.yul\":28746:28783   */\n      tag_511\n        /* \"#utility.yul\":28779:28782   */\n      dup3\n        /* \"#utility.yul\":28746:28783   */\n      tag_181\n      jump\t// in\n    tag_511:\n        /* \"#utility.yul\":28848:28866   */\n      0xffffffffffffffff\n        /* \"#utility.yul\":28840:28846   */\n      dup2\n        /* \"#utility.yul\":28837:28867   */\n      gt\n        /* \"#utility.yul\":28834:28890   */\n      iszero\n      tag_512\n      jumpi\n        /* \"#utility.yul\":28870:28888   */\n      tag_513\n      tag_220\n      jump\t// in\n    tag_513:\n        /* \"#utility.yul\":28834:28890   */\n    tag_512:\n        /* \"#utility.yul\":28914:28952   */\n      tag_514\n        /* \"#utility.yul\":28946:28950   */\n      dup3\n        /* \"#utility.yul\":28940:28951   */\n      sload\n        /* \"#utility.yul\":28914:28952   */\n      tag_109\n      jump\t// in\n    tag_514:\n        /* \"#utility.yul\":28999:29066   */\n      tag_515\n        /* \"#utility.yul\":29059:29065   */\n      dup3\n        /* \"#utility.yul\":29051:29057   */\n      dup3\n        /* \"#utility.yul\":29045:29049   */\n      dup6\n        /* \"#utility.yul\":28999:29066   */\n      tag_230\n      jump\t// in\n    tag_515:\n        /* \"#utility.yul\":29093:29094   */\n      0x00\n        /* \"#utility.yul\":29117:29121   */\n      0x20\n        /* \"#utility.yul\":29104:29121   */\n      swap1\n      pop\n        /* \"#utility.yul\":29149:29151   */\n      0x1f\n        /* \"#utility.yul\":29141:29147   */\n      dup4\n        /* \"#utility.yul\":29138:29152   */\n      gt\n        /* \"#utility.yul\":29166:29167   */\n      0x01\n        /* \"#utility.yul\":29161:29779   */\n      dup2\n      eq\n      tag_517\n      jumpi\n        /* \"#utility.yul\":29823:29824   */\n      0x00\n        /* \"#utility.yul\":29840:29846   */\n      dup5\n        /* \"#utility.yul\":29837:29914   */\n      iszero\n      tag_518\n      jumpi\n        /* \"#utility.yul\":29889:29898   */\n      dup3\n        /* \"#utility.yul\":29884:29887   */\n      dup8\n        /* \"#utility.yul\":29880:29899   */\n      add\n        /* \"#utility.yul\":29874:29900   */\n      mload\n        /* \"#utility.yul\":29865:29900   */\n      swap1\n      pop\n        /* \"#utility.yul\":29837:29914   */\n    tag_518:\n        /* \"#utility.yul\":29940:30007   */\n      tag_519\n        /* \"#utility.yul\":30000:30006   */\n      dup6\n        /* \"#utility.yul\":29993:29998   */\n      dup3\n        /* \"#utility.yul\":29940:30007   */\n      tag_233\n      jump\t// in\n    tag_519:\n        /* \"#utility.yul\":29934:29938   */\n      dup7\n        /* \"#utility.yul\":29927:30008   */\n      sstore\n        /* \"#utility.yul\":29796:30018   */\n      pop\n        /* \"#utility.yul\":29131:30018   */\n      jump(tag_516)\n        /* \"#utility.yul\":29161:29779   */\n    tag_517:\n        /* \"#utility.yul\":29213:29217   */\n      0x1f\n        /* \"#utility.yul\":29209:29218   */\n      not\n        /* \"#utility.yul\":29201:29207   */\n      dup5\n        /* \"#utility.yul\":29197:29219   */\n      and\n        /* \"#utility.yul\":29247:29284   */\n      tag_520\n        /* \"#utility.yul\":29279:29283   */\n      dup7\n        /* \"#utility.yul\":29247:29284   */\n      tag_201\n      jump\t// in\n    tag_520:\n        /* \"#utility.yul\":29306:29307   */\n      0x00\n        /* \"#utility.yul\":29320:29528   */\n    tag_521:\n        /* \"#utility.yul\":29334:29341   */\n      dup3\n        /* \"#utility.yul\":29331:29332   */\n      dup2\n        /* \"#utility.yul\":29328:29342   */\n      lt\n        /* \"#utility.yul\":29320:29528   */\n      iszero\n      tag_523\n      jumpi\n        /* \"#utility.yul\":29413:29422   */\n      dup5\n        /* \"#utility.yul\":29408:29411   */\n      dup10\n        /* \"#utility.yul\":29404:29423   */\n      add\n        /* \"#utility.yul\":29398:29424   */\n      mload\n        /* \"#utility.yul\":29390:29396   */\n      dup3\n        /* \"#utility.yul\":29383:29425   */\n      sstore\n        /* \"#utility.yul\":29464:29465   */\n      0x01\n        /* \"#utility.yul\":29456:29462   */\n      dup3\n        /* \"#utility.yul\":29452:29466   */\n      add\n        /* \"#utility.yul\":29442:29466   */\n      swap2\n      pop\n        /* \"#utility.yul\":29511:29513   */\n      0x20\n        /* \"#utility.yul\":29500:29509   */\n      dup6\n        /* \"#utility.yul\":29496:29514   */\n      add\n        /* \"#utility.yul\":29483:29514   */\n      swap5\n      pop\n        /* \"#utility.yul\":29357:29361   */\n      0x20\n        /* \"#utility.yul\":29354:29355   */\n      dup2\n        /* \"#utility.yul\":29350:29362   */\n      add\n        /* \"#utility.yul\":29345:29362   */\n      swap1\n      pop\n        /* \"#utility.yul\":29320:29528   */\n      jump(tag_521)\n    tag_523:\n        /* \"#utility.yul\":29556:29562   */\n      dup7\n        /* \"#utility.yul\":29547:29554   */\n      dup4\n        /* \"#utility.yul\":29544:29563   */\n      lt\n        /* \"#utility.yul\":29541:29720   */\n      iszero\n      tag_524\n      jumpi\n        /* \"#utility.yul\":29614:29623   */\n      dup5\n        /* \"#utility.yul\":29609:29612   */\n      dup10\n        /* \"#utility.yul\":29605:29624   */\n      add\n        /* \"#utility.yul\":29599:29625   */\n      mload\n        /* \"#utility.yul\":29657:29705   */\n      tag_525\n        /* \"#utility.yul\":29699:29703   */\n      0x1f\n        /* \"#utility.yul\":29691:29697   */\n      dup10\n        /* \"#utility.yul\":29687:29704   */\n      and\n        /* \"#utility.yul\":29676:29685   */\n      dup3\n        /* \"#utility.yul\":29657:29705   */\n      tag_232\n      jump\t// in\n    tag_525:\n        /* \"#utility.yul\":29649:29655   */\n      dup4\n        /* \"#utility.yul\":29642:29706   */\n      sstore\n        /* \"#utility.yul\":29564:29720   */\n      pop\n        /* \"#utility.yul\":29541:29720   */\n    tag_524:\n        /* \"#utility.yul\":29766:29767   */\n      0x01\n        /* \"#utility.yul\":29762:29763   */\n      0x02\n        /* \"#utility.yul\":29754:29760   */\n      dup9\n        /* \"#utility.yul\":29750:29764   */\n      mul\n        /* \"#utility.yul\":29746:29768   */\n      add\n        /* \"#utility.yul\":29740:29744   */\n      dup9\n        /* \"#utility.yul\":29733:29769   */\n      sstore\n        /* \"#utility.yul\":29168:29779   */\n      pop\n      pop\n      pop\n        /* \"#utility.yul\":29131:30018   */\n    tag_516:\n      pop\n        /* \"#utility.yul\":28721:30024   */\n      pop\n      pop\n      pop\n        /* \"#utility.yul\":28629:30024   */\n      pop\n      pop\n      jump\t// out\n        /* \"#utility.yul\":30030:30224   */\n    tag_150:\n        /* \"#utility.yul\":30070:30074   */\n      0x00\n        /* \"#utility.yul\":30090:30110   */\n      tag_527\n        /* \"#utility.yul\":30108:30109   */\n      dup3\n        /* \"#utility.yul\":30090:30110   */\n      tag_165\n      jump\t// in\n    tag_527:\n        /* \"#utility.yul\":30085:30110   */\n      swap2\n      pop\n        /* \"#utility.yul\":30124:30144   */\n      tag_528\n        /* \"#utility.yul\":30142:30143   */\n      dup4\n        /* \"#utility.yul\":30124:30144   */\n      tag_165\n      jump\t// in\n    tag_528:\n        /* \"#utility.yul\":30119:30144   */\n      swap3\n      pop\n        /* \"#utility.yul\":30168:30169   */\n      dup3\n        /* \"#utility.yul\":30165:30166   */\n      dup3\n        /* \"#utility.yul\":30161:30170   */\n      sub\n        /* \"#utility.yul\":30153:30170   */\n      swap1\n      pop\n        /* \"#utility.yul\":30192:30193   */\n      dup2\n        /* \"#utility.yul\":30186:30190   */\n      dup2\n        /* \"#utility.yul\":30183:30194   */\n      gt\n        /* \"#utility.yul\":30180:30217   */\n      iszero\n      tag_529\n      jumpi\n        /* \"#utility.yul\":30197:30215   */\n      tag_530\n      tag_206\n      jump\t// in\n    tag_530:\n        /* \"#utility.yul\":30180:30217   */\n    tag_529:\n        /* \"#utility.yul\":30030:30224   */\n      swap3\n      swap2\n      pop\n      pop\n      jump\t// out\n        /* \"#utility.yul\":30230:30378   */\n    tag_234:\n        /* \"#utility.yul\":30328:30334   */\n      dup3\n        /* \"#utility.yul\":30323:30326   */\n      dup2\n        /* \"#utility.yul\":30318:30321   */\n      dup4\n        /* \"#utility.yul\":30305:30335   */\n      calldatacopy\n        /* \"#utility.yul\":30369:30370   */\n      0x00\n        /* \"#utility.yul\":30360:30366   */\n      dup4\n        /* \"#utility.yul\":30355:30358   */\n      dup4\n        /* \"#utility.yul\":30351:30367   */\n      add\n        /* \"#utility.yul\":30344:30371   */\n      mstore\n        /* \"#utility.yul\":30230:30378   */\n      pop\n      pop\n      pop\n      jump\t// out\n        /* \"#utility.yul\":30408:30725   */\n    tag_235:\n        /* \"#utility.yul\":30506:30509   */\n      0x00\n        /* \"#utility.yul\":30527:30598   */\n      tag_533\n        /* \"#utility.yul\":30591:30597   */\n      dup4\n        /* \"#utility.yul\":30586:30589   */\n      dup6\n        /* \"#utility.yul\":30527:30598   */\n      tag_182\n      jump\t// in\n    tag_533:\n        /* \"#utility.yul\":30520:30598   */\n      swap4\n      pop\n        /* \"#utility.yul\":30608:30664   */\n      tag_534\n        /* \"#utility.yul\":30657:30663   */\n      dup4\n        /* \"#utility.yul\":30652:30655   */\n      dup6\n        /* \"#utility.yul\":30645:30650   */\n      dup5\n        /* \"#utility.yul\":30608:30664   */\n      tag_234\n      jump\t// in\n    tag_534:\n        /* \"#utility.yul\":30689:30718   */\n      tag_535\n        /* \"#utility.yul\":30711:30717   */\n      dup4\n        /* \"#utility.yul\":30689:30718   */\n      tag_184\n      jump\t// in\n    tag_535:\n        /* \"#utility.yul\":30684:30687   */\n      dup5\n        /* \"#utility.yul\":30680:30719   */\n      add\n        /* \"#utility.yul\":30673:30719   */\n      swap1\n      pop\n        /* \"#utility.yul\":30408:30725   */\n      swap4\n      swap3\n      pop\n      pop\n      pop\n      jump\t// out\n        /* \"#utility.yul\":30731:31506   */\n    tag_153:\n        /* \"#utility.yul\":30966:30970   */\n      0x00\n        /* \"#utility.yul\":31004:31007   */\n      0xa0\n        /* \"#utility.yul\":30993:31002   */\n      dup3\n        /* \"#utility.yul\":30989:31008   */\n      add\n        /* \"#utility.yul\":30981:31008   */\n      swap1\n      pop\n        /* \"#utility.yul\":31054:31063   */\n      dup2\n        /* \"#utility.yul\":31048:31052   */\n      dup2\n        /* \"#utility.yul\":31044:31064   */\n      sub\n        /* \"#utility.yul\":31040:31041   */\n      0x00\n        /* \"#utility.yul\":31029:31038   */\n      dup4\n        /* \"#utility.yul\":31025:31042   */\n      add\n        /* \"#utility.yul\":31018:31065   */\n      mstore\n        /* \"#utility.yul\":31082:31170   */\n      tag_537\n        /* \"#utility.yul\":31165:31169   */\n      dup2\n        /* \"#utility.yul\":31156:31162   */\n      dup9\n        /* \"#utility.yul\":31148:31154   */\n      dup11\n        /* \"#utility.yul\":31082:31170   */\n      tag_235\n      jump\t// in\n    tag_537:\n        /* \"#utility.yul\":31074:31170   */\n      swap1\n      pop\n        /* \"#utility.yul\":31180:31252   */\n      tag_538\n        /* \"#utility.yul\":31248:31250   */\n      0x20\n        /* \"#utility.yul\":31237:31246   */\n      dup4\n        /* \"#utility.yul\":31233:31251   */\n      add\n        /* \"#utility.yul\":31224:31230   */\n      dup8\n        /* \"#utility.yul\":31180:31252   */\n      tag_177\n      jump\t// in\n    tag_538:\n        /* \"#utility.yul\":31262:31334   */\n      tag_539\n        /* \"#utility.yul\":31330:31332   */\n      0x40\n        /* \"#utility.yul\":31319:31328   */\n      dup4\n        /* \"#utility.yul\":31315:31333   */\n      add\n        /* \"#utility.yul\":31306:31312   */\n      dup7\n        /* \"#utility.yul\":31262:31334   */\n      tag_177\n      jump\t// in\n    tag_539:\n        /* \"#utility.yul\":31344:31416   */\n      tag_540\n        /* \"#utility.yul\":31412:31414   */\n      0x60\n        /* \"#utility.yul\":31401:31410   */\n      dup4\n        /* \"#utility.yul\":31397:31415   */\n      add\n        /* \"#utility.yul\":31388:31394   */\n      dup6\n        /* \"#utility.yul\":31344:31416   */\n      tag_177\n      jump\t// in\n    tag_540:\n        /* \"#utility.yul\":31426:31499   */\n      tag_541\n        /* \"#utility.yul\":31494:31497   */\n      0x80\n        /* \"#utility.yul\":31483:31492   */\n      dup4\n        /* \"#utility.yul\":31479:31498   */\n      add\n        /* \"#utility.yul\":31470:31476   */\n      dup5\n        /* \"#utility.yul\":31426:31499   */\n      tag_177\n      jump\t// in\n    tag_541:\n        /* \"#utility.yul\":30731:31506   */\n      swap8\n      swap7\n      pop\n      pop\n      pop\n      pop\n      pop\n      pop\n      pop\n      jump\t// out\n\n    auxdata: 0xa26469706673582212207a1adca6affaacab0fb8d7e6a8ed3ae506382b68ef55633f78edbff640a061e064736f6c634300081e0033\n}\n",
				"bytecode": {
					"linkReferences": {},
					"object": "608060405234801561000f575f5ffd5b5060405161208a38038061208a83398181016040528101906100319190610231565b5f73ffffffffffffffffffffffffffffffffffffffff168273ffffffffffffffffffffffffffffffffffffffff160361009f576040517f08c379a0000000000000000000000000000000000000000000000000000000008152600401610096906102c9565b60405180910390fd5b5f73ffffffffffffffffffffffffffffffffffffffff168173ffffffffffffffffffffffffffffffffffffffff160361010d576040517f08c379a000000000000000000000000000000000000000000000000000000000815260040161010490610331565b60405180910390fd5b815f5f6101000a81548173ffffffffffffffffffffffffffffffffffffffff021916908373ffffffffffffffffffffffffffffffffffffffff1602179055508060015f6101000a81548173ffffffffffffffffffffffffffffffffffffffff021916908373ffffffffffffffffffffffffffffffffffffffff1602179055503360025f6101000a81548173ffffffffffffffffffffffffffffffffffffffff021916908373ffffffffffffffffffffffffffffffffffffffff160217905550505061034f565b5f5ffd5b5f73ffffffffffffffffffffffffffffffffffffffff82169050919050565b5f610200826101d7565b9050919050565b610210816101f6565b811461021a575f5ffd5b50565b5f8151905061022b81610207565b92915050565b5f5f60408385031215610247576102466101d3565b5b5f6102548582860161021d565b92505060206102658582860161021d565b9150509250929050565b5f82825260208201905092915050565b7f496e76616c6964206f7261636c650000000000000000000000000000000000005f82015250565b5f6102b3600e8361026f565b91506102be8261027f565b602082019050919050565b5f6020820190508181035f8301526102e0816102a7565b9050919050565b7f496e76616c6964205553445400000000000000000000000000000000000000005f82015250565b5f61031b600c8361026f565b9150610326826102e7565b602082019050919050565b5f6020820190508181035f8301526103488161030f565b9050919050565b611d2e8061035c5f395ff3fe608060405234801561000f575f5ffd5b5060043610610091575f3560e01c8063817f9bc411610064578063817f9bc41461013157806399fbab881461014d578063dc0cc93214610183578063f851a4401461019f578063fda1fa5f146101bd57610091565b80632a6bc2dd146100955780632f48ab7d146100c55780635e1b4d99146100e35780637dc0d1d014610113575b5f5ffd5b6100af60048036038101906100aa9190610dd0565b6101db565b6040516100bc9190610ebb565b60405180910390f35b6100cd61026e565b6040516100da9190610f36565b60405180910390f35b6100fd60048036038101906100f89190610f79565b610293565b60405161010a9190610fc6565b60405180910390f35b61011b6102be565b6040516101289190610fff565b60405180910390f35b61014b60048036038101906101469190611018565b6102e2565b005b61016760048036038101906101629190611018565b6107ce565b60405161017a97969594939291906110dc565b60405180910390f35b61019d600480360381019061019891906111b1565b6108cc565b005b6101a7610d3d565b6040516101b49190611235565b60405180910390f35b6101c5610d62565b6040516101d29190610fc6565b60405180910390f35b606060045f8373ffffffffffffffffffffffffffffffffffffffff1673ffffffffffffffffffffffffffffffffffffffff1681526020019081526020015f2080548060200260200160405190810160405280929190818152602001828054801561026257602002820191905f5260205f20905b81548152602001906001019080831161024e575b50505050509050919050565b60015f9054906101000a900473ffffffffffffffffffffffffffffffffffffffff1681565b6004602052815f5260405f2081815481106102ac575f80fd5b905f5260205f20015f91509150505481565b5f5f9054906101000a900473ffffffffffffffffffffffffffffffffffffffff1681565b6003805490508110610329576040517f08c379a000000000000000000000000000000000000000000000000000000000815260040161032090611298565b60405180910390fd5b5f6003828154811061033e5761033d6112b6565b5b905f5260205f2090600702019050805f015f9054906101000a900473ffffffffffffffffffffffffffffffffffffffff1673ffffffffffffffffffffffffffffffffffffffff163373ffffffffffffffffffffffffffffffffffffffff16146103dc576040517f08c379a00000000000000000000000000000000000000000000000000000000081526004016103d39061132d565b60405180910390fd5b806006015f9054906101000a900460ff161561042d576040517f08c379a000000000000000000000000000000000000000000000000000000000815260040161042490611395565b60405180910390fd5b8060040154421015610474576040517f08c379a000000000000000000000000000000000000000000000000000000000815260040161046b906113fd565b60405180910390fd5b5f5f5f9054906101000a900473ffffffffffffffffffffffffffffffffffffffff1673ffffffffffffffffffffffffffffffffffffffff1663524f3889836001016040518263ffffffff1660e01b81526004016104d1919061150b565b602060405180830381865afa1580156104ec573d5f5f3e3d5ffd5b505050506040513d601f19601f82011682018060405250810190610510919061153f565b90505f8111610554576040517f08c379a000000000000000000000000000000000000000000000000000000000815260040161054b906115b4565b60405180910390fd5b6001826006015f6101000a81548160ff0219169083151502179055505f826003015482101561058957826005015490506105af565b670de0b6b3a76400008284600201546105a291906115ff565b6105ac919061166d565b90505b5f60015f9054906101000a900473ffffffffffffffffffffffffffffffffffffffff1673ffffffffffffffffffffffffffffffffffffffff166370a08231306040518263ffffffff1660e01b815260040161060a9190611235565b602060405180830381865afa158015610625573d5f5f3e3d5ffd5b505050506040513d601f19601f82011682018060405250810190610649919061153f565b905080821115610657578091505b60015f9054906101000a900473ffffffffffffffffffffffffffffffffffffffff1673ffffffffffffffffffffffffffffffffffffffff1663a9059cbb855f015f9054906101000a900473ffffffffffffffffffffffffffffffffffffffff16846040518363ffffffff1660e01b81526004016106d592919061169d565b6020604051808303815f875af11580156106f1573d5f5f3e3d5ffd5b505050506040513d601f19601f8201168201806040525081019061071591906116ee565b610754576040517f08c379a000000000000000000000000000000000000000000000000000000000815260040161074b90611763565b60405180910390fd5b835f015f9054906101000a900473ffffffffffffffffffffffffffffffffffffffff1673ffffffffffffffffffffffffffffffffffffffff16857fde73936f9628ebab11b98ca57ce5d4f0d112e5ba3d04e6ed1941fd8792f6235685856040516107bf929190611781565b60405180910390a35050505050565b600381815481106107dd575f80fd5b905f5260205f2090600702015f91509050805f015f9054906101000a900473ffffffffffffffffffffffffffffffffffffffff169080600101805461082190611448565b80601f016020809104026020016040519081016040528092919081815260200182805461084d90611448565b80156108985780601f1061086f57610100808354040283529160200191610898565b820191905f5260205f20905b81548152906001019060200180831161087b57829003601f168201915b505050505090806002015490806003015490806004015490806005015490806006015f9054906101000a900460ff16905087565b5f831161090e576040517f08c379a0000000000000000000000000000000000000000000000000000000008152600401610905906117f2565b60405180910390fd5b5f8211610950576040517f08c379a00000000000000000000000000000000000000000000000000000000081526004016109479061185a565b60405180910390fd5b5f6001820361096f5762093a80426109689190611878565b9050610a07565b6002820361098d5762127500426109869190611878565b9050610a06565b600382036109ab5762278d00426109a49190611878565b9050610a05565b600482036109c957624f1a00426109c29190611878565b9050610a04565b6040517f08c379a00000000000000000000000000000000000000000000000000000000081526004016109fb906118f5565b60405180910390fd5b5b5b5b5f670de0b6b3a76400008486610a1d91906115ff565b610a27919061166d565b905060015f9054906101000a900473ffffffffffffffffffffffffffffffffffffffff1673ffffffffffffffffffffffffffffffffffffffff166323b872dd3330846040518463ffffffff1660e01b8152600401610a8793929190611913565b6020604051808303815f875af1158015610aa3573d5f5f3e3d5ffd5b505050506040513d601f19601f82011682018060405250810190610ac791906116ee565b610b06576040517f08c379a0000000000000000000000000000000000000000000000000000000008152600401610afd90611992565b60405180910390fd5b5f6040518060e001604052803373ffffffffffffffffffffffffffffffffffffffff16815260200189898080601f0160208091040260200160405190810160405280939291908181526020018383808284375f81840152601f19601f8201169050808301925050505050505081526020018781526020018681526020018481526020018381526020015f15158152509050600381908060018154018082558091505060019003905f5260205f2090600702015f909190919091505f820151815f015f6101000a81548173ffffffffffffffffffffffffffffffffffffffff021916908373ffffffffffffffffffffffffffffffffffffffff1602179055506020820151816001019081610c199190611b62565b5060408201518160020155606082015181600301556080820151816004015560a0820151816005015560c0820151816006015f6101000a81548160ff02191690831515021790555050505f6001600380549050610c769190611c31565b905060045f3373ffffffffffffffffffffffffffffffffffffffff1673ffffffffffffffffffffffffffffffffffffffff1681526020019081526020015f2081908060018154018082558091505060019003905f5260205f20015f90919091909150553373ffffffffffffffffffffffffffffffffffffffff16817f9b9ff235f689c05d623a91b8cffd825bfc3c7ef4eefc1884b892e65732d123fa8b8b8b8b8a8a604051610d2a96959493929190611c9e565b60405180910390a3505050505050505050565b60025f9054906101000a900473ffffffffffffffffffffffffffffffffffffffff1681565b5f600380549050905090565b5f5ffd5b5f5ffd5b5f73ffffffffffffffffffffffffffffffffffffffff82169050919050565b5f610d9f82610d76565b9050919050565b610daf81610d95565b8114610db9575f5ffd5b50565b5f81359050610dca81610da6565b92915050565b5f60208284031215610de557610de4610d6e565b5b5f610df284828501610dbc565b91505092915050565b5f81519050919050565b5f82825260208201905092915050565b5f819050602082019050919050565b5f819050919050565b610e3681610e24565b82525050565b5f610e478383610e2d565b60208301905092915050565b5f602082019050919050565b5f610e6982610dfb565b610e738185610e05565b9350610e7e83610e15565b805f5b83811015610eae578151610e958882610e3c565b9750610ea083610e53565b925050600181019050610e81565b5085935050505092915050565b5f6020820190508181035f830152610ed38184610e5f565b905092915050565b5f819050919050565b5f610efe610ef9610ef484610d76565b610edb565b610d76565b9050919050565b5f610f0f82610ee4565b9050919050565b5f610f2082610f05565b9050919050565b610f3081610f16565b82525050565b5f602082019050610f495f830184610f27565b92915050565b610f5881610e24565b8114610f62575f5ffd5b50565b5f81359050610f7381610f4f565b92915050565b5f5f60408385031215610f8f57610f8e610d6e565b5b5f610f9c85828601610dbc565b9250506020610fad85828601610f65565b9150509250929050565b610fc081610e24565b82525050565b5f602082019050610fd95f830184610fb7565b92915050565b5f610fe982610f05565b9050919050565b610ff981610fdf565b82525050565b5f6020820190506110125f830184610ff0565b92915050565b5f6020828403121561102d5761102c610d6e565b5b5f61103a84828501610f65565b91505092915050565b61104c81610d95565b82525050565b5f81519050919050565b5f82825260208201905092915050565b8281835e5f83830152505050565b5f601f19601f8301169050919050565b5f61109482611052565b61109e818561105c565b93506110ae81856020860161106c565b6110b78161107a565b840191505092915050565b5f8115159050919050565b6110d6816110c2565b82525050565b5f60e0820190506110ef5f83018a611043565b8181036020830152611101818961108a565b90506111106040830188610fb7565b61111d6060830187610fb7565b61112a6080830186610fb7565b61113760a0830185610fb7565b61114460c08301846110cd565b98975050505050505050565b5f5ffd5b5f5ffd5b5f5ffd5b5f5f83601f84011261117157611170611150565b5b8235905067ffffffffffffffff81111561118e5761118d611154565b5b6020830191508360018202830111156111aa576111a9611158565b5b9250929050565b5f5f5f5f5f608086880312156111ca576111c9610d6e565b5b5f86013567ffffffffffffffff8111156111e7576111e6610d72565b5b6111f38882890161115c565b9550955050602061120688828901610f65565b935050604061121788828901610f65565b925050606061122888828901610f65565b9150509295509295909350565b5f6020820190506112485f830184611043565b92915050565b7f496e76616c6964206865646765204944000000000000000000000000000000005f82015250565b5f61128260108361105c565b915061128d8261124e565b602082019050919050565b5f6020820190508181035f8301526112af81611276565b9050919050565b7f4e487b71000000000000000000000000000000000000000000000000000000005f52603260045260245ffd5b7f4e6f7420796f75722068656467650000000000000000000000000000000000005f82015250565b5f611317600e8361105c565b9150611322826112e3565b602082019050919050565b5f6020820190508181035f8301526113448161130b565b9050919050565b7f416c726561647920636c6f7365640000000000000000000000000000000000005f82015250565b5f61137f600e8361105c565b915061138a8261134b565b602082019050919050565b5f6020820190508181035f8301526113ac81611373565b9050919050565b7f4e6f7420657870697265642079657400000000000000000000000000000000005f82015250565b5f6113e7600f8361105c565b91506113f2826113b3565b602082019050919050565b5f6020820190508181035f830152611414816113db565b9050919050565b7f4e487b71000000000000000000000000000000000000000000000000000000005f52602260045260245ffd5b5f600282049050600182168061145f57607f821691505b6020821081036114725761147161141b565b5b50919050565b5f819050815f5260205f209050919050565b5f815461149681611448565b6114a0818661105c565b9450600182165f81146114ba57600181146114d057611502565b60ff198316865281151560200286019350611502565b6114d985611478565b5f5b838110156114fa578154818901526001820191506020810190506114db565b808801955050505b50505092915050565b5f6020820190508181035f830152611523818461148a565b905092915050565b5f8151905061153981610f4f565b92915050565b5f6020828403121561155457611553610d6e565b5b5f6115618482850161152b565b91505092915050565b7f496e76616c6964206f7261636c652070726963650000000000000000000000005f82015250565b5f61159e60148361105c565b91506115a98261156a565b602082019050919050565b5f6020820190508181035f8301526115cb81611592565b9050919050565b7f4e487b71000000000000000000000000000000000000000000000000000000005f52601160045260245ffd5b5f61160982610e24565b915061161483610e24565b925082820261162281610e24565b91508282048414831517611639576116386115d2565b5b5092915050565b7f4e487b71000000000000000000000000000000000000000000000000000000005f52601260045260245ffd5b5f61167782610e24565b915061168283610e24565b92508261169257611691611640565b5b828204905092915050565b5f6040820190506116b05f830185611043565b6116bd6020830184610fb7565b9392505050565b6116cd816110c2565b81146116d7575f5ffd5b50565b5f815190506116e8816116c4565b92915050565b5f6020828403121561170357611702610d6e565b5b5f611710848285016116da565b91505092915050565b7f5061796f7574206661696c6564000000000000000000000000000000000000005f82015250565b5f61174d600d8361105c565b915061175882611719565b602082019050919050565b5f6020820190508181035f83015261177a81611741565b9050919050565b5f6040820190506117945f830185610fb7565b6117a16020830184610fb7565b9392505050565b7f416d6f756e74206d757374206265203e203000000000000000000000000000005f82015250565b5f6117dc60128361105c565b91506117e7826117a8565b602082019050919050565b5f6020820190508181035f830152611809816117d0565b9050919050565b7f537472696b65207072696365206d757374206265203e203000000000000000005f82015250565b5f61184460188361105c565b915061184f82611810565b602082019050919050565b5f6020820190508181035f83015261187181611838565b9050919050565b5f61188282610e24565b915061188d83610e24565b92508282019050808211156118a5576118a46115d2565b5b92915050565b7f496e76616c696420657870697265206f7074696f6e00000000000000000000005f82015250565b5f6118df60158361105c565b91506118ea826118ab565b602082019050919050565b5f6020820190508181035f83015261190c816118d3565b9050919050565b5f6060820190506119265f830186611043565b6119336020830185611043565b6119406040830184610fb7565b949350505050565b7f55534454207472616e73666572206661696c65640000000000000000000000005f82015250565b5f61197c60148361105c565b915061198782611948565b602082019050919050565b5f6020820190508181035f8301526119a981611970565b9050919050565b7f4e487b71000000000000000000000000000000000000000000000000000000005f52604160045260245ffd5b5f6020601f8301049050919050565b5f82821b905092915050565b5f60088302611a277fffffffffffffffffffffffffffffffffffffffffffffffffffffffffffffffff826119ec565b611a3186836119ec565b95508019841693508086168417925050509392505050565b5f611a63611a5e611a5984610e24565b610edb565b610e24565b9050919050565b5f819050919050565b611a7c83611a49565b611a90611a8882611a6a565b8484546119f8565b825550505050565b5f5f905090565b611aa7611a98565b611ab2818484611a73565b505050565b5b81811015611ad557611aca5f82611a9f565b600181019050611ab8565b5050565b601f821115611b1a57611aeb81611478565b611af4846119dd565b81016020851015611b03578190505b611b17611b0f856119dd565b830182611ab7565b50505b505050565b5f82821c905092915050565b5f611b3a5f1984600802611b1f565b1980831691505092915050565b5f611b528383611b2b565b9150826002028217905092915050565b611b6b82611052565b67ffffffffffffffff811115611b8457611b836119b0565b5b611b8e8254611448565b611b99828285611ad9565b5f60209050601f831160018114611bca575f8415611bb8578287015190505b611bc28582611b47565b865550611c29565b601f198416611bd886611478565b5f5b82811015611bff57848901518255600182019150602085019450602081019050611bda565b86831015611c1c5784890151611c18601f891682611b2b565b8355505b6001600288020188555050505b505050505050565b5f611c3b82610e24565b9150611c4683610e24565b9250828203905081811115611c5e57611c5d6115d2565b5b92915050565b828183375f83830152505050565b5f611c7d838561105c565b9350611c8a838584611c64565b611c938361107a565b840190509392505050565b5f60a0820190508181035f830152611cb781888a611c72565b9050611cc66020830187610fb7565b611cd36040830186610fb7565b611ce06060830185610fb7565b611ced6080830184610fb7565b97965050505050505056fea26469706673582212207a1adca6affaacab0fb8d7e6a8ed3ae506382b68ef55633f78edbff640a061e064736f6c634300081e0033",
					"opcodes": "PUSH1 0x80 PUSH1 0x40 MSTORE CALLVALUE DUP1 ISZERO PUSH2 0xF JUMPI PUSH0 PUSH0 REVERT JUMPDEST POP PUSH1 0x40 MLOAD PUSH2 0x208A CODESIZE SUB DUP1 PUSH2 0x208A DUP4 CODECOPY DUP2 DUP2 ADD PUSH1 0x40 MSTORE DUP2 ADD SWAP1 PUSH2 0x31 SWAP2 SWAP1 PUSH2 0x231 JUMP JUMPDEST PUSH0 PUSH20 0xFFFFFFFFFFFFFFFFFFFFFFFFFFFFFFFFFFFFFFFF AND DUP3 PUSH20 0xFFFFFFFFFFFFFFFFFFFFFFFFFFFFFFFFFFFFFFFF AND SUB PUSH2 0x9F JUMPI PUSH1 0x40 MLOAD PUSH32 0x8C379A000000000000000000000000000000000000000000000000000000000 DUP2 MSTORE PUSH1 0x4 ADD PUSH2 0x96 SWAP1 PUSH2 0x2C9 JUMP JUMPDEST PUSH1 0x40 MLOAD DUP1 SWAP2 SUB SWAP1 REVERT JUMPDEST PUSH0 PUSH20 0xFFFFFFFFFFFFFFFFFFFFFFFFFFFFFFFFFFFFFFFF AND DUP2 PUSH20 0xFFFFFFFFFFFFFFFFFFFFFFFFFFFFFFFFFFFFFFFF AND SUB PUSH2 0x10D JUMPI PUSH1 0x40 MLOAD PUSH32 0x8C379A000000000000000000000000000000000000000000000000000000000 DUP2 MSTORE PUSH1 0x4 ADD PUSH2 0x104 SWAP1 PUSH2 0x331 JUMP JUMPDEST PUSH1 0x40 MLOAD DUP1 SWAP2 SUB SWAP1 REVERT JUMPDEST DUP2 PUSH0 PUSH0 PUSH2 0x100 EXP DUP2 SLOAD DUP2 PUSH20 0xFFFFFFFFFFFFFFFFFFFFFFFFFFFFFFFFFFFFFFFF MUL NOT AND SWAP1 DUP4 PUSH20 0xFFFFFFFFFFFFFFFFFFFFFFFFFFFFFFFFFFFFFFFF AND MUL OR SWAP1 SSTORE POP DUP1 PUSH1 0x1 PUSH0 PUSH2 0x100 EXP DUP2 SLOAD DUP2 PUSH20 0xFFFFFFFFFFFFFFFFFFFFFFFFFFFFFFFFFFFFFFFF MUL NOT AND SWAP1 DUP4 PUSH20 0xFFFFFFFFFFFFFFFFFFFFFFFFFFFFFFFFFFFFFFFF AND MUL OR SWAP1 SSTORE POP CALLER PUSH1 0x2 PUSH0 PUSH2 0x100 EXP DUP2 SLOAD DUP2 PUSH20 0xFFFFFFFFFFFFFFFFFFFFFFFFFFFFFFFFFFFFFFFF MUL NOT AND SWAP1 DUP4 PUSH20 0xFFFFFFFFFFFFFFFFFFFFFFFFFFFFFFFFFFFFFFFF AND MUL OR SWAP1 SSTORE POP POP POP PUSH2 0x34F JUMP JUMPDEST PUSH0 PUSH0 REVERT JUMPDEST PUSH0 PUSH20 0xFFFFFFFFFFFFFFFFFFFFFFFFFFFFFFFFFFFFFFFF DUP3 AND SWAP1 POP SWAP2 SWAP1 POP JUMP JUMPDEST PUSH0 PUSH2 0x200 DUP3 PUSH2 0x1D7 JUMP JUMPDEST SWAP1 POP SWAP2 SWAP1 POP JUMP JUMPDEST PUSH2 0x210 DUP2 PUSH2 0x1F6 JUMP JUMPDEST DUP2 EQ PUSH2 0x21A JUMPI PUSH0 PUSH0 REVERT JUMPDEST POP JUMP JUMPDEST PUSH0 DUP2 MLOAD SWAP1 POP PUSH2 0x22B DUP2 PUSH2 0x207 JUMP JUMPDEST SWAP3 SWAP2 POP POP JUMP JUMPDEST PUSH0 PUSH0 PUSH1 0x40 DUP4 DUP6 SUB SLT ISZERO PUSH2 0x247 JUMPI PUSH2 0x246 PUSH2 0x1D3 JUMP JUMPDEST JUMPDEST PUSH0 PUSH2 0x254 DUP6 DUP3 DUP7 ADD PUSH2 0x21D JUMP JUMPDEST SWAP3 POP POP PUSH1 0x20 PUSH2 0x265 DUP6 DUP3 DUP7 ADD PUSH2 0x21D JUMP JUMPDEST SWAP2 POP POP SWAP3 POP SWAP3 SWAP1 POP JUMP JUMPDEST PUSH0 DUP3 DUP3 MSTORE PUSH1 0x20 DUP3 ADD SWAP1 POP SWAP3 SWAP2 POP POP JUMP JUMPDEST PUSH32 0x496E76616C6964206F7261636C65000000000000000000000000000000000000 PUSH0 DUP3 ADD MSTORE POP JUMP JUMPDEST PUSH0 PUSH2 0x2B3 PUSH1 0xE DUP4 PUSH2 0x26F JUMP JUMPDEST SWAP2 POP PUSH2 0x2BE DUP3 PUSH2 0x27F JUMP JUMPDEST PUSH1 0x20 DUP3 ADD SWAP1 POP SWAP2 SWAP1 POP JUMP JUMPDEST PUSH0 PUSH1 0x20 DUP3 ADD SWAP1 POP DUP2 DUP2 SUB PUSH0 DUP4 ADD MSTORE PUSH2 0x2E0 DUP2 PUSH2 0x2A7 JUMP JUMPDEST SWAP1 POP SWAP2 SWAP1 POP JUMP JUMPDEST PUSH32 0x496E76616C696420555344540000000000000000000000000000000000000000 PUSH0 DUP3 ADD MSTORE POP JUMP JUMPDEST PUSH0 PUSH2 0x31B PUSH1 0xC DUP4 PUSH2 0x26F JUMP JUMPDEST SWAP2 POP PUSH2 0x326 DUP3 PUSH2 0x2E7 JUMP JUMPDEST PUSH1 0x20 DUP3 ADD SWAP1 POP SWAP2 SWAP1 POP JUMP JUMPDEST PUSH0 PUSH1 0x20 DUP3 ADD SWAP1 POP DUP2 DUP2 SUB PUSH0 DUP4 ADD MSTORE PUSH2 0x348 DUP2 PUSH2 0x30F JUMP JUMPDEST SWAP1 POP SWAP2 SWAP1 POP JUMP JUMPDEST PUSH2 0x1D2E DUP1 PUSH2 0x35C PUSH0 CODECOPY PUSH0 RETURN INVALID PUSH1 0x80 PUSH1 0x40 MSTORE CALLVALUE DUP1 ISZERO PUSH2 0xF JUMPI PUSH0 PUSH0 REVERT JUMPDEST POP PUSH1 0x4 CALLDATASIZE LT PUSH2 0x91 JUMPI PUSH0 CALLDATALOAD PUSH1 0xE0 SHR DUP1 PUSH4 0x817F9BC4 GT PUSH2 0x64 JUMPI DUP1 PUSH4 0x817F9BC4 EQ PUSH2 0x131 JUMPI DUP1 PUSH4 0x99FBAB88 EQ PUSH2 0x14D JUMPI DUP1 PUSH4 0xDC0CC932 EQ PUSH2 0x183 JUMPI DUP1 PUSH4 0xF851A440 EQ PUSH2 0x19F JUMPI DUP1 PUSH4 0xFDA1FA5F EQ PUSH2 0x1BD JUMPI PUSH2 0x91 JUMP JUMPDEST DUP1 PUSH4 0x2A6BC2DD EQ PUSH2 0x95 JUMPI DUP1 PUSH4 0x2F48AB7D EQ PUSH2 0xC5 JUMPI DUP1 PUSH4 0x5E1B4D99 EQ PUSH2 0xE3 JUMPI DUP1 PUSH4 0x7DC0D1D0 EQ PUSH2 0x113 JUMPI JUMPDEST PUSH0 PUSH0 REVERT JUMPDEST PUSH2 0xAF PUSH1 0x4 DUP1 CALLDATASIZE SUB DUP2 ADD SWAP1 PUSH2 0xAA SWAP2 SWAP1 PUSH2 0xDD0 JUMP JUMPDEST PUSH2 0x1DB JUMP JUMPDEST PUSH1 0x40 MLOAD PUSH2 0xBC SWAP2 SWAP1 PUSH2 0xEBB JUMP JUMPDEST PUSH1 0x40 MLOAD DUP1 SWAP2 SUB SWAP1 RETURN JUMPDEST PUSH2 0xCD PUSH2 0x26E JUMP JUMPDEST PUSH1 0x40 MLOAD PUSH2 0xDA SWAP2 SWAP1 PUSH2 0xF36 JUMP JUMPDEST PUSH1 0x40 MLOAD DUP1 SWAP2 SUB SWAP1 RETURN JUMPDEST PUSH2 0xFD PUSH1 0x4 DUP1 CALLDATASIZE SUB DUP2 ADD SWAP1 PUSH2 0xF8 SWAP2 SWAP1 PUSH2 0xF79 JUMP JUMPDEST PUSH2 0x293 JUMP JUMPDEST PUSH1 0x40 MLOAD PUSH2 0x10A SWAP2 SWAP1 PUSH2 0xFC6 JUMP JUMPDEST PUSH1 0x40 MLOAD DUP1 SWAP2 SUB SWAP1 RETURN JUMPDEST PUSH2 0x11B PUSH2 0x2BE JUMP JUMPDEST PUSH1 0x40 MLOAD PUSH2 0x128 SWAP2 SWAP1 PUSH2 0xFFF JUMP JUMPDEST PUSH1 0x40 MLOAD DUP1 SWAP2 SUB SWAP1 RETURN JUMPDEST PUSH2 0x14B PUSH1 0x4 DUP1 CALLDATASIZE SUB DUP2 ADD SWAP1 PUSH2 0x146 SWAP2 SWAP1 PUSH2 0x1018 JUMP JUMPDEST PUSH2 0x2E2 JUMP JUMPDEST STOP JUMPDEST PUSH2 0x167 PUSH1 0x4 DUP1 CALLDATASIZE SUB DUP2 ADD SWAP1 PUSH2 0x162 SWAP2 SWAP1 PUSH2 0x1018 JUMP JUMPDEST PUSH2 0x7CE JUMP JUMPDEST PUSH1 0x40 MLOAD PUSH2 0x17A SWAP8 SWAP7 SWAP6 SWAP5 SWAP4 SWAP3 SWAP2 SWAP1 PUSH2 0x10DC JUMP JUMPDEST PUSH1 0x40 MLOAD DUP1 SWAP2 SUB SWAP1 RETURN JUMPDEST PUSH2 0x19D PUSH1 0x4 DUP1 CALLDATASIZE SUB DUP2 ADD SWAP1 PUSH2 0x198 SWAP2 SWAP1 PUSH2 0x11B1 JUMP JUMPDEST PUSH2 0x8CC JUMP JUMPDEST STOP JUMPDEST PUSH2 0x1A7 PUSH2 0xD3D JUMP JUMPDEST PUSH1 0x40 MLOAD PUSH2 0x1B4 SWAP2 SWAP1 PUSH2 0x1235 JUMP JUMPDEST PUSH1 0x40 MLOAD DUP1 SWAP2 SUB SWAP1 RETURN JUMPDEST PUSH2 0x1C5 PUSH2 0xD62 JUMP JUMPDEST PUSH1 0x40 MLOAD PUSH2 0x1D2 SWAP2 SWAP1 PUSH2 0xFC6 JUMP JUMPDEST PUSH1 0x40 MLOAD DUP1 SWAP2 SUB SWAP1 RETURN JUMPDEST PUSH1 0x60 PUSH1 0x4 PUSH0 DUP4 PUSH20 0xFFFFFFFFFFFFFFFFFFFFFFFFFFFFFFFFFFFFFFFF AND PUSH20 0xFFFFFFFFFFFFFFFFFFFFFFFFFFFFFFFFFFFFFFFF AND DUP2 MSTORE PUSH1 0x20 ADD SWAP1 DUP2 MSTORE PUSH1 0x20 ADD PUSH0 KECCAK256 DUP1 SLOAD DUP1 PUSH1 0x20 MUL PUSH1 0x20 ADD PUSH1 0x40 MLOAD SWAP1 DUP2 ADD PUSH1 0x40 MSTORE DUP1 SWAP3 SWAP2 SWAP1 DUP2 DUP2 MSTORE PUSH1 0x20 ADD DUP3 DUP1 SLOAD DUP1 ISZERO PUSH2 0x262 JUMPI PUSH1 0x20 MUL DUP3 ADD SWAP2 SWAP1 PUSH0 MSTORE PUSH1 0x20 PUSH0 KECCAK256 SWAP1 JUMPDEST DUP2 SLOAD DUP2 MSTORE PUSH1 0x20 ADD SWAP1 PUSH1 0x1 ADD SWAP1 DUP1 DUP4 GT PUSH2 0x24E JUMPI JUMPDEST POP POP POP POP POP SWAP1 POP SWAP2 SWAP1 POP JUMP JUMPDEST PUSH1 0x1 PUSH0 SWAP1 SLOAD SWAP1 PUSH2 0x100 EXP SWAP1 DIV PUSH20 0xFFFFFFFFFFFFFFFFFFFFFFFFFFFFFFFFFFFFFFFF AND DUP2 JUMP JUMPDEST PUSH1 0x4 PUSH1 0x20 MSTORE DUP2 PUSH0 MSTORE PUSH1 0x40 PUSH0 KECCAK256 DUP2 DUP2 SLOAD DUP2 LT PUSH2 0x2AC JUMPI PUSH0 DUP1 REVERT JUMPDEST SWAP1 PUSH0 MSTORE PUSH1 0x20 PUSH0 KECCAK256 ADD PUSH0 SWAP2 POP SWAP2 POP POP SLOAD DUP2 JUMP JUMPDEST PUSH0 PUSH0 SWAP1 SLOAD SWAP1 PUSH2 0x100 EXP SWAP1 DIV PUSH20 0xFFFFFFFFFFFFFFFFFFFFFFFFFFFFFFFFFFFFFFFF AND DUP2 JUMP JUMPDEST PUSH1 0x3 DUP1 SLOAD SWAP1 POP DUP2 LT PUSH2 0x329 JUMPI PUSH1 0x40 MLOAD PUSH32 0x8C379A000000000000000000000000000000000000000000000000000000000 DUP2 MSTORE PUSH1 0x4 ADD PUSH2 0x320 SWAP1 PUSH2 0x1298 JUMP JUMPDEST PUSH1 0x40 MLOAD DUP1 SWAP2 SUB SWAP1 REVERT JUMPDEST PUSH0 PUSH1 0x3 DUP3 DUP2 SLOAD DUP2 LT PUSH2 0x33E JUMPI PUSH2 0x33D PUSH2 0x12B6 JUMP JUMPDEST JUMPDEST SWAP1 PUSH0 MSTORE PUSH1 0x20 PUSH0 KECCAK256 SWAP1 PUSH1 0x7 MUL ADD SWAP1 POP DUP1 PUSH0 ADD PUSH0 SWAP1 SLOAD SWAP1 PUSH2 0x100 EXP SWAP1 DIV PUSH20 0xFFFFFFFFFFFFFFFFFFFFFFFFFFFFFFFFFFFFFFFF AND PUSH20 0xFFFFFFFFFFFFFFFFFFFFFFFFFFFFFFFFFFFFFFFF AND CALLER PUSH20 0xFFFFFFFFFFFFFFFFFFFFFFFFFFFFFFFFFFFFFFFF AND EQ PUSH2 0x3DC JUMPI PUSH1 0x40 MLOAD PUSH32 0x8C379A000000000000000000000000000000000000000000000000000000000 DUP2 MSTORE PUSH1 0x4 ADD PUSH2 0x3D3 SWAP1 PUSH2 0x132D JUMP JUMPDEST PUSH1 0x40 MLOAD DUP1 SWAP2 SUB SWAP1 REVERT JUMPDEST DUP1 PUSH1 0x6 ADD PUSH0 SWAP1 SLOAD SWAP1 PUSH2 0x100 EXP SWAP1 DIV PUSH1 0xFF AND ISZERO PUSH2 0x42D JUMPI PUSH1 0x40 MLOAD PUSH32 0x8C379A000000000000000000000000000000000000000000000000000000000 DUP2 MSTORE PUSH1 0x4 ADD PUSH2 0x424 SWAP1 PUSH2 0x1395 JUMP JUMPDEST PUSH1 0x40 MLOAD DUP1 SWAP2 SUB SWAP1 REVERT JUMPDEST DUP1 PUSH1 0x4 ADD SLOAD TIMESTAMP LT ISZERO PUSH2 0x474 JUMPI PUSH1 0x40 MLOAD PUSH32 0x8C379A000000000000000000000000000000000000000000000000000000000 DUP2 MSTORE PUSH1 0x4 ADD PUSH2 0x46B SWAP1 PUSH2 0x13FD JUMP JUMPDEST PUSH1 0x40 MLOAD DUP1 SWAP2 SUB SWAP1 REVERT JUMPDEST PUSH0 PUSH0 PUSH0 SWAP1 SLOAD SWAP1 PUSH2 0x100 EXP SWAP1 DIV PUSH20 0xFFFFFFFFFFFFFFFFFFFFFFFFFFFFFFFFFFFFFFFF AND PUSH20 0xFFFFFFFFFFFFFFFFFFFFFFFFFFFFFFFFFFFFFFFF AND PUSH4 0x524F3889 DUP4 PUSH1 0x1 ADD PUSH1 0x40 MLOAD DUP3 PUSH4 0xFFFFFFFF AND PUSH1 0xE0 SHL DUP2 MSTORE PUSH1 0x4 ADD PUSH2 0x4D1 SWAP2 SWAP1 PUSH2 0x150B JUMP JUMPDEST PUSH1 0x20 PUSH1 0x40 MLOAD DUP1 DUP4 SUB DUP2 DUP7 GAS STATICCALL ISZERO DUP1 ISZERO PUSH2 0x4EC JUMPI RETURNDATASIZE PUSH0 PUSH0 RETURNDATACOPY RETURNDATASIZE PUSH0 REVERT JUMPDEST POP POP POP POP PUSH1 0x40 MLOAD RETURNDATASIZE PUSH1 0x1F NOT PUSH1 0x1F DUP3 ADD AND DUP3 ADD DUP1 PUSH1 0x40 MSTORE POP DUP2 ADD SWAP1 PUSH2 0x510 SWAP2 SWAP1 PUSH2 0x153F JUMP JUMPDEST SWAP1 POP PUSH0 DUP2 GT PUSH2 0x554 JUMPI PUSH1 0x40 MLOAD PUSH32 0x8C379A000000000000000000000000000000000000000000000000000000000 DUP2 MSTORE PUSH1 0x4 ADD PUSH2 0x54B SWAP1 PUSH2 0x15B4 JUMP JUMPDEST PUSH1 0x40 MLOAD DUP1 SWAP2 SUB SWAP1 REVERT JUMPDEST PUSH1 0x1 DUP3 PUSH1 0x6 ADD PUSH0 PUSH2 0x100 EXP DUP2 SLOAD DUP2 PUSH1 0xFF MUL NOT AND SWAP1 DUP4 ISZERO ISZERO MUL OR SWAP1 SSTORE POP PUSH0 DUP3 PUSH1 0x3 ADD SLOAD DUP3 LT ISZERO PUSH2 0x589 JUMPI DUP3 PUSH1 0x5 ADD SLOAD SWAP1 POP PUSH2 0x5AF JUMP JUMPDEST PUSH8 0xDE0B6B3A7640000 DUP3 DUP5 PUSH1 0x2 ADD SLOAD PUSH2 0x5A2 SWAP2 SWAP1 PUSH2 0x15FF JUMP JUMPDEST PUSH2 0x5AC SWAP2 SWAP1 PUSH2 0x166D JUMP JUMPDEST SWAP1 POP JUMPDEST PUSH0 PUSH1 0x1 PUSH0 SWAP1 SLOAD SWAP1 PUSH2 0x100 EXP SWAP1 DIV PUSH20 0xFFFFFFFFFFFFFFFFFFFFFFFFFFFFFFFFFFFFFFFF AND PUSH20 0xFFFFFFFFFFFFFFFFFFFFFFFFFFFFFFFFFFFFFFFF AND PUSH4 0x70A08231 ADDRESS PUSH1 0x40 MLOAD DUP3 PUSH4 0xFFFFFFFF AND PUSH1 0xE0 SHL DUP2 MSTORE PUSH1 0x4 ADD PUSH2 0x60A SWAP2 SWAP1 PUSH2 0x1235 JUMP JUMPDEST PUSH1 0x20 PUSH1 0x40 MLOAD DUP1 DUP4 SUB DUP2 DUP7 GAS STATICCALL ISZERO DUP1 ISZERO PUSH2 0x625 JUMPI RETURNDATASIZE PUSH0 PUSH0 RETURNDATACOPY RETURNDATASIZE PUSH0 REVERT JUMPDEST POP POP POP POP PUSH1 0x40 MLOAD RETURNDATASIZE PUSH1 0x1F NOT PUSH1 0x1F DUP3 ADD AND DUP3 ADD DUP1 PUSH1 0x40 MSTORE POP DUP2 ADD SWAP1 PUSH2 0x649 SWAP2 SWAP1 PUSH2 0x153F JUMP JUMPDEST SWAP1 POP DUP1 DUP3 GT ISZERO PUSH2 0x657 JUMPI DUP1 SWAP2 POP JUMPDEST PUSH1 0x1 PUSH0 SWAP1 SLOAD SWAP1 PUSH2 0x100 EXP SWAP1 DIV PUSH20 0xFFFFFFFFFFFFFFFFFFFFFFFFFFFFFFFFFFFFFFFF AND PUSH20 0xFFFFFFFFFFFFFFFFFFFFFFFFFFFFFFFFFFFFFFFF AND PUSH4 0xA9059CBB DUP6 PUSH0 ADD PUSH0 SWAP1 SLOAD SWAP1 PUSH2 0x100 EXP SWAP1 DIV PUSH20 0xFFFFFFFFFFFFFFFFFFFFFFFFFFFFFFFFFFFFFFFF AND DUP5 PUSH1 0x40 MLOAD DUP4 PUSH4 0xFFFFFFFF AND PUSH1 0xE0 SHL DUP2 MSTORE PUSH1 0x4 ADD PUSH2 0x6D5 SWAP3 SWAP2 SWAP1 PUSH2 0x169D JUMP JUMPDEST PUSH1 0x20 PUSH1 0x40 MLOAD DUP1 DUP4 SUB DUP2 PUSH0 DUP8 GAS CALL ISZERO DUP1 ISZERO PUSH2 0x6F1 JUMPI RETURNDATASIZE PUSH0 PUSH0 RETURNDATACOPY RETURNDATASIZE PUSH0 REVERT JUMPDEST POP POP POP POP PUSH1 0x40 MLOAD RETURNDATASIZE PUSH1 0x1F NOT PUSH1 0x1F DUP3 ADD AND DUP3 ADD DUP1 PUSH1 0x40 MSTORE POP DUP2 ADD SWAP1 PUSH2 0x715 SWAP2 SWAP1 PUSH2 0x16EE JUMP JUMPDEST PUSH2 0x754 JUMPI PUSH1 0x40 MLOAD PUSH32 0x8C379A000000000000000000000000000000000000000000000000000000000 DUP2 MSTORE PUSH1 0x4 ADD PUSH2 0x74B SWAP1 PUSH2 0x1763 JUMP JUMPDEST PUSH1 0x40 MLOAD DUP1 SWAP2 SUB SWAP1 REVERT JUMPDEST DUP4 PUSH0 ADD PUSH0 SWAP1 SLOAD SWAP1 PUSH2 0x100 EXP SWAP1 DIV PUSH20 0xFFFFFFFFFFFFFFFFFFFFFFFFFFFFFFFFFFFFFFFF AND PUSH20 0xFFFFFFFFFFFFFFFFFFFFFFFFFFFFFFFFFFFFFFFF AND DUP6 PUSH32 0xDE73936F9628EBAB11B98CA57CE5D4F0D112E5BA3D04E6ED1941FD8792F62356 DUP6 DUP6 PUSH1 0x40 MLOAD PUSH2 0x7BF SWAP3 SWAP2 SWAP1 PUSH2 0x1781 JUMP JUMPDEST PUSH1 0x40 MLOAD DUP1 SWAP2 SUB SWAP1 LOG3 POP POP POP POP POP JUMP JUMPDEST PUSH1 0x3 DUP2 DUP2 SLOAD DUP2 LT PUSH2 0x7DD JUMPI PUSH0 DUP1 REVERT JUMPDEST SWAP1 PUSH0 MSTORE PUSH1 0x20 PUSH0 KECCAK256 SWAP1 PUSH1 0x7 MUL ADD PUSH0 SWAP2 POP SWAP1 POP DUP1 PUSH0 ADD PUSH0 SWAP1 SLOAD SWAP1 PUSH2 0x100 EXP SWAP1 DIV PUSH20 0xFFFFFFFFFFFFFFFFFFFFFFFFFFFFFFFFFFFFFFFF AND SWAP1 DUP1 PUSH1 0x1 ADD DUP1 SLOAD PUSH2 0x821 SWAP1 PUSH2 0x1448 JUMP JUMPDEST DUP1 PUSH1 0x1F ADD PUSH1 0x20 DUP1 SWAP2 DIV MUL PUSH1 0x20 ADD PUSH1 0x40 MLOAD SWAP1 DUP2 ADD PUSH1 0x40 MSTORE DUP1 SWAP3 SWAP2 SWAP1 DUP2 DUP2 MSTORE PUSH1 0x20 ADD DUP3 DUP1 SLOAD PUSH2 0x84D SWAP1 PUSH2 0x1448 JUMP JUMPDEST DUP1 ISZERO PUSH2 0x898 JUMPI DUP1 PUSH1 0x1F LT PUSH2 0x86F JUMPI PUSH2 0x100 DUP1 DUP4 SLOAD DIV MUL DUP4 MSTORE SWAP2 PUSH1 0x20 ADD SWAP2 PUSH2 0x898 JUMP JUMPDEST DUP3 ADD SWAP2 SWAP1 PUSH0 MSTORE PUSH1 0x20 PUSH0 KECCAK256 SWAP1 JUMPDEST DUP2 SLOAD DUP2 MSTORE SWAP1 PUSH1 0x1 ADD SWAP1 PUSH1 0x20 ADD DUP1 DUP4 GT PUSH2 0x87B JUMPI DUP3 SWAP1 SUB PUSH1 0x1F AND DUP3 ADD SWAP2 JUMPDEST POP POP POP POP POP SWAP1 DUP1 PUSH1 0x2 ADD SLOAD SWAP1 DUP1 PUSH1 0x3 ADD SLOAD SWAP1 DUP1 PUSH1 0x4 ADD SLOAD SWAP1 DUP1 PUSH1 0x5 ADD SLOAD SWAP1 DUP1 PUSH1 0x6 ADD PUSH0 SWAP1 SLOAD SWAP1 PUSH2 0x100 EXP SWAP1 DIV PUSH1 0xFF AND SWAP1 POP DUP8 JUMP JUMPDEST PUSH0 DUP4 GT PUSH2 0x90E JUMPI PUSH1 0x40 MLOAD PUSH32 0x8C379A000000000000000000000000000000000000000000000000000000000 DUP2 MSTORE PUSH1 0x4 ADD PUSH2 0x905 SWAP1 PUSH2 0x17F2 JUMP JUMPDEST PUSH1 0x40 MLOAD DUP1 SWAP2 SUB SWAP1 REVERT JUMPDEST PUSH0 DUP3 GT PUSH2 0x950 JUMPI PUSH1 0x40 MLOAD PUSH32 0x8C379A000000000000000000000000000000000000000000000000000000000 DUP2 MSTORE PUSH1 0x4 ADD PUSH2 0x947 SWAP1 PUSH2 0x185A JUMP JUMPDEST PUSH1 0x40 MLOAD DUP1 SWAP2 SUB SWAP1 REVERT JUMPDEST PUSH0 PUSH1 0x1 DUP3 SUB PUSH2 0x96F JUMPI PUSH3 0x93A80 TIMESTAMP PUSH2 0x968 SWAP2 SWAP1 PUSH2 0x1878 JUMP JUMPDEST SWAP1 POP PUSH2 0xA07 JUMP JUMPDEST PUSH1 0x2 DUP3 SUB PUSH2 0x98D JUMPI PUSH3 0x127500 TIMESTAMP PUSH2 0x986 SWAP2 SWAP1 PUSH2 0x1878 JUMP JUMPDEST SWAP1 POP PUSH2 0xA06 JUMP JUMPDEST PUSH1 0x3 DUP3 SUB PUSH2 0x9AB JUMPI PUSH3 0x278D00 TIMESTAMP PUSH2 0x9A4 SWAP2 SWAP1 PUSH2 0x1878 JUMP JUMPDEST SWAP1 POP PUSH2 0xA05 JUMP JUMPDEST PUSH1 0x4 DUP3 SUB PUSH2 0x9C9 JUMPI PUSH3 0x4F1A00 TIMESTAMP PUSH2 0x9C2 SWAP2 SWAP1 PUSH2 0x1878 JUMP JUMPDEST SWAP1 POP PUSH2 0xA04 JUMP JUMPDEST PUSH1 0x40 MLOAD PUSH32 0x8C379A000000000000000000000000000000000000000000000000000000000 DUP2 MSTORE PUSH1 0x4 ADD PUSH2 0x9FB SWAP1 PUSH2 0x18F5 JUMP JUMPDEST PUSH1 0x40 MLOAD DUP1 SWAP2 SUB SWAP1 REVERT JUMPDEST JUMPDEST JUMPDEST JUMPDEST PUSH0 PUSH8 0xDE0B6B3A7640000 DUP5 DUP7 PUSH2 0xA1D SWAP2 SWAP1 PUSH2 0x15FF JUMP JUMPDEST PUSH2 0xA27 SWAP2 SWAP1 PUSH2 0x166D JUMP JUMPDEST SWAP1 POP PUSH1 0x1 PUSH0 SWAP1 SLOAD SWAP1 PUSH2 0x100 EXP SWAP1 DIV PUSH20 0xFFFFFFFFFFFFFFFFFFFFFFFFFFFFFFFFFFFFFFFF AND PUSH20 0xFFFFFFFFFFFFFFFFFFFFFFFFFFFFFFFFFFFFFFFF AND PUSH4 0x23B872DD CALLER ADDRESS DUP5 PUSH1 0x40 MLOAD DUP5 PUSH4 0xFFFFFFFF AND PUSH1 0xE0 SHL DUP2 MSTORE PUSH1 0x4 ADD PUSH2 0xA87 SWAP4 SWAP3 SWAP2 SWAP1 PUSH2 0x1913 JUMP JUMPDEST PUSH1 0x20 PUSH1 0x40 MLOAD DUP1 DUP4 SUB DUP2 PUSH0 DUP8 GAS CALL ISZERO DUP1 ISZERO PUSH2 0xAA3 JUMPI RETURNDATASIZE PUSH0 PUSH0 RETURNDATACOPY RETURNDATASIZE PUSH0 REVERT JUMPDEST POP POP POP POP PUSH1 0x40 MLOAD RETURNDATASIZE PUSH1 0x1F NOT PUSH1 0x1F DUP3 ADD AND DUP3 ADD DUP1 PUSH1 0x40 MSTORE POP DUP2 ADD SWAP1 PUSH2 0xAC7 SWAP2 SWAP1 PUSH2 0x16EE JUMP JUMPDEST PUSH2 0xB06 JUMPI PUSH1 0x40 MLOAD PUSH32 0x8C379A000000000000000000000000000000000000000000000000000000000 DUP2 MSTORE PUSH1 0x4 ADD PUSH2 0xAFD SWAP1 PUSH2 0x1992 JUMP JUMPDEST PUSH1 0x40 MLOAD DUP1 SWAP2 SUB SWAP1 REVERT JUMPDEST PUSH0 PUSH1 0x40 MLOAD DUP1 PUSH1 0xE0 ADD PUSH1 0x40 MSTORE DUP1 CALLER PUSH20 0xFFFFFFFFFFFFFFFFFFFFFFFFFFFFFFFFFFFFFFFF AND DUP2 MSTORE PUSH1 0x20 ADD DUP10 DUP10 DUP1 DUP1 PUSH1 0x1F ADD PUSH1 0x20 DUP1 SWAP2 DIV MUL PUSH1 0x20 ADD PUSH1 0x40 MLOAD SWAP1 DUP2 ADD PUSH1 0x40 MSTORE DUP1 SWAP4 SWAP3 SWAP2 SWAP1 DUP2 DUP2 MSTORE PUSH1 0x20 ADD DUP4 DUP4 DUP1 DUP3 DUP5 CALLDATACOPY PUSH0 DUP2 DUP5 ADD MSTORE PUSH1 0x1F NOT PUSH1 0x1F DUP3 ADD AND SWAP1 POP DUP1 DUP4 ADD SWAP3 POP POP POP POP POP POP POP DUP2 MSTORE PUSH1 0x20 ADD DUP8 DUP2 MSTORE PUSH1 0x20 ADD DUP7 DUP2 MSTORE PUSH1 0x20 ADD DUP5 DUP2 MSTORE PUSH1 0x20 ADD DUP4 DUP2 MSTORE PUSH1 0x20 ADD PUSH0 ISZERO ISZERO DUP2 MSTORE POP SWAP1 POP PUSH1 0x3 DUP2 SWAP1 DUP1 PUSH1 0x1 DUP2 SLOAD ADD DUP1 DUP3 SSTORE DUP1 SWAP2 POP POP PUSH1 0x1 SWAP1 SUB SWAP1 PUSH0 MSTORE PUSH1 0x20 PUSH0 KECCAK256 SWAP1 PUSH1 0x7 MUL ADD PUSH0 SWAP1 SWAP2 SWAP1 SWAP2 SWAP1 SWAP2 POP PUSH0 DUP3 ADD MLOAD DUP2 PUSH0 ADD PUSH0 PUSH2 0x100 EXP DUP2 SLOAD DUP2 PUSH20 0xFFFFFFFFFFFFFFFFFFFFFFFFFFFFFFFFFFFFFFFF MUL NOT AND SWAP1 DUP4 PUSH20 0xFFFFFFFFFFFFFFFFFFFFFFFFFFFFFFFFFFFFFFFF AND MUL OR SWAP1 SSTORE POP PUSH1 0x20 DUP3 ADD MLOAD DUP2 PUSH1 0x1 ADD SWAP1 DUP2 PUSH2 0xC19 SWAP2 SWAP1 PUSH2 0x1B62 JUMP JUMPDEST POP PUSH1 0x40 DUP3 ADD MLOAD DUP2 PUSH1 0x2 ADD SSTORE PUSH1 0x60 DUP3 ADD MLOAD DUP2 PUSH1 0x3 ADD SSTORE PUSH1 0x80 DUP3 ADD MLOAD DUP2 PUSH1 0x4 ADD SSTORE PUSH1 0xA0 DUP3 ADD MLOAD DUP2 PUSH1 0x5 ADD SSTORE PUSH1 0xC0 DUP3 ADD MLOAD DUP2 PUSH1 0x6 ADD PUSH0 PUSH2 0x100 EXP DUP2 SLOAD DUP2 PUSH1 0xFF MUL NOT AND SWAP1 DUP4 ISZERO ISZERO MUL OR SWAP1 SSTORE POP POP POP PUSH0 PUSH1 0x1 PUSH1 0x3 DUP1 SLOAD SWAP1 POP PUSH2 0xC76 SWAP2 SWAP1 PUSH2 0x1C31 JUMP JUMPDEST SWAP1 POP PUSH1 0x4 PUSH0 CALLER PUSH20 0xFFFFFFFFFFFFFFFFFFFFFFFFFFFFFFFFFFFFFFFF AND PUSH20 0xFFFFFFFFFFFFFFFFFFFFFFFFFFFFFFFFFFFFFFFF AND DUP2 MSTORE PUSH1 0x20 ADD SWAP1 DUP2 MSTORE PUSH1 0x20 ADD PUSH0 KECCAK256 DUP2 SWAP1 DUP1 PUSH1 0x1 DUP2 SLOAD ADD DUP1 DUP3 SSTORE DUP1 SWAP2 POP POP PUSH1 0x1 SWAP1 SUB SWAP1 PUSH0 MSTORE PUSH1 0x20 PUSH0 KECCAK256 ADD PUSH0 SWAP1 SWAP2 SWAP1 SWAP2 SWAP1 SWAP2 POP SSTORE CALLER PUSH20 0xFFFFFFFFFFFFFFFFFFFFFFFFFFFFFFFFFFFFFFFF AND DUP2 PUSH32 0x9B9FF235F689C05D623A91B8CFFD825BFC3C7EF4EEFC1884B892E65732D123FA DUP12 DUP12 DUP12 DUP12 DUP11 DUP11 PUSH1 0x40 MLOAD PUSH2 0xD2A SWAP7 SWAP6 SWAP5 SWAP4 SWAP3 SWAP2 SWAP1 PUSH2 0x1C9E JUMP JUMPDEST PUSH1 0x40 MLOAD DUP1 SWAP2 SUB SWAP1 LOG3 POP POP POP POP POP POP POP POP POP JUMP JUMPDEST PUSH1 0x2 PUSH0 SWAP1 SLOAD SWAP1 PUSH2 0x100 EXP SWAP1 DIV PUSH20 0xFFFFFFFFFFFFFFFFFFFFFFFFFFFFFFFFFFFFFFFF AND DUP2 JUMP JUMPDEST PUSH0 PUSH1 0x3 DUP1 SLOAD SWAP1 POP SWAP1 POP SWAP1 JUMP JUMPDEST PUSH0 PUSH0 REVERT JUMPDEST PUSH0 PUSH0 REVERT JUMPDEST PUSH0 PUSH20 0xFFFFFFFFFFFFFFFFFFFFFFFFFFFFFFFFFFFFFFFF DUP3 AND SWAP1 POP SWAP2 SWAP1 POP JUMP JUMPDEST PUSH0 PUSH2 0xD9F DUP3 PUSH2 0xD76 JUMP JUMPDEST SWAP1 POP SWAP2 SWAP1 POP JUMP JUMPDEST PUSH2 0xDAF DUP2 PUSH2 0xD95 JUMP JUMPDEST DUP2 EQ PUSH2 0xDB9 JUMPI PUSH0 PUSH0 REVERT JUMPDEST POP JUMP JUMPDEST PUSH0 DUP2 CALLDATALOAD SWAP1 POP PUSH2 0xDCA DUP2 PUSH2 0xDA6 JUMP JUMPDEST SWAP3 SWAP2 POP POP JUMP JUMPDEST PUSH0 PUSH1 0x20 DUP3 DUP5 SUB SLT ISZERO PUSH2 0xDE5 JUMPI PUSH2 0xDE4 PUSH2 0xD6E JUMP JUMPDEST JUMPDEST PUSH0 PUSH2 0xDF2 DUP5 DUP3 DUP6 ADD PUSH2 0xDBC JUMP JUMPDEST SWAP2 POP POP SWAP3 SWAP2 POP POP JUMP JUMPDEST PUSH0 DUP2 MLOAD SWAP1 POP SWAP2 SWAP1 POP JUMP JUMPDEST PUSH0 DUP3 DUP3 MSTORE PUSH1 0x20 DUP3 ADD SWAP1 POP SWAP3 SWAP2 POP POP JUMP JUMPDEST PUSH0 DUP2 SWAP1 POP PUSH1 0x20 DUP3 ADD SWAP1 POP SWAP2 SWAP1 POP JUMP JUMPDEST PUSH0 DUP2 SWAP1 POP SWAP2 SWAP1 POP JUMP JUMPDEST PUSH2 0xE36 DUP2 PUSH2 0xE24 JUMP JUMPDEST DUP3 MSTORE POP POP JUMP JUMPDEST PUSH0 PUSH2 0xE47 DUP4 DUP4 PUSH2 0xE2D JUMP JUMPDEST PUSH1 0x20 DUP4 ADD SWAP1 POP SWAP3 SWAP2 POP POP JUMP JUMPDEST PUSH0 PUSH1 0x20 DUP3 ADD SWAP1 POP SWAP2 SWAP1 POP JUMP JUMPDEST PUSH0 PUSH2 0xE69 DUP3 PUSH2 0xDFB JUMP JUMPDEST PUSH2 0xE73 DUP2 DUP6 PUSH2 0xE05 JUMP JUMPDEST SWAP4 POP PUSH2 0xE7E DUP4 PUSH2 0xE15 JUMP JUMPDEST DUP1 PUSH0 JUMPDEST DUP4 DUP2 LT ISZERO PUSH2 0xEAE JUMPI DUP2 MLOAD PUSH2 0xE95 DUP9 DUP3 PUSH2 0xE3C JUMP JUMPDEST SWAP8 POP PUSH2 0xEA0 DUP4 PUSH2 0xE53 JUMP JUMPDEST SWAP3 POP POP PUSH1 0x1 DUP2 ADD SWAP1 POP PUSH2 0xE81 JUMP JUMPDEST POP DUP6 SWAP4 POP POP POP POP SWAP3 SWAP2 POP POP JUMP JUMPDEST PUSH0 PUSH1 0x20 DUP3 ADD SWAP1 POP DUP2 DUP2 SUB PUSH0 DUP4 ADD MSTORE PUSH2 0xED3 DUP2 DUP5 PUSH2 0xE5F JUMP JUMPDEST SWAP1 POP SWAP3 SWAP2 POP POP JUMP JUMPDEST PUSH0 DUP2 SWAP1 POP SWAP2 SWAP1 POP JUMP JUMPDEST PUSH0 PUSH2 0xEFE PUSH2 0xEF9 PUSH2 0xEF4 DUP5 PUSH2 0xD76 JUMP JUMPDEST PUSH2 0xEDB JUMP JUMPDEST PUSH2 0xD76 JUMP JUMPDEST SWAP1 POP SWAP2 SWAP1 POP JUMP JUMPDEST PUSH0 PUSH2 0xF0F DUP3 PUSH2 0xEE4 JUMP JUMPDEST SWAP1 POP SWAP2 SWAP1 POP JUMP JUMPDEST PUSH0 PUSH2 0xF20 DUP3 PUSH2 0xF05 JUMP JUMPDEST SWAP1 POP SWAP2 SWAP1 POP JUMP JUMPDEST PUSH2 0xF30 DUP2 PUSH2 0xF16 JUMP JUMPDEST DUP3 MSTORE POP POP JUMP JUMPDEST PUSH0 PUSH1 0x20 DUP3 ADD SWAP1 POP PUSH2 0xF49 PUSH0 DUP4 ADD DUP5 PUSH2 0xF27 JUMP JUMPDEST SWAP3 SWAP2 POP POP JUMP JUMPDEST PUSH2 0xF58 DUP2 PUSH2 0xE24 JUMP JUMPDEST DUP2 EQ PUSH2 0xF62 JUMPI PUSH0 PUSH0 REVERT JUMPDEST POP JUMP JUMPDEST PUSH0 DUP2 CALLDATALOAD SWAP1 POP PUSH2 0xF73 DUP2 PUSH2 0xF4F JUMP JUMPDEST SWAP3 SWAP2 POP POP JUMP JUMPDEST PUSH0 PUSH0 PUSH1 0x40 DUP4 DUP6 SUB SLT ISZERO PUSH2 0xF8F JUMPI PUSH2 0xF8E PUSH2 0xD6E JUMP JUMPDEST JUMPDEST PUSH0 PUSH2 0xF9C DUP6 DUP3 DUP7 ADD PUSH2 0xDBC JUMP JUMPDEST SWAP3 POP POP PUSH1 0x20 PUSH2 0xFAD DUP6 DUP3 DUP7 ADD PUSH2 0xF65 JUMP JUMPDEST SWAP2 POP POP SWAP3 POP SWAP3 SWAP1 POP JUMP JUMPDEST PUSH2 0xFC0 DUP2 PUSH2 0xE24 JUMP JUMPDEST DUP3 MSTORE POP POP JUMP JUMPDEST PUSH0 PUSH1 0x20 DUP3 ADD SWAP1 POP PUSH2 0xFD9 PUSH0 DUP4 ADD DUP5 PUSH2 0xFB7 JUMP JUMPDEST SWAP3 SWAP2 POP POP JUMP JUMPDEST PUSH0 PUSH2 0xFE9 DUP3 PUSH2 0xF05 JUMP JUMPDEST SWAP1 POP SWAP2 SWAP1 POP JUMP JUMPDEST PUSH2 0xFF9 DUP2 PUSH2 0xFDF JUMP JUMPDEST DUP3 MSTORE POP POP JUMP JUMPDEST PUSH0 PUSH1 0x20 DUP3 ADD SWAP1 POP PUSH2 0x1012 PUSH0 DUP4 ADD DUP5 PUSH2 0xFF0 JUMP JUMPDEST SWAP3 SWAP2 POP POP JUMP JUMPDEST PUSH0 PUSH1 0x20 DUP3 DUP5 SUB SLT ISZERO PUSH2 0x102D JUMPI PUSH2 0x102C PUSH2 0xD6E JUMP JUMPDEST JUMPDEST PUSH0 PUSH2 0x103A DUP5 DUP3 DUP6 ADD PUSH2 0xF65 JUMP JUMPDEST SWAP2 POP POP SWAP3 SWAP2 POP POP JUMP JUMPDEST PUSH2 0x104C DUP2 PUSH2 0xD95 JUMP JUMPDEST DUP3 MSTORE POP POP JUMP JUMPDEST PUSH0 DUP2 MLOAD SWAP1 POP SWAP2 SWAP1 POP JUMP JUMPDEST PUSH0 DUP3 DUP3 MSTORE PUSH1 0x20 DUP3 ADD SWAP1 POP SWAP3 SWAP2 POP POP JUMP JUMPDEST DUP3 DUP2 DUP4 MCOPY PUSH0 DUP4 DUP4 ADD MSTORE POP POP POP JUMP JUMPDEST PUSH0 PUSH1 0x1F NOT PUSH1 0x1F DUP4 ADD AND SWAP1 POP SWAP2 SWAP1 POP JUMP JUMPDEST PUSH0 PUSH2 0x1094 DUP3 PUSH2 0x1052 JUMP JUMPDEST PUSH2 0x109E DUP2 DUP6 PUSH2 0x105C JUMP JUMPDEST SWAP4 POP PUSH2 0x10AE DUP2 DUP6 PUSH1 0x20 DUP7 ADD PUSH2 0x106C JUMP JUMPDEST PUSH2 0x10B7 DUP2 PUSH2 0x107A JUMP JUMPDEST DUP5 ADD SWAP2 POP POP SWAP3 SWAP2 POP POP JUMP JUMPDEST PUSH0 DUP2 ISZERO ISZERO SWAP1 POP SWAP2 SWAP1 POP JUMP JUMPDEST PUSH2 0x10D6 DUP2 PUSH2 0x10C2 JUMP JUMPDEST DUP3 MSTORE POP POP JUMP JUMPDEST PUSH0 PUSH1 0xE0 DUP3 ADD SWAP1 POP PUSH2 0x10EF PUSH0 DUP4 ADD DUP11 PUSH2 0x1043 JUMP JUMPDEST DUP2 DUP2 SUB PUSH1 0x20 DUP4 ADD MSTORE PUSH2 0x1101 DUP2 DUP10 PUSH2 0x108A JUMP JUMPDEST SWAP1 POP PUSH2 0x1110 PUSH1 0x40 DUP4 ADD DUP9 PUSH2 0xFB7 JUMP JUMPDEST PUSH2 0x111D PUSH1 0x60 DUP4 ADD DUP8 PUSH2 0xFB7 JUMP JUMPDEST PUSH2 0x112A PUSH1 0x80 DUP4 ADD DUP7 PUSH2 0xFB7 JUMP JUMPDEST PUSH2 0x1137 PUSH1 0xA0 DUP4 ADD DUP6 PUSH2 0xFB7 JUMP JUMPDEST PUSH2 0x1144 PUSH1 0xC0 DUP4 ADD DUP5 PUSH2 0x10CD JUMP JUMPDEST SWAP9 SWAP8 POP POP POP POP POP POP POP POP JUMP JUMPDEST PUSH0 PUSH0 REVERT JUMPDEST PUSH0 PUSH0 REVERT JUMPDEST PUSH0 PUSH0 REVERT JUMPDEST PUSH0 PUSH0 DUP4 PUSH1 0x1F DUP5 ADD SLT PUSH2 0x1171 JUMPI PUSH2 0x1170 PUSH2 0x1150 JUMP JUMPDEST JUMPDEST DUP3 CALLDATALOAD SWAP1 POP PUSH8 0xFFFFFFFFFFFFFFFF DUP2 GT ISZERO PUSH2 0x118E JUMPI PUSH2 0x118D PUSH2 0x1154 JUMP JUMPDEST JUMPDEST PUSH1 0x20 DUP4 ADD SWAP2 POP DUP4 PUSH1 0x1 DUP3 MUL DUP4 ADD GT ISZERO PUSH2 0x11AA JUMPI PUSH2 0x11A9 PUSH2 0x1158 JUMP JUMPDEST JUMPDEST SWAP3 POP SWAP3 SWAP1 POP JUMP JUMPDEST PUSH0 PUSH0 PUSH0 PUSH0 PUSH0 PUSH1 0x80 DUP7 DUP9 SUB SLT ISZERO PUSH2 0x11CA JUMPI PUSH2 0x11C9 PUSH2 0xD6E JUMP JUMPDEST JUMPDEST PUSH0 DUP7 ADD CALLDATALOAD PUSH8 0xFFFFFFFFFFFFFFFF DUP2 GT ISZERO PUSH2 0x11E7 JUMPI PUSH2 0x11E6 PUSH2 0xD72 JUMP JUMPDEST JUMPDEST PUSH2 0x11F3 DUP9 DUP3 DUP10 ADD PUSH2 0x115C JUMP JUMPDEST SWAP6 POP SWAP6 POP POP PUSH1 0x20 PUSH2 0x1206 DUP9 DUP3 DUP10 ADD PUSH2 0xF65 JUMP JUMPDEST SWAP4 POP POP PUSH1 0x40 PUSH2 0x1217 DUP9 DUP3 DUP10 ADD PUSH2 0xF65 JUMP JUMPDEST SWAP3 POP POP PUSH1 0x60 PUSH2 0x1228 DUP9 DUP3 DUP10 ADD PUSH2 0xF65 JUMP JUMPDEST SWAP2 POP POP SWAP3 SWAP6 POP SWAP3 SWAP6 SWAP1 SWAP4 POP JUMP JUMPDEST PUSH0 PUSH1 0x20 DUP3 ADD SWAP1 POP PUSH2 0x1248 PUSH0 DUP4 ADD DUP5 PUSH2 0x1043 JUMP JUMPDEST SWAP3 SWAP2 POP POP JUMP JUMPDEST PUSH32 0x496E76616C696420686564676520494400000000000000000000000000000000 PUSH0 DUP3 ADD MSTORE POP JUMP JUMPDEST PUSH0 PUSH2 0x1282 PUSH1 0x10 DUP4 PUSH2 0x105C JUMP JUMPDEST SWAP2 POP PUSH2 0x128D DUP3 PUSH2 0x124E JUMP JUMPDEST PUSH1 0x20 DUP3 ADD SWAP1 POP SWAP2 SWAP1 POP JUMP JUMPDEST PUSH0 PUSH1 0x20 DUP3 ADD SWAP1 POP DUP2 DUP2 SUB PUSH0 DUP4 ADD MSTORE PUSH2 0x12AF DUP2 PUSH2 0x1276 JUMP JUMPDEST SWAP1 POP SWAP2 SWAP1 POP JUMP JUMPDEST PUSH32 0x4E487B7100000000000000000000000000000000000000000000000000000000 PUSH0 MSTORE PUSH1 0x32 PUSH1 0x4 MSTORE PUSH1 0x24 PUSH0 REVERT JUMPDEST PUSH32 0x4E6F7420796F7572206865646765000000000000000000000000000000000000 PUSH0 DUP3 ADD MSTORE POP JUMP JUMPDEST PUSH0 PUSH2 0x1317 PUSH1 0xE DUP4 PUSH2 0x105C JUMP JUMPDEST SWAP2 POP PUSH2 0x1322 DUP3 PUSH2 0x12E3 JUMP JUMPDEST PUSH1 0x20 DUP3 ADD SWAP1 POP SWAP2 SWAP1 POP JUMP JUMPDEST PUSH0 PUSH1 0x20 DUP3 ADD SWAP1 POP DUP2 DUP2 SUB PUSH0 DUP4 ADD MSTORE PUSH2 0x1344 DUP2 PUSH2 0x130B JUMP JUMPDEST SWAP1 POP SWAP2 SWAP1 POP JUMP JUMPDEST PUSH32 0x416C726561647920636C6F736564000000000000000000000000000000000000 PUSH0 DUP3 ADD MSTORE POP JUMP JUMPDEST PUSH0 PUSH2 0x137F PUSH1 0xE DUP4 PUSH2 0x105C JUMP JUMPDEST SWAP2 POP PUSH2 0x138A DUP3 PUSH2 0x134B JUMP JUMPDEST PUSH1 0x20 DUP3 ADD SWAP1 POP SWAP2 SWAP1 POP JUMP JUMPDEST PUSH0 PUSH1 0x20 DUP3 ADD SWAP1 POP DUP2 DUP2 SUB PUSH0 DUP4 ADD MSTORE PUSH2 0x13AC DUP2 PUSH2 0x1373 JUMP JUMPDEST SWAP1 POP SWAP2 SWAP1 POP JUMP JUMPDEST PUSH32 0x4E6F742065787069726564207965740000000000000000000000000000000000 PUSH0 DUP3 ADD MSTORE POP JUMP JUMPDEST PUSH0 PUSH2 0x13E7 PUSH1 0xF DUP4 PUSH2 0x105C JUMP JUMPDEST SWAP2 POP PUSH2 0x13F2 DUP3 PUSH2 0x13B3 JUMP JUMPDEST PUSH1 0x20 DUP3 ADD SWAP1 POP SWAP2 SWAP1 POP JUMP JUMPDEST PUSH0 PUSH1 0x20 DUP3 ADD SWAP1 POP DUP2 DUP2 SUB PUSH0 DUP4 ADD MSTORE PUSH2 0x1414 DUP2 PUSH2 0x13DB JUMP JUMPDEST SWAP1 POP SWAP2 SWAP1 POP JUMP JUMPDEST PUSH32 0x4E487B7100000000000000000000000000000000000000000000000000000000 PUSH0 MSTORE PUSH1 0x22 PUSH1 0x4 MSTORE PUSH1 0x24 PUSH0 REVERT JUMPDEST PUSH0 PUSH1 0x2 DUP3 DIV SWAP1 POP PUSH1 0x1 DUP3 AND DUP1 PUSH2 0x145F JUMPI PUSH1 0x7F DUP3 AND SWAP2 POP JUMPDEST PUSH1 0x20 DUP3 LT DUP2 SUB PUSH2 0x1472 JUMPI PUSH2 0x1471 PUSH2 0x141B JUMP JUMPDEST JUMPDEST POP SWAP2 SWAP1 POP JUMP JUMPDEST PUSH0 DUP2 SWAP1 POP DUP2 PUSH0 MSTORE PUSH1 0x20 PUSH0 KECCAK256 SWAP1 POP SWAP2 SWAP1 POP JUMP JUMPDEST PUSH0 DUP2 SLOAD PUSH2 0x1496 DUP2 PUSH2 0x1448 JUMP JUMPDEST PUSH2 0x14A0 DUP2 DUP7 PUSH2 0x105C JUMP JUMPDEST SWAP5 POP PUSH1 0x1 DUP3 AND PUSH0 DUP2 EQ PUSH2 0x14BA JUMPI PUSH1 0x1 DUP2 EQ PUSH2 0x14D0 JUMPI PUSH2 0x1502 JUMP JUMPDEST PUSH1 0xFF NOT DUP4 AND DUP7 MSTORE DUP2 ISZERO ISZERO PUSH1 0x20 MUL DUP7 ADD SWAP4 POP PUSH2 0x1502 JUMP JUMPDEST PUSH2 0x14D9 DUP6 PUSH2 0x1478 JUMP JUMPDEST PUSH0 JUMPDEST DUP4 DUP2 LT ISZERO PUSH2 0x14FA JUMPI DUP2 SLOAD DUP2 DUP10 ADD MSTORE PUSH1 0x1 DUP3 ADD SWAP2 POP PUSH1 0x20 DUP2 ADD SWAP1 POP PUSH2 0x14DB JUMP JUMPDEST DUP1 DUP9 ADD SWAP6 POP POP POP JUMPDEST POP POP POP SWAP3 SWAP2 POP POP JUMP JUMPDEST PUSH0 PUSH1 0x20 DUP3 ADD SWAP1 POP DUP2 DUP2 SUB PUSH0 DUP4 ADD MSTORE PUSH2 0x1523 DUP2 DUP5 PUSH2 0x148A JUMP JUMPDEST SWAP1 POP SWAP3 SWAP2 POP POP JUMP JUMPDEST PUSH0 DUP2 MLOAD SWAP1 POP PUSH2 0x1539 DUP2 PUSH2 0xF4F JUMP JUMPDEST SWAP3 SWAP2 POP POP JUMP JUMPDEST PUSH0 PUSH1 0x20 DUP3 DUP5 SUB SLT ISZERO PUSH2 0x1554 JUMPI PUSH2 0x1553 PUSH2 0xD6E JUMP JUMPDEST JUMPDEST PUSH0 PUSH2 0x1561 DUP5 DUP3 DUP6 ADD PUSH2 0x152B JUMP JUMPDEST SWAP2 POP POP SWAP3 SWAP2 POP POP JUMP JUMPDEST PUSH32 0x496E76616C6964206F7261636C65207072696365000000000000000000000000 PUSH0 DUP3 ADD MSTORE POP JUMP JUMPDEST PUSH0 PUSH2 0x159E PUSH1 0x14 DUP4 PUSH2 0x105C JUMP JUMPDEST SWAP2 POP PUSH2 0x15A9 DUP3 PUSH2 0x156A JUMP JUMPDEST PUSH1 0x20 DUP3 ADD SWAP1 POP SWAP2 SWAP1 POP JUMP JUMPDEST PUSH0 PUSH1 0x20 DUP3 ADD SWAP1 POP DUP2 DUP2 SUB PUSH0 DUP4 ADD MSTORE PUSH2 0x15CB DUP2 PUSH2 0x1592 JUMP JUMPDEST SWAP1 POP SWAP2 SWAP1 POP JUMP JUMPDEST PUSH32 0x4E487B7100000000000000000000000000000000000000000000000000000000 PUSH0 MSTORE PUSH1 0x11 PUSH1 0x4 MSTORE PUSH1 0x24 PUSH0 REVERT JUMPDEST PUSH0 PUSH2 0x1609 DUP3 PUSH2 0xE24 JUMP JUMPDEST SWAP2 POP PUSH2 0x1614 DUP4 PUSH2 0xE24 JUMP JUMPDEST SWAP3 POP DUP3 DUP3 MUL PUSH2 0x1622 DUP2 PUSH2 0xE24 JUMP JUMPDEST SWAP2 POP DUP3 DUP3 DIV DUP5 EQ DUP4 ISZERO OR PUSH2 0x1639 JUMPI PUSH2 0x1638 PUSH2 0x15D2 JUMP JUMPDEST JUMPDEST POP SWAP3 SWAP2 POP POP JUMP JUMPDEST PUSH32 0x4E487B7100000000000000000000000000000000000000000000000000000000 PUSH0 MSTORE PUSH1 0x12 PUSH1 0x4 MSTORE PUSH1 0x24 PUSH0 REVERT JUMPDEST PUSH0 PUSH2 0x1677 DUP3 PUSH2 0xE24 JUMP JUMPDEST SWAP2 POP PUSH2 0x1682 DUP4 PUSH2 0xE24 JUMP JUMPDEST SWAP3 POP DUP3 PUSH2 0x1692 JUMPI PUSH2 0x1691 PUSH2 0x1640 JUMP JUMPDEST JUMPDEST DUP3 DUP3 DIV SWAP1 POP SWAP3 SWAP2 POP POP JUMP JUMPDEST PUSH0 PUSH1 0x40 DUP3 ADD SWAP1 POP PUSH2 0x16B0 PUSH0 DUP4 ADD DUP6 PUSH2 0x1043 JUMP JUMPDEST PUSH2 0x16BD PUSH1 0x20 DUP4 ADD DUP5 PUSH2 0xFB7 JUMP JUMPDEST SWAP4 SWAP3 POP POP POP JUMP JUMPDEST PUSH2 0x16CD DUP2 PUSH2 0x10C2 JUMP JUMPDEST DUP2 EQ PUSH2 0x16D7 JUMPI PUSH0 PUSH0 REVERT JUMPDEST POP JUMP JUMPDEST PUSH0 DUP2 MLOAD SWAP1 POP PUSH2 0x16E8 DUP2 PUSH2 0x16C4 JUMP JUMPDEST SWAP3 SWAP2 POP POP JUMP JUMPDEST PUSH0 PUSH1 0x20 DUP3 DUP5 SUB SLT ISZERO PUSH2 0x1703 JUMPI PUSH2 0x1702 PUSH2 0xD6E JUMP JUMPDEST JUMPDEST PUSH0 PUSH2 0x1710 DUP5 DUP3 DUP6 ADD PUSH2 0x16DA JUMP JUMPDEST SWAP2 POP POP SWAP3 SWAP2 POP POP JUMP JUMPDEST PUSH32 0x5061796F7574206661696C656400000000000000000000000000000000000000 PUSH0 DUP3 ADD MSTORE POP JUMP JUMPDEST PUSH0 PUSH2 0x174D PUSH1 0xD DUP4 PUSH2 0x105C JUMP JUMPDEST SWAP2 POP PUSH2 0x1758 DUP3 PUSH2 0x1719 JUMP JUMPDEST PUSH1 0x20 DUP3 ADD SWAP1 POP SWAP2 SWAP1 POP JUMP JUMPDEST PUSH0 PUSH1 0x20 DUP3 ADD SWAP1 POP DUP2 DUP2 SUB PUSH0 DUP4 ADD MSTORE PUSH2 0x177A DUP2 PUSH2 0x1741 JUMP JUMPDEST SWAP1 POP SWAP2 SWAP1 POP JUMP JUMPDEST PUSH0 PUSH1 0x40 DUP3 ADD SWAP1 POP PUSH2 0x1794 PUSH0 DUP4 ADD DUP6 PUSH2 0xFB7 JUMP JUMPDEST PUSH2 0x17A1 PUSH1 0x20 DUP4 ADD DUP5 PUSH2 0xFB7 JUMP JUMPDEST SWAP4 SWAP3 POP POP POP JUMP JUMPDEST PUSH32 0x416D6F756E74206D757374206265203E20300000000000000000000000000000 PUSH0 DUP3 ADD MSTORE POP JUMP JUMPDEST PUSH0 PUSH2 0x17DC PUSH1 0x12 DUP4 PUSH2 0x105C JUMP JUMPDEST SWAP2 POP PUSH2 0x17E7 DUP3 PUSH2 0x17A8 JUMP JUMPDEST PUSH1 0x20 DUP3 ADD SWAP1 POP SWAP2 SWAP1 POP JUMP JUMPDEST PUSH0 PUSH1 0x20 DUP3 ADD SWAP1 POP DUP2 DUP2 SUB PUSH0 DUP4 ADD MSTORE PUSH2 0x1809 DUP2 PUSH2 0x17D0 JUMP JUMPDEST SWAP1 POP SWAP2 SWAP1 POP JUMP JUMPDEST PUSH32 0x537472696B65207072696365206D757374206265203E20300000000000000000 PUSH0 DUP3 ADD MSTORE POP JUMP JUMPDEST PUSH0 PUSH2 0x1844 PUSH1 0x18 DUP4 PUSH2 0x105C JUMP JUMPDEST SWAP2 POP PUSH2 0x184F DUP3 PUSH2 0x1810 JUMP JUMPDEST PUSH1 0x20 DUP3 ADD SWAP1 POP SWAP2 SWAP1 POP JUMP JUMPDEST PUSH0 PUSH1 0x20 DUP3 ADD SWAP1 POP DUP2 DUP2 SUB PUSH0 DUP4 ADD MSTORE PUSH2 0x1871 DUP2 PUSH2 0x1838 JUMP JUMPDEST SWAP1 POP SWAP2 SWAP1 POP JUMP JUMPDEST PUSH0 PUSH2 0x1882 DUP3 PUSH2 0xE24 JUMP JUMPDEST SWAP2 POP PUSH2 0x188D DUP4 PUSH2 0xE24 JUMP JUMPDEST SWAP3 POP DUP3 DUP3 ADD SWAP1 POP DUP1 DUP3 GT ISZERO PUSH2 0x18A5 JUMPI PUSH2 0x18A4 PUSH2 0x15D2 JUMP JUMPDEST JUMPDEST SWAP3 SWAP2 POP POP JUMP JUMPDEST PUSH32 0x496E76616C696420657870697265206F7074696F6E0000000000000000000000 PUSH0 DUP3 ADD MSTORE POP JUMP JUMPDEST PUSH0 PUSH2 0x18DF PUSH1 0x15 DUP4 PUSH2 0x105C JUMP JUMPDEST SWAP2 POP PUSH2 0x18EA DUP3 PUSH2 0x18AB JUMP JUMPDEST PUSH1 0x20 DUP3 ADD SWAP1 POP SWAP2 SWAP1 POP JUMP JUMPDEST PUSH0 PUSH1 0x20 DUP3 ADD SWAP1 POP DUP2 DUP2 SUB PUSH0 DUP4 ADD MSTORE PUSH2 0x190C DUP2 PUSH2 0x18D3 JUMP JUMPDEST SWAP1 POP SWAP2 SWAP1 POP JUMP JUMPDEST PUSH0 PUSH1 0x60 DUP3 ADD SWAP1 POP PUSH2 0x1926 PUSH0 DUP4 ADD DUP7 PUSH2 0x1043 JUMP JUMPDEST PUSH2 0x1933 PUSH1 0x20 DUP4 ADD DUP6 PUSH2 0x1043 JUMP JUMPDEST PUSH2 0x1940 PUSH1 0x40 DUP4 ADD DUP5 PUSH2 0xFB7 JUMP JUMPDEST SWAP5 SWAP4 POP POP POP POP JUMP JUMPDEST PUSH32 0x55534454207472616E73666572206661696C6564000000000000000000000000 PUSH0 DUP3 ADD MSTORE POP JUMP JUMPDEST PUSH0 PUSH2 0x197C PUSH1 0x14 DUP4 PUSH2 0x105C JUMP JUMPDEST SWAP2 POP PUSH2 0x1987 DUP3 PUSH2 0x1948 JUMP JUMPDEST PUSH1 0x20 DUP3 ADD SWAP1 POP SWAP2 SWAP1 POP JUMP JUMPDEST PUSH0 PUSH1 0x20 DUP3 ADD SWAP1 POP DUP2 DUP2 SUB PUSH0 DUP4 ADD MSTORE PUSH2 0x19A9 DUP2 PUSH2 0x1970 JUMP JUMPDEST SWAP1 POP SWAP2 SWAP1 POP JUMP JUMPDEST PUSH32 0x4E487B7100000000000000000000000000000000000000000000000000000000 PUSH0 MSTORE PUSH1 0x41 PUSH1 0x4 MSTORE PUSH1 0x24 PUSH0 REVERT JUMPDEST PUSH0 PUSH1 0x20 PUSH1 0x1F DUP4 ADD DIV SWAP1 POP SWAP2 SWAP1 POP JUMP JUMPDEST PUSH0 DUP3 DUP3 SHL SWAP1 POP SWAP3 SWAP2 POP POP JUMP JUMPDEST PUSH0 PUSH1 0x8 DUP4 MUL PUSH2 0x1A27 PUSH32 0xFFFFFFFFFFFFFFFFFFFFFFFFFFFFFFFFFFFFFFFFFFFFFFFFFFFFFFFFFFFFFFFF DUP3 PUSH2 0x19EC JUMP JUMPDEST PUSH2 0x1A31 DUP7 DUP4 PUSH2 0x19EC JUMP JUMPDEST SWAP6 POP DUP1 NOT DUP5 AND SWAP4 POP DUP1 DUP7 AND DUP5 OR SWAP3 POP POP POP SWAP4 SWAP3 POP POP POP JUMP JUMPDEST PUSH0 PUSH2 0x1A63 PUSH2 0x1A5E PUSH2 0x1A59 DUP5 PUSH2 0xE24 JUMP JUMPDEST PUSH2 0xEDB JUMP JUMPDEST PUSH2 0xE24 JUMP JUMPDEST SWAP1 POP SWAP2 SWAP1 POP JUMP JUMPDEST PUSH0 DUP2 SWAP1 POP SWAP2 SWAP1 POP JUMP JUMPDEST PUSH2 0x1A7C DUP4 PUSH2 0x1A49 JUMP JUMPDEST PUSH2 0x1A90 PUSH2 0x1A88 DUP3 PUSH2 0x1A6A JUMP JUMPDEST DUP5 DUP5 SLOAD PUSH2 0x19F8 JUMP JUMPDEST DUP3 SSTORE POP POP POP POP JUMP JUMPDEST PUSH0 PUSH0 SWAP1 POP SWAP1 JUMP JUMPDEST PUSH2 0x1AA7 PUSH2 0x1A98 JUMP JUMPDEST PUSH2 0x1AB2 DUP2 DUP5 DUP5 PUSH2 0x1A73 JUMP JUMPDEST POP POP POP JUMP JUMPDEST JUMPDEST DUP2 DUP2 LT ISZERO PUSH2 0x1AD5 JUMPI PUSH2 0x1ACA PUSH0 DUP3 PUSH2 0x1A9F JUMP JUMPDEST PUSH1 0x1 DUP2 ADD SWAP1 POP PUSH2 0x1AB8 JUMP JUMPDEST POP POP JUMP JUMPDEST PUSH1 0x1F DUP3 GT ISZERO PUSH2 0x1B1A JUMPI PUSH2 0x1AEB DUP2 PUSH2 0x1478 JUMP JUMPDEST PUSH2 0x1AF4 DUP5 PUSH2 0x19DD JUMP JUMPDEST DUP2 ADD PUSH1 0x20 DUP6 LT ISZERO PUSH2 0x1B03 JUMPI DUP2 SWAP1 POP JUMPDEST PUSH2 0x1B17 PUSH2 0x1B0F DUP6 PUSH2 0x19DD JUMP JUMPDEST DUP4 ADD DUP3 PUSH2 0x1AB7 JUMP JUMPDEST POP POP JUMPDEST POP POP POP JUMP JUMPDEST PUSH0 DUP3 DUP3 SHR SWAP1 POP SWAP3 SWAP2 POP POP JUMP JUMPDEST PUSH0 PUSH2 0x1B3A PUSH0 NOT DUP5 PUSH1 0x8 MUL PUSH2 0x1B1F JUMP JUMPDEST NOT DUP1 DUP4 AND SWAP2 POP POP SWAP3 SWAP2 POP POP JUMP JUMPDEST PUSH0 PUSH2 0x1B52 DUP4 DUP4 PUSH2 0x1B2B JUMP JUMPDEST SWAP2 POP DUP3 PUSH1 0x2 MUL DUP3 OR SWAP1 POP SWAP3 SWAP2 POP POP JUMP JUMPDEST PUSH2 0x1B6B DUP3 PUSH2 0x1052 JUMP JUMPDEST PUSH8 0xFFFFFFFFFFFFFFFF DUP2 GT ISZERO PUSH2 0x1B84 JUMPI PUSH2 0x1B83 PUSH2 0x19B0 JUMP JUMPDEST JUMPDEST PUSH2 0x1B8E DUP3 SLOAD PUSH2 0x1448 JUMP JUMPDEST PUSH2 0x1B99 DUP3 DUP3 DUP6 PUSH2 0x1AD9 JUMP JUMPDEST PUSH0 PUSH1 0x20 SWAP1 POP PUSH1 0x1F DUP4 GT PUSH1 0x1 DUP2 EQ PUSH2 0x1BCA JUMPI PUSH0 DUP5 ISZERO PUSH2 0x1BB8 JUMPI DUP3 DUP8 ADD MLOAD SWAP1 POP JUMPDEST PUSH2 0x1BC2 DUP6 DUP3 PUSH2 0x1B47 JUMP JUMPDEST DUP7 SSTORE POP PUSH2 0x1C29 JUMP JUMPDEST PUSH1 0x1F NOT DUP5 AND PUSH2 0x1BD8 DUP7 PUSH2 0x1478 JUMP JUMPDEST PUSH0 JUMPDEST DUP3 DUP2 LT ISZERO PUSH2 0x1BFF JUMPI DUP5 DUP10 ADD MLOAD DUP3 SSTORE PUSH1 0x1 DUP3 ADD SWAP2 POP PUSH1 0x20 DUP6 ADD SWAP5 POP PUSH1 0x20 DUP2 ADD SWAP1 POP PUSH2 0x1BDA JUMP JUMPDEST DUP7 DUP4 LT ISZERO PUSH2 0x1C1C JUMPI DUP5 DUP10 ADD MLOAD PUSH2 0x1C18 PUSH1 0x1F DUP10 AND DUP3 PUSH2 0x1B2B JUMP JUMPDEST DUP4 SSTORE POP JUMPDEST PUSH1 0x1 PUSH1 0x2 DUP9 MUL ADD DUP9 SSTORE POP POP POP JUMPDEST POP POP POP POP POP POP JUMP JUMPDEST PUSH0 PUSH2 0x1C3B DUP3 PUSH2 0xE24 JUMP JUMPDEST SWAP2 POP PUSH2 0x1C46 DUP4 PUSH2 0xE24 JUMP JUMPDEST SWAP3 POP DUP3 DUP3 SUB SWAP1 POP DUP2 DUP2 GT ISZERO PUSH2 0x1C5E JUMPI PUSH2 0x1C5D PUSH2 0x15D2 JUMP JUMPDEST JUMPDEST SWAP3 SWAP2 POP POP JUMP JUMPDEST DUP3 DUP2 DUP4 CALLDATACOPY PUSH0 DUP4 DUP4 ADD MSTORE POP POP POP JUMP JUMPDEST PUSH0 PUSH2 0x1C7D DUP4 DUP6 PUSH2 0x105C JUMP JUMPDEST SWAP4 POP PUSH2 0x1C8A DUP4 DUP6 DUP5 PUSH2 0x1C64 JUMP JUMPDEST PUSH2 0x1C93 DUP4 PUSH2 0x107A JUMP JUMPDEST DUP5 ADD SWAP1 POP SWAP4 SWAP3 POP POP POP JUMP JUMPDEST PUSH0 PUSH1 0xA0 DUP3 ADD SWAP1 POP DUP2 DUP2 SUB PUSH0 DUP4 ADD MSTORE PUSH2 0x1CB7 DUP2 DUP9 DUP11 PUSH2 0x1C72 JUMP JUMPDEST SWAP1 POP PUSH2 0x1CC6 PUSH1 0x20 DUP4 ADD DUP8 PUSH2 0xFB7 JUMP JUMPDEST PUSH2 0x1CD3 PUSH1 0x40 DUP4 ADD DUP7 PUSH2 0xFB7 JUMP JUMPDEST PUSH2 0x1CE0 PUSH1 0x60 DUP4 ADD DUP6 PUSH2 0xFB7 JUMP JUMPDEST PUSH2 0x1CED PUSH1 0x80 DUP4 ADD DUP5 PUSH2 0xFB7 JUMP JUMPDEST SWAP8 SWAP7 POP POP POP POP POP POP POP JUMP INVALID LOG2 PUSH5 0x6970667358 0x22 SLT KECCAK256 PUSH27 0x1ADCA6AFFAACAB0FB8D7E6A8ED3AE506382B68EF55633F78EDBFF6 BLOCKHASH LOG0 PUSH2 0xE064 PUSH20 0x6F6C634300081E00330000000000000000000000 "
				},
				"gasEstimates": {
					"creation": {
						"codeDepositCost": "1494000",
						"executionCost": "infinite",
						"totalCost": "infinite"
					},
					"external": {
						"admin()": "2574",
						"closeHedge(uint256)": "infinite",
						"createHedge(string,uint256,uint256,uint256)": "infinite",
						"getUserPositions(address)": "infinite",
						"oracle()": "infinite",
						"positions(uint256)": "infinite",
						"totalPositions()": "2528",
						"usdt()": "infinite",
						"userPositions(address,uint256)": "infinite"
					}
				},
				"methodIdentifiers": {
					"admin()": "f851a440",
					"closeHedge(uint256)": "817f9bc4",
					"createHedge(string,uint256,uint256,uint256)": "dc0cc932",
					"getUserPositions(address)": "2a6bc2dd",
					"oracle()": "7dc0d1d0",
					"positions(uint256)": "99fbab88",
					"totalPositions()": "fda1fa5f",
					"usdt()": "2f48ab7d",
					"userPositions(address,uint256)": "5e1b4d99"
				}
			},
			"storageLayout": {
				"storage": [
					{
						"astId": 40,
						"contract": "HedgeContract.sol:HedgeContract",
						"label": "oracle",
						"offset": 0,
						"slot": "0",
						"type": "t_contract(IPriceOracle)9"
					},
					{
						"astId": 43,
						"contract": "HedgeContract.sol:HedgeContract",
						"label": "usdt",
						"offset": 0,
						"slot": "1",
						"type": "t_contract(IERC20)37"
					},
					{
						"astId": 45,
						"contract": "HedgeContract.sol:HedgeContract",
						"label": "admin",
						"offset": 0,
						"slot": "2",
						"type": "t_address"
					},
					{
						"astId": 64,
						"contract": "HedgeContract.sol:HedgeContract",
						"label": "positions",
						"offset": 0,
						"slot": "3",
						"type": "t_array(t_struct(HedgePosition)60_storage)dyn_storage"
					},
					{
						"astId": 69,
						"contract": "HedgeContract.sol:HedgeContract",
						"label": "userPositions",
						"offset": 0,
						"slot": "4",
						"type": "t_mapping(t_address,t_array(t_uint256)dyn_storage)"
					}
				],
				"types": {
					"t_address": {
						"encoding": "inplace",
						"label": "address",
						"numberOfBytes": "20"
					},
					"t_array(t_struct(HedgePosition)60_storage)dyn_storage": {
						"base": "t_struct(HedgePosition)60_storage",
						"encoding": "dynamic_array",
						"label": "struct HedgeContract.HedgePosition[]",
						"numberOfBytes": "32"
					},
					"t_array(t_uint256)dyn_storage": {
						"base": "t_uint256",
						"encoding": "dynamic_array",
						"label": "uint256[]",
						"numberOfBytes": "32"
					},
					"t_bool": {
						"encoding": "inplace",
						"label": "bool",
						"numberOfBytes": "1"
					},
					"t_contract(IERC20)37": {
						"encoding": "inplace",
						"label": "contract IERC20",
						"numberOfBytes": "20"
					},
					"t_contract(IPriceOracle)9": {
						"encoding": "inplace",
						"label": "contract IPriceOracle",
						"numberOfBytes": "20"
					},
					"t_mapping(t_address,t_array(t_uint256)dyn_storage)": {
						"encoding": "mapping",
						"key": "t_address",
						"label": "mapping(address => uint256[])",
						"numberOfBytes": "32",
						"value": "t_array(t_uint256)dyn_storage"
					},
					"t_string_storage": {
						"encoding": "bytes",
						"label": "string",
						"numberOfBytes": "32"
					},
					"t_struct(HedgePosition)60_storage": {
						"encoding": "inplace",
						"label": "struct HedgeContract.HedgePosition",
						"members": [
							{
								"astId": 47,
								"contract": "HedgeContract.sol:HedgeContract",
								"label": "owner",
								"offset": 0,
								"slot": "0",
								"type": "t_address"
							},
							{
								"astId": 49,
								"contract": "HedgeContract.sol:HedgeContract",
								"label": "commodity",
								"offset": 0,
								"slot": "1",
								"type": "t_string_storage"
							},
							{
								"astId": 51,
								"contract": "HedgeContract.sol:HedgeContract",
								"label": "amount",
								"offset": 0,
								"slot": "2",
								"type": "t_uint256"
							},
							{
								"astId": 53,
								"contract": "HedgeContract.sol:HedgeContract",
								"label": "strikePrice",
								"offset": 0,
								"slot": "3",
								"type": "t_uint256"
							},
							{
								"astId": 55,
								"contract": "HedgeContract.sol:HedgeContract",
								"label": "expireAt",
								"offset": 0,
								"slot": "4",
								"type": "t_uint256"
							},
							{
								"astId": 57,
								"contract": "HedgeContract.sol:HedgeContract",
								"label": "lockedValue",
								"offset": 0,
								"slot": "5",
								"type": "t_uint256"
							},
							{
								"astId": 59,
								"contract": "HedgeContract.sol:HedgeContract",
								"label": "closed",
								"offset": 0,
								"slot": "6",
								"type": "t_bool"
							}
						],
						"numberOfBytes": "224"
					},
					"t_uint256": {
						"encoding": "inplace",
						"label": "uint256",
						"numberOfBytes": "32"
					}
				}
			},
			"userdoc": {
				"kind": "user",
				"methods": {
					"closeHedge(uint256)": {
						"notice": "Close hedge and receive payout"
					},
					"createHedge(string,uint256,uint256,uint256)": {
						"notice": "Create hedge and lock USDT"
					}
				},
				"version": 1
			}
		}
	}
}